:020000040800F2
:100000000000022059A400081BA2000823A2000837
:100010002BA2000833A200083BA200080000000049
:10002000000000000000000000000000B191000886
:1000300043A200080000000001940008818A000823
:10004000A9A40008A9A40008A9A40008A9A400085C
:10005000A9A40008A9A40008A9A40008A9A400084C
:10006000A9A40008A9A40008A9A40008A9A400083C
:10007000A9A40008A9A40008A9A40008A9A400082C
:10008000A9A40008A9A40008A9A400080000000071
:10009000000000000000000000000000A9A400080B
:1000A000A9A40008A9A40008A9A40008A9A40008FC
:1000B00051A20008A9A40008A9A40008A9A4000846
:1000C000A9A40008A9A40008A9A40008A9A40008DC
:1000D000A9A40008A9A40008A9A400080000000021
:1000E000A9A40008A9A40008A9A400080000000011
:1000F000000000000000000000000000A9A40008AB
:1001000000000000A9A40008A9A40008A9A40008F0
:1001100000000000000000000000000000000000DF
:10012000A9A40008A9A40008A9A40008A9A400087B
:10013000A9A400080000000000000000000000006A
:1001400000000000000000000000000065A20008A0
:10015000A9A40008A9A40008A9A40008A9A400084B
:10016000A9A40008A9A400080000000000000000E5
:10017000000000000000000000000000000000007F
:1001800000000000A9A4000800000000000000001A
:08019000A9A40008A9A40008BD
:1001A00053B94AB9002908BF00281CBF4FF0FF31DE
:1001B0004FF0FF3000F00CB8ADF1080C6DE904CE43
:1001C0000AF074F9DDF804E0DDE9022304B07047B9
:1001D000704700BF0348044B834202D0034B03B176
:1001E00018477047000100200001002000000000B7
:1001F0000548064B1B1AD90F01EBA301491002D089
:10020000034B03B118477047000100200001002094
:100210000000000010B5064C237843B9FFF7DAFF61
:10022000044B13B10448AFF300800123237010BDC9
:100230000001002000000000C0A7000808B5054B21
:100240001BB105490548AFF30080BDE80840FFF742
:10025000CFBF00BF0000000004010020C0A70008BD
:1002600002440346934200D1704703F8011BF9E7AB
:1002700070B50D4B0D4D5B1B9C100026A64209D19D
:100280000AF09EFA0A4D0B4B5B1B9C100026A642FF
:1002900005D170BD55F8043B98470136EEE755F897
:1002A000043B98470136F2E7BCA80008BCA8000848
:1002B000BCA80008C0A8000880B400AF064BD3F863
:1002C0008830054A43F47003C2F8883000BFBD4649
:1002D0005DF8047B704700BF00ED00E080B582B0A0
:1002E00000AF78607B68002B01D1012341E07B687F
:1002F00093F83D30DBB2002B06D17B68002283F8F7
:100300003C20786800F039F87B68022283F83D20B1
:100310007B681A687B6804331946104600F0B2F90E
:100320007B68012283F846207B68012283F83E2007
:100330007B68012283F83F207B68012283F84020FC
:100340007B68012283F841207B68012283F84220E8
:100350007B68012283F843207B68012283F84420D4
:100360007B68012283F845207B68012283F83D20C9
:10037000002318460837BD4680BD80B483B000AF67
:10038000786000BF0C37BD465DF8047B7047000005
:1003900080B485B000AF78607B6893F83D30DBB205
:1003A000012B01D0012344E07B68022283F83D2029
:1003B0007B681B68DA687B681B6842F00102DA60C0
:1003C0007B681B681E4A934218D07B681B68B3F198
:1003D000804F13D07B681B681A4A93420ED07B680B
:1003E0001B68194A934209D07B681B68174A9342DD
:1003F00004D07B681B68164A934211D17B681B6846
:100400009B6803F00703FB60FB68062B10D07B683A
:100410001B681A687B681B6842F001021A6007E0DB
:100420007B681B681A687B681B6842F001021A60CF
:10043000002318461437BD465DF8047B704700BFA3
:10044000000001400004004000080040000C004093
:100450000040014080B584B000AF78607B681B68C5
:10046000DB68FB607B681B681B69BB60BB6803F0D3
:100470000203002B20D0FB6803F00203002B1BD0EB
:100480007B681B686FF002021A617B6801221A7791
:100490007B681B689B6903F00303002B03D078681B
:1004A00000F0D2F805E0786800F0C4F8786800F051
:1004B000D5F87B6800221A77BB6803F00403002B91
:1004C00020D0FB6803F00403002B1BD07B681B6863
:1004D0006FF004021A617B6802221A777B681B683E
:1004E0009B6903F44073002B03D0786800F0ACF8EC
:1004F00005E0786800F09EF8786800F0AFF87B6857
:1005000000221A77BB6803F00803002B20D0FB6899
:1005100003F00803002B1BD07B681B686FF00802F8
:100520001A617B6804221A777B681B68DB6903F019
:100530000303002B03D0786800F086F805E07868A4
:1005400000F078F8786800F089F87B6800221A7764
:10055000BB6803F01003002B20D0FB6803F01003EE
:10056000002B1BD07B681B686FF010021A617B6840
:1005700008221A777B681B68DB6903F44073002B41
:1005800003D0786800F060F805E0786800F052F871
:10059000786800F063F87B6800221A77BB6803F084
:1005A0000103002B0CD0FB6803F00103002B07D0E4
:1005B0007B681B686FF001021A61786809F02EF9F8
:1005C000BB6803F08003002B0CD0FB6803F08003B2
:1005D000002B07D07B681B686FF080021A61786877
:1005E00000F0E0F8BB6803F04003002B0CD0FB6880
:1005F00003F04003002B07D07B681B686FF04002BC
:100600001A61786800F034F8BB6803F02003002B0F
:100610000CD0FB6803F02003002B07D07B681B681D
:100620006FF020021A61786800F0B2F800BF10374E
:10063000BD4680BD80B483B000AF786000BF0C378A
:10064000BD465DF8047B704780B483B000AF78602E
:1006500000BF0C37BD465DF8047B704780B483B0A3
:1006600000AF786000BF0C37BD465DF8047B704773
:1006700080B483B000AF786000BF0C37BD465DF832
:10068000047B704780B485B000AF786039607B68C8
:100690001B68FB607B68374A93420FD07B68B3F1DD
:1006A000804F0BD07B68344A934207D07B68334A33
:1006B000934203D07B68324A934208D1FB6823F00F
:1006C0007003FB603B685B68FA681343FB607B6800
:1006D000284A93421BD07B68B3F1804F17D07B68C8
:1006E000254A934213D07B68244A93420FD07B68FB
:1006F000234A93420BD07B68224A934207D07B68FF
:10070000214A934203D07B68204A934208D1FB6878
:1007100023F44073FB603B68DB68FA681343FB60BB
:10072000FB6823F080023B685B691343FB603B6816
:100730009A687B68DA623B681A687B689A627B68B1
:100740000C4A934203D13B681A697B681A637B6841
:100750001B6843F004027B681A607B6801225A61BF
:100760007B68FA681A6000BF1437BD465DF8047BE9
:10077000704700BF00000140000400400008004036
:10078000000C00400040014000440140004801408E
:1007900080B483B000AF786000BF0C37BD465DF811
:1007A000047B704780B483B000AF786000BF0C3723
:1007B000BD465DF8047B704780B586B002AF7860B7
:1007C0007B68002B01D1012301E17B681B68BB60C2
:1007D0007B6893F89534DBB2002B06D17B6800224E
:1007E00083F89424786809F05FF87B68032283F823
:1007F0009524BB68B3F1A04F02D17B6800229A71A7
:100800007B681B68184601F040FB7B6818687B68B2
:100810001A7C8DF8002004330ECB01F01FFA03463A
:10082000002B05D07B68022283F895240123CEE0BB
:100830007B681B680021184601F038FB0346002B3B
:1008400005D07B68022283F895240123BFE00023B2
:10085000FB734AE0FA7B79681346DB0013449B0084
:100860000B44153301221A70FA7B79681346DB00BA
:1008700013449B000B441433FA7B1A70FA7BFB7B06
:1008800098B279681346DB0013449B000B442E3367
:1008900002461A80FA7B79681346DB0013449B00FA
:1008A0000B44183300221A70FA7B79681346DB0078
:1008B00013449B000B441C3300221A60FA7B7968B6
:1008C0001346DB0013449B000B44203300221A60C4
:1008D000FA7B79681346DB0013449B000B442433F6
:1008E00000221A60FB7B0133FB737B681B79FA7B68
:1008F0009A42AFD30023FB7344E0FA7B7968134636
:10090000DB0013449B000B4403F2552300221A70B2
:10091000FA7B79681346DB0013449B000B4403F514
:100920001573FA7B1A70FA7B79681346DB0013445F
:100930009B000B4403F5167300221A70FA7B79684A
:100940001346DB0013449B000B4403F5177300228E
:100950001A60FA7B79681346DB0013449B000B4452
:1009600003F5187300221A60FA7B79681346DB00DE
:1009700013449B000B4403F5197300221A60FB7BA0
:100980000133FB737B681B79FA7B9A42B5D37B6892
:1009900018687B681A7C8DF8002004330ECB01F0B8
:1009A000D1FA0346002B05D07B68022283F89524F8
:1009B00001230CE07B6800225A747B68012283F8D3
:1009C00095247B681B68184602F01BFB0023184621
:1009D0001037BD4680BD80B584B000AF78607B68BD
:1009E0001B68FB607B6893F89434012B01D10223D0
:1009F00022E07B68012283F89424FB68DB6803F023
:100A00004003002B09D07B685B7B012B05D1FB6881
:100A10009B6B43F48032FB689A637B681B681846C3
:100A200001F022FA7B681B68184602F0C9FA7B685D
:100A3000002283F89424002318461037BD4680BD59
:100A400090B58DB000AF78607B681B683B623B6AF5
:100A5000FB617B681B68184602F087FB0346002B8E
:100A600040F08C847B681B68184602F0EBFA034662
:100A7000002B00F08284FB6903F500639B681B0A6E
:100A8000C3F30D027B68C3F8D4247B681B68184647
:100A900002F0D8FA034603F00203022B07D17B6869
:100AA0001B685A697B681B6802F002025A617B6806
:100AB0001B68184602F0C6FA034603F01003102B19
:100AC00061D17B681B689A697B681B6822F0100201
:100AD0009A613B6A1B6ABB61BB6903F00F02134654
:100AE000DB0013449B0003F514737A68134404334A
:100AF0007B61BB6903F4F013B3F5802F24D1BA698D
:100B000047F6F0731340002B35D07B69D968BB6979
:100B10001B099BB2C3F30A039BB21A46386A02F060
:100B2000FDF87B69DA68BB691B09C3F30A031A4441
:100B30007B69DA607B695A69BB691B09C3F30A03E5
:100B40001A447B695A6116E0BB6903F4F013B3F5EC
:100B5000402F10D17B6803F29C4308221946386A63
:100B600002F0DCF87B695A69BB691B09C3F30A030D
:100B70001A447B695A617B681B689A697B681B68A9
:100B800042F010029A617B681B68184602F05AFA1C
:100B9000034603F40023B3F5002F40F0A7800023A1
:100BA0007B627B681B68184602F05FFAB86299E0C6
:100BB000BB6A03F00103002B00F08E807B681B688A
:100BC0007A6AD2B21146184602F083FA38613B695C
:100BD00003F00103002B0CD07B6A5A01FB6913441C
:100BE00003F530631A4601239360796A786800F050
:100BF000A3FE3B6903F00803002B0CD07B6A5A016B
:100C0000FB69134403F530631A4608239360796A3D
:100C1000786800F079FF3B6903F01003002B08D0DF
:100C20007B6A5A01FB69134403F530631A461023AB
:100C300093603B6903F00203002B30D03B6A5B6991
:100C400003F08003802B09D1FB6903F500635B6827
:100C5000FA6902F5006243F4806353607A6A1346CE
:100C6000DB0013449B0003F514737A6813440433C8
:100C70007B617B69DB78012B08D17B690022DA700C
:100C80007B6ADBB21946786808F00AFF7B6A5A0172
:100C9000FB69134403F530631A46022393603B69F2
:100CA00003F02003002B08D07B6A5A01FB69134430
:100CB00003F530631A46202393603B6903F4005325
:100CC000002B09D07B6A5A01FB69134403F530639A
:100CD0001A464FF4005393607B6A01337B62BB6A10
:100CE0005B08BB62BB6A002B7FF462AF7B681B684A
:100CF000184602F0A7F9034603F48023B3F5802FCA
:100D000040F0DB807B681B68184602F0C8F9B862C7
:100D100000237B62CDE0BB6A03F00103002B00F0EF
:100D2000C2807B681B687A6AD2B21146184602F00C
:100D3000EEF938613B6903F00103002B57D07B6A61
:100D400003F00F03012202FA03F3FB60FB6903F5D2
:100D500000635A6BFB68DB43F96901F500611340DE
:100D60004B637B6A5A01FB69134403F510631A460F
:100D7000012393607B689B79012B32D179687A6A71
:100D80001346DB0013449B000B442033196878683A
:100D90007A6A1346DB0013449B0003441C331B6830
:100DA000194478687A6A1346DB0013449B000344B5
:100DB000203319607B6A002B13D179687A6A134655
:100DC000DB0013449B000B4424331B68002B08D129
:100DD0007B6818687B6803F29C431A46012102F085
:100DE000F5F97B6ADBB21946786808F0DEFD3B69ED
:100DF00003F00803002B08D07B6A5A01FB691344F7
:100E000003F510631A46082393603B6903F010034F
:100E1000002B08D07B6A5A01FB69134403F5106369
:100E20001A46102393603B6903F04003002B08D05F
:100E30007B6A5A01FB69134403F510631A46402389
:100E400093603B6903F00203002B23D0796A386A70
:100E500001F0DCF97A6A1346DB0013449B0010337F
:100E60007A68134404337B617B69DB78012B08D1FA
:100E70007B690022DA707B6ADBB21946786808F079
:100E800021FE7B6A5A01FB69134403F510631A467D
:100E9000022393603B6903F08003002B03D0796A3F
:100EA000786800F0BDFC7B6A01337B62BB6A5B083B
:100EB000BB62BB6A002B7FF42EAF7B681B681846B1
:100EC00002F0C0F8034603F00043B3F1004F22D113
:100ED000FB6903F500635B68FA6902F5006223F0C1
:100EE000010353607B6893F8CC34012B08D17B68F5
:100EF000002283F8CC240021786800F0A3FE02E0F1
:100F0000786808F0BFFD7B681B685A697B681B68BE
:100F100002F000425A617B681B68184602F092F8A2
:100F2000034603F40063B3F5006F12D1FB6903F5C8
:100F300000639B6803F00103012B02D1786808F07D
:100F40007BFD7B681B685A697B681B6802F4006242
:100F50005A617B681B68184602F074F8034603F474
:100F60008053B3F5805F40F0B780FB6903F5006301
:100F70005B68FA6902F5006223F0010353607B6845
:100F80001B681021184601F041F90023FB6246E07E
:100F9000FB6A5A01FB69134403F510631A464FF6C6
:100FA0007F339360FB6A5A01FB69134403F51063B6
:100FB0001B68FA6A5101FA690A4402F5106223F4C7
:100FC00000131360FB6A5A01FB69134403F5306395
:100FD0001A464FF67F339360FB6A5A01FB6913444C
:100FE00003F530631B68FA6A5101FA690A4402F595
:100FF000306223F400131360FB6A5A01FB69134447
:1010000003F530631B68FA6A5101FA690A4402F574
:10101000306243F000631360FB6A0133FB627B685C
:101020001B791A46FB6A9342B2D3FB6903F500634E
:10103000DB69FA6902F5006243F00113D3617B6852
:10104000DB7B002B16D0FB6903F50063D3F88430FB
:10105000FA6902F5006243F00B03C2F88430FB69C1
:1010600003F500635B6CFA6902F5006243F00B0361
:10107000536415E0FB6903F500635B69FA6902F5E7
:10108000006243F4005343F02B035361FB6903F503
:1010900000631B69FA6902F5006243F00B031361F8
:1010A000FB6903F500631B68FA6902F5006223F42B
:1010B000FE6313607B6818687B6899797B6803F22C
:1010C0009C431A4602F082F87B681B685A697B6869
:1010D0001B6802F480525A617B681B68184601F055
:1010E000B1FF034603F40053B3F5005F23D17B68DF
:1010F0001B68184602F047F87B681B68184601F029
:10110000FEF803461A467B68DA717B681C6802F0B9
:1011100057FD01467B68DB791A46204600F002FE47
:10112000786808F06AFC7B681B685A697B681B68F2
:1011300002F400525A617B681B68184601F082FF76
:10114000034603F00803082B0AD1786808F047FC2F
:101150007B681B685A697B681B6802F008025A6149
:101160007B681B68184601F06DFF034603F080039F
:10117000802B23D13B6A9B6923F080023B6A9A61F2
:1011800001237B6214E079687A6A1346DB0013441A
:101190009B000B4403F257231B78012B05D17B6A7C
:1011A000DBB21946786800F00AFB7B6A01337B6288
:1011B0007B681B791A467B6A9342E4D37B681B6881
:1011C000184601F03FFF034603F48013B3F5801F78
:1011D0003CD101237B622BE07B6A5A01FB691344FB
:1011E00003F510631B68BB6179687A6A1346DB00FC
:1011F00013449B000B4418331B78012B15D1BB699A
:10120000002B12DA79687A6A1346DB0013449B00DC
:101210000B44173301221A707B6ADBB263F07F0341
:10122000DBB21946786800F0CAFA7B6A01337B6248
:101230007B681B791A467B6A9342CDD37B681B6817
:101240005A697B681B6802F480125A617B681B68CC
:10125000184601F0F7FE034603F40013B3F5001F30
:1012600056D101237B6245E07B6A5A01FB69134436
:1012700003F530631B68BB6179687A6A1346DB004B
:1012800013449B000B4403F516731B78012B2ED1DE
:10129000BB69002B2BDABB691A0C7B68D3F8D434FA
:1012A000534003F00103002B21D179687A6A134679
:1012B000DB0013449B000B4403F2572301221A70F6
:1012C0003B6A9B6943F080023B6A9A613B6A5B69B7
:1012D00003F08003002B0AD1FB6903F500635B6810
:1012E000FA6902F5006243F40073536008E07B6A18
:1012F00001337B627B681B791A467B6A9342B3D3C6
:101300007B681B685A697B681B6802F400125A618B
:101310007B681B68184601F095FE034603F0804386
:10132000B3F1804F0AD1786808F0DEFB7B681B6858
:101330005A697B681B6802F080425A617B681B68AF
:10134000184601F07FFE034603F00403042B15D179
:101350007B681B685B68BB61BB6903F00403002BFF
:1013600002D0786808F0CEFB7B681B6859687B6800
:101370001B68BA690A435A6000E000BF3437BD46B3
:1013800090BD80B582B000AF78600B46FB707B6883
:1013900093F89434012B01D1022312E07B680122DF
:1013A00083F894247B68FA785A747B681B68FA780F
:1013B0001146184601F0DEFD7B68002283F8942474
:1013C000002318460837BD4680BD80B584B000AF05
:1013D0007860084611461A460346FB700B463B8070
:1013E0001346BB700023FB7297F90330002B0FDA12
:1013F000FB7803F00F021346DB0013449B0010330D
:101400007A6813440433FB60FB6801225A700FE0D2
:10141000FB7803F00F021346DB0013449B0003F537
:1014200014737A6813440433FB60FB6800225A701B
:10143000FB7803F00F03DAB2FB681A703B88C3F342
:101440000A02FB689A60FB68BA781A71FB685B78DD
:10145000002B04D0FB681B781A46FB685A83BB78C4
:10146000022B02D1FB6800225A717B6893F89434F6
:10147000012B01D102230EE07B68012283F8942422
:101480007B681B68F968184600F05EFF7B680022E5
:1014900083F89424FB7A18461037BD4680BD80B58A
:1014A00084B000AF78600B46FB7097F90330002BD7
:1014B0000FDAFB7803F00F021346DB0013449B00A6
:1014C00010337A6813440433FB60FB6801225A70BE
:1014D0000FE0FB7803F00F021346DB0013449B0080
:1014E00003F514737A6813440433FB60FB6800222D
:1014F0005A70FB7803F00F03DAB2FB681A707B684E
:1015000093F89434012B01D102230EE07B68012271
:1015100083F894247B681B68F968184600F09CFFE8
:101520007B68002283F89424002318461037BD46B8
:1015300080BD80B586B000AFF8607A603B600B4636
:10154000FB72FB7A03F00F021346DB0013449B008F
:1015500003F51473FA68134404337B617B697A687A
:10156000DA607B693A681A617B6900225A617B699B
:1015700000225A70FB7A03F00F03DAB27B691A700B
:10158000FB689B79012B02D17A687B69DA61FB6881
:101590001868FB689B791A46796901F039F80023CD
:1015A00018461837BD4680BD80B483B000AF786060
:1015B0000B46FB70FB7803F00F0279681346DB00E3
:1015C00013449B000B4403F51A731B6818460C3731
:1015D000BD465DF8047B704780B586B000AFF8600B
:1015E0007A603B600B46FB72FB7A03F00F021346F6
:1015F000DB0013449B001033FA68134404337B610F
:101600007B697A68DA607B693A681A617B690022D3
:101610005A617B6901225A70FB7A03F00F03DAB238
:101620007B691A70FB689B79012B02D17A687B6910
:10163000DA61FB681868FB689B791A46796900F0E3
:10164000E7FF002318461837BD4680BD80B584B03B
:1016500000AF78600B46FB70FB7803F00F037A68ED
:101660001279934201D901234FE097F90330002BFF
:101670000FDAFB7803F00F021346DB0013449B00E4
:1016800010337A6813440433FB60FB6801225A70FC
:101690000DE0FA781346DB0013449B0003F5147346
:1016A0007A6813440433FB60FB6800225A70FB68BD
:1016B00001229A70FB7803F00F03DAB2FB681A700C
:1016C0007B6893F89434012B01D102231DE07B68E1
:1016D000012283F894247B681B68F968184601F09E
:1016E00075FBFB7803F00F03002B09D17B681868AA
:1016F0007B6899797B6803F29C431A4601F066FD8A
:101700007B68002283F89424002318461037BD46D6
:1017100080BD80B584B000AF78600B46FB70FB786D
:1017200003F00F037A681279934201D9012342E052
:1017300097F90330002B0FDAFB7803F00F02134602
:10174000DB0013449B0010337A6813440433FB60BE
:10175000FB6801225A700FE0FB7803F00F0213467A
:10176000DB0013449B0003F514737A6813440433BD
:10177000FB60FB6800225A70FB6800229A70FB78BD
:1017800003F00F03DAB2FB681A707B6893F89434A5
:10179000012B01D102230EE07B68012283F89424FF
:1017A0007B681B68F968184601F07EFB7B680022A5
:1017B00083F89424002318461037BD4680BD80B5B9
:1017C00084B000AF78600B46FB7097F90330002BB4
:1017D0000CDAFB7803F00F021346DB0013449B0086
:1017E00010337A6813440433FB600CE0FB7803F099
:1017F0000F021346DB0013449B0003F514737A6851
:1018000013440433FB607B681B68F968184601F0D9
:101810009DF90346FB72FB7A18461037BD4680BD22
:1018200080B58AB002AF786039607B681B687B61E5
:101830007B693B613A681346DB0013449B0010331D
:101840007A6813440433FB60FB685A69FB681B69C0
:101850009A4201D901236BE0FB681A69FB685B6956
:10186000D31AFB61FB689B68FA699A4202D9FB684C
:101870009B68FB61FB6903339B08BB612AE0FB6843
:101880001A69FB685B69D31AFB61FB689B68FA699C
:101890009A4202D9FB689B68FB61FB6903339B0892
:1018A000BB61FB68D9683B68DAB2FB6998B27B68B8
:1018B0009B7900930346786901F0F2F9FB68DA68D6
:1018C000FB691A44FB68DA60FB685A69FB691A44D1
:1018D000FB685A613B685A013B69134403F5106386
:1018E0009B699BB2BA699A4209D8FB685A69FB683E
:1018F0001B699A4203D2FB681B69002BBFD1FB68AE
:101900001A69FB685B699A4211D83B6803F00F03C0
:10191000012202FA03F3BB603B6903F500635A6BD3
:10192000BB68DB43396901F5006113404B63002359
:1019300018462037BD4680BD80B588B000AF7860BE
:1019400039607B681B68FB61FB69BB61FB693C33E9
:1019500004331B687B613B685A01BB69134403F580
:1019600030639B683B617B689B79012B7BD13B6932
:1019700003F00803002B15D07B69614A934240F2C3
:10198000B9803B6903F40043002B00F0B3803B684F
:101990005A01BB69134403F530631A464FF4004300
:1019A0009360A7E03B6903F02003002B09D03B685C
:1019B0005A01BB69134403F530631A462023936030
:1019C00098E03B6903F02803002B40F093807B698B
:1019D0004B4A93420FD93B6903F40043002B0AD0D2
:1019E0003B685A01BB69134403F530631A464FF450
:1019F000004393607EE03A681346DB0013449B008B
:101A000003F514737A6813440433FB60FB681A6AA5
:101A10003B685901BB690B4403F530631B69C3F391
:101A20001203D21AFB685A613B68002B14D1FB6881
:101A30001B69002B09D17B6818687B6803F29C4303
:101A40001A46012101F0C2FB06E0FB68DA68FB6878
:101A50005B691A44FB68DA603B68DBB21946786858
:101A600007F088FF46E07B69264A934224D13B6910
:101A700003F40043002B0AD03B685A01BB691344AE
:101A800003F530631A464FF40043936032E03B693C
:101A900003F02003002B08D03B685A01BB691344B4
:101AA00003F530631A46202393603B68DBB2194686
:101AB000786807F05FFF1DE03B68002B14D1796860
:101AC0003A681346DB0013449B000B4403F519737B
:101AD0001B68002B08D17B6818687B6803F29C4365
:101AE0001A46002101F072FB3B68DBB219467868A8
:101AF00007F040FF002318462037BD4680BD00BFD9
:101B00000A30544F0A31544F80B586B000AF786028
:101B100039607B681B687B617B693B617B693C3317
:101B200004331B68FB603B685A013B69134403F5AF
:101B300030639B68BB60FB68154A93420ED9BB6853
:101B400003F40043002B09D03B685A013B6913445E
:101B500003F530631A464FF400439360786807F04A
:101B6000F7FEFB680A4A93420CD97B689B79012BEC
:101B700008D17B6818687B6803F29C431A460121F0
:101B800001F024FB002318461837BD4680BD00BF76
:101B90000A30544F80B485B000AF78600B46FB70BC
:101BA00013463B807B681B685B6ABB60FB78002B3D
:101BB00007D13B8819047B681B68BA680A439A629C
:101BC00028E07B681B689B6A1B0CBA681344BB60E7
:101BD0000023FB730DE07B681A68FB7B40339B009E
:101BE00013445B681B0CBA681344BB60FB7B013376
:101BF000FB73FA7BFB78013B9A42ECD33B881804D9
:101C00007B681968FB78013BBA68024340339B004C
:101C10000B445A60002318461437BD465DF8047B18
:101C2000704780B483B000AF78600B467B807B68E0
:101C30001B687A885A62002318460C37BD465DF847
:101C4000047B704780B483B000AF78600B46FB70B4
:101C500000BF0C37BD465DF8047B704784B080B58B
:101C600084B000AF786007F11C0080E80E0097F8A0
:101C70002130012B23D17B689B6B23F480327B685E
:101C80009A637B68DB6823F4840323F040037A685B
:101C9000D3607B68DB6823F440127B68DA6097F8D6
:101CA0002830012B05D17B68DB6843F480127B6808
:101CB000DA60786801F0E8FA0346FB731BE07B68A2
:101CC000DB6843F040027B68DA60786801F0DCFA98
:101CD0000346FB7397F82530002B06D17B689B6B7E
:101CE00043F480327B689A6305E07B689B6B23F446
:101CF00080327B689A63BB7F012B0BD17B689B682A
:101D000043F006027B689A607B689B6843F0200280
:101D10007B689A60FB7B18461037BD46BDE8804063
:101D200004B0704780B487B000AFF860B960134664
:101D3000FB71FB79022B65D1BB68414A934206D9FE
:101D4000BB68404A934202D20F237B6162E0BB68CA
:101D50003C4A934206D3BB683B4A934202D20E23CD
:101D60007B6157E0BB68384A934206D3BB68374A69
:101D7000934202D20D237B614CE0BB68334A93420D
:101D800006D3BB68324A934202D80C237B6141E000
:101D9000BB682F4A934206D9BB682E4A934202D8A9
:101DA0000B237B6136E0BB682A4A934206D9BB68A5
:101DB000294A934202D80A237B612BE0BB68264A5A
:101DC000934206D9BB68254A934202D209237B611C
:101DD00020E0BB68214A934206D3BB68204A934265
:101DE00002D808237B6115E0BB681D4A934206D9DF
:101DF000BB681C4A934202D207237B610AE0062398
:101E00007B6107E0FB79002B02D109237B6101E0B4
:101E100009237B61FB68DB6823F47052FB68DA609E
:101E2000FB68DA687B699B0203F470531A43FB6812
:101E3000DA60002318461C37BD465DF8047B704706
:101E4000BFACD800C0E1E4000024F40080730601B8
:101E50009F491A01FF2C31013FA44C0100366E014D
:101E60001FABA6010048E80180B483B000AF7860E2
:101E70007B689B6843F001027B689A6000231846E8
:101E80000C37BD465DF8047B704780B483B000AF6B
:101E900078607B689B6823F001027B689A6000236E
:101EA00018460C37BD465DF8047B704780B584B09A
:101EB00000AF78600B46FB700023FB607B68DB683B
:101EC00023F0C0427B68DA60FB78012B15D17B6878
:101ED000DB6843F000527B68DA600A2002F0B2F956
:101EE000FB680A33FB60786801F03FF90346012B79
:101EF0001ED0FB68C72BF0D91AE0FB78002B15D158
:101F00007B68DB6843F080427B68DA600A2002F07D
:101F100099F9FB680A33FB60786801F026F90346FB
:101F2000002B05D0FB68C72BF0D901E0012305E0A9
:101F3000FB68C82B01D1012300E0002318461037AD
:101F4000BD4680BD84B080B586B000AF786007F133
:101F5000240080E80E000023FB757B68FB600023F3
:101F60003B6109E07A683B6940339B0013440022DF
:101F70005A603B6901333B613B690E2BF2D997F8FC
:101F80002E30002B1CD1FB6803F500635B68FA68F8
:101F900002F5006243F0020353607B689B6B43F4DD
:101FA00000127B689A637B689B6B23F400227B683A
:101FB0009A637B689B6B23F480227B689A630BE0B7
:101FC0007B689B6B23F400127B689A637B689B6B36
:101FD00043F400227B689A63FB6803F560631A464A
:101FE0000023136097F82930012B0DD197F8273083
:101FF000002B04D10021786800F068F908E0012185
:10200000786800F063F903E00321786800F05EF976
:102010001021786800F0FAF80346002B01D0012364
:10202000FB75786800F024F90346002B01D00123EA
:10203000FB75FB6803F500631A4600231361FB6818
:1020400003F500631A4600235361FB6803F5006340
:102050001A460023D36100233B6143E03B695A01E8
:10206000FB68134403F510631B6803F00043B3F1EE
:10207000004F18D13B69002B0AD13B695A01FB681C
:10208000134403F510631A464FF00063136013E026
:102090003B695A01FB68134403F510631A464FF07D
:1020A0009043136008E03B695A01FB68134403F551
:1020B00010631A46002313603B695A01FB681344FE
:1020C00003F510631A46002313613B695A01FB684C
:1020D000134403F510631A464FF67F3393603B6950
:1020E00001333B6197F824301A463B699342B5D3DC
:1020F00000233B6143E03B695A01FB68134403F54D
:1021000030631B6803F00043B3F1004F18D13B6903
:10211000002B0AD13B695A01FB68134403F5306375
:102120001A464FF00063136013E03B695A01FB68E5
:10213000134403F530631A464FF09043136008E0F0
:102140003B695A01FB68134403F530631A460023C8
:1021500013603B695A01FB68134403F530631A4668
:10216000002313613B695A01FB68134403F5306394
:102170001A464FF67F3393603B6901333B6197F812
:1021800024301A463B699342B5D3FB6803F50063DC
:102190001B69FA6802F5006223F4807313617B689F
:1021A00000229A617B686FF080425A6197F826306E
:1021B000002B05D17B689B6943F010027B689A6114
:1021C0007B689A69104B13437A68936197F82A30B9
:1021D000002B05D07B689B6943F008027B689A61FD
:1021E00097F82E30012B07D17B689B6943F0804321
:1021F00043F004037A689361FB7D18461837BD46A7
:10220000BDE8804004B0704700383C8080B485B0A1
:1022100000AF786039600023FB60FB680133FB602E
:10222000FB68B3F1706F01D903231BE07B681B6966
:10223000002BF2DA0023FB603B689B0143F0200295
:102240007B681A61FB680133FB60FB68B3F1706F58
:1022500001D9032306E07B681B6903F02003202BD0
:10226000F0D0002318461437BD465DF8047B704754
:1022700080B485B000AF78600023FB60FB68013359
:10228000FB60FB68B3F1706F01D9032318E07B6832
:102290001B69002BF2DA0023FB607B6810221A61B5
:1022A000FB680133FB60FB68B3F1706F01D9032356
:1022B00006E07B681B6903F01003102BF0D00023AD
:1022C00018461437BD465DF8047B704780B485B06E
:1022D00000AF78600B46FB707B68FB60FB6803F522
:1022E00000631A68FB78F96801F5006113430B601D
:1022F000002318461437BD465DF8047B704780B450
:1023000087B000AF78607B683B613B6903F5006391
:102310009B6803F00603FB60FB68002B02D10023DF
:10232000FB750AE0FB68022B02D0FB68062B02D18A
:102330000223FB7501E00F23FB75FB7D18461C375C
:10234000BD465DF8047B704780B485B000AF78600F
:1023500039607B68FB603B681B78BB603B685B78DF
:10236000012B3AD1FB6803F50063DA693B681B78FF
:1023700003F00F03012101FA03F39BB2F96801F5A1
:1023800000611343CB61BB685A01FB68134403F53A
:1023900010631B6803F40043002B55D1BB685A013E
:1023A000FB68134403F510631A683B689B68C3F32A
:1023B0000A013B681B799B041943BB689B050B43CF
:1023C0001343BA685101FA680A4402F5106243F0F7
:1023D000805343F40043136036E0FB6803F5006369
:1023E000DA693B681B7803F00F03012101FA03F35C
:1023F0001B04F96801F500611343CB61BB685A0106
:10240000FB68134403F530631B6803F40043002B9F
:102410001AD1BB685A01FB68134403F530631A688C
:102420003B689B68C3F30A013B681B799B040B4321
:102430001343BA685101FA680A4402F5306243F066
:10244000805343F400431360002318461437BD46FD
:102450005DF8047B7047000080B485B000AF786001
:1024600039607B68FB603B681B78BB603B685B78CE
:10247000012B61D1BB685A01FB68134403F510635B
:102480001B6803F00043B3F1004F1FD1BB685A0132
:10249000FB68134403F510631B68BA685101FA68BE
:1024A0000A4402F5106243F000631360BB685A01EE
:1024B000FB68134403F510631B68BA685101FA689E
:1024C0000A4402F5106243F080431360FB6803F591
:1024D0000063DA6B3B681B7803F00F03012101FAFC
:1024E00003F39BB2DB43F96801F500611340CB6352
:1024F000FB6803F50063DA693B681B7803F00F03A0
:10250000012101FA03F39BB2DB43F96801F5006195
:102510001340CB61BB685A01FB68134403F5106399
:102520001A68BB685901FB680B4403F51063194630
:10253000354B13400B6060E0BB685A01FB681344E5
:1025400003F530631B6803F00043B3F1004F1FD164
:10255000BB685A01FB68134403F530631B68BA6813
:102560005101FA680A4402F5306243F000631360D7
:10257000BB685A01FB68134403F530631B68BA68F3
:102580005101FA680A4402F5306243F08043136057
:10259000FB6803F50063DA6B3B681B7803F00F03FD
:1025A000012101FA03F31B04DB43F96801F5006123
:1025B0001340CB63FB6803F50063DA693B681B7863
:1025C00003F00F03012101FA03F31B04DB43F96855
:1025D00001F500611340CB61BB685A01FB681344ED
:1025E00003F530631A68BB685901FB680B4403F5B7
:1025F00030631946054B13400B600023184614370F
:10260000BD465DF8047B7047007833EC0078F3EF4B
:1026100080B58AB002AFF860B9601346FB71FB6801
:10262000FB61BB681B78BB61BB685B78012B40F02A
:102630007F81BB681B69002B32D1BB695A01FB69E2
:10264000134403F510631B69BA695101FA690A441E
:1026500002F5106223F0FF5323F4C0131361BB692A
:102660005A01FB69134403F510631B69BA695101F0
:10267000FA690A4402F5106243F400231361BB694E
:102680005A01FB69134403F510631B69BA695101D0
:10269000FA690A4402F51062DB0CDB04136197E06F
:1026A000BB695A01FB69134403F510631B69BA69DE
:1026B0005101FA690A4402F51062DB0CDB04136174
:1026C000BB695A01FB69134403F510631B69BA69BE
:1026D0005101FA690A4402F5106223F0FF5323F412
:1026E000C0131361BB69002B1AD1BB681A69BB68A0
:1026F0009B689A4203D9BB689A68BB681A61BB6938
:102700005A01FB69134403F510631B69BA6951014F
:10271000FA690A4402F5106243F40023136144E0AD
:10272000BB681A69BB689B6813445A1EBB689B68E8
:10273000B2FBF3F3FB82BB695A01FB69134403F557
:1027400010631A69FB8AD904A44B0B40B96948018C
:10275000F969014401F5106113430B61BB681B79F2
:10276000012B22D1BB695A01FB69134403F51063A5
:102770001B69BA695101FA690A4402F5106223F033
:10278000C0431361BB695A01FB69134403F510632D
:102790001A69FB8A5B0703F0C043B9694801F9690C
:1027A000014401F5106113430B61BB695A01FB69D8
:1027B000134403F510631A69BB681B69C3F3120362
:1027C000B9694801F969014401F5106113430B61CE
:1027D000FB79012B4BD1BB68DB69002B09D0BB69AE
:1027E0005A01FB69134403F510631A46BB68DB69A1
:1027F0005361BB681B79012B28D1FB6903F500638A
:102800009B6803F48073002B10D1BB695A01FB69EC
:10281000134403F510631B68BA695101FA690A444D
:1028200002F5106243F0005313600FE0BB695A01D8
:10283000FB69134403F510631B68BA695101FA6917
:102840000A4402F5106243F080531360BB695A01D9
:10285000FB69134403F510631B68BA695101FA69F7
:102860000A4402F5106243F00443136066E1BB6959
:102870005A01FB69134403F510631B68BA695101DF
:10288000FA690A4402F5106243F004431360BB681E
:102890001B79012B15D0BB681B69002B00F04E8102
:1028A000FB6903F500635A6BBB681B7803F00F03E9
:1028B000012101FA03F3F96901F5006113434B6348
:1028C0003CE1FB6903F500639B6803F48073002B14
:1028D00010D1BB695A01FB69134403F510631B68EF
:1028E000BA695101FA690A4402F5106243F00053D3
:1028F00013600FE0BB695A01FB69134403F51063D1
:102900001B68BA695101FA690A4402F5106243F082
:1029100080531360BB68D968BB681A78BB681B69B1
:1029200098B2FB7900930346F86800F0B9F905E125
:10293000BB695A01FB69134403F530631B69BA692B
:102940005101FA690A4402F53062DB0CDB041361C1
:10295000BB695A01FB69134403F530631B69BA690B
:102960005101FA690A4402F5306223F0FF5323F45F
:10297000C0131361BB69002B32D1BB681B69002BEC
:1029800003D0BB689A68BB681A61BB689A68BB6869
:102990001A62BB695A01FB69134403F530631A6973
:1029A000BB681B6AC3F31203B9694801F9690144A2
:1029B00001F5306113430B61BB695A01FB69134494
:1029C00003F530631B69BA695101FA690A4402F5DB
:1029D000306243F40023136162E000BF0000F81F7F
:1029E000BB681B69002B23D1BB695A01FB691344E7
:1029F00003F530631A69BB689B68C3F31203B969B6
:102A00004801F969014401F5306113430B61BB6969
:102A10005A01FB69134403F530631B69BA6951011C
:102A2000FA690A4402F5306243F40023136137E087
:102A3000BB681A69BB689B6813445A1EBB689B68D5
:102A4000B2FBF3F3FB82BB689B68FA8A03FB02F2DA
:102A5000BB681A62BB695A01FB69134403F5306312
:102A60001A69FB8AD904384B0B40B9694801F969E6
:102A7000014401F5306113430B61BB695A01FB69E5
:102A8000134403F530631A69BB681B6AC3F312036E
:102A9000B9694801F969014401F5306113430B61DB
:102AA000FB79012B0DD1BB68DB68002B09D0BB681B
:102AB000D968BB695A01FB69134403F530630A46C0
:102AC0005A61BB681B79012B28D1FB6903F50063B0
:102AD0009B6803F48073002B10D1BB695A01FB691A
:102AE000134403F530631B68BA695101FA690A445B
:102AF00002F5306243F0005313600FE0BB695A01E6
:102B0000FB69134403F530631B68BA695101FA6924
:102B10000A4402F5306243F080531360BB695A01E6
:102B2000FB69134403F530631B68BA695101FA6904
:102B30000A4402F5306243F0044313600023184650
:102B40002037BD4680BD00BF0000F81F80B487B0AD
:102B500000AF786039600023FB600023FB757B6861
:102B60003B613B685B78012B4AD13B681B785A017B
:102B70003B69134403F510631B6803F00043B3F192
:102B8000004F40F086803B681B785A013B69134434
:102B900003F510631B683A68127851013A690A44D8
:102BA00002F5106243F0006313603B681B785A0122
:102BB0003B69134403F510631B683A6812785101AE
:102BC0003A690A4402F5106243F080431360FB68DF
:102BD0000133FB60FB6842F21072934202D9012379
:102BE000FB7556E03B681B785A013B69134403F5BB
:102BF00010631B6803F00043B3F1004FE7D048E0D7
:102C00003B681B785A013B69134403F530631B682A
:102C100003F00043B3F1004F3BD13B681B785A01EE
:102C20003B69134403F530631B683A68127851011D
:102C30003A690A4402F5306243F0006313603B686E
:102C40001B785A013B69134403F530631B683A68EB
:102C5000127851013A690A4402F5306243F0804328
:102C60001360FB680133FB60FB6842F21072934211
:102C700002D90123FB750CE03B681B785A013B69C4
:102C8000134403F530631B6803F00043B3F1004FB6
:102C9000E7D0FB7D18461C37BD465DF8047B7047C6
:102CA00080B489B000AFF860B96011461A460B468F
:102CB000FB711346BB80FB687B61BB68FB6197F8C7
:102CC0002830002B23D1BB8803339B083B610023B2
:102CD000BB6118E0FB791A037B69134403F5805349
:102CE0001A46FB691B681360FB690133FB61FB69D2
:102CF0000133FB61FB690133FB61FB690133FB615C
:102D0000BB690133BB61BA693B699A42E2D30023D4
:102D100018462437BD465DF8047B704780B48BB0FD
:102D200000AFF860B9601346FB80FB68BB61BB680D
:102D30007B62FB889B089BB27B61FB8803F00303EB
:102D4000FB8300233B6214E0BB6903F580531A68E0
:102D50007B6A1A607B6A01337B627B6A01337B6228
:102D60007B6A01337B627B6A01337B623B6A01339E
:102D70003B623A6A7B699A42E6D3FB8B002B1ED0FA
:102D800000233B62BB6903F580531A4607F1100329
:102D900012681A603A693B6ADBB2DB0022FA03F37D
:102DA000DAB27B6A1A703B6A01333B627B6A013399
:102DB0007B62FB8B013BFB83FB8B002BEAD17B6AA5
:102DC00018462C37BD465DF8047B704780B485B04B
:102DD00000AF786039607B68FB603B681B78BB6044
:102DE0003B685B78012B2CD1BB685A01FB6813440C
:102DF00003F510631B68002B12DBBB68002B0FD0A0
:102E0000BB685A01FB68134403F510631B68BA687A
:102E10005101FA680A4402F5106223F080431360FE
:102E2000BB685A01FB68134403F510631B68BA685A
:102E30005101FA680A4402F5106243F4001313606A
:102E40002BE0BB685A01FB68134403F530631B6831
:102E5000002B12DBBB68002B0FD0BB685A01FB684C
:102E6000134403F530631B68BA685101FA680A44D9
:102E700002F5306223F080431360BB685A01FB689F
:102E8000134403F530631B68BA685101FA680A44B9
:102E900002F5306243F40013136000231846143720
:102EA000BD465DF8047B704780B485B000AF7860A4
:102EB00039607B68FB603B681B78BB603B685B7874
:102EC000012B28D1BB685A01FB68134403F510633A
:102ED0001B68BA685101FA680A4402F5106223F4CB
:102EE000001313603B681B79032B03D03B681B79ED
:102EF000022B38D1BB685A01FB68134403F51063F9
:102F00001B68BA685101FA680A4402F5106243F07E
:102F10008053136027E0BB685A01FB68134403F534
:102F200030631B68BA685101FA680A4402F53062DE
:102F300023F4001313603B681B79032B03D03B6819
:102F40001B79022B0FD1BB685A01FB68134403F5B0
:102F500030631B68BA685101FA680A4402F53062AE
:102F600043F080531360002318461437BD465DF8C4
:102F7000047B704780B485B000AF78600B46FB706F
:102F80007B68FB60FB6803F500631B68FA6802F569
:102F9000006223F4FE631360FB6803F500631A68A4
:102FA000FB781B0103F4FE63F96801F5006113432C
:102FB0000B60002318461437BD465DF8047B70474C
:102FC00080B485B000AF78607B68FB60FB6803F578
:102FD00060631B68FA6802F5606223F00303136004
:102FE000FB6803F500635B68FA6802F5006223F092
:102FF00002035360002318461437BD465DF8047B76
:10300000704780B485B000AF78607B68FB60FB6878
:1030100003F560631B68FA6802F5606223F003033E
:103020001360FB6803F500635B68FA6802F50062F1
:1030300043F002035360002318461437BD465DF881
:10304000047B704780B485B000AF78607B685B69B3
:10305000FB607B689B69FA681340FB60FB6818465D
:103060001437BD465DF8047B704780B485B000AF6F
:1030700078607B68FB60FB6803F500639B69BB605D
:10308000FB6803F50063DB69BA681340BB60BB688B
:103090001B0C18461437BD465DF8047B704780B49E
:1030A00085B000AF78607B68FB60FB6803F5006368
:1030B0009B69BB60FB6803F50063DB69BA6813407A
:1030C000BB60BB689BB218461437BD465DF8047BF5
:1030D000704780B485B000AF78600B46FB707B68AA
:1030E000FB60FB785A01FB68134403F530639B686F
:1030F000BB60FB6803F500635B69BA681340BB60A3
:10310000BB6818461437BD465DF8047B704780B431
:1031100087B000AF78600B46FB707B687B617B6992
:1031200003F500631B693B617B6903F500635B6B1F
:10313000FB60FB7803F00F03FA6822FA03F3DB016C
:10314000DBB23A6913433B61FB785A017B69134454
:1031500003F510639B683A691340BB60BB6818466F
:103160001C37BD465DF8047B704780B483B000AF68
:1031700078607B685B6903F0010318460C37BD4635
:103180005DF8047B704780B485B000AF78607B68E1
:10319000FB60FB6803F510631B68FA6802F51062B8
:1031A00023F4FF6323F007031360FB6803F5006358
:1031B0005B68FA6802F5006243F480735360002391
:1031C00018461437BD465DF8047B704780B487B05D
:1031D00000AFF8600B467A60FB72FB687B61FB68AE
:1031E0003C3304331B683B613B69264A93420AD94E
:1031F0007B6903F530631B6803F00043B3F1004FB4
:1032000001D1002337E07B6903F530631A460023C0
:1032100013617B6903F530631B697A6902F53062DB
:1032200043F4002313617B6903F530631B697A69FA
:1032300002F5306243F0180313617B6903F53063D4
:103240001B697A6902F5306243F0C0431361FB7A6F
:10325000012B0FD17B6903F530631A467B685361FC
:103260007B6903F530631B687A6902F5306243F0CD
:1032700080231360002318461C37BD465DF8047B8D
:10328000704700BF0A30544F80B485B000AF7860FB
:103290000023FB60FB680133FB60FB68B3F1706FD8
:1032A00001D9032322E07B681B69002BF2DA0A2391
:1032B000FB6002E0FB68013BFB60FB68002BF9D17F
:1032C0007B681B6943F001027B681A61FB6801336C
:1032D000FB60FB68B3F1706F01D9032306E07B68E4
:1032E0001B6903F00103012BF0D0002318461437AB
:1032F000BD465DF8047B704780B586B000AF78604E
:103300007B68002B01D1012367E27B681B6803F017
:103310000103002B75D0884B9B6803F00C03042B32
:103320000CD0854B9B6803F00C03082B12D1824B09
:103330005B6803F48003B3F5800F0BD17E4B1B68F1
:1033400003F40033002B5BD07B685B68002B57D104
:10335000012342E27B685B68B3F5803F06D1764B80
:103360001B68754A43F4803313601DE07B685B681B
:10337000B3F5A02F0CD1704B1B686F4A43F4802328
:1033800013606D4B1B686C4A43F4803313600BE091
:10339000694B1B68684A23F480331360664B1B68D3
:1033A000654A23F4802313607B685B68002B13D08D
:1033B00000F03CFF386108E000F038FF02463B694E
:1033C000D31A642B01D9032307E25B4B1B6803F478
:1033D0000033002BF0D014E000F028FF386108E043
:1033E00000F024FF02463B69D31A642B01D9032362
:1033F000F3E1514B1B6803F40033002BF0D100E0E4
:1034000000BF7B681B6803F00203002B63D04A4BAC
:103410009B6803F00C03002B0BD0474B9B6803F019
:103420000C03082B1CD1444B5B6803F48003002B76
:1034300016D1414B1B6803F00203002B05D07B68BB
:10344000DB68012B01D00123C7E13B4B1B6823F054
:10345000F8027B681B69DB00374913430B603AE0D5
:103460007B68DB68002B20D0344B01221A6000F00F
:10347000DDFE386108E000F0D9FE02463B69D31A50
:10348000022B01D90323A8E12B4B1B6803F0020395
:10349000002BF0D0284B1B6823F0F8027B681B69D7
:1034A000DB00254913430B6015E0244B00221A6012
:1034B00000F0BCFE386108E000F0B8FE02463B694F
:1034C000D31A022B01D9032387E11B4B1B6803F09E
:1034D0000203002BF0D17B681B6803F00803002B6C
:1034E00036D07B685B69002B16D0154B01221A6021
:1034F00000F09CFE386108E000F098FE02463B694F
:10350000D31A022B01D9032367E10B4B5B6F03F046
:103510000203002BF0D01BE0094B00221A6000F0E0
:1035200085FE38610EE000F081FE02463B69D31A49
:10353000022B07D9032350E1003802400000474224
:10354000800E4742884B5B6F03F00203002BEAD1E9
:103550007B681B6803F00403002B00F097800023B6
:10356000FB75814B1B6C03F08053002B0FD10023A4
:10357000BB607D4B1B6C7C4A43F0805313647A4BD9
:103580001B6C03F08053BB60BB680123FB75774B5A
:103590001B6803F48073002B18D1744B1B68734AAB
:1035A00043F48073136000F041FE386108E000F0DE
:1035B0003DFE02463B69D31A022B01D903230CE1DD
:1035C0006A4B1B6803F48073002BF0D07B689B6808
:1035D000012B06D1644B1B6F634A43F00103136751
:1035E0001CE07B689B68052B0CD15F4B1B6F5E4A10
:1035F00043F0040313675C4B1B6F5B4A43F001030A
:1036000013670BE0584B1B6F574A23F001031367F6
:10361000554B1B6F544A23F0040313677B689B6868
:10362000002B15D000F002FE38610AE000F0FEFD2C
:1036300002463B69D31A41F28832934201D90323EF
:10364000CBE0494B1B6F03F00203002BEED014E0DC
:1036500000F0ECFD38610AE000F0E8FD02463B694D
:10366000D31A41F28832934201D90323B5E03E4B8D
:103670001B6F03F00203002BEED1FB7D012B05D164
:10368000394B1B6C384A23F0805313647B689B6969
:10369000002B00F0A180344B9B6803F00C03082B37
:1036A0005CD07B689B69022B41D1314B00221A60B0
:1036B00000F0BCFD386108E000F0B8FD02463B694F
:1036C000D31A022B01D9032387E0274B1B6803F091
:1036D0000073002BF0D17B68DA697B681B6A1A43A0
:1036E0007B685B6A9B011A437B689B6A5B08013BB2
:1036F0001B041A437B68DB6A1B061B4913434B60A0
:103700001B4B01221A6000F091FD386108E000F0C7
:103710008DFD02463B69D31A022B01D903235CE0DD
:10372000114B1B6803F00073002BF0D054E0104BDA
:1037300000221A6000F07AFD386108E000F076FDA2
:1037400002463B69D31A022B01D9032345E0064BFD
:103750001B6803F00073002BF0D13DE07B689B6990
:10376000012B07D1012338E00038024000700040EF
:10377000600047421B4B5B68FB607B689B69012BC9
:1037800028D0FB6803F480027B68DB699A4221D170
:10379000FB6803F03F027B681B6A9A421AD1FA6801
:1037A00047F6C07313407A68526A9201934211D16E
:1037B000FB6803F440327B689B6A5B08013B1B0497
:1037C0009A4207D1FB6803F070627B68DB6A1B06D4
:1037D0009A4201D0012300E0002318461837BD4665
:1037E00080BD00BF0038024080B584B000AF786073
:1037F00039607B68002B01D10123CCE0684B1B684A
:1038000003F007033A689A420CD9654B3A68D2B282
:103810001A70634B1B6803F007033A689A4201D0A1
:103820000123B8E07B681B6803F00203002B20D063
:103830007B681B6803F00403002B05D0594B9B6881
:10384000584A43F4E05393607B681B6803F0080315
:10385000002B05D0534B9B68524A43F4604393605E
:10386000504B9B6823F0F0027B689B684D491343E3
:103870008B607B681B6803F00103002B44D07B68DE
:103880005B68012B07D1474B1B6803F40033002B07
:1038900019D101237FE07B685B68022B03D07B6832
:1038A0005B68032B07D13F4B1B6803F00073002BB1
:1038B00009D101236FE03B4B1B6803F00203002B8F
:1038C00001D1012367E0374B9B6823F003027B683B
:1038D0005B68344913438B6000F0A8FCF8600AE091
:1038E00000F0A4FC0246FB68D31A41F288329342EE
:1038F00001D903234FE02B4B9B6803F00C027B683C
:103900005B689B009A42EBD1254B1B6803F00703D1
:103910003A689A420CD2224B3A68D2B21A70204BC3
:103920001B6803F007033A689A4201D0012332E092
:103930007B681B6803F00403002B08D0194B9B68BD
:1039400023F4E0527B68DB68164913438B607B6885
:103950001B6803F00803002B09D0124B9B6823F46B
:1039600060427B681B69DB000E4913438B6000F0EB
:1039700021F802460B4B9B681B0903F00F030A4911
:10398000CB5C22FA03F3094A1360094B1B68184603
:1039900006F0E6FC002318461037BD4680BD00BF88
:1039A000003C02400038024054A8000800000020FB
:1039B000040000202DE9B04F94B000AF00237B64D9
:1039C0000023FB6400233B640023BB64794B9B68AA
:1039D00003F00C03082B0DD0082B00F2E180002B24
:1039E00002D0042B03D0DBE0734BBB64DBE0734BF2
:1039F000BB64D8E06F4B5B6803F03F037B646D4BA7
:103A00005B6803F48003002B63D06A4B5B689B09FF
:103A10000022BB63FA63BB6BC3F308033B63002361
:103A20007B63D7E90C4522462B464FF000004FF050
:103A30000001590141EAD261500102460B4621467C
:103A4000511A3961294663EB01037B614FF0000293
:103A50004FF00003D7E904AB59468B01514643EAC6
:103A6000916351468A015146B2EB0108594663EB16
:103A700001094FF000024FF000034FEAC90343EA87
:103A800058734FEAC80290469946234618EB030341
:103A9000BB602B4649EB0303FB604FF000024FF085
:103AA0000003D7E9024529464B02214643EAD15398
:103AB00021464A02104619467B6C0022BB62FA621C
:103AC000D7E90A23FCF76CFB02460B461346FB645E
:103AD00058E0384B5B689B09002218461146C0F33A
:103AE00008033B6200237B62D7E9088942464B46C4
:103AF0004FF000004FF00001590141EAD26150013E
:103B000002460B464146B2EB010A494663EB010B04
:103B10004FF000024FF000034FEA8B1343EA9A6321
:103B20004FEA8A12B2EB0A0463EB0B054FF0000276
:103B30004FF00003EB0043EA5473E20014461D46C5
:103B40004346E3183B604B4645EB03037B604FF075
:103B500000024FF00003D7E9004529468B022146B9
:103B600043EA915321468A02104619467B6C002293
:103B7000BB61FA61D7E90623FCF712FB02460B464C
:103B80001346FB640B4B5B681B0C03F00303013310
:103B90005B003B64FA6C3B6CB2FBF3F3BB6402E08A
:103BA000054BBB6400BFBB6C18465037BD46BDE833
:103BB000B08F00BF003802400024F40000127A00E9
:103BC00080B400AF034B1B681846BD465DF8047B0C
:103BD000704700BF0000002080B500AFFFF7F0FF86
:103BE0000246054B9B689B0A03F007030349CB5C25
:103BF00022FA03F3184680BD0038024064A800088A
:103C000080B500AFFFF7DCFF0246054B9B685B0BFE
:103C100003F007030349CB5C22FA03F3184680BD87
:103C20000038024064A8000880B483B000AF786018
:103C300039607B680F221A60124B9B6803F0030205
:103C40007B685A600F4B9B6803F0F0027B689A60B8
:103C50000C4B9B6803F4E0527B68DA60094B9B686D
:103C6000DB0803F4E0527B681A61074B1B6803F022
:103C700007023B681A6000BF0C37BD465DF8047B45
:103C8000704700BF00380240003C024080B489B059
:103C900000AF7860396000237B6100233B61002323
:103CA000BB610023FB6159E10122FB6902FA03F3C6
:103CB0007B613B681B687A6913403B613A697B69A9
:103CC0009A4240F048813B685B6803F00303012B94
:103CD00005D03B685B6803F00303022B30D17B689F
:103CE0009B68BB61FB695B00032202FA03F3DB43C1
:103CF000BA691340BB613B68DA68FB695B0002FA92
:103D000003F3BA691343BB617B68BA699A607B6845
:103D10005B68BB610122FB6902FA03F3DB43BA690A
:103D20001340BB613B685B681B0903F00102FB6940
:103D300002FA03F3BA691343BB617B68BA695A603C
:103D40003B685B6803F00303032B17D07B68DB68D9
:103D5000BB61FB695B00032202FA03F3DB43BA6930
:103D60001340BB613B689A68FB695B0002FA03F38E
:103D7000BA691343BB617B68BA69DA603B685B6808
:103D800003F00303022B23D1FB69DA087B680832B6
:103D900053F82230BB61FB6903F007039B000F223D
:103DA00002FA03F3DB43BA691340BB613B681A694B
:103DB000FB6903F007039B0002FA03F3BA6913439C
:103DC000BB61FB69DA087B680832B96943F82210E5
:103DD0007B681B68BB61FB695B00032202FA03F38B
:103DE000DB43BA691340BB613B685B6803F00302C5
:103DF000FB695B0002FA03F3BA691343BB617B689A
:103E0000BA691A603B685B6803F44033002B00F02A
:103E1000A2800023FB60574B5B6C564A43F48043FF
:103E20005364544B5B6C03F48043FB60FB68524A61
:103E3000FB699B08023352F82330BB61FB6903F036
:103E400003039B000F2202FA03F3DB43BA6913401A
:103E5000BB617B68494A934219D07B68484A9342C8
:103E600013D07B68474A93420DD07B68464A934201
:103E700007D07B68454A934201D1042308E0072319
:103E800006E0032304E0022302E0012300E0002314
:103E9000FA6902F0030292009340BA691343BB61CE
:103EA0003549FB699B080233BA6941F82320384B36
:103EB0009B68BB613B69DB43BA691340BB613B68EC
:103EC0005B6803F48013002B03D0BA693B6913438A
:103ED000BB612F4ABB6993602D4BDB68BB613B69BB
:103EE000DB43BA691340BB613B685B6803F40013B2
:103EF000002B03D0BA693B691343BB61244ABB69F9
:103F0000D360234B5B68BB613B69DB43BA691340F9
:103F1000BB613B685B6803F40033002B03D0BA69D4
:103F20003B691343BB611A4ABB695360184B1B685A
:103F3000BB613B69DB43BA691340BB613B685B68AB
:103F400003F48033002B03D0BA693B691343BB6190
:103F50000F4ABB691360FB690133FB61FB690F2BDF
:103F60007FF6A2AE00BF00BF2437BD465DF8047BDC
:103F7000704700BF00380240003801400000024096
:103F80000004024000080240000C02400010024001
:103F9000003C014080B483B000AF78600B467B806A
:103FA00013467B707B78002B03D07A887B689A61FC
:103FB00003E07B881A047B689A6100BF0C37BD461A
:103FC0005DF8047B704780B485B000AF78600B4625
:103FD0007B807B685B69FB607A88FB6813401A040E
:103FE000FB68D9437B880B401A437B689A6100BF0A
:103FF0001437BD465DF8047B7047000080B485B07F
:1040000000AF78607B6803F00703FB600C4BDB6854
:10401000BB60BA684FF6FF031340BB60FB681A022F
:10402000BB68134343F0BF6343F40033BB60044AEF
:10403000BB68D36000BF1437BD465DF8047B704792
:1040400000ED00E080B400AF044BDB681B0A03F016
:1040500007031846BD465DF8047B704700ED00E09D
:1040600080B483B000AF0346FB7197F90730002B93
:104070000BDBFB7903F01F02074997F907305B0957
:10408000012000FA02F241F8232000BF0C37BD46A0
:104090005DF8047B704700BF00E100E080B483B0AE
:1040A00000AF03463960FB7197F90730002B0ADB3C
:1040B0003B68DAB20C4997F907301201D2B20B44CF
:1040C00083F800230AE03B68DAB20849FB7903F081
:1040D0000F03043B1201D2B20B441A7600BF0C3717
:1040E000BD465DF8047B704700E100E000ED00E0B4
:1040F00080B489B000AFF860B9607A60FB6803F003
:104100000703FB61FB69C3F10703042B28BF0423EA
:10411000BB61FB690433062B02D9FB69033B00E05A
:1041200000237B614FF0FF32BB6902FA03F3DA43ED
:10413000BB681A407B699A404FF0FF317B6901FAF6
:1041400003F3D9437B680B40134318462437BD461D
:104150005DF8047B704780B582B000AF7860786806
:10416000FFF74CFF00BF0837BD4680BD80B586B065
:1041700000AF0346B9607A60FB7300237B61FFF7F1
:1041800061FF78617A68B9687869FFF7B1FF024624
:1041900097F90F3011461846FFF780FF00BF183718
:1041A000BD4680BD80B582B000AF0346FB7197F974
:1041B00007301846FFF754FF00BF0837BD4680BDE3
:1041C00080B500AF0E4B1B680D4A43F400731360BB
:1041D0000B4B1B680A4A43F480631360084B1B684F
:1041E000074A43F4807313600320FFF7B4FF0F20E6
:1041F00006F0B6F806F040F80023184680BD00BF70
:10420000003C024080B400AF064B1B781A46064BB8
:104210001B681344044A136000BFBD465DF8047B6D
:10422000704700BF080000201C01002080B400AFD0
:10423000034B1B681846BD465DF8047B704700BF02
:104240001C01002080B584B000AF7860FFF7EEFF5E
:10425000B8607B68FB60FB68B3F1FF3F05D00A4B99
:104260001B781A46FB681344FB6000BFFFF7DEFFB4
:104270000246BB68D31AFA689A42F7D800BF00BF5B
:104280001037BD4680BD00BF0800002080B582B059
:1042900000AF78607B68002B01D1012342E07B688E
:1042A00093F84130DBB2002B06D17B68002283F803
:1042B0004020786806F00CF87B68242283F84120BF
:1042C0007B681B68DA687B681B6822F40052DA603E
:1042D000786800F073F97B681B681A697B681B6853
:1042E00022F490421A617B681B685A697B681B68DC
:1042F00022F02A025A617B681B68DA687B681B68B7
:1043000042F40052DA607B6800225A647B68202203
:1043100083F841207B68202283F842207B680022BA
:104320005A63002318460837BD4680BD80B58AB061
:1043300002AFF860B9603B601346FB8000237B61ED
:10434000FB6893F84130DBB2202B75D1BB68002BA2
:1043500002D0FB88002B01D101236EE0FB68002214
:104360005A64FB68212283F84120FFF75FFF7861E0
:10437000FB68FA889A84FB68FA88DA84FB689B6891
:10438000B3F5805F08D1FB681B69002B04D10023C3
:10439000FB61BB68BB6103E0BB68FB610023BB61E1
:1043A0002EE03B6800937B6900228021F86800F0D2
:1043B00048F80346002B05D0FB68202283F84120F3
:1043C00003233AE0FB69002B0BD1BB691B881A461B
:1043D000FB681B68C2F308025A60BB690233BB6109
:1043E00007E0FB691A78FB681B685A60FB690133B8
:1043F000FB61FB68DB8C9BB2013B9AB2FB68DA8401
:10440000FB68DB8C9BB2002BCBD13B6800937B69B4
:1044100000224021F86800F014F80346002B05D074
:10442000FB68202283F84120032306E0FB6820225A
:1044300083F84120002300E0022318462037BD46C0
:1044400080BD80B586B000AFF860B9603B601346B0
:10445000FB713BE03B6AB3F1FF3F37D0FFF7E6FE6D
:1044600002463B68D31A3A6A9A4202D33B6A002B4F
:1044700001D103233AE0FB681B68DB6803F0040307
:10448000002B23D0BB68802B20D0BB68402B1DD0D5
:10449000FB681B681B6803F00803082B16D1002378
:1044A0007B61FB681B681B687B61FB681B685B6842
:1044B0007B617B69F86800F01DF8FB6808225A648C
:1044C000FB68002283F8402001230FE0FB681B6893
:1044D0001A68BB681340BA689A420CBF01230023D4
:1044E000DBB21A46FB799A42B4D00023184618373B
:1044F000BD4680BD80B495B000AF78607B681B6816
:104500000C337B637B6B53E8003F3B633B6B23F4D3
:104510009073FB647B681B680C33FA6C3A64FB6332
:10452000F96B3A6C41E80023BB63BB6B002BE5D110
:104530007B681B6814333B623B6A53E8003FFB61B6
:10454000FB6923F00103BB647B681B681433BA6CFE
:10455000FA62BB62B96AFA6A41E800237B627B6A4D
:10456000002BE5D17B681B6B012B19D17B681B6885
:104570000C33FB60FB6853E8003FBB60BB6823F073
:1045800010037B647B681B680C337A6CBA617B61B7
:104590007969BA6941E800233B613B69002BE5D1A9
:1045A0007B68202283F842207B6800221A6300BFC8
:1045B0005437BD465DF8047B704700002DE9B04FCD
:1045C000C0B000AFC7F8F400D7F8F4301B681B691F
:1045D00023F44050D7F8F430D968D7F8F4301A688B
:1045E00040EA01031361D7F8F4309A68D7F8F43041
:1045F0001B691A43D7F8F4305B691A43D7F8F430D3
:10460000DB691343C7F8F830D7F8F4301B68DB6870
:1046100023F4164121F00C01D7F8F4301A68D7F8CA
:10462000F8300B43D360D7F8F4301B685B6923F490
:104630004070D7F8F4309969D7F8F4301A6840EA36
:1046400001035361D7F8F4301A688F4B9A4205D0B2
:10465000D7F8F4301A688D4B9A4204D1FFF7D0FA9C
:10466000C7F8FC0003E0FFF7B7FAC7F8FC00D7F87B
:10467000F430DB69B3F5004F40F00C81D7F8FC3023
:104680000022C7F8E830C7F8EC20D7E93A452246BF
:104690002B469118B9655B41FB65D7E91623214686
:1046A00012EB0108294643EB01094FF000024FF0DD
:1046B00000034FEAC90343EA58734FEAC802904621
:1046C0009946234618EB0303C7F8E0302B4649EB25
:1046D0000303C7F8E430D7F8F4305B680022C7F86A
:1046E000D830C7F8DC20D7E936120B46DB183B651B
:1046F000134642EB03037B65D7E91423D7E938015E
:10470000FBF74EFD02460B46614BA3FB02235B0900
:104710001C01D7F8FC300022C7F8D030C7F8D420ED
:10472000D7E9348942464B469118B9645B41FB6432
:10473000D7E91223414612EB010A494643EB010B2C
:104740004FF000024FF000034FEACB0343EA5A73E5
:104750004FEACA0292469B4643461AEB0303C7F848
:10476000C8304B464BEB0303C7F8CC30D7F8F430D6
:104770005B680022C7F8C030C7F8C420D7E9301200
:104780000B46DB183B64134642EB03037B64D7E91B
:104790001023D7E93201FBF703FD02460B46114611
:1047A0003B4BA3FB01235B09642202FB03F3CB1AFF
:1047B000DB0003F13202364BA3FB02235B095B00F3
:1047C00003F4F8731C44D7F8FC300022C7F8B83063
:1047D000C7F8BC20D7E92E8942464B469118B963E9
:1047E0005B41FB63D7E90E234146511839634946C3
:1047F0004B417B634FF000024FF00003D7E90CAB55
:104800005946CB00514643EA51735146CA001046FF
:104810001946034642469B18C7F8B0304B460A4635
:1048200042EB0303C7F8B430D7F8F4305B680022DA
:10483000C7F8A830C7F8AC20D7E92A120B46DB1816
:10484000BB62134642EB0303FB62D7E90A23D7E9B5
:104850002C01FBF7A5FC02460B460D4BA3FB0213F4
:104860005B09642101FB03F3D31ADB003233084AEE
:10487000A2FB03235B0903F00702D7F8F4301B689F
:1048800022449A6006E100BF00100140001401407C
:104890001F85EB51D7F8FC300022C7F8A030C7F8CD
:1048A000A420D7E9288942464B46911839625B41DA
:1048B0007B62D7E9082341465418494643EB01057A
:1048C0004FF000024FF00003EB0043EA5473E200A4
:1048D00014461D464346E318C7F898304B4645EB4F
:1048E0000303C7F89C30D7F8F4305B680022C7F8A0
:1048F0009030C7F894204FF000024FF00003D7E942
:10490000244529468B00214643EA917321468A00BB
:10491000D7E92601FBF744FC02460B46604BA3FB9C
:1049200002235B091C01D7F8FC300022C7F888304D
:10493000C7F88C20D7E9228942464B469118B961C5
:104940005B41FB61D7E9062341465118396149466D
:104950004B417B614FF000024FF00003D7E904ABFD
:104960005946CB00514643EA51735146CA0010469E
:104970001946034642469B18C7F880304B460A4604
:1049800042EB0303C7F88430D7F8F4305B680022A9
:10499000BB67FA674FF000024FF00003D7E91E89AA
:1049A00049468B00414643EA917341468A00D7E964
:1049B0002001FBF7F5FB02460B461146384BA3FBE3
:1049C00001235B09642202FB03F3CB1A1B01323380
:1049D000334AA2FB03235B0903F0F0031C44D7F81E
:1049E000FC3000223B677A67D7E91C8942464B4678
:1049F0009118B9605B41FB60D7E902234146511829
:104A0000396049464B417B604FF000024FF0000394
:104A1000D7E900AB5946CB00514643EA51735146A2
:104A2000CA0010461946034642469B18BB664B46D1
:104A30000A4642EB0303FB66D7F8F4305B680022BA
:104A40003B667A664FF000024FF00003D7E9188901
:104A500049468B00414643EA917341468A00D7E9B3
:104A60001A01FBF79DFB02460B460D4BA3FB0213FD
:104A70005B09642101FB03F3D31A1B013233084A9B
:104A8000A2FB03235B0903F00F02D7F8F4301B6885
:104A900022449A6000BF07F58077BD46BDE8B08F1D
:104AA0001F85EB5180B586B000AFF860B960134642
:104AB000FB71FB68002B01D103231FE0FB68002280
:104AC000C3F8B822FB680022C3F8C422FB680022A6
:104AD000C3F8D022BB68002B03D0FB68BA68C3F8C8
:104AE000B422FB68012283F89C22FB68FA791A70D1
:104AF000F86805F015F80346FB75FB7D1846183776
:104B0000BD4680BD80B584B000AF786039600023B9
:104B1000FB813B68002B01D1032325E07B683A68C9
:104B2000C3F8B8227B68D3F8D4227B68AE3253F83E
:104B30002230DB6A002B0FD07B68D3F8D4227B684D
:104B4000AE3253F82230DB6A07F10E021046984766
:104B500002467B68C3F8D0227B68D3F8D8325A1C4F
:104B60007B68C3F8D822002318461037BD4680BDA5
:104B700080B582B000AF7860786805F01DF8034614
:104B800018460837BD4680BD80B483B000AF78605A
:104B9000002318460C37BD465DF8047B704780B58E
:104BA00084B000AF78600B46FB700023FB737B681A
:104BB000D3F8B832002B09D07B68D3F8B8321B6821
:104BC000FA781146786898470346FB73FB7B1846D2
:104BD0001037BD4680BD80B584B000AF78600B460D
:104BE000FB700023FB737B68D3F8B8325B68FA78FC
:104BF0001146786898470346002B01D00323FB73C6
:104C0000FB7B18461037BD4680BD80B584B000AF31
:104C1000786039607B6803F2AA233968184601F08E
:104C200022F97B680122C3F894227B68B3F8B03282
:104C30001A467B68C3F898227B6893F8AA3203F07F
:104C40001F03022B1AD0022B22D8002B02D0012BDB
:104C50000AD01DE07B6803F2AA231946786800F0A9
:104C600077FB0346FB7320E07B6803F2AA23194617
:104C7000786800F0DFFB0346FB7316E07B6803F205
:104C8000AA231946786800F041FC0346FB730CE048
:104C90007B6893F8AA3223F07F03DBB21946786869
:104CA00004F0EAFF0346FB7300BFFB7B1846103796
:104CB000BD4680BD80B586B000AFF8600B467A6017
:104CC000FB720023FB75FB7A002B77D1FB6803F5A1
:104CD000AA733B61FB68D3F89432032B40F0A180A8
:104CE0003B695B683A69928993421CD93B695B686E
:104CF0003A6992899A1A3B695A603B691B693A6919
:104D000092891A443B691A613B6919693B699B891D
:104D10001A463B695B68934238BF13461A46F868E7
:104D200001F0A8F97DE0FB6893F8AA3203F01F03B5
:104D3000022B14D0022B1DD8002B02D0012B03D044
:104D400018E00023BB7518E0FB68B3F8AE32DBB2A5
:104D50001946F86800F06EFA0346BB750DE0FB6873
:104D6000B3F8AE32DBB21946F86800F070FA0346C9
:104D7000BB7502E00023BB7500BFBB7D002B19D1C2
:104D8000FB6893F89C32DBB2032B13D1BA7DFB682E
:104D9000AE3253F822301B69002B0BD0BA7DFB6872
:104DA000C3F8D422BA7DFB68AE3253F822301B69B7
:104DB000F8689847F86801F06EF932E0FB7A03F082
:104DC0007F03DBB21946F86800F041FA0346BB7571
:104DD000BB7DFF2B25D0BB7D002B22D1FB6893F838
:104DE0009C32DBB2032B17D1BA7DFB68AE3253F88D
:104DF00022309B69002B0FD0BA7DFB68C3F8D42208
:104E0000BA7DFB68AE3253F822309B69FA7A1146BC
:104E1000F86898470346FB75FB7D002B01D0FB7DAE
:104E200000E0002318461837BD4680BD80B586B027
:104E300000AFF8600B467A60FB72FB7A002B78D1EA
:104E4000FB6814333B61FB68D3F89432022B63D1C7
:104E50003B695B683A69928993421CD93B695B68FC
:104E60003A6992899A1A3B695A603B691B693A69A7
:104E700092891A443B691A613B6919693B695B680D
:104E80001A46F86801F0C4F8002300220021F868EF
:104E900004F09CFF40E03B699B891A463B695B68D4
:104EA0009A421CD13B691B683A699289934216D396
:104EB0003B691A68FB68D3F898329A420FD20022F5
:104EC0000021F86801F0A4F8FB680022C3F89822DA
:104ED000002300220021F86804F078FF1CE0FB6842
:104EE00093F89C32DBB2032B0FD1FB68D3F8B832B6
:104EF000DB68002B09D0FB680022C3F8D422FB68D2
:104F0000D3F8B832DB68F86898478021F86804F075
:104F1000B3FEF86801F0D2F8FB6893F8A032002BDA
:104F20003AD0F868FFF730FEFB68002283F8A02231
:104F300032E0FB7A63F07F03DBB21946F86800F0D9
:104F400086F90346FB75FB7DFF2B25D0FB7D002BEF
:104F500022D1FB6893F89C32DBB2032B1CD1FA7D83
:104F6000FB68AE3253F822305B69002B14D0FA7D17
:104F7000FB68C3F8D422FA7DFB68AE3253F82230C6
:104F80005B69FA7A1146F86898470346BB75BB7DA2
:104F9000002B01D0BB7D00E0002318461837BD462A
:104FA00080BD80B584B000AF78600023FB737B6860
:104FB000012283F89C227B680022C3F894227B683C
:104FC00000225A607B680022C3F8A4227B6800227A
:104FD00083F8A0227B68D3F8B832002B14D07B680A
:104FE000D3F8B8325B68002B0ED07B68D3F8B832A8
:104FF0005B687A685268D2B211467868984703466F
:10500000002B01D00323FB7340230022002178688A
:1050100004F0EDFD7B68012283F863217B68402268
:10502000A3F86021402300228021786804F0DFFD8E
:105030007B68012283F823207B6840221A84FB7B53
:1050400018461037BD4680BD80B483B000AF78608D
:105050000B46FB707B68FA781A74002318460C37ED
:10506000BD465DF8047B704780B483B000AF7860C4
:105070007B6893F89C32DBB2042B06D07B6893F8F4
:105080009C32DAB27B6883F89D227B68042283F825
:105090009C22002318460C37BD465DF8047B704700
:1050A00080B483B000AF78607B6893F89C32DBB249
:1050B000042B06D17B6893F89D32DAB27B6883F8C3
:1050C0009C22002318460C37BD465DF8047B7047D0
:1050D00080B582B000AF78607B6893F89C32DBB219
:1050E000032B10D17B68D3F8B832002B0BD07B6830
:1050F000D3F8B832DB69002B05D07B68D3F8B8321F
:10510000DB6978689847002318460837BD4680BD9C
:1051100080B582B000AF78600B46FB707B68D3F837
:10512000D4227B68AE3253F82230002B01D1032306
:105130001CE07B6893F89C32DBB2032B15D17B68B3
:10514000D3F8D4227B68AE3253F822301B6A002B8E
:105150000BD07B68D3F8D4227B68AE3253F8223070
:105160001B6AFA7811467868984700231846083772
:10517000BD4680BD80B582B000AF78600B46FB7045
:105180007B68D3F8D4227B68AE3253F82230002BF0
:1051900001D103231CE07B6893F89C32DBB2032B24
:1051A00015D17B68D3F8D4227B68AE3253F8223015
:1051B0005B6A002B0BD07B68D3F8D4227B68AE32BD
:1051C00053F822305B6AFA781146786898470023D2
:1051D00018460837BD4680BD80B483B000AF786004
:1051E000002318460C37BD465DF8047B704780B538
:1051F00084B000AF78600023FB737B68012283F8E2
:105200009C227B68D3F8B832002B0ED07B68D3F891
:10521000B8325B687A685268D2B2114678689847AB
:105220000346002B01D00323FB73FB7B184610378A
:10523000BD4680BD80B483B000AF78600B46FB7084
:10524000002318460C37BD465DF8047B704780B4D8
:1052500083B000AF78600B46FB70002318460C3714
:10526000BD465DF8047B704780B586B000AF7860BE
:105270000B46FB707B687B617B68FB6000233B61B6
:10528000FB685B889BB2FA68127893421FD9FB686F
:105290001B787B8113E007F10A031946786900F057
:1052A0001BF878617B695B78052B08D17B693B61D2
:1052B0003B699B78FA789A4208D000233B61FB68EF
:1052C0005B889AB27B899A42E5D800E000BF3B69CF
:1052D00018461837BD4680BD80B485B000AF7860F1
:1052E00039607B68FB603B681B88FA68127813445E
:1052F0009AB23B681A80FB681B781A467B68134495
:10530000FB60FB6818461437BD465DF8047B7047A8
:1053100080B487B000AF78607B687B617B691B7865
:105320007B827B6901337B617B691B783B82B7F9A8
:1053300010301B021AB2B7F9123013431BB2FB81B3
:10534000FB8918461C37BD465DF8047B704700009A
:1053500080B584B000AF786039600023FB733B6890
:105360001B7803F06003402B05D0402B57D8002B4F
:105370000FD0202B53D17B68D3F8D4227B68AE3278
:1053800053F822309B683968786898470346FB7366
:105390004AE03B685B78092B3BD801A252F823F026
:1053A000F55300080954000813540008FF5300087F
:1053B00013540008D3530008C953000813540008BD
:1053C000EB530008DD5300083968786800F03EFAB6
:1053D00024E03968786800F0A3FB1FE0396878683A
:1053E00000F0E2FB0346FB7318E03968786800F0D0
:1053F00085FC13E03968786800F0B6FC0EE0396887
:10540000786800F0E5FC09E03968786800F009FD8B
:1054100004E03968786800F060FD00BF04E0396896
:10542000786800F05AFD00BFFB7B18461037BD4678
:1054300080BD00BF80B584B000AF786039600023C4
:10544000FB733B681B7803F06003402B05D0402BB7
:1054500052D8002B01D0202B4ED17B6893F89C3280
:10546000DBB2013B022B40D83B689B88DBB2012BAF
:1054700036D83B689B88DBB219467868FFF7DAFEBE
:105480000346BB73BB7BFF2B1DD0BB7B002B1AD10C
:10549000BA7B7B68AE3253F822309B68002B0FD06A
:1054A000BA7B7B68C3F8D422BA7B7B68AE3253F8F0
:1054B00022309B683968786898470346FB7304E09C
:1054C0000323FB7301E00323FB733B68DB88002BA2
:1054D00010D1FB7B002B0DD1786800F0DCFD09E0DA
:1054E0003968786800F0F9FC04E03968786800F001
:1054F000F4FC00E000BF04E03968786800F0EDFCDF
:1055000000BFFB7B18461037BD4680BD80B584B018
:1055100000AF786039600023FB733B689B88BB73E6
:105520003B681B7803F06003402B07D0402B00F250
:105530008181002B2AD0202B40F07C81BB7B194637
:105540007868FFF784FE03467B737B7BFF2B00F0BC
:1055500076817B7B002B40F072817A7B7B68C3F87D
:10556000D4227A7B7B68AE3253F822309B68002BC2
:1055700000F065817A7B7B68AE3253F822309B68FD
:105580003968786898470346FB7358E13B685B7855
:10559000032B08D0032B00F34781002B00F09B80E6
:1055A000012B3CD040E17B6893F89C32DBB2022BAC
:1055B00002D0032B16D02CE0BB7B002B0DD0BB7B85
:1055C000802B0AD0BB7B1946786804F055FB8021FC
:1055D000786804F051FB00BF20E03968786800F07B
:1055E0007CFC1BE03B685B88002B0ED1BB7B002B57
:1055F0000BD0BB7B802B08D03B68DB88002B04D111
:10560000BB7B1946786804F037FB786800F043FDEF
:1056100004E03968786800F060FC00BF09E17B684D
:1056200093F89C32DBB2022B02D0032B16D04BE056
:10563000BB7B002B0DD0BB7B802B0AD0BB7B1946DC
:10564000786804F019FB8021786804F015FB00BF2E
:1056500040E03968786800F040FC3BE03B685B88DC
:10566000002B36D1BB7B03F07F03002B04D0BB7B28
:105670001946786804F01FFB786800F00CFDBB7BCE
:1056800019467868FFF7E3FD03467B737B7BFF2BAE
:105690001FD07B7B002B1CD17A7B7B68C3F8D42284
:1056A0007A7B7B68AE3253F822309B68002B10D097
:1056B0007A7B7B68AE3253F822309B683968786811
:1056C00098470346FB7304E03968786800F005FCEE
:1056D00000E000BFADE07B6893F89C32DBB2022BA8
:1056E00002D0032B33D099E0BB7B002B07D0BB7BD0
:1056F000802B04D03968786800F0EFFB93E097F9CD
:105700000E30002B0BDABB7B03F07F0213469B00AD
:1057100013449B0010337A68134404330BE0BB7BC3
:1057200003F07F0213469B0013449B0003F5A8730C
:105730007A6813440433BB60BB6800229A73BB6869
:105740000E3302221946786800F044FC6BE097F9AA
:105750000E30002B11DABB7B03F00F027968134681
:105760009B0013449B000B4423331B78002B17D161
:105770003968786800F0B1FB55E0BB7B03F00F029D
:10578000796813469B0013449B000B4403F2631398
:105790001B78002B04D13968786800F09EFB42E04A
:1057A00097F90E30002B0BDABB7B03F07F02134618
:1057B0009B0013449B0010337A68134404330BE0BE
:1057C000BB7B03F07F0213469B0013449B0003F551
:1057D000A8737A6813440433BB60BB7B002B02D0F0
:1057E000BB7B802B03D1BB6800229A730EE0BB7B8E
:1057F0001946786804F07EFA0346002B03D0BB6894
:1058000001229A7302E0BB6800229A73BB680E33D0
:1058100002221946786800F0DDFB04E039687868F8
:1058200000F05BFB00BF04E03968786800F055FBCE
:1058300000BF05E03968786800F04FFB00E000BF6A
:10584000FB7B18461037BD4680BD000080B584B094
:1058500000AF7860396000233B810023FB600023A8
:10586000FB723B685B881B0A9BB2013B062B00F274
:10587000288101A252F823F095580008AD5800087D
:10588000ED580008C35A0008C35A0008635A0008BC
:105890008F5A00087B68D3F8B4321B687A68127C90
:1058A00007F1080110469847F86012E17B681B7CFD
:1058B000002B0DD17B68D3F8B8329B6A07F1080240
:1058C00010469847F860FB68013302221A7000E125
:1058D0007B68D3F8B832DB6A07F1080210469847B4
:1058E000F860FB68013302221A70F2E03B685B88C3
:1058F000DBB2052B00F2AC8001A252F823F000BF0E
:10590000195900084D59000881590008B559000877
:10591000E95900081D5A00087B68D3F8B4325B6867
:10592000002B0BD07B68D3F8B4325B687A68127CAA
:1059300007F1080110469847F86091E039687868E7
:1059400000F0CBFAFB7A0133FB7289E07B68D3F875
:10595000B4329B68002B0BD07B68D3F8B4329B68C1
:105960007A68127C07F1080110469847F86077E0E2
:105970003968786800F0B1FAFB7A0133FB726FE0A6
:105980007B68D3F8B432DB68002B0BD07B68D3F88C
:10599000B432DB687A68127C07F108011046984738
:1059A000F8605DE03968786800F097FAFB7A0133B7
:1059B000FB7255E07B68D3F8B4321B69002B0BD027
:1059C0007B68D3F8B4321B697A68127C07F108014E
:1059D00010469847F86043E03968786800F07DFA2F
:1059E000FB7A0133FB723BE07B68D3F8B4325B692E
:1059F000002B0BD07B68D3F8B4325B697A68127CD9
:105A000007F1080110469847F86029E0396878687E
:105A100000F063FAFB7A0133FB7221E07B68D3F874
:105A2000B4329B69002B0BD07B68D3F8B4329B69EE
:105A30007A68127C07F1080110469847F8600FE079
:105A40003968786800F049FAFB7A0133FB7207E0A5
:105A50003968786800F041FAFB7A0133FB7200BFC5
:105A600037E07B681B7C002B09D17B68D3F8B83208
:105A70005B6B07F1080210469847F86029E0396827
:105A8000786800F02AFAFB7A0133FB7221E07B6828
:105A90001B7C002B0DD17B68D3F8B8321B6B07F150
:105AA000080210469847F860FB68013307221A7015
:105AB0000FE03968786800F010FAFB7A0133FB7266
:105AC00007E03968786800F008FAFB7A0133FB7266
:105AD00000BFFB7A002B1ED13B68DB88002B16D061
