:020000040800F2
:1000000000000320AD930008CD8F0008D58F0008B5
:10001000DD8F0008E58F0008ED8F0008000000006C
:10002000000000000000000000000000F58F000844
:100030000390000800000000119000081F900008C5
:10004000059400080594000805940008059400082C
:10005000059400080594000805940008059400081C
:10006000059400080594000805940008059400080C
:1000700005940008059400080594000805940008FC
:1000800005940008059400080594000805940008EC
:1000900005940008059400080594000805940008DC
:1000A00005940008059400080594000805940008CC
:1000B00005940008059400080594000805940008BC
:1000C00005940008059400080594000805940008AC
:1000D000059400080594000805940008059400089C
:1000E000059400080594000805940008059400088C
:1000F0002B900008379000084390000805940008F2
:10010000059400080594000805940008059400086B
:10011000059400080594000805940008059400085B
:10012000059400080594000805940008059400084B
:0C013000059400080594000805940008E0
:1001400070B54FF0FF0C4CF4E06C1CEA11541DBF6D
:100150001CEA135594EA0C0F95EA0C0F00F0DEF838
:100160002C4481EA030621EA4C5123EA4C5350EA1D
:10017000013518BF52EA033541F4801143F480136E
:1001800038D0A0FB02CE4FF00005E1FB02E506F0FF
:100190000042E0FB03E54FF00006E1FB03569CF054
:1001A000000F18BF4EF0010EA4F1FF04B6F5007F5A
:1001B00064F5407404D25FEA4E0E6D4146EB0606CC
:1001C00042EAC62141EA55514FEAC52040EA5E5055
:1001D0004FEACE2EB4F1FD0C88BFBCF5E06F1ED8FF
:1001E000BEF1004F08BF5FEA500E50F1000041EB36
:1001F000045170BD06F0004646EA010140EA0200E3
:1002000081EA0301B4EB5C04C2BFD4EB0C0541EA04
:10021000045170BD41F480114FF0000E013C00F319
:10022000AB8014F1360FDEBF002001F0004170BD3D
:10023000C4F10004203C35DA0C341BDC04F1140456
:10024000C4F1200500FA05F320FA04F001FA05F2E2
:1002500040EA020001F0004221F0004110EBD370AF
:1002600021FA04F642EB06015EEA430E08BF20EADB
:10027000D37070BDC4F10C04C4F1200500FA04F37E
:1002800020FA05F001FA04F240EA020001F0004110
:1002900010EBD37041F100015EEA430E08BF20EA83
:1002A000D37070BDC4F1200500FA05F24EEA020ECB
:1002B00020FA04F301FA05F243EA020321FA04F0FA
:1002C00001F0004121FA04F220EA020000EBD370B1
:1002D0005EEA430E08BF20EAD37070BD94F0000FB1
:1002E0000FD101F00046400041EB010111F4801FE5
:1002F00008BF013CF7D041EA060195F0000F18BF96
:10030000704703F00046520043EB030313F4801FD1
:1003100008BF013DF7D043EA0603704794EA0C0F8B
:100320000CEA135518BF95EA0C0F0CD050EA4106A1
:1003300018BF52EA4306D1D181EA030101F000411E
:100340004FF0000070BD50EA410606BF1046194646
:1003500052EA430619D094EA0C0F02D150EA013652
:1003600013D195EA0C0F05D152EA03361CBF104693
:1003700019460AD181EA030101F0004141F0FE4132
:1003800041F470014FF0000070BD41F0FE4141F4B6
:10039000780170BD81F0004102E000BF83F00043AE
:1003A00030B54FEA41044FEA430594EA050F08BF10
:1003B00090EA020F1FBF54EA000C55EA020C7FEAD4
:1003C000645C7FEA655C00F0E2804FEA5454D4EB51
:1003D0005555B8BF6D420CDD2C4480EA020281EA1B
:1003E000030382EA000083EA010180EA020281EA53
:1003F0000303362D88BF30BD11F0004F4FEA0131A5
:100400004FF4801C4CEA113102D0404261EB4101B3
:1004100013F0004F4FEA03334CEA133302D0524239
:1004200063EB430394EA050F00F0A780A4F10104F5
:10043000D5F1200E0DDB02FA0EFC22FA05F280182F
:1004400041F1000103FA0EF2801843FA05F3594115
:100450000EE0A5F120050EF1200E012A03FA0EFC94
:1004600028BF4CF0020C43FA05F3C01851EBE371BE
:1004700001F0004507D54FF0000EDCF1000C7EEBDB
:1004800000006EEB0101B1F5801F1BD3B1F5001F19
:100490000CD349085FEA30004FEA3C0C04F1010438
:1004A0004FEA445212F5800F80F09A80BCF1004F61
:1004B00008BF5FEA500C50F1000041EB045141EAE3
:1004C000050130BD5FEA4C0C404141EB0101013CAC
:1004D00028BFB1F5801FE9D291F0000F04BF01469B
:1004E0000020B1FA81F308BF2033A3F10B03B3F16D
:1004F00020020CDA0C3208DD02F1140CC2F10C02FD
:1005000001FA0CF021FA02F10CE002F11402D8BF5A
:10051000C2F1200C01FA02F120FA0CFCDCBF41EA26
:100520000C019040E41AA2BF01EB0451294330BDF5
:100530006FEA04041F3C1CDA0C340EDC04F11404D2
:10054000C4F1200220FA04F001FA02F340EA0300A9
:1005500021FA04F345EA030130BDC4F10C04C4F1EF
:10056000200220FA02F001FA04F340EA03002946CF
:1005700030BD21FA04F0294630BD94F0000F83F419
:10058000801306BF81F480110134013D4EE77FEAFC
:10059000645C18BF7FEA655C29D094EA050F08BF48
:1005A00090EA020F05D054EA000C04BF1946104629
:1005B00030BD91EA030F1EBF0021002030BD5FEA6D
:1005C000545C05D14000494128BF41F0004130BD95
:1005D00014F580043CBF01F5801130BD01F00045E9
:1005E00045F0FE4141F470014FF0000030BD7FEA5C
:1005F000645C1ABF194610467FEA655C1CBF0B4657
:10060000024650EA013406BF52EA033591EA030F6D
:1006100041F4002130BD00BF90F0000F04BF002165
:10062000704730B54FF4806404F132044FF0000598
:100630004FF0000150E700BF90F0000F04BF002111
:10064000704730B54FF4806404F1320410F0004577
:1006500048BF40424FF000013EE700BF42004FEA72
:10066000E2014FEA31014FEA02701FBF12F07F43EF
:1006700093F07F4F81F06051704732F07F4208BFA6
:10068000704793F07F4F04BF41F40021704730B5AD
:100690004FF4607401F0004521F000411CE700BFF9
:1006A00050EA010208BF704730B54FF000050AE07C
:1006B00050EA010208BF704730B511F0004502D57D
:1006C000404261EB41014FF4806404F132045FEA7F
:1006D000915C3FF4D8AE4FF003025FEADC0C18BF28
:1006E00003325FEADC0C18BF033202EBDC02C2F11A
:1006F000200300FA03FC20FA02F001FA03FE40EAAC
:100700000E0021FA02F11444BDE600BF53B94AB904
:10071000002908BF00281CBF4FF0FF314FF0FF3009
:1007200000F00CB8ADF1080C6DE904CE08F06CFED9
:10073000DDF804E0DDE9022304B07047704700BF34
:10074000034613F8012B002AFBD1181A0138704711
:1007500001F0FF01102A2BDB10F0070F08D010F872
:10076000013B013A8B422DD010F0070F42B3F6D176
:10077000F0B441EA012141EA014122F007047FF08F
:1007800000070023F0E80256083C85EA010586EAE6
:10079000010685FA47F5A3FA87F586FA47F6A5FA22
:1007A00087F68EB9EED1F0BC01F0FF0102F007022E
:1007B00032B110F8013B013A83EA010313B1F8D1D9
:1007C0000020704701387047002D06BF35460338BA
:1007D000073815F0010F07D1013015F4807F02BFF3
:1007E000013015F4C03F0130F0BC0138704700BF44
:1007F0000348044B834202D0034B03B118477047B0
:100800009800002098000020000000000548064BDA
:100810001B1AD90F01EBA301491002D0034B03B1FE
:100820001847704798000020980000200000000042
:1008300010B5064C237843B9FFF7DAFF044B13B128
:100840000448AFF300800123237010BDE4000020B2
:100850000000000088A0000808B5054B1BB1054941
:100860000548AFF30080BDE80840FFF7CFBF00BFE9
:1008700000000000E800002088A00008002310B558
:100880000446C0E90033C0E90433836081814366D4
:10089000C2818361194608225C3000F0F7F80D4BE5
:1008A00063620D4BA3620D4BE3620D4B23630D4B53
:1008B00024629C4206D003F16802944202D0D033F5
:1008C0009C4205D104F15800BDE8104000F050B939
:1008D00010BD00BF050A0008270A00085F0A0008CB
:1008E000850A000800010020024A0349034800F07D
:1008F0006BB800BF080000206D0E00081800002033
:1009000041680C4B994210B5044601D000F0AEFA94
:10091000A168094B994202D0204600F0A7FAE1688D
:10092000064B994204D02046BDE8104000F09EBA24
:1009300010BD00BF0001002068010020D001002090
:100940000C4B0D4A0D4810B504211A600022FFF728
:1009500095FF0A4B01221C46092103F16800FFF7AD
:100960008DFF04F1D0000222BDE810401221FFF7F4
:1009700085BF00BF38020020E90800080001002000
:10098000014800F0F6B800BF41020020014800F025
:10099000F1B800BF4102002010B50446FFF7F0FF98
:1009A000236A1BB1BDE81040FFF7F0BF044B236280
:1009B000044B1B68002BF5D1FFF7C2FFF2E700BF25
:1009C00001090008380200202DE9F843074688464F
:1009D00014460026D4E90195B9F1010905D524682A
:1009E000002CF7D13046BDE8F883AB89012B07D93D
:1009F000B5F90E30013303D029463846C0470643C7
:100A00006835E9E710B50C46B1F90E1000F068F84A
:100A10000028ABBF636DA3891B1823F48053ACBFC0
:100A20006365A38110BD2DE9F0411F468B89DB056D
:100A300005460C46164605D5B1F90E1002230022D4
:100A400000F03CF8A389B4F90E1023F48053A3817D
:100A500032463B462846BDE8F04100F053B810B599
:100A60000C46B1F90E1000F029F8B4F90C30421C14
:100A70000BBF23F4805343F48053A381A38118BF99
:100A8000606510BDB1F90E1000F008B802440346CD
:100A9000934200D1704703F8011BF9E738B5064DC2
:100AA0000023044608462B6008F03FFC431C02D19B
:100AB0002B6803B1236038BD3C02002038B5074DD8
:100AC00004460846114600222A601A4608F054FCE3
:100AD000431C02D12B6803B1236038BD3C020020C7
:100AE00038B5074D04460846114600222A601A46CA
:100AF00008F0FEFB431C02D12B6803B1236038BD14
:100B00003C02002038B5074D044608461146002235
:100B10002A601A4604F042F9431C02D12B6803B143
:100B2000236038BD3C02002070B50D4B0D4D5B1BA2
:100B30009C100026A64209D109F0A6FA0A4D0B4BDB
:100B40005B1B9C100026A64205D170BD55F8043BE6
:100B500098470136EEE755F8043B98470136F2E72F
:100B600020B9000820B9000820B9000824B90008FD
:100B7000704770477047000038B50546002941D0DE
:100B800051F8043C0C1F002BB8BFE41800F0E0F84B
:100B90001D4A136833B9636014602846BDE83840C5
:100BA00000F0DCB8A34208D9206821188B4201BFAD
:100BB00019685B6809182160EDE71A465B680BB19C
:100BC000A342FAD911685018A0420BD12068014401
:100BD000501883421160E0D118685B685360084484
:100BE0001060DAE702D90C232B60D6E720682118C1
:100BF0008B4204BF19685B68636004BF09182160F9
:100C00005460CAE738BD00BF4802002070B50F4EDF
:100C10000C463168054611B900F050F930602146A4
:100C2000284600F04BF9431C03D14FF0FF34204617
:100C300070BDC41C24F00304A042F8D0211A284639
:100C400000F03CF90130F2D1EFE700BF4402002090
:100C50002DE9F843CD1C25F0030508350C2D38BFD0
:100C60000C25002D064601DBA94204D90C23336074
:100C70000020BDE8F883DFF8D48000F069F8D8F8E8
:100C800000301C4644BB29463046FFF7BFFF431CDB
:100C9000044658D1D8F800402746002F43D1002CF5
:100CA0004BD023683946304604EB030900F006F9BF
:100CB000814542D121686D1A29463046FFF7A6FFCB
:100CC00001303AD023682B442360D8F800305A68AA
:100CD00062BBC8F800700FE02268521B20D40B2AB8
:100CE00017D96119A342256018BF5960636808BF0E
:100CF000C8F8001062514B60304600F02FF804F144
:100D00000B00231D20F00700C21A1CBF1B1AA350A2
:100D1000AFE76268A3420CBFC8F800205A60EBE757
:100D200023466468AEE73C467F68B6E71A465B68D0
:100D3000A342FBD100235360DEE70C23336030462F
:100D400000F00CF894E70560D6E700BF48020020E9
:100D50000148FFF70EBF00BF400200200148FFF727
:100D600009BF00BF40020020B1F90C202DE9F0417D
:100D7000160705460C4651D44B68002B02DC0B6C61
:100D8000002B49DDE66A002E46D0002312F4805283
:100D90002F682B6031D0626DA389590705D5636830
:100DA000D21A636B0BB1236CD21A0023E66A216A54
:100DB0002846B047421CB4F90C3006D129681D29D9
:100DC00046D8294ACA40D60742D500226260D904D3
:100DD0002269226004D5421C01D12B6803B96065E9
:100DE000616B2F60C1B104F14403994202D02846DF
:100DF000FFF7C2FE002363630EE0216A0123284649
:100E0000B0470246501CC7D12B68002BC4D01D2B05
:100E100001D0162B1AD12F6000201EE00F69002F81
:100E2000FAD093070E6808BF4B690F6018BF002304
:100E3000A6EB07088B60B8F1000FEDDD216AA66A0A
:100E400043463A462846B047002808DCB4F90C303F
:100E500043F04003A3814FF0FF30BDE8F081074429
:100E6000A8EB0008E7E700BF0100402038B50B6998
:100E700005460C4613B90025284638BD18B1036A4B
:100E80000BB9FFF789FDB4F90C30002BF3D0626E7B
:100E9000D00704D4990502D4A06DFFF76AFE284656
:100EA0002146FFF761FF636EDA070546E4D4A389A4
:100EB0009B05E1D4A06DFFF75DFEDDE738B5064D7B
:100EC0000023044608462B6008F0DCF9431C02D1DD
:100ED0002B6803B1236038BD3C02002080B400AF12
:100EE000244BD3F88830234A43F47003C2F8883087
:100EF0004FF0B0431B684FF0B04243F00103136062
:100F00004FF0B0434FF4E0229A604FF0B0431A68BC
:100F10004FF0B041184B13400B604FF0B043D3F883
:100F200094304FF0B04223F00503C2F894304FF0F4
:100F3000B043D3F898304FF0B04223F00103C2F829
:100F400098304FF0B0430D4ADA604FF0B0430B4A8F
:100F50001A614FF0B0431B684FF0B04223F4802376
:100F600013604FF0B04300229A6100BFBD465DF8A8
:100F7000047B704700ED00E0FBFEF6FA001004224F
:100F800080B582B000AF0A4BDB687B60084B1A6803
:100F90007B68DB43064913400B60054A7B6853605E
:100FA000786800F007F800BF0837BD4680BD00BF75
:100FB0000015005880B483B000AF786000BF0C37D4
:100FC000BD465DF8047B704780B400AF4FF0B0437E
:100FD0001B6803F48013B3F5801F01D1012300E0E7
:100FE00000231846BD465DF8047B704780B400AF0F
:100FF0004FF0B0431B684FF0B04243F480331360AE
:1010000000BFBD465DF8047B704780B400AF4FF071
:10101000B0431B684FF0B04223F48033136000BF2D
:10102000BD465DF8047B704780B400AF4FF0B0431D
:101030001B6803F40033B3F5003F01D1012300E046
:1010400000231846BD465DF8047B704780B400AFAE
:101050004FF0B0431B684FF0B04243F4807313600D
:1010600000BFBD465DF8047B704780B400AF4FF011
:10107000B0431B684FF0B04223F48073136000BF8D
:10108000BD465DF8047B704780B400AF4FF0B043BD
:101090001B6803F48063B3F5806F01D1012300E086
:1010A00000231846BD465DF8047B704780B483B0CA
:1010B00000AF78604FF0B0435B6823F0FE427B687E
:1010C0001B064FF0B04113434B6000BF0C37BD46C9
:1010D0005DF8047B704780B400AF4FF0B043D3F8A5
:1010E00098304FF0B04243F00103C2F8983000BF8F
:1010F000BD465DF8047B704780B400AF4FF0B0434D
:10110000D3F898304FF0B04223F00103C2F8983082
:1011100000BFBD465DF8047B704780B400AF4FF060
:10112000B043D3F8983003F00203022B01D101231E
:1011300000E000231846BD465DF8047B704780B48C
:1011400000AF4FF0B043D3F890304FF0B04243F0CF
:101150000103C2F8903000BFBD465DF8047B7047C4
:1011600080B400AF4FF0B043D3F890304FF0B042AE
:1011700023F00103C2F8903000BFBD465DF8047B48
:10118000704780B400AF4FF0B043D3F890304FF0C9
:10119000B04243F00403C2F8903000BFBD465DF892
:1011A000047B704780B400AF4FF0B043D3F8903069
:1011B0004FF0B04223F00403C2F8903000BFBD46A8
:1011C0005DF8047B704780B400AF4FF0B043D3F8B4
:1011D000903003F00203022B01D1012300E0002331
:1011E0001846BD465DF8047B704780B400AF4FF0F1
:1011F000B043D3F894304FF0B04243F00103C2F84B
:10120000943000BFBD465DF8047B704780B400AFEA
:101210004FF0B043D3F894304FF0B04223F00103C5
:10122000C2F8943000BFBD465DF8047B704780B4BF
:1012300000AF4FF0B043D3F8943003F00203022B19
:1012400001D1012300E000231846BD465DF8047B70
:10125000704780B400AF4FF0B043D3F894304FF0F4
:10126000B04243F00403C2F8943000BFBD465DF8BD
:10127000047B704780B400AF4FF0B043D3F8943094
:101280004FF0B04223F00403C2F8943000BFBD46D3
:101290005DF8047B704780B400AF4FF0B043D3F8E3
:1012A000943003F00803082B01D1012300E0002350
:1012B0001846BD465DF8047B704780B483B000AF2C
:1012C00078604FF0B043D3F8943023F470627B68B9
:1012D0001B024FF0B0411343C1F8943000BF0C37EC
:1012E000BD465DF8047B704780B400AF4FF0B0435B
:1012F0001B684FF0B04243F00103136000BFBD46CE
:101300005DF8047B704780B400AF4FF0B0431B68BA
:101310004FF0B04223F00103136000BFBD465DF8FB
:10132000047B704780B400AF4FF0B0431B6803F0FC
:101330000203022B01D1012300E000231846BD4621
:101340005DF8047B704780B483B000AF78604FF0E5
:10135000B0431B6823F0F0024FF0B0417B681343A9
:101360000B6000BF0C37BD465DF8047B704780B44E
:1013700083B000AF4FF0B0431B6803F0F0037B6015
:101380007B68B02B01D9B0237B607B6818460C3793
:10139000BD465DF8047B704780B483B000AF7860D1
:1013A0004FF0B0435B6823F47F427B681B024FF031
:1013B000B04113434B6000BF0C37BD465DF8047B62
:1013C000704780B483B000AF78604FF0B0439B6843
:1013D00023F003024FF0B0417B6813438B6000BFE2
:1013E0000C37BD465DF8047B704780B400AF4FF00A
:1013F000B0439B6803F00C031846BD465DF8047BC0
:10140000704780B483B000AF78604FF0B0439B6802
:1014100023F0F0024FF0B0417B6813438B6000BFB4
:101420000C37BD465DF8047B704780B483B000AFD5
:1014300078604FF0B043D3F8083123F0F0024FF05A
:10144000B0417B681343C1F8083100BF0C37BD467B
:101450005DF8047B704780B483B000AF78604FF0D4
:10146000B043D3F8083123F00F027B681B094FF01B
:10147000B0411343C1F8083100BF0C37BD465DF8D9
:10148000047B704780B483B000AF78604FF0B04306
:101490009B6823F4E0624FF0B0417B6813438B609C
:1014A00000BF0C37BD465DF8047B704780B483B045
:1014B00000AF78604FF0B0439B6823F460524FF068
:1014C000B0417B6813438B6000BF0C37BD465DF8AD
:1014D000047B704780B400AF4FF0B0439B6803F0CB
:1014E000F0031846BD465DF8047B704780B400AF3A
:1014F0004FF0B043D3F808311B0103F0F003184656
:10150000BD465DF8047B704780B400AF4FF0B04338
:101510009B6803F4E0631846BD465DF8047B7047A2
:1015200080B400AF4FF0B0439B6803F4605318469B
:10153000BD465DF8047B704780B400AF4FF0B04308
:101540001B684FF0B04243F08073136000BFBD468C
:101550005DF8047B704780B400AF4FF0B0431B6868
:101560004FF0B04223F08073136000BFBD465DF8BA
:10157000047B704780B400AF4FF0B0431B6803F0AA
:101580000073B3F1007F01D1012300E0002318466E
:10159000BD465DF8047B704780B400AF4FF0B043A8
:1015A000DB681B0A03F07F031846BD465DF8047B29
:1015B000704780B400AF4FF0B043DB6803F0604386
:1015C0001846BD465DF8047B704780B400AF4FF00D
:1015D000B043DB6803F070031846BD465DF8047B3A
:1015E000704780B400AF4FF0B043DB6803F00303F3
:1015F0001846BD465DF8047B704780B400AF4FF0DD
:10160000B0439B6803F48033B3F5803F01D10123DD
:1016100000E000231846BD465DF8047B704780B4A7
:1016200000AF4FF0B043D3F8083103F40033B3F503
:10163000003F01D1012300E000231846BD465DF8BC
:10164000047B704780B400AF4FF0B043D3F808314B
:1016500003F48033B3F5803F01D1012300E0002380
:101660001846BD465DF8047B704780B400AF4FF06C
:10167000B0439B6803F40033B3F5003F01D101236D
:1016800000E000231846BD465DF8047B704780B437
:1016900000AF4FF0B0439B6803F48023B3F5802F75
:1016A00001D1012300E000231846BD465DF8047B0C
:1016B0007047000090B58DB000AF78607B68002B5C
:1016C00001D1012363E37B681B6803F02003002B37
:1016D00000F08D80FFF789FEF862FFF782FFB862A5
:1016E000FB6A002B05D0FB6A0C2B47D1BB6A012B90
:1016F00044D17B68DB69002B01D1012347E37B6880
:101700005C6AFFF734FE03469C4214D97B685B6A2F
:10171000184600F02FFD0346002B01D0012336E3CD
:101720007B685B6A1846FFF70EFE7B681B6A1846EB
:10173000FFF732FE13E07B685B6A1846FFF703FE93
:101740007B681B6A1846FFF727FE7B685B6A1846B2
:1017500000F010FD0346002B01D0012317E300F039
:10176000C9FC0346A44A1360A44B1B68184601F049
:1017700007FD0346002B39D0012308E37B68DB69B2
:10178000002B1ED0FFF7B0FD01F048FD786208E0A5
:1017900001F044FD02467B6AD31A022B01D90323D0
:1017A000F5E2FFF7BFFD0346002BF1D07B685B6AD3
:1017B0001846FFF7C8FD7B681B6A1846FFF7ECFD6B
:1017C00015E0FFF7A0FD01F029FD786208E001F0C7
:1017D00025FD02467B6AD31A022B01D90323D6E2E8
:1017E000FFF7A0FD0346002BF1D100E000BF7B68AE
:1017F0001B6803F00103002B47D0FFF7F6FD3862AA
:10180000FFF7EFFEF8613B6A082B05D03B6A0C2B13
:1018100008D1FB69032B05D17B685B68002B34D1B1
:101820000123B4E27B685B68B3F5803F02D1FFF728
:10183000DDFB01E0FFF7E9FB7B685B68002B12D062
:1018400001F0ECFC786208E001F0E8FC02467B6AFB
:10185000D31A642B01D9032399E2FFF7E5FB034672
:10186000002BF1D011E001F0D9FC786208E001F022
:10187000D5FC02467B6AD31A642B01D9032386E286
:10188000FFF7D2FB0346002BF1D17B681B6803F006
:101890000203002B4CD0FFF7A8FDB861FFF7A1FEB3
:1018A0007861BB69042B05D0BB690C2B0ED17B6919
:1018B000022B0BD17B68DB68002B01D1012366E290
:1018C0007B681B691846FFF7F1FB31E07B68DB683A
:1018D000002B19D0FFF7BAFB01F0A0FC786208E0FA
:1018E00001F09CFC02467B6AD31A022B01D9032328
:1018F0004DE2FFF7C9FB0346002BF1D07B681B6963
:101900001846FFF7D3FB13E0FFF7AFFB01F086FCAF
:10191000786208E001F082FC02467B6AD31A022B4F
:1019200001D9032333E2FFF7AFFB0346002BF1D1CC
:101930007B681B6803F00803002B06D17B681B68DB
:1019400003F01003002B00F0A3807B685B69002B81
:1019500076D07B681B6803F01003002B46D0FFF79E
:1019600066FC0346002B13D1FFF73FFC01F056FC49
:10197000786208E001F052FC02467B6AD31A022B1F
:1019800001D9032303E2FFF752FC0346002BF1D0F9
:10199000FFF75FFC01F042FC786208E001F03EFCDA
:1019A00002467B6AD31A032B01D90323EFE1FFF729
:1019B00072FC0346002BF1D07B689B691846FFF749
:1019C0007CFCFFF723FC01F029FC786208E001F0C1
:1019D00025FC02467B6AD31A022B01D90323D6E1E8
:1019E000FFF725FC0346002BF1D151E0FFF7FDFB8B
:1019F00001F014FC78620CE0640000206800002014
:101A000001F00CFC02467B6AD31A022B01D9032396
:101A1000BDE1FFF70CFC0346002BF1D0FFF72AFCD9
:101A200008E001F0FBFB02467B6AD31A032B01D9C5
:101A30000323ACE1FFF72FFC0346002BF1D127E095
:101A4000FFF718FC01F0EAFB786208E001F0E6FB22
:101A500002467B6AD31A032B01D9032397E1FFF7D0
:101A60001AFC0346002BF1D1FFF7D0FB01F0D6FBA7
:101A7000786208E001F0D2FB02467B6AD31A022B9F
:101A800001D9032383E1FFF7D2FB0346002BF1D1F9
:101A90007B681B6803F00403002B5BD0A74B1B681B
:101AA00003F48073002B14D101F0C4F901F0B6FBEC
:101AB000786208E001F0B2FB02467B6AD31A022B7F
:101AC00001D9032363E19D4B1B6803F48073002B52
:101AD000F0D07B689B68012B02D1FFF730FB0CE054
:101AE0007B689B68052B04D1FFF74BFBFFF727FBB7
:101AF00003E0FFF735FBFFF755FB7B689B68002B86
:101B000014D001F08BFB78620AE001F087FB0246FB
:101B10007B6AD31A41F28832934201D9032336E11A
:101B2000FFF751FB0346002BEFD013E001F076FBEB
:101B300078620AE001F072FB02467B6AD31A41F236
:101B40008832934201D9032321E1FFF73CFB03468E
:101B5000002BEFD17B681B6803F04003002B2CD0D7
:101B60007B689B6A002B14D0FFF7B5FA01F056FB97
:101B7000786208E001F052FB02467B6AD31A022B1E
:101B800001D9032303E1FFF7C8FA0346002BF1D084
:101B900013E0FFF7B1FA01F041FB786208E001F0D1
:101BA0003DFB02467B6AD31A022B01D90323EEE0E8
:101BB000FFF7B3FA0346002BF1D17B68DB6A002BF9
:101BC00000F0E480FFF711FC38614FF0B043DB68B0
:101BD000FB607B68DB6A022B40F0B480FB6803F09B
:101BE00003027B681B6B9A4223D1FB6803F07002EF
:101BF0007B685B6B9A421CD1FB681B0A03F07F0277
:101C00007B689B6B9A4214D1FB6803F478127B6863
:101C1000DB6B9A420DD1FB6803F060627B681B6C42
:101C20009A4206D1FB6803F060427B685B6C9A4283
:101C30005DD03B690C2B58D04FF0B0431B6803F0CC
:101C40008063002B01D00123A1E0FFF784FC01F0A9
:101C5000E5FA786208E001F0E1FA02467B6AD31AFD
:101C6000022B01D9032392E04FF0B0431B6803F02D
:101C70000073002BEFD14FF0B043DA68304B1340C4
:101C80007A68116B7A68526B11437A68926B120210
:101C900011437A68D26B11437A68126C11437A68E7
:101CA000526C0A434FF0B0411343CB60FFF744FC42
:101CB0004FF0B043DB684FF0B04243F08053D36045
:101CC00001F0ACFA786208E001F0A8FA02467B6AFB
:101CD000D31A022B01D9032359E04FF0B0431B68FC
:101CE00003F00073002BEFD050E001234FE04FF0E2
:101CF000B0431B6803F00073002B47D1FFF71CFCB7
:101D00004FF0B043DB684FF0B04243F08053D360F4
:101D100001F084FA786208E001F080FA02467B6AFA
:101D2000D31A022B01D9032331E04FF0B0431B68D3
:101D300003F00073002BEFD028E000BF0004005830
:101D40008C80C1113B690C2B1ED0FFF704FC01F005
:101D500065FA786208E001F061FA02467B6AD31AFC
:101D6000022B01D9032312E04FF0B0431B6803F0AC
:101D70000073002BEFD14FF0B043DA684FF0B04161
:101D8000054B1340CB6001E0012300E0002318461F
:101D90003437BD4690BD00BFFCFFFEEE80B584B079
:101DA00000AF786039607B68002B01D101232DE101
:101DB000984B1B6803F007033A689A421BD9954B6E
:101DC0001B6823F0070293493B6813430B6001F043
:101DD00025FAF86008E001F021FA0246FB68D31A00
:101DE000022B01D9032311E18A4B1B6803F007037F
:101DF0003A689A42EFD17B681B6803F00203002B1C
:101E000016D07B689B681846FFF7FBFA01F006FACC
:101E1000F86008E001F002FA0246FB68D31A022BD0
:101E200001D90323F2E0FFF7E8FB0346002BF1D0D2
:101E30007B681B6803F02003002B16D07B685B696E
:101E40001846FFF7F2FA01F0E9F9F86008E001F04E
:101E5000E5F90246FB68D31A022B01D90323D5E02A
:101E6000FFF7DDFB0346002BF1D07B681B6803F016
:101E70004003002B16D07B689B691846FFF7EBFAEE
:101E800001F0CCF9F86008E001F0C8F90246FB68FF
:101E9000D31A022B01D90323B8E0FFF7D3FB034683
:101EA000002BF1D07B681B6803F00403002B16D0D5
:101EB0007B68DB681846FFF7E5FA01F0AFF9F860D8
:101EC00008E001F0ABF90246FB68D31A022B01D9F6
:101ED00003239BE0FFF7C9FB0346002BF1D07B688F
:101EE0001B6803F00803002B17D07B681B69DB001D
:101EF0001846FFF7DBFA01F091F9F86008E001F00D
:101F00008DF90246FB68D31A022B01D903237DE029
:101F1000FFF7BDFB0346002BF1D07B681B6803F085
:101F20000103002B43D07B685B68022B06D1FFF7CF
:101F30007BF80346002B1ED1012367E07B685B68BA
:101F4000032B06D1FFF716FB0346002B13D1012309
:101F50005CE07B685B68002B06D1FFF7E3F9034682
:101F6000002B08D1012351E0FFF78EF80346002B28
:101F700001D101234AE07B685B681846FFF721FA2C
:101F800001F04CF9F8600AE001F048F90246FB68FC
:101F9000D31A41F28832934201D9032336E0FFF786
:101FA00024FA02467B685B689B009A42ECD1194B8D
:101FB0001B6803F007033A689A421BD2154B1B6853
:101FC00023F0070213493B6813430B6001F026F925
:101FD000F86008E001F022F90246FB68D31A022BF0
:101FE00001D9032312E00B4B1B6803F007033A6887
:101FF0009A42EFD100F07EF80346074A136001F0E1
:1020000019F90346184601F0BBF803461846103785
:10201000BD4680BD004000586400002090B585B0EA
:1020200000AFFFF7E2F978607B68002B0AD1FFF779
:102030009EF903461B0903F00F032B4A52F8233085
:10204000FB604BE07B68042B02D1284BFB6045E032
:102050007B68082B0AD1FEF7B7FF0346012B02D19C
:10206000224BFB603AE0224BFB6037E0FFF7B9FA06
:1020700038603B68022B03D03B68032B03D00DE094
:102080001A4BBB6015E0FEF79FFF0346012B02D100
:10209000164BBB600DE0164BBB600AE0FFF767F91B
:1020A00003461B0903F00F030F4A52F82330BB60AD
:1020B00000BFFFF771FA0246BB6803FB02F4FFF7AB
:1020C00084FA03461B090133B4FBF3F4FFF771FAFA
:1020D00003465B0F0133B4FBF3F3FB60FB68184668
:1020E0001437BD4690BD00BF74B600080024F4004C
:1020F0000048E80198B500AFFFF790FF0446FFF7EE
:10210000E9F903461B0903F00F03034A52F8233091
:10211000B4FBF3F3184698BD14B6000898B500AFA9
:10212000FFF7E8FF0446FFF7EFF903461B0A03F049
:102130000703044A52F8233003F01F0324FA03F381
:10214000184698BD54B6000898B500AFFFF7D2FF07
:102150000446FFF7E5F90346DB0A03F00703044AE8
:1021600052F8233003F01F0324FA03F3184698BDF6
:1021700054B6000890B585B000AF78607B68B02B8E
:1021800003D9154BDB6AFB6007E07B681B0903F092
:102190000F03114A52F82330FB60FFF7A7F90346FB
:1021A0001B0903F00F030D4A52F82330FA68B2FB03
:1021B000F3F3BB60BB680A4AA2FB03239C0C00F04C
:1021C00049FE03461946204600F00CF8034618461F
:1021D0001437BD4690BD00BF74B6000814B60008A1
:1021E00083DE1B4390B593B000AF78603960374B06
:1021F00007F128040FCB84E80F00354A07F11C03D0
:1022000007CA83E80700334B07F10C040FCB84E8BF
:102210000F0000237B643B68B3F5007F1AD10023D5
:102220003B6413E03B6C9B0048333B4453F8203C39
:102230007A689A4207D83B6C9B0048333B4453F87A
:102240003C3C7B6420E03B6C01333B643B6C032BE8
:10225000E8D919E00023FB6313E0FB6B9B004833D4
:102260003B4453F82C3C7A689A4207D8FB6B9B009E
:1022700048333B4453F83C3C7B6405E0FB6B013343
:10228000FB63FB6B022BE8D9134B1B6823F007029F
:1022900011497B6C13430B6000F0C0FFB86308E08A
:1022A00000F0BCFF0246BB6BD31A022B01D90323FB
:1022B00007E0094B1B6803F007037A6C9A42EFD1E1
:1022C000002318464C37BD4690BD00BFA0A00008B3
:1022D000B0A00008BCA000080040005880B400AFC7
:1022E0004FF0B043D3F8903003F00103012B01D13C
:1022F000012300E000231846BD465DF8047B7047CB
:1023000080B400AF4FF0B043D3F8903003F0020335
:10231000022B01D1012300E000231846BD465DF8E1
:10232000047B704780B483B000AF78604FF0B04357
:10233000D3F8943023F440424FF0B0417B6813430C
:10234000C1F8943000BF0C37BD465DF8047B704780
:1023500080B483B000AF78604FF0B0435B6A23F085
:1023600003024FF0B0417B6813434B6200BF0C3750
:10237000BD465DF8047B704780B483B000AF7860E1
:102380004FF0B0435B6A23F030024FF0B0417B68FE
:1023900013434B6200BF0C37BD465DF8047B7047AA
:1023A00080B483B000AF78604FF0B043D3F888308A
:1023B00023F003024FF0B0417B681343C1F888302B
:1023C00000BF0C37BD465DF8047B704780B483B016
:1023D00000AF78604FF0B043D3F8883023F4406208
:1023E0004FF0B0417B681343C1F8883000BF0C3711
:1023F000BD465DF8047B704780B483B000AF786061
:102400004FF0B043D3F888207B681B0903F47F2387
:10241000DB431A407B681B0103F47F234FF0B0417C
:102420001343C1F8883000BF0C37BD465DF8047B0C
:10243000704780B483B000AF78604FF0B043D3F8FA
:1024400088207B681B0C1B04DB431A407B681B0441
:102450004FF0B0411343C1F8883000BF0C37BD4680
:102460005DF8047B704780B483B000AF78604FF0B4
:10247000B043D3F8883023F440024FF0B0417B687A
:102480001343C1F8883000BF0C37BD465DF8047BAC
:10249000704780B483B000AF78604FF0B043D3F89A
:1024A000883023F040424FF0B0417B681343C1F8BD
:1024B000883000BF0C37BD465DF8047B704780B4A0
:1024C00083B000AF78604FF0B043D3F8883023F08A
:1024D00040624FF0B0417B681343C1F8883000BFC1
:1024E0000C37BD465DF8047B704780B582B000AF05
:1024F00078607868FFF7E3FF00BF0837BD4680BD0E
:1025000080B483B000AF78604FF0B043D3F8883028
:1025100023F040524FF0B0417B681343C1F888303C
:1025200000BF0C37BD465DF8047B704780B483B0B4
:1025300000AF78604FF0B043D3F8903023F440728E
:102540004FF0B0417B681343C1F8903000BF0C37A7
:10255000BD465DF8047B704780B400AF4FF0B043D8
:10256000D3F8903003F440731846BD465DF8047B01
:10257000704780B400AF4FF0B043D3F890304FF0C5
:10258000B04243F48033C2F8903000BFBD465DF8DE
:10259000047B704780B400AF4FF0B043D3F8903065
:1025A0004FF0B04223F48033C2F8903000BFBD46F4
:1025B0005DF8047B704780B400AF4FF0B0431B68F8
:1025C0004FF0B04243F08063136000BFBD465DF83A
:1025D000047B704780B400AF4FF0B0431B684FF0EE
:1025E000B04223F08063136000BFBD465DF8047BFA
:1025F000704780B400AF4FF0B0431B6803F0006336
:10260000B3F1006F01D1012300E000231846BD465D
:102610005DF8047B704780B588B000AF7860002318
:10262000FB770023BB777B681B6803F04003002B1C
:1026300034D07B681B6BB3F5400F21D0B3F5400F4E
:102640001BD8B3F5000F1DD0B3F5000F15D8002B24
:102650000BD0B3F5800F10D14FF0B043DB684FF0D3
:10266000B04243F48033D3600DE07B6804331846F6
:1026700000F047F90346FB7705E00123FB7702E012
:1026800000BF00E000BFFB7F002B05D17B681B6B08
:102690001846FFF7E8FE01E0FB7FBB777B681B680D
:1026A00003F40063002B46D0FFF756FFB8617B6848
:1026B0001B6CBA699A423CD000F0BCFBBB69002B92
:1026C00005D17B681B6C1846FFF730FF2EE04FF0FA
:1026D000B043D3F890307B61FFF74BFFFFF75AFF11
:1026E0007B6923F440727B681B6C13437B614FF062
:1026F000B0427B69C2F89030FFF7F0FD0346012B32
:1027000014D100F08BFD38610BE000F087FD02462C
:102710003B69D31A41F28832934202D90323FB77F3
:1027200004E0FFF7EDFD0346012BEED1FB7FBB7705
:1027300001E0FB7FBB777B681B6803F00103002B84
:1027400004D07B689B691846FFF72AFE7B681B68EC
:1027500003F00203002B04D07B68DB691846FFF707
:1027600035FE7B681B6803F01003002B04D07B68E8
:102770009B6A1846FFF75DFE7B681B6803F0200329
:10278000002B04D07B68DB6A1846FFF752FE7B689B
:102790001B6803F00403002B04D07B681B6A1846F7
:1027A000FFF72AFE7B681B6803F00803002B04D0A8
:1027B0007B685B6A1846FFF71FFE7B681B6803F4A3
:1027C0008073002B22D07B685B6B1846FFF78DFE71
:1027D0007B685B6BB3F1006F07D14FF0B043DB68F0
:1027E0004FF0B04243F08073D3607B685B6BB3F112
:1027F000806F0BD17B680433184600F0DDF8034688
:10280000FB77FB7F002B01D0FB7FBB777B681B68CE
:1028100003F40073002B2BD07B689B6BB3F1804FCC
:1028200008D07B689B6BB3F1004F03D07B689B6B38
:10283000002B05D17B689B6B1846FFF72AFE0AE048
:102840007B689B6B23F08053FB600020FFF721FE29
:10285000F868FFF734FE7B689B6BB3F1C05F07D16C
:102860004FF0B043DB684FF0B04243F08073D36069
:102870007B681B6803F48063002B22D07B68DB6BD2
:102880001846FFF73DFE7B68DB6BB3F1005F07D1B5
:102890004FF0B043DB684FF0B04243F48033D36075
:1028A0007B68DB6BB3F1805F0BD17B680433184628
:1028B00000F0DDF80346FB77FB7F002B01D0FB7FA8
:1028C000BB777B681B6803F48053002B04D07B68C4
:1028D0005B6C1846FFF726FD7B681B6803F400530A
:1028E000002B09D07B68DB6C1846FFF745FD7B6841
:1028F0009B6C1846FFF72CFDBB7F18462037BD4662
:1029000080BD80B584B000AF78600023FB73FFF713
:1029100061FE00F083FCB86009E000F07FFC024635
:10292000BB68D31A022B02D90323FB7304E0FFF721
:1029300060FE0346002BF0D1FB7B002B37D14FF01C
:10294000B0431B6923F4FE427B681B681B024FF0F7
:10295000B04113430B614FF0B0431B6923F478126D
:102960007B685B684FF0B04113430B61FFF723FEB8
:1029700000F054FCB86009E000F050FC0246BB686F
:10298000D31A022B02D90323FB7304E0FFF731FEB5
:102990000346012BF0D1FB7B002B08D14FF0B04355
:1029A0001A697B681B694FF0B04113430B61FB7BD5
:1029B00018461037BD4680BD80B584B000AF786042
:1029C0000023FB73FFF706FE00F028FCB86009E067
:1029D00000F024FC0246BB68D31A022B02D9032361
:1029E000FB7304E0FFF705FE0346002BF0D1FB7BF1
:1029F000002B37D14FF0B0431B6923F4FE427B68B4
:102A00001B681B024FF0B04113430B614FF0B04302
:102A10001B6923F060627B689B684FF0B0411343F1
:102A20000B61FFF7C8FD00F0F9FBB86009E000F0AA
:102A3000F5FB0246BB68D31A022B02D90323FB73B2
:102A400004E0FFF7D6FD0346012BF0D1FB7B002B02
:102A500008D14FF0B0431A697B681B694FF0B04151
:102A600013430B61FB7B18461037BD4680BD80B514
:102A700084B000AF78600023FB73FFF7ABFD00F07C
:102A8000CDFBB86009E000F0C9FB0246BB68D31A71
:102A9000022B02D90323FB7304E0FFF7AAFD0346D0
:102AA000002BF0D1FB7B002B37D14FF0B0431B69DB
:102AB00023F4FE427B681B681B024FF0B0411343B6
:102AC0000B614FF0B0431B6923F060427B68DB6809
:102AD0004FF0B04113430B61FFF76DFD00F09EFB1B
:102AE000B86009E000F09AFB0246BB68D31A022BDB
:102AF00002D90323FB7304E0FFF77BFD0346012BA0
:102B0000F0D1FB7B002B08D14FF0B0431A697B68F2
:102B10001B694FF0B04113430B61FB7B1846103724
:102B2000BD4680BD80B487B000AF786039600023B7
:102B30007B614CE13B681A6801217B6901FA03F370
:102B40001340FB60FB68002B00F03E813B685B6834
:102B500003F00303012B05D03B685B6803F003031C
:102B6000022B30D17B689B683B617B695B00032251
:102B700002FA03F3DB433A6913403B613B68DA68CE
:102B80007B695B0002FA03F33A6913433B617B689C
:102B90003A699A607B685B683B6101227B6902FA53
:102BA00003F3DB433A6913403B613B685B681B09F5
:102BB00003F001027B6902FA03F33A6913433B61B4
:102BC0007B683A695A603B685B6803F00303032B38
:102BD00017D07B68DB683B617B695B00032202FAEC
:102BE00003F3DB433A6913403B613B689A687B69B6
:102BF0005B0002FA03F33A6913433B617B683A696D
:102C0000DA603B685B6803F00303022B23D17B6926
:102C1000DA087B68083253F822303B617B6903F0A5
:102C200007039B000F2202FA03F3DB433A691340C8
:102C30003B613B681A697B6903F007039B0002FA5A
:102C400003F33A6913433B617B69DA087B68083216
:102C5000396943F822107B681B683B617B695B0024
:102C6000032202FA03F3DB433A6913403B613B68FA
:102C70005B6803F003027B695B0002FA03F33A69C5
:102C800013433B617B683A691A603B685B6803F4F5
:102C90004033002B00F09880544A7B699B08023334
:102CA00052F823303B617B6903F003039B000F2242
:102CB00002FA03F3DB433A6913403B617B68B3F1EB
:102CC000904F19D07B684A4A934213D07B68494A97
:102CD00093420DD07B68484A934207D07B68474AAD
:102CE000934201D1042308E0072306E0032304E014
:102CF000022302E0012300E000237A6902F00302CC
:102D0000920093403A6913433B6138497B699B08C1
:102D100002333A6941F82320394B1B683B61FB6859
:102D2000DB433A6913403B613B685B6803F4801303
:102D3000002B03D03A69FB6813433B61304A3B697F
:102D400013602F4B5B683B61FB68DB433A691340C0
:102D50003B613B685B6803F40013002B03D03A69C6
:102D6000FB6813433B61264A3B695360244BD3F80D
:102D700080303B61FB68DB433A6913403B613B6851
:102D80005B6803F48033002B03D03A69FB6813437C
:102D90003B611B4A3B69C2F88030194BD3F8843041
:102DA0003B61FB68DB433A6913403B613B685B680E
:102DB00003F40033002B03D03A69FB6813433B61F3
:102DC0000F4A3B69C2F884307B6901337B613B6801
:102DD0001A687B6922FA03F3002B7FF4ABAE00BFC5
:102DE00000BF1C37BD465DF8047B70470000014002
:102DF0000004004800080048000C0048001000488B
:102E00000008005880B483B000AF78600B467B8028
:102E100013467B707B78002B03D07A887B689A619D
:102E200002E07A887B689A6200BF0C37BD465DF885
:102E3000047B704780B400AF054B1B68044A43F421
:102E40008073136000BFBD465DF8047B704700BF10
:102E50000004005880B400AF044B1B6803F4C06347
:102E60001846BD465DF8047B704700BF000400585B
:102E700080B485B000AF78607B6803F00703FB6027
:102E80000C4BDB68BB60BA684FF6FF031340BB60B6
:102E9000FB681A02BB68134343F0BF6343F400337B
:102EA000BB60044ABB68D36000BF1437BD465DF801
:102EB000047B704700ED00E080B400AF044BDB689A
:102EC0001B0A03F007031846BD465DF8047B7047F4
:102ED00000ED00E080B483B000AF0346FB7197F9CA
:102EE0000730002B0BDBFB7903F01F02074997F932
:102EF00007305B09012000FA02F241F8232000BFED
:102F00000C37BD465DF8047B704700BF00E100E070
:102F100080B483B000AF0346FB7197F90730002BF4
:102F20000CDBFB7903F01F02074997F907305B09B7
:102F3000012000FA02F2403341F8232000BF0C3791
:102F4000BD465DF8047B704700E100E080B483B0CB
:102F500000AF0346FB7197F90730002B0CDBFB79C0
:102F600003F01F02074997F907305B09012000FAB7
:102F700002F2603341F8232000BF0C37BD465DF8F4
:102F8000047B704700E100E080B483B000AF0346EB
:102F90003960FB7197F90730002B0ADB3B68DAB226
:102FA0000C4997F907301201D2B20B4483F8002381
:102FB0000AE03B68DAB20849FB7903F00F03043BEF
:102FC0001201D2B20B441A7600BF0C37BD465DF831
:102FD000047B704700E100E000ED00E080B489B0C0
:102FE00000AFF860B9607A60FB6803F00703FB612B
:102FF000FB69C3F10703042B28BF0423BB61FB69F2
:103000000433062B02D9FB69033B00E000237B61FC
:103010004FF0FF32BB6902FA03F3DA43BB681A4090
:103020007B699A404FF0FF317B6901FA03F3D94382
:103030007B680B40134318462437BD465DF8047B7C
:103040007047000080B582B000AF78607B68013BBC
:10305000B3F1807F01D301230FE00A4A7B68013B73
:1030600053600F214FF0FF30FFF78EFF054B00221A
:103070009A60044B07221A60002318460837BD46A1
:1030800080BD00BF10E000E080B582B000AF786086
:103090007868FFF7EDFE00BF0837BD4680BD80B5FC
:1030A00086B000AF0346B9607A60FB73FFF704FF98
:1030B00078617A68B9687869FFF790FF024697F9F6
:1030C0000F3011461846FFF75FFF00BF1837BD46A7
:1030D00080BD80B582B000AF0346FB7197F9073021
:1030E0001846FFF7F7FE00BF0837BD4680BD80B524
:1030F00082B000AF78607868FFF7A4FF03461846F7
:103100000837BD4680BD80B582B000AF0346FB7175
:1031100097F907301846FFF7FBFE00BF0837BD469A
:1031200080BD80B582B000AF0346FB7197F90730D0
:103130001846FFF70BFF00BF0837BD4680BD0000F3
:1031400080B582B000AF0023FB710C4B1B680B4AAB
:1031500043F4807313600320FFF796FF0F2000F005
:103160000FF80346002B02D00123FB7101E005F0AC
:10317000E3FFFB7918460837BD4680BD0040005884
:1031800080B584B000AF78600023FB73174B1B78C9
:10319000002B24D0FEF7AEFF0246144B1B781946D5
:1031A0004FF47A73B3FBF1F3B2FBF3F31846FFF776
:1031B0009EFF0346002B0FD17B680F2B09D80022FE
:1031C00079684FF0FF30FFF76AFF094A7B681360A8
:1031D00007E00123FB7304E00123FB7301E00123FB
:1031E000FB73FB7B18461037BD4680BD6C0000208A
:1031F0006800002080B400AF064B1B781A46064BCF
:103200001B681344044A136000BFBD465DF8047B8D
:10321000704700BF6C0000204C02002080B400AF5B
:10322000034B1B681846BD465DF8047B704700BF22
:103230004C02002080B400AF034B1B681846BD460B
:103240005DF8047B704700BF6800002080B584B043
:1032500000AF78600023FB737B68002B1ED0134BFC
:10326000BB607B6893F83830DBB2002B02D1786802
:1032700005F072FFB86800F05BF8BB681B6843F0AC
:103280000112BB681A60786800F02CF87B68002295
:103290005A637B68012283F8382001E00123FB7325
:1032A000FB7B18461037BD4680BD00BF000C0058A0
:1032B00080B485B000AFF860B9601346FB7100BF01
:1032C0001437BD465DF8047B704780B485B000AF0D
:1032D000F860B9601346FB7100BF1437BD465DF856
:1032E000047B704780B485B000AF78600023FB603A
:1032F0000FE07A68FB689B0013440B4A5A607A68B7
:10330000FB6806339B001344084A5A60FB6801338C
:10331000FB60FB68052BECD900BF00BF1437BD462E
:103320005DF8047B704700BFB1320008CB32000863
:1033300080B483B000AF78607B6800221A607B683D
:103340004FF03F125A607B683F229A6000BF0C37F3
:10335000BD465DF8047B704780B483B000AF7860F1
:103360004FF0B043D3F888207B68134018460C37E1
:10337000BD465DF8047B704780B483B000AF7860D1
:103380004FF0B043D3F888207B68134018460C37C1
:10339000BD465DF8047B704780B582B000AF7860B1
:1033A0007B68002B01D1012342E07B68D3F8883091
:1033B000002B06D17B68002283F88420786805F012
:1033C000EFFE7B682422C3F888207B681B681A689C
:1033D0007B681B6822F001021A607B689B6A002BE5
:1033E00002D0786800F0DEFA786800F0B3F803469F
:1033F000012B01D101231BE07B681B685A687B68A5
:103400001B6822F490425A607B681B689A687B684C
:103410001B6822F02A029A607B681B681A687B6826
:103420001B6842F001021A60786800F05DFB0346F9
:1034300018460837BD4680BD80B58AB002AFF86037
:10344000B9603B601346FB80FB68D3F88830202BC3
:103450007BD1BB68002B02D0FB88002B01D101235C
:1034600074E0FB680022C3F89020FB682122C3F8B7
:103470008820FFF7D3FE7861FB68FA88A3F8542010
:10348000FB68FA88A3F85620FB689B68B3F5805F59
:1034900008D1FB681B69002B04D10023FB61BB68CA
:1034A000BB6103E0BB68FB610023BB6130E03B68AC
:1034B00000937B6900228021F86800F0BFFB03467F
:1034C000002B05D0FB682022C3F8882003233DE0B1
:1034D000FB69002B0BD1BB691B881A46FB681B6874
:1034E000C2F308029A62BB690233BB6107E0FB6961
:1034F0001A78FB681B689A62FB690133FB61FB6801
:10350000B3F856309BB2013B9AB2FB68A3F8562041
:10351000FB68B3F856309BB2002BC8D13B680093D0
:103520007B6900224021F86800F088FB0346002BED
:1035300005D0FB682022C3F88820032306E0FB683F
:103540002022C3F88820002300E0022318462037F9
:10355000BD4680BD2DE9B04F8CB000AF786100232F
:1035600087F82A307B699A687B691B691A437B69F3
:103570005B691A437B69DB691343FB627B691B68E8
:103580001A68AF4B13407A691268F96A0B431360EB
:103590007B691B685B6823F440517B69DA687B694F
:1035A0001B680A435A607B699B69FB627B691B68E5
:1035B000A44A934204D07B691B6AFA6A1343FB62F4
:1035C0007B691B689B6823F06E4323F430637A6940
:1035D0001268F96A0B4393607B691B68DB6A23F00E
:1035E0000F017B695A6A7B691B680A43DA627B694F
:1035F0001B68954A934225D10320FFF7ADFE034691
:10360000032B1BD801A252F823F000BF1D3600087F
:103610002D3600082536000835360008012387F8C6
:103620002B3042E0022387F82B303EE0042387F85A
:103630002B303AE0082387F82B3036E0102387F848
:103640002B3032E07B691B687E4A93422AD14FF4CB
:103650004060FFF791FE0346B3F5406F1AD0B3F513
:10366000406F1BD8B3F5006F0CD0B3F5006F15D8C1
:10367000002B03D0B3F5806F08D00FE0002387F84C
:103680002B3012E0022387F82B300EE0042387F85A
:103690002B300AE0082387F82B3006E0102387F848
:1036A0002B3002E0102387F82B307B691B68654ABA
:1036B000934240F0978097F82B30082B23D801A233
:1036C00052F823F0E936000807370008F136000801
:1036D00007370008F73600080737000807370008E3
:1036E00007370008FF360008FEF718FD786210E083
:1036F000564B7B620DE0FEF791FC786209E04FF4D7
:1037000000437B6205E000237B62012387F82A30B7
:1037100000BF7B6A002B00F02B817B695B6A4C4AFF
:1037200032F813301A467B6AB3FBF2F3BB617B6954
:103730005A6813465B001344BA699A4205D37B6901
:103740005B681B03BA699A4203D9012387F82A30C0
:103750000EE17B6A0022BB60FA607B695B6A3C4ACF
:1037600032F813309BB200223B607A60D7E9002325
:10377000D7E90201FCF7CAFF02460B46104619467C
:103780004FF000024FF000030B0243EA1063020205
:1037900079694968490800200C46054612EB04087F
:1037A00043EB05097B695B6800229A4693465246C3
:1037B0005B4640464946FCF7A9FF02460B461346C6
:1037C0003B623B6AB3F5407F08D33B6AB3F5801F89
:1037D00004D27B691B683A6ADA60C9E0012387F882
:1037E0002A30C5E07B69DB69B3F5004F6DD197F8EE
:1037F0002B30013B072B2DD801A252F823F000BF3C
:103800002138000829380008553800082F380008EA
:103810005538000855380008553800083738000872
:10382000FEF792FC78621BE0084B7B6218E0FEF723
:10383000F5FB786214E04FF400437B6210E000BFB8
:10384000F369FFCF00800040003801400024F400FD
:10385000B4B6000800237B62012387F82A3000BF3A
:103860007B6A002B00F084807B695B6A4B4A32F8EC
:1038700013301A467B6AB3FBF2F35A007B695B682C
:103880005B081A447B695B68B2FBF3F33B623B6AFB
:103890000F2B16D93B6AB3F5803F12D23B6A9BB21D
:1038A00023F00F03FB833B6A5B089BB203F0070323
:1038B0009AB2FB8B1343FB837B691B68FA8BDA603C
:1038C00056E0012387F82A3052E097F82B30013B6D
:1038D000072B22D801A252F823F000BFFD380008C0
:1038E000053900081B3900080B3900081B3900088E
:1038F0001B3900081B39000813390008FEF724FCA7
:10390000786210E0264B7B620DE0FEF787FB786261
:1039100009E04FF400437B6205E000237B62012352
:1039200087F82A3000BF7B6A002B21D07B695B6A55
:103930001A4A32F813301A467B6AB3FBF2F27B69FB
:103940005B685B081A447B695B68B2FBF3F33B621C
:103950003B6A0F2B09D93B6AB3F5803F05D23B6A1E
:103960009AB27B691B68DA6002E0012387F82A308B
:103970007B690122A3F86A207B690122A3F86820F1
:103980007B6900225A677B6900229A6797F82A3080
:1039900018463037BD46BDE8B08F00BFB4B600084A
:1039A0000024F40080B483B000AF78607B689B6A29
:1039B00003F00803002B0AD07B681B685B6823F4C4
:1039C00000417B689A6B7B681B680A435A607B687E
:1039D0009B6A03F00103002B0AD07B681B685B68BD
:1039E00023F400317B68DA6A7B681B680A435A60FB
:1039F0007B689B6A03F00203002B0AD07B681B687C
:103A00005B6823F480317B681A6B7B681B680A4310
:103A10005A607B689B6A03F00403002B0AD07B6822
:103A20001B685B6823F480217B685A6B7B681B688A
:103A30000A435A607B689B6A03F01003002B0AD08C
:103A40007B681B689B6823F480517B68DA6B7B681A
:103A50001B680A439A607B689B6A03F02003002B73
:103A60000AD07B681B689B6823F400517B681A6C42
:103A70007B681B680A439A607B689B6A03F040037B
:103A8000002B1AD07B681B685B6823F480117B686D
:103A90005A6C7B681B680A435A607B685B6CB3F5A1
:103AA000801F0AD17B681B685B6823F4C0017B68B8
:103AB0009A6C7B681B680A435A607B689B6A03F0B8
:103AC0008003002B0AD07B681B685B6823F400210D
:103AD0007B68DA6C7B681B680A435A6000BF0C374E
:103AE000BD465DF8047B704780B598B002AF786042
:103AF0007B680022C3F89020FFF790FB78657B6815
:103B00001B681B6803F00803082B2FD16FF07E435E
:103B100000937B6D00224FF40011786800F08EF85E
:103B20000346002B22D07B681B68BB63BB6B53E84A
:103B3000003F7B637B6B23F080033B657B681B68E6
:103B40001A463B6D7B643A64396C7A6C41E8002319
:103B5000FB63FB6B002BE6D17B682022C3F8882037
:103B60007B68002283F88420032363E07B681B6862
:103B70001B6803F00403042B49D16FF07E430093CC
:103B80007B6D00224FF48001786800F057F80346FF
:103B9000002B3CD07B681B687B627B6A53E8003F4C
:103BA0003B623B6A23F49073FB647B681B681A4694
:103BB000FB6C3B63FA62F96A3A6B41E80023BB6233
:103BC000BB6A002BE6D17B681B6808333B613B690D
:103BD00053E8003FFB60FB6823F00103BB647B6894
:103BE0001B680833BA6CFA61BB61B969FA6941E8CC
:103BF00000237B617B69002BE5D17B682022C3F821
:103C00008C207B68002283F88420032312E07B68E9
:103C10002022C3F888207B682022C3F88C207B6890
:103C20000022DA667B6800221A677B68002283F82C
:103C30008420002318465837BD4680BD80B584B027
:103C400000AFF860B9603B601346FB714FE0BB69A1
:103C5000B3F1FF3F4BD0FFF7E1FA02463B68D31ABE
:103C6000BA699A4202D3BB69002B01D103234EE00B
:103C7000FB681B681B6803F00403002B37D0BB688C
:103C8000802B34D0BB68402B31D0FB681B68DB69CC
:103C900003F00803082B10D1FB681B6808221A6286
:103CA000F86800F038F8FB680822C3F89020FB6839
:103CB000002283F88420012329E0FB681B68DB696C
:103CC00003F40063B3F5006F11D1FB681B684FF478
:103CD00000621A62F86800F01EF8FB682022C3F840
:103CE0009020FB68002283F8842003230FE0FB6808
:103CF0001B68DA69BB681340BA689A420CBF01239B
:103D00000023DBB21A46FB799A42A0D00023184662
:103D10001037BD4680BD80B495B000AF78607B6839
:103D20001B687B637B6B53E8003F3B633B6B23F477
:103D30009073FB647B681B681A46FB6C3B64FA63F8
:103D4000F96B3A6C41E80023BB63BB6B002BE6D1F7
:103D50007B681B6808333B623B6A53E8003FFB61AA
:103D6000FB6923F0805323F00103BB647B681B686D
:103D70000833BA6CFA62BB62B96AFA6A41E8002396
:103D80007B627B6A002BE3D17B68DB6E012B18D151
:103D90007B681B68FB60FB6853E8003FBB60BB6847
:103DA00023F010037B647B681B681A467B6CBB6145
:103DB0007A617969BA6941E800233B613B69002B6C
:103DC000E6D17B682022C3F88C207B680022DA666B
:103DD0007B6800225A6700BF5437BD465DF8047BFC
:103DE000704780B485B000AF78607B6893F884300A
:103DF000012B01D1022327E07B68012283F8842074
:103E00007B682422C3F888207B681B681B68FB60E2
:103E10007B681B681A687B681B6822F001021A60C5
:103E2000FB6823F00053FB607B6800225A667B68C6
:103E30001B68FA681A607B682022C3F888207B68B8
:103E4000002283F88420002318461437BD465DF80D
:103E5000047B704780B584B000AF786039607B68C0
:103E600093F88430012B01D102232DE07B680122DD
:103E700083F884207B682422C3F888207B681B6831
:103E80001B68FB607B681B681A687B681B6822F0F4
:103E900001021A607B681B689B6823F060417B68A5
:103EA0001B683A680A439A60786800F04FF87B68AC
:103EB0001B68FA681A607B682022C3F888207B6838
:103EC000002283F88420002318461037BD4680BDA9
:103ED00080B584B000AF786039607B6893F8843037
:103EE000012B01D102232DE07B68012283F884207D
:103EF0007B682422C3F888207B681B681B68FB60F2
:103F00007B681B681A687B681B6822F001021A60D4
:103F10007B681B689B6823F060617B681B683A685C
:103F20000A439A60786800F011F87B681B68FA68A9
:103F30001A607B682022C3F888207B68002283F8FF
:103F40008420002318461037BD4680BD80B485B05C
:103F500000AF78607B685B6E002B08D17B68012224
:103F6000A3F86A207B680122A3F8682031E00823C7
:103F7000FB730823BB737B681B689B685B0EDBB21B
:103F800003F007037B737B681B689B685B0FDBB2E6
:103F900003F007033B73BB7B3A7B11498A5C02FB4E
:103FA00003F33A7B0F498A5C93FBF2F39AB27B6886
:103FB000A3F86A20FB7B7A7B09498A5C02FB03F346
:103FC0007A7B08498A5C93FBF2F39AB27B68A3F888
:103FD000682000BF1437BD465DF8047B704700BF02
:103FE000CCB60008D4B6000880B584B000AF7860C5
:103FF0000123FB737B68002B01D101237AE07B68EE
:1040000093F82130DBB2002B06D17B68002283F8C5
:104010002020786805F008F97B68022283F82120C7
:104020007B681B68DB6803F01003102B58D07B689B
:104030001B68CA225A627B681B6853225A627868DE
:1040400000F082F80346FB73FB7B002B2CD17B68CE
:104050001B689B687A68126823F4E00323F040032E
:1040600093607B681B6899687B685A687B681B69EA
:104070001A437B689B691A437B681B680A439A60F2
:104080007B681B687A68D2681A617B681B6819694B
:104090007B689B681A047B681B680A431A6178680E
:1040A00000F08AF80346FB73FB7B002B13D17B687F
:1040B0001B68DA6C7B681B6822F00302DA647B6899
:1040C0001B68D96C7B68DA697B685B691A437B681B
:1040D0001B680A43DA647B681B68FF225A6201E0AE
:1040E0000023FB73FB7B002B03D17B68012283F849
:1040F0002120FB7B18461037BD4680BD80B584B0BB
:1041000000AF78600023FB607B681B680D4ADA60B3
:10411000FFF784F8F86009E0FFF780F80246FB68D3
:10412000D31AB3F57A7F01D9032307E07B681B68B4
:10413000DB6803F02003002BEED000231846103775
:10414000BD4680BD5FFF010080B584B000AF7860E0
:104150000023BB600023FB737B681B68DB6803F0F4
:104160004003002B23D17B681B68DA687B681B68DF
:1041700042F08002DA60FFF751F8B8600DE0FFF717
:104180004DF80246BB68D31AB3F57A7F05D97B6830
:10419000042283F821200123FB737B681B68DB6802
:1041A00003F04003002B02D1FB7B012BE7D1FB7B0B
:1041B00018461037BD4680BD80B584B000AF78602A
:1041C0000023FB737B681B68DA687B681B6822F03E
:1041D0008002DA607B681B689B6803F02003002B79
:1041E0000BD17868FFF78AFF0346002B05D07B6868
:1041F000042283F821200123FB73FB7B1846103730
:10420000BD4680BD80B400AF054B00221A60054B4F
:1042100000221A6000BFBD465DF8047B704700BFF6
:10422000500200205402002080B487B000AF7860B4
:104230000B46FB70EFF310833B613B697B6172B609
:1042400000BFFB78002B08D0012B0ED10D4B1A6854
:104250007B6813430B4A136008E07B68DA43094B21
:104260001B681340074A136000E000BF7B69FB60D6
:10427000FB6883F3108800BF00BF1C37BD465DF8A4
:10428000047B70475402002080B590B000AF786086
:10429000734B1B68BB62724B1A687B681340704A91
:1042A0001360704B1B68BB636F4B1B687B636F4B6A
:1042B0001B683B636E4B1B68FB628DE00023FB6356
:1042C00002E0FB6B0133FB636A4AFB6B52F833205D
:1042D0003B6B1A40624B1B681340002BF1D0654AC0
:1042E000FB6B52F833203B6B1A405D4B1B6813404D
:1042F0007B62604AFB6BDB0013445A687B6A1340A5
:10430000002B06D15B4AFB6BDB0013444FF0FF32FE
:104310005A60584AFB6BDB0013445A687B6A1340AF
:10432000184600F0C1F903461A46534B1A60514A29
:10433000FB6BDB0013445A684F4B1B68012101FAE9
:1043400003F3DB431A404B49FB6BDB000B445A6021
:10435000EFF31083BB61BB693B6272B600BF464B93
:104360001B68012202FA03F3DA433E4B1B68134039
:104370003C4A13600123FB6313E0FB6B013B3D4AA6
:1043800052F833103C4B1B68012202FA03F3DA4364
:10439000FB6B013B0A40374941F83320FB6B013B83
:1043A000FB63FB6B002BE8D13B6A7B617B6983F38A
:1043B000108800BF304B1B68304A52F823309847B2
:1043C000284B1B68BB63284B1B687B63274B1B6810
:1043D0003B63274B1B68FB62BA6B3B6B1A40204B5D
:1043E0001B681340002B05D07A6BFB6A1340002B2F
:1043F0003FF464AF204B4FF0FF321A6000F046F9F3
:10440000EFF310833B613B69FB6172B600BF154B54
:104410001B68BB63144B1B687B63144B1B683B63BB
:10442000BA6B3B6B1A400E4B1B681340002B07D135
:104430000F4B1A687B6B1340002B01D103F01CF863
:10444000FB69FB60FB6883F3108800BF00F025F96F
:10445000034ABB6A136000BF4037BD4680BD00BF42
:1044600074000020580200205C0200207000002030
:1044700060020020E80200206402002068020020A0
:1044800080B588B000AFF860B9607A60EFF3108350
:104490007B617B69FB6172B600BFF86800F004F9CC
:1044A00003461946064A7B6842F82130FB69BB6126
:1044B000BB6983F3108800BF00BF2037BD4680BDB5
:1044C0006802002080B487B000AF78603960EFF3F5
:1044D0001083FB60FB687B6172B600BF0D4B1A68EE
:1044E0007B6813430B4A13600B4A3B6852F8332036
:1044F0007B681A4308493B6841F833207B693B617C
:104500003B6983F3108800BF00BF1C37BD465DF8D0
:10451000047B704758020020E802002080B487B076
:1045200000AF7860EFF31083FB60FB687B6172B6CD
:1045300000BF7B68DA43084B1B681340064A1360D0
:104540007B693B613B6983F3108800BF00BF1C3768
:10455000BD465DF8047B70477000002080B487B0D2
:1045600000AF7860EFF31083FB60FB687B6172B68D
:1045700000BF094B1A687B681343074A13607B69C5
:104580003B613B6983F3108800BF00BF1C37BD4609
:104590005DF8047B704700BF7000002080B487B0D6
:1045A00000AF7860EFF31083FB60FB687B6172B64D
:1045B00000BF094B1A687B681343074A13607B6985
:1045C0003B613B6983F3108800BF00BF1C37BD46C9
:1045D0005DF8047B704700BF5C02002080B588B0A6
:1045E00000AF78601F4B1B68BB611E4B1B68B3F1AB
:1045F000FF3F02D10023FB6105E01A4B1B6801223B
:1046000002FA03F3FB61184B1B687B61164A7B6857
:10461000136003E07968F86900F02AF8134B1A6810
:104620007B681340002BF5D00E4ABB691360EFF393
:104630001083BB60BB683B6172B600BF7B68DA4326
:104640000A4B1B681340094A13603B69FB60FB6817
:1046500083F3108800BF044A7B69136000BF2037D2
:10466000BD4680BD64020020600200205C02002084
:1046700080B582B000AF786039607B68DB43184654
:10468000FFF702FE00BF0837BD4680BD80B400AF13
:1046900000BFBD465DF8047B704780B400AF00BF2B
:1046A000BD465DF8047B704780B485B000AF78608C
:1046B0007B68FB60FB68002B01D1202303E0FB68D3
:1046C000B3FA83F3DBB2C3F11F03DBB2184614372E
:1046D000BD465DF8047B704780B500AF04F028FB51
:1046E00000BF80BD80B500AF104B114A1A600F4B60
:1046F000104A5A600D4B104A9A600C4B0F4A1A62CE
:104700000A4B0F4A5A62094B0E4ADA60074B0E4AAF
:104710001A61064B0D4A5A61044B0D4A9A61034BCC
:104720000C4ADA6104F018FB00BF80BD00000320D2
:1047300028000320480003205800032068000320BD
:104740007000032078000320800003209C000320D9
:10475000A0000320AC00032080B584B000AF7860D7
:104760007B68FB60114800F057FB114B5B68BB6036
:10477000FB689A68BB681A60FB68DA68BB68DA6035
:10478000BB680C4A5A60BB68084A9A6004F0FAFA9F
:10479000FB681B68084A1360FB685B68074A136084
:1047A000002318461037BD4680BD00BFC800032057
:1047B00000000320E4010320F8020020FC02002096
:1047C00080B582B000AF78600B467B80094B5B6898
:1047D0001B6801221A72074B5B681B68194601208F
:1047E00000F06CF904F0E8FA002318460837BD46DB
:1047F00080BD00BF0000032080B582B000AF1CE088
:104800003B1D1946124800F0A6FB7B685B7A0F2B14
:1048100003D07B685B7A0E2B05D17B68194602209A
:1048200000F04CF904E07B681946032000F046F9DB
:10483000084B1B687A6810469847054800F0FCFA58
:104840000346002BDCD000BF0837BD4680BD00BF4B
:10485000C8000320F802002080B500AF024B1B689F
:10486000984700BF80BD00BFFC02002080B584B027
:1048700000AF78607B68FB600D4800F0CDFA0D4B0F
:10488000DB68BB60FB689A68BB681A60BB68084A53
:104890005A6004F0C3FAFB681B68074A1360FB68A0
:1048A0005B68064A1360002318461037BD4680BD7A
:1048B000D000032000000320000300200403002098
:1048C00080B582B000AF78600B467B80094BDB6817
:1048D0001B6810221A72074BDB681B6819460420FC
:1048E00000F0ECF804F0B4FA002318460837BD468F
:1048F00080BD00BF0000032080B500AF074BDB6820
:104900001B681946052000F0D9F8054B1B68034ABF
:10491000D26812681046984700BF80BD000003208F
:104920000003002080B582B000AF0EE03B1D1946A9
:104930000B4800F010FB7B681946062000F0BEF81B
:10494000084B1B687A6810469847054800F074FACF
:104950000346002BEAD000BF0837BD4680BD00BF2C
:10496000D00003200403002080B582B000AF78603F
:10497000174800F051FA174800F04EFA164B1B6921
:10498000164A1360154B1B687A6892689A60134B3D
:104990001B687A68D268DA60104B1B680C4A1A618F
:1049A0000E4B1B687A6812681A600C4B1B687A6899
:1049B00052685A60094B1B687A6812695A61074B42
:1049C0001B687A6852699A6100BF0837BD4680BD8E
:1049D000B8000320F002002000000320080300209C
:1049E00080B582B000AF78607968074800F06CFA53
:1049F0007968002000F062F8044804F06FFA00BF04
:104A00000837BD4680BD00BFF0020020114A0008F3
:104A100080B582B000AF0CE03B1D19460A4800F09B
:104A20009AFA0A4B1B691B697A681146184600F00E
:104A30004BFA054800F000FA0346002BECD000BF0B
:104A40000837BD4680BD00BFF002002000000320F3
:104A500080B500AF054800F0DFF9054B5B69034AFC
:104A60001A6004F08DFA00BF80BD00BFC0000320B3
:104A70000000032080B582B000AF08E03B1D19465E
:104A8000084800F068FA7B68184600F00DF8054801
:104A900000F0D2F90346002BF0D000BF0837BD4626
:104AA00080BD00BFC000032080B483B000AF786039
:104AB00000BF0C37BD465DF8047B704780B487B0FB
:104AC00000AF03463960FB71FB79062B45D801A284
:104AD00052F823F0F14A0008154B00081B4B000860
:104AE0002F4B00083B4B0008414B00084F4B000880
:104AF0003B687B617B695B7AFF2B05D0FF2B05DC74
:104B00000E2B05D00F2B01E000BF27E000BF25E0F2
:104B100000BF23E03B68FB6020E03B687B617B6972
:104B20005B7A0E2B01D00F2B00E000BF16E03B6834
:104B30007B617B695B7AFF2B10E03B68FB600DE0DB
:104B40003B683B613B695B780E2B00BF06E03B682E
:104B50007B617B695B7AFF2B00E000BF00BF1C37E5
:104B6000BD465DF8047B704780B588B000AF7860C3
:104B700007F10C03FB617B6803F10C02FB692E213A
:104B80004FF6664001F0AAFDFB690B33DB7818464F
:104B90002037BD4680BD80B588B000AF786007F192
:104BA0000C03FB617B6803F10C02FB690F214FF6DC
:104BB000684001F093FDFB690B33DB781846203722
:104BC000BD4680BD80B588B000AF786007F10C03AA
:104BD000FB61FB697A6810214FF6754001F07EFD9C
:104BE000FB690B33DB7818462037BD4680BD0000DB
:104BF00080B48BB000AF786000233B610023FB6082
:104C000000237B6200233B620023FB610023BB6027
:104C10000023BB6100237B614A4BDB6BC3F30D03B5
:104C20003B613B699B0003F1005303F540331B6874
:104C3000BB60BB681B68444A93420FD1BB685B6989
:104C40007B62BB689B693B62BB68DB69FB61BB68DD
:104C5000DB68BB61BB681B697B611AE03B699B0039
:104C600003F1005303F54033FB60FB681B681B69CD
:104C70007B62FB681B685B693B62FB681B689B6926
:104C8000FB61FB681B685B68BB61FB681B689B681A
:104C90007B617B6A1B0EDAB27B681A707B6A1B0C25
:104CA000DAB27B685A707B6A1B0ADAB27B689A7048
:104CB0007B6A1B09DBB203F00F03DAB27B68DA70A0
:104CC0007B6ADBB203F00F03DAB27B681A713B6ACE
:104CD0001B0EDAB27B685A713B6A1B0CDAB27B6836
:104CE0009A713B6A1B0ADAB27B68DA713B6ADAB204
:104CF0007B681A72FB69DAB27B685A72BB691B0E59
:104D0000DAB27B689A72BB691B0CDAB27B68DA7222
:104D1000BB691B0ADAB27B681A737B691B0EDAB2B5
:104D20007B685A737B691B0CDAB27B689A737B6968
:104D3000DAB27B68DA73002318462C37BD465DF87B
:104D4000047B704700400058B95646A980B584B02E
:104D500000AF78607B68FB605C21786804F0DAFD66
:104D60000346002B07D05C21786804F0D3FD03468E
:104D70000133FB600DE02F21786804F0CBFD034682
:104D8000002B06D02F21786804F0C4FD03460133C0
:104D9000FB60FB6818461037BD4680BD80B584B007
:104DA00000AFF860B9607A607B689AB24FF0FF3369
:104DB000B9680448FEF740FB7B6818461037BD46CB
:104DC00080BD00BFA003002080B485B000AF0346C3
:104DD000FB710F4BFB6002E0FB68083BFB60FB686C
:104DE00007331B78FA799A4203D0FB68094A934249
:104DF000F2D1FB6807331B78FA799A4201D000237D
:104E0000FB60FB6818461437BD465DF8047B7047AD
:104E1000F873FF1F0070FF1F80B483B000AF78608D
:104E20007B687A681A607B687A685A6000BF0C37C2
:104E3000BD465DF8047B704780B487B000AF7860F2
:104E4000EFF31083FB60FB683B6172B600BF7B68C9
:104E50001B687A689A4202D10123FB7501E00023A6
:104E6000FB753B69BB60BB6883F3108800BFFB7DAB
:104E700018461C37BD465DF8047B704780B487B088
:104E800000AF78603960EFF31083FB60FB687B61F3
:104E900072B600BF7B681A683B681A603B687A6824
:104EA0005A607B683A681A603B681B683A685A60C7
:104EB0007B693B613B6983F3108800BF00BF1C37EF
:104EC000BD465DF8047B704780B487B000AF786062
:104ED0003960EFF31083FB60FB687B6172B600BF43
:104EE0003B687A681A607B685A683B685A607B68DE
:104EF0003A685A603B685B683A681A607B693B6154
:104F00003B6983F3108800BF00BF1C37BD465DF8C6
:104F1000047B704780B487B000AF7860EFF31083F4
:104F2000FB60FB687B6172B600BF7B685B687A6878
:104F300012681A607B681B687A6852685A607B69DD
:104F40003B613B6983F3108800BF00BF1C37BD463F
:104F50005DF8047B704780B586B000AF786039603B
:104F6000EFF31083FB60FB687B6172B600BF7B6868
:104F70001A683B681A607B681B681846FFF7CAFF0F
:104F80007B693B613B6983F3108800BF00BF183722
:104F9000BD4680BD80B584B000AFF860B9607A606E
:104FA0007A68B968F86804F0D1FC034618461037EF
:104FB000BD4680BD80B584B000AFF860B9607A604E
:104FC0007A68B968F868FBF761FD03461846103740
:104FD000BD4680BD80B588B000AF0023FB7107F1EE
:104FE0000803182200211846FFF7E4FF3F233B8106
:104FF00081237B81FB1DBB610123FB6107F108035A
:105000000021184601F0CEF90346002B01DAFF23F8
:1050100000E0FB7918462037BD4680BDB0B5CEB064
:1050200000AF05460C461046194607F59C73A3F2DF
:1050300031132A461A7007F59C73A3F59A7322461A
:105040001A8007F59C73A3F59B7302461A8007F537
:105050009C73A3F599730A461A7007F11003C7F8F9
:10506000343197F84C31083307F110021344C7F874
:10507000303197F84C2197F854311344093307F134
:1050800010021344C7F82C3107F59C73A3F22913BF
:1050900000221A700023C7F82831D7F8343107F5F9
:1050A0009C72A2F2311212781A70D7F828310133AB
:1050B000C7F82831D7F8343107F59C72A2F59A72F7
:1050C0001288A3F80120D7F828310233C7F8283115
:1050D000D7F8343107F59C72A2F59B721288A3F8B9
:1050E0000320D7F828310233C7F82831D7F83431F4
:1050F00007F59C72A2F5997212785A71D7F8283187
:105100000133C7F82831D7F8343197F848219A711C
:10511000D7F828310133C7F82831D7F8343197F858
:105120004C21DA71D7F828310133C7F82831D7F884
:105130003431083397F84C21D7F850111846FFF74F
:1051400029FF97F84C31D7F828211344C7F82831A4
:10515000D7F8303197F854211A70D7F82831013335
:10516000C7F82831D7F83031013397F85421D7F8F0
:1051700058111846FFF70EFF97F85431D7F8282139
:105180001344C7F82831D7F82C31B7F85C211A80BE
:10519000D7F828310233C7F82831D7F82C31B7F8BF
:1051A00060215A80D7F828310233C7F8283107F533
:1051B0008873182200211846FFF7FCFE3F23A7F84A
:1051C00010318323A7F8123107F11003C7F8183103
:1051D000D7F82831C7F81C3107F10F03C7F8203181
:1051E0000123C7F8243107F588730021184601F020
:1051F000D9F80346002B01DAFF2304E007F59C737E
:10520000A3F229131B78184607F59C77BD46B0BD5D
:1052100080B5CCB000AF024607F59873A3F229130E
:105220001A7007F11003C7F82C3107F59873A3F231
:10523000211300221A700023C7F82831D7F82C3127
:1052400007F59872A2F2291212781A70D7F828314D
:105250000133C7F8283107F5887318220021184652
:10526000FFF7A8FE3F23A7F810318523A7F81231D6
:1052700007F11003C7F81831D7F82831C7F81C31E7
:1052800007F10F03C7F820310123C7F8243107F5D0
:1052900088730021184601F085F80346002B01DAD7
:1052A000FF2304E007F59873A3F221131B78184637
:1052B00007F59877BD4680BDB0B5CCB000AF0546C8
:1052C0000C461046194607F59873A3F229132A468F
:1052D0001A7007F59873A3F5957322461A7007F5AF
:1052E0009873A3F22B1302461A7007F59873A3F56F
:1052F00096730A461A7007F11003C7F82C3107F5A8
:105300009873A3F2211300221A700023C7F82831E2
:10531000D7F82C3107F59872A2F2291212781A7078
:10532000D7F828310133C7F82831D7F82C3107F5E1
:105330009872A2F5957212785A70D7F82831013315
:10534000C7F82831D7F82C3107F59872A2F22B1242
:1053500012789A70D7F828310133C7F82831D7F876
:105360002C3107F59872A2F596721278DA70D7F898
:1053700028310133C7F82831D7F82C3197F840216C
:105380001A71D7F828310133C7F82831D7F82C31F2
:1053900097F844215A71D7F828310133C7F82831DA
:1053A000D7F82C3197F848219A71D7F82831013372
:1053B000C7F82831D7F82C31D7F84C21C3F807208B
:1053C000D7F828310433C7F82831D7F82C3197F8AB
:1053D0005021DA72D7F828310133C7F8283107F5A0
:1053E0008873182200211846FFF7E4FD3F23A7F831
:1053F00010318623A7F8123107F11003C7F81831CE
:10540000D7F82831C7F81C3107F10F03C7F820314E
:105410000123C7F8243107F588730021184600F0EE
:10542000C1FF0346002B01DAFF2304E007F5987360
:10543000A3F221131B78184607F59877BD46B0BD37
:1054400080B5CCB000AF024607F59873A3F598730A
:10545000196007F59873A3F595731A8007F1100387
:10546000C7F82C3107F59873A3F2211300221A70A4
:105470000023C7F82831D7F82C3107F59872A2F528
:10548000957212881A80D7F828310233C7F828316C
:10549000D7F82C3107F59872A2F598721268C3F804
:1054A0000220D7F828310433C7F8283107F588736C
:1054B000182200211846FFF77DFD3F23A7F8103181
:1054C0008823A7F8123107F11003C7F81831D7F86D
:1054D0002831C7F81C3107F10F03C7F82031012329
:1054E000C7F8243107F588730021184600F05AFFE9
:1054F0000346002B01DAFF2304E007F59873A3F2BB
:1055000021131B78184607F59877BD4680BD90B5E6
:10551000CDB000AF04460846114607F59872A2F5D3
:105520009872136007F59873A3F2291322461A7034
:1055300007F59873A3F5957302461A7007F59873EB
:10554000A3F22B130A461A7007F11003C7F82C3187
:1055500007F10803072200211846FFF72BFD00235F
:10556000C7F82831D7F82C3107F59872A2F2291222
:1055700012781A70D7F828310133C7F82831D7F8D4
:105580002C3107F59872A2F5957212785A70D7F8F7
:1055900028310133C7F82831D7F82C3107F5987234
:1055A000A2F22B1212789A70D7F828310133C7F87B
:1055B000283107F58873182200211846FFF7FAFCF6
:1055C0003F23A7F810318A23A7F8123107F11003FF
:1055D000C7F81831D7F82831C7F81C3107F108038C
:1055E000C7F820310723C7F8243107F58873002155
:1055F000184600F0D7FE0346002B01DAFF232EE009
:1056000007F59873A3F594731B78002B05D007F565
:105610009873A3F594731B7821E007F59873A3F5AD
:105620009473B3F801309AB207F59873A3F59873A1
:105630001B681A8007F59873A3F59473B3F80330C9
:105640009AB2D7F840311A8007F59873A3F594738E
:10565000B3F805309AB2D7F844311A8000231846BF
:1056600007F59A77BD4690BD80B5CCB000AF024635
:1056700007F59873A3F59873196007F59873A3F26B
:1056800029131A7007F11003C7F82C3107F5987326
:10569000A3F2211300221A700023C7F82831D7F88B
:1056A0002C3107F59872A2F2291212781A70D7F8E5
:1056B00028310133C7F82831D7F82C31581C07F5A9
:1056C0009873A3F229131A7807F59873A3F59873C2
:1056D0001968FFF75FFC07F59873A3F229131B788D
:1056E000D7F828211344C7F8283107F58873182202
:1056F00000211846FFF75EFC3F23A7F810318E23E8
:10570000A7F8123107F11003C7F81831D7F828317C
:10571000C7F81C3107F10F03C7F820310123C7F880
:10572000243107F588730021184600F03BFE03463C
:10573000002B01DAFF2304E007F59873A3F221138D
:105740001B78184607F59877BD4680BD80B588B0B0
:1057500000AF0023FB7107F108031822002118464F
:10576000FFF728FC3F233B8192237B81FB1DBB611C
:105770000123FB6107F108030021184600F012FE27
:105780000346002B01DAFF2300E0FB79184620379F
:10579000BD4680BD80B5CCB000AF024607F598731A
:1057A000A3F595731A8007F59873A3F22B130A4695
:1057B0001A7007F11003C7F82C3107F59873A3F29C
:1057C000211300221A700023C7F82831D7F82C3192
:1057D00007F59872A2F5957212881A80D7F82831C9
:1057E0000233C7F82831D7F82C3107F59872A2F2A6
:1057F0002B1212789A70D7F828310133C7F8283164
:1058000007F58873182200211846FFF7D3FB3F23C2
:10581000A7F81031A523A7F8123107F11003C7F834
:105820001831D7F82831C7F81C3107F10F03C7F832
:1058300020310123C7F8243107F588730021184669
:1058400000F0B0FD0346002B01DAFF2304E007F56A
:105850009873A3F221131B78184607F59877BD4675
:1058600080BD80B588B000AF0023FB7107F108034D
:10587000182200211846FFF79DFB3F233B8140F291
:1058800001137B81FB1DBB610123FB6107F1080351
:105890000021184600F086FD0346002B01DAFF23A5
:1058A00000E0FB7918462037BD4680BD90B5CFB0EB
:1058B00000AF044607F59C70A0F59C70016010468F
:1058C000194607F59C73A3F2311322461A7007F5A7
:1058D0009C73A3F5997302461A7007F59C73A3F2A3
:1058E00033130A461A7007F11003C7F8303107F571
:1058F0009C73A3F231131B78012B0AD007F59C731C
:10590000A3F231131B78022B01D1112302E00123F2
:1059100000E0032307F110021344C7F82C3107F10C
:105920000C03032200211846FFF744FB0023C7F8AD
:105930002831D7F8303107F59C72A2F23112127873
:105940001A70D7F828310133C7F8283107F59C734E
:10595000A3F231131B78012B02D0022B04D007E0F5
:10596000022387F8373105E0102387F8373101E04B
:1059700097236CE0D7F83031581C97F8372107F59A
:105980009C73A3F59C731968FFF704FB97F83731F4
:10599000D7F828211344C7F82831D7F82C3107F558
:1059A0009C72A2F5997212781A70D7F828310133D7
:1059B000C7F82831D7F82C3107F59C72A2F23312C0
:1059C00012785A70D7F828310133C7F8283107F513
:1059D0008873182200211846FFF7ECFA3F23A7F836
:1059E00010314FF48173A7F8123107F11003C7F893
:1059F0001831D7F82831C7F81C3107F10C03C7F864
:105A000020310323C7F8243107F588730021184695
:105A100000F0C8FC0346002B01DAFF2317E007F56E
:105A20009C73A3F596731B78002B05D007F59C7328
:105A3000A3F596731B780AE007F59C73A3F596739C
:105A4000B3F801309AB2D7F848311A8000231846CB
:105A500007F59E77BD4690BD90B5D1B000AF044626
:105A6000084607F5A071A1F59C710A60194607F573
:105A7000A073A3F5997322461A8007F5A073A3F2C9
:105A8000331302461A7007F5A073A3F59D730A46F7
:105A90001A8007F11803C7F8383107F5A073A3F28D
:105AA00033131B78012B0AD007F5A073A3F233132D
:105AB0001B78022B01D1132302E0032300E005230E
:105AC00007F118021344C7F8343107F11403032215
:105AD00000211846FFF76EFA0023C7F83031D7F8D7
