:020000040800F2
:1000000000000220010D0008A10C0008A90C000846
:10001000B10C0008B90C0008C10C00080000000079
:10002000000000000000000000000000C90C0008F3
:10003000D70C000800000000E50C0008F30C0008D5
:10004000510D0008510D0008510D0008510D000818
:10005000510D0008510D0008510D0008510D000808
:10006000510D0008510D0008510D0008510D0008F8
:10007000510D0008510D0008510D0008510D0008E8
:10008000510D0008510D0008510D0008510D0008D8
:10009000510D0008510D0008510D0008510D0008C8
:1000A000510D0008510D0008510D0008510D0008B8
:1000B000510D0008510D0008510D0008510D0008A8
:1000C000510D0008510D0008510D0008510D000898
:1000D000510D0008510D0008510D0008510D000888
:1000E000510D0008510D0008510D0008510D000878
:1000F000510D0008510D0008510D0008510D000868
:10010000510D0008510D0008510D0008510D000857
:10011000510D0008510D0008510D0008510D000847
:10012000510D0008510D0008510D0008510D000837
:10013000510D0008510D0008510D0008510D000827
:10014000510D0008510D0008510D0008510D000817
:10015000510D0008510D0008510D0008510D000807
:10016000510D0008510D0008510D0008510D0008F7
:10017000510D0008510D0008510D0008000000004D
:08018000510D0008510D0008AB
:100188000348044B834202D0034B03B1184770471E
:100198000400002004000020000000000548064B71
:1001A8001B1AD90F01EBA301491002D0034B03B16D
:1001B80018477047040000200400002000000000D9
:1001C80010B5064C237843B9FFF7DAFF044B13B197
:1001D8000448AFF300800123237010BD0400002001
:1001E80000000000540D000808B5054B1BB1054977
:1001F8000548AFF30080BDE80840FFF7CFBF00BF58
:100208000000000008000020540D000870B50D4BD8
:100218000D4D5B1B9C100026A64209D100F096FDEF
:100228000A4D0B4B5B1B9C100026A64205D170BDE6
:1002380055F8043B98470136EEE755F8043B9847D4
:100248000136F2E76C0D00086C0D00086C0D000813
:10025800700D000880B400AF064BD3F88830054A0B
:1002680043F47003C2F8883000BFBD465DF8047BD4
:10027800704700BF00ED00E080B48BB000AFF860BD
:10028800B9607A60FB681A68BB687B617B6993FA1E
:10029800A3F33B613B69BB61BB69002B01D1202300
:1002A80003E0BB69B3FA83F3DBB25B00032101FA15
:1002B80003F3DB431A40BB683B623B6A93FAA3F340
:1002C800FB61FB697B627B6A002B01D1202303E081
:1002D8007B6AB3FA83F3DBB25B00796801FA03F354
:1002E8001A43FB681A6000BF2C37BD465DF8047BD3
:1002F800704780B485B000AFF860B9607A60FB6879
:100308005A68BB68DB431A40BB68796801FB03F392
:100318001A43FB685A6000BF1437BD465DF8047B7A
:10032800704780B48BB000AFF860B9607A60FB6842
:100338009A68BB687B617B6993FAA3F33B613B696D
:10034800BB61BB69002B01D1202303E0BB69B3FA71
:1003580083F3DBB25B00032101FA03F3DB431A40AA
:10036800BB683B623B6A93FAA3F3FB61FB697B6260
:100378007B6A002B01D1202303E07B6AB3FA83F365
:10038800DBB25B00796801FA03F31A43FB689A60F1
:1003980000BF2C37BD465DF8047B704780B48BB036
:1003A80000AFF860B9607A60FB68DA68BB687B61A7
:1003B8007B6993FAA3F33B613B69BB61BB69002B83
:1003C80001D1202303E0BB69B3FA83F3DBB25B00FE
:1003D800032101FA03F3DB431A40BB683B623B6A23
:1003E80093FAA3F3FB61FB697B627B6A002B01D163
:1003F800202303E07B6AB3FA83F3DBB25B007968FE
:1004080001FA03F31A43FB68DA6000BF2C37BD46D4
:100418005DF8047B704780B48BB000AFF860B960BA
:100428007A60FB681A6ABB687B617B6993FAA3F3FD
:100438003B613B69BB61BB69002B01D1202303E011
:10044800BB69B3FA83F3DBB29B000F2101FA03F314
:10045800DB431A40BB683B623B6A93FAA3F3FB6138
:10046800FB697B627B6A002B01D1202303E07B6A56
:10047800B3FA83F3DBB29B00796801FA03F31A43FA
:10048800FB681A6200BF2C37BD465DF8047B7047D5
:1004980080B48BB000AFF860B9607A60FB685A6AC4
:1004A800BB681B0A7B617B6993FAA3F33B613B69D9
:1004B800BB61BB69002B01D1202303E0BB69B3FA00
:1004C80083F3DBB29B000F2101FA03F3DB431A40ED
:1004D800BB681B0A3B623B6A93FAA3F3FB61FB69A7
:1004E8007B627B6A002B01D1202303E07B6AB3FA8D
:1004F80083F3DBB29B00796801FA03F31A43FB68C4
:100508005A6200BF2C37BD465DF8047B704780B542
:100518008AB000AF7860396000237B6200233B62B9
:100528003B681B68BB61BB6993FAA3F37B617B697A
:10053800FB61FB69002B01D1202303E0FB69B3FABF
:1005480083F3DBB27B6257E03B681A6801217B6A60
:1005580001FA03F313403B623B6A002B49D03B6826
:100568005B68012B03D03B685B68022B0DD13B68AD
:100578009B681A46396A7868FFF7D3FE3B68DB68E0
:100588001A46396A7868FFF7B4FE3B681B691A4651
:10059800396A7868FFF702FF3B685B68022B21D154
:1005A8003B6AFB60FB6893FAA3F3BB60BB683B61E3
:1005B8003B69002B01D1202303E03B69B3FA83F3A5
:1005C800DBB2072B07D83B685B691A46396A78683B
:1005D800FFF721FF06E03B685B691A46396A7868CD
:1005E800FFF756FF3B685B681A46396A7868FFF779
:1005F80043FE7B6A01337B623B681A687B6A22FA96
:1006080003F3002BA0D1002318462837BD4680BD30
:1006180080B483B000AF786039607A683B68B2FB19
:10062800F3F3074A013B5360054B00229A60044BE1
:1006380005221A6000BF0C37BD465DF8047B704781
:1006480010E000E080B582B000AF78604FF47A71B6
:100658007868FFF7DDFF00BF0837BD4680BD0000A2
:1006680080B485B000AF78600F4B1B68FB60FB68F7
:100678007B68B3F1FF3F0CD07B6801337B6008E0F7
:10068800094B1B6803F48033002B02D07B68013BC5
:100698007B607B68002BF3D100BF00BF1437BD46D9
:1006A8005DF8047B704700BF10E000E080B483B0C1
:1006B80000AF7860044A7B68136000BF0C37BD4602
:1006C8005DF8047B704700BF0000002080B485B04F
:1006D80000AF78607B6803F00703FB600C4BDB68B6
:1006E800BB60BA684FF6FF031340BB60FB681A0291
:1006F800BB68134343F0BF6343F40033BB60044A51
:10070800BB68D36000BF1437BD465DF8047B7047F3
:1007180000ED00E080B400AF044BDB681B0A03F077
:1007280007031846BD465DF8047B704700ED00E0FE
:1007380080B483B000AF03463960FB7197F9073086
:10074800002B0ADB3B68DAB20C4997F90730120133
:10075800D2B20B4483F800230AE03B68DAB20849B6
:10076800FB7903F00F03043B1201D2B20B441A7653
:1007780000BF0C37BD465DF8047B704700E100E020
:1007880000ED00E080B489B000AFF860B9607A602D
:10079800FB6803F00703FB61FB69C3F10703042B44
:1007A80028BF0423BB61FB690433062B02D9FB690C
:1007B800033B00E000237B614FF0FF32BB6902FA84
:1007C80003F3DA43BB681A407B699A404FF0FF3164
:1007D8007B6901FA03F3D9437B680B40134318463E
:1007E8002437BD465DF8047B7047000080B400AF35
:1007F800054B1B68044A43F00103136000BFBD4664
:100808005DF8047B704700BF0038024080B400AF39
:10081800064B1B6803F00203022B0CBF01230023C5
:10082800DBB21846BD465DF8047B704700380240CD
:1008380080B483B000AF7860074B1B6823F0F802E0
:100848007B68DB00044913430B6000BF0C37BD46CF
:100858005DF8047B704700BF0038024080B483B065
:1008680000AF7860064B9B6823F0030204497B685D
:1008780013438B6000BF0C37BD465DF8047B70479F
:100888000038024080B400AF044B9B6803F00C03AF
:100898001846BD465DF8047B704700BF003802402B
:1008A80080B483B000AF7860064B9B6823F0F002F9
:1008B80004497B6813438B6000BF0C37BD465DF865
:1008C800047B70470038024080B483B000AF786082
:1008D800064B9B6823F4E05204497B6813438B6002
:1008E80000BF0C37BD465DF8047B704700380240F6
:1008F80080B483B000AF7860064B9B6823F46042F5
:1009080004497B6813438B6000BF0C37BD465DF814
:10091800047B70470038024080B400AF054B1B6869
:10092800044A43F08073136000BFBD465DF8047B42
:10093800704700BF0038024080B400AF074B1B6807
:1009480003F00073B3F1007F0CBF01230023DBB277
:100958001846BD465DF8047B704700BF003802406A
:1009680080B485B000AFF860B9607A603B600D4B29
:100978005A680D4B1340F968BA6811437A689201B6
:100988000A43084913434B60064B5B6823F4403223
:1009980004493B6813434B6000BF1437BD465DF8FC
:1009A800047B7047003802400080BFFF80B485B0E8
:1009B80000AF7860084B1A6B07497B6813430B63D9
:1009C800054B1A6B7B681340FB60FB6800BF14374C
:1009D800BD465DF8047B70470038024080B485B09E
:1009E80000AF7860084B1A6C07497B6813430B64A7
:1009F800054B1A6C7B681340FB60FB6800BF14371B
:100A0800BD465DF8047B70470038024080B485B06D
:100A180000AF7860084B5A6C07497B6813434B64F6
:100A2800054B5A6C7B681340FB60FB6800BF1437AA
:100A3800BD465DF8047B70470038024080B483B03F
:100A480000AF7860064B1B6823F0070204497B68F7
:100A580013430B6000BF0C37BD465DF8047B70473D
:100A6800003C024080B400AF044B1B6803F007034E
:100A78001846BD465DF8047B704700BF003C024045
:100A880080B483B000AF7860064B1B6823F48042C3
:100A980004497B6813430B6000BF0C37BD465DF803
:100AA800047B70470070004080B400AF074B5B6860
:100AB80003F48043B3F5804F0CBF01230023DBB25E
:100AC8001846BD465DF8047B704700BF00700040C3
:100AD80080B483B000AF786039603B681A047B68E3
:100AE8009A6100BF0C37BD465DF8047B704780B43F
:100AF80085B000AF786039607B685B69FB60FA6835
:100B08003B6813401A04FB68D9433B680B401A43FF
:100B18007B689A6100BF1437BD465DF8047B704757
:100B280080B500AF4FF48040FFF770FF4FF0805062
:100B3800FFF754FF0320FFF7C9FDFFF7EBFD03465E
:100B480000220F211846FFF71DFE034619464FF0F5
:100B5800FF30FFF7EDFD00F027F800F071F84FF4D3
:100B680080511048FFF7C3FF6420FFF779FD4FF469
:100B780000510C48FFF7BBFF6420FFF771FD4FF4ED
:100B880080410848FFF7B3FF6420FFF769FD4FF481
:100B980000410448FFF7ABFF6420FFF761FD00BF89
:100BA800DDE700BF000C024080B500AF0520FFF76D
:100BB80045FF00BFFFF756FF0346052BFAD14FF458
:100BC8008040FFF75DFF1020FFF732FEFFF70EFEB3
:100BD80000BFFFF71BFE0346012BFAD10023A82212
:100BE80008210020FFF7BCFEFFF796FE00BFFFF7C5
:100BF800A3FE0346012BFAD100BFFFF755FF0346BA
:100C0800002BFAD00020FFF74BFE4FF4A050FFF75F
:100C18005BFE4FF40040FFF76BFE0220FFF71EFE5D
:100C280000BFFFF72FFE0346082BFAD10348FFF752
:100C380009FD0248FFF73AFD00BF80BD007A030AAC
:100C480080B586B000AF3B4600221A605A609A60B1
:100C5800DA601A615A618020FFF7A8FE0820FFF7C2
:100C6800A5FE4FF470410B48FFF732FF4FF4704375
:100C78003B6001237B600023BB600023FB600023F3
:100C88003B613B4619460348FFF741FC00BF183754
:100C9800BD4680BD000C024080B400AF00BFFDE738
:100CA80080B400AF00BFFDE780B400AF00BFFDE730
:100CB80080B400AF00BFFDE780B400AF00BFFDE720
:100CC80080B400AF00BFBD465DF8047B704780B4B8
:100CD80000AF00BFBD465DF8047B704780B400AF2D
:100CE80000BFBD465DF8047B704780B400AF00BF0D
:100CF800BD465DF8047B7047DFF834D0FFF7AAFAE9
:100D08000C480D490D4A002302E0D458C45004335E
:100D1800C4188C42F9D30A4A0A4C002301E0136034
:100D28000432A242FBD3FFF771FAFFF7F9FE7047CE
:100D3800000002200000002004000020740D0008BC
:100D48000400002020000020FEE70000F8B500BFE6
:100D5800F8BC08BC9E467047F8B500BFF8BC08BC94
:040D68009E467047EC
:040D6C00F101000889
:040D7000C9010008AD
:040D74000024F40063
:0400000508000D01E1
:00000001FF
