:020000040800F2
:1000000000000220E11C00088D1B0008951B000861
:100010009D1B0008A51B0008AD1B00080000000088
:100020000000000000000000000000008145000802
:10003000B51B000800000000E1480008494900081D
:10004000311D0008311D0008311D0008311D000858
:10005000311D0008311D0008311D0008311D000848
:10006000311D0008311D0008311D0008311D000838
:10007000311D0008311D0008311D0008311D000828
:10008000311D0008311D0008311D0008000000006E
:10009000000000000000000000000000311D00080A
:1000A000311D0008C51B0008311D0008311D000866
:1000B000311D0008311D0008311D0008311D0008E8
:1000C000311D0008311D0008311D0008311D0008D8
:1000D000311D0008311D00086D4E000800000000B1
:1000E000311D0008311D0008311D0008000000000E
:1000F000000000000000000000000000311D0008AA
:1001000000000000311D0008311D0008311D0008ED
:1001100000000000000000000000000000000000DF
:10012000311D0008311D0008311D0008311D000877
:10013000311D000800000000000000000000000069
:10014000000000000000000000000000311D000859
:10015000311D0008311D0008311D0008311D000847
:10016000311D0008311D00080000000000000000E3
:10017000000000000000000000000000000000007F
:1001800000000000311D0008000000000000000019
:08019000311D0008311D0008BB
:1001A000F0B400EB4003DFF8880000EBC30000F17F
:1001B00018063069F7687568874232D3B368DC1B6C
:1001C000631E934214D37D19D01900BF11F8013B6F
:1001D00005F8013B013A05D011F8013B05F8013B58
:1001E000013AF3D1BFF35F8FF0600120F0BC70479C
:1001F000C018904219D37819121B11F8013B00F86E
:10020000013B013CF9D1141C05D011F8013B05F864
:10021000013B013AF9D1BFF35F8FF4600120F0BCDC
:100220007047C01B01389042CDD20020F0BC70470F
:10023000D02E012053B94AB9002908BF00281CBF9D
:100240004FF0FF314FF0FF3000F00CB8ADF1080C6B
:100250006DE904CE06F0A0FCDDF804E0DDE9022340
:1002600004B07047704700BF0348044B834202D07C
:10027000034B03B1184770471800002018000020F6
:10028000000000000548064B1B1AD90F01EBA30123
:10029000491002D0034B03B11847704718000020E3
:1002A000180000200000000010B5064C237843B968
:1002B000FFF7DAFF044B13B10448AFF300800123CA
:1002C000237010BD1800002000000000CC6E000854
:1002D00008B5054B1BB105490548AFF30080BDE8E3
:1002E0000840FFF7CFBF00BF000000001C00002047
:1002F000CC6E000802440346934200D1704703F8D5
:10030000011BF9E770B50D4B0D4D5B1B9C100026D2
:10031000A64209D106F0DAFD0A4D0B4B5B1B9C107F
:100320000026A64205D170BD55F8043B984701361A
:10033000EEE755F8043B98470136F2E72C700008C9
:100340002C7000082C7000083070000880B586B052
:1003500002AF01F0B1FB00F083F800F0E9F8394892
:1003600004F072FD04F09AFB374B00930023012246
:100370004FF4FA71354803F0CFFBF860FB68002BAF
:100380000BD14FF0500383F31188BFF36F8FBFF38E
:100390004F8FBB6000BF00BFFDE702F003FE0246C7
:1003A0000023009300230121F86803F00FFC284B81
:1003B0000093002301224FF4FA61264803F0ACFBBE
:1003C000F860FB68002B0BD14FF0500383F31188CA
:1003D000BFF36F8FBFF34F8F7B6000BF00BFFDE7A0
:1003E00002F0E0FD02460023009300230121F8689B
:1003F00003F0ECFB184B00930023012240F6B831C8
:10040000164803F089FBF860FB68002B0BD14FF016
:10041000500383F31188BFF36F8FBFF34F8F3B609F
:1004200000BF00BFFDE702F0BDFD024600230093C0
:1004300000230121F86803F0C9FB02F043FC00BF70
:10044000FDE700BF20A10700B9050008E46E000821
:10045000F5050008EC6E000831060008F46E00088F
:1004600080B594B000AF07F11C0334220021184678
:10047000FFF740FF07F1080300221A605A609A60F4
:10048000DA601A6100237B60274B1B6C264A43F01D
:1004900080531364244B1B6C03F080537B607B6898
:1004A00000233B60214B1B68204A43F44043136008
:1004B0001E4B1B6803F440433B603B680123FB6118
:1004C0004FF480333B6202237B634FF48003BB63B2
:1004D0000423FB6364233B6402237B640423BB6427
:1004E00007F11C03184600F0B9FD0346002B01D0AC
:1004F00000F0CEF80F23BB600223FB6000233B61BA
:100500004FF480537B610023BB6107F10803032193
:10051000184600F065FB0346002B01D000F0B8F848
:1005200000BF5037BD4680BD00380240007000401B
:1005300080B588B000AF07F10C0300221A605A6042
:100540009A60DA601A610023BB60194B1B6B184A72
:1005500043F080031363164B1B6B03F08003BB60F7
:10056000BB6800237B60124B1B6B114A43F00803EE
:1005700013630F4B1B6B03F008037B607B68002247
:100580004FF4E0410B4801F081F94FF4E043FB6088
:1005900001233B6100237B610023BB6107F10C0356
:1005A0001946044800F0DEFF00BF2037BD4680BD7D
:1005B00000380240000C024080B584B000AF786083
:1005C0007B68002B0BD14FF0500383F31188BFF3EE
:1005D0006F8FBFF34F8FFB6000BF00BFFDE74FF48D
:1005E0008051034801F06BF900BF1037BD4680BD54
:1005F000000C024080B584B000AF78607B68002BAF
:100600000BD14FF0500383F31188BFF36F8FBFF30B
:100610004F8FFB6000BF00BFFDE74FF40051034860
:1006200001F04DF900BF1037BD4680BD000C0240FF
:1006300080B584B000AF78607B68002B0BD14FF0A1
:10064000500383F31188BFF36F8FBFF34F8FFB60AD
:1006500000BF00BFFDE74FF48041034801F02FF9D0
:1006600000BF1037BD4680BD000C024080B582B08F
:1006700000AF78607B681B68044A934201D101F0A7
:100680003DFA00BF0837BD4680BD00BF00000140F5
:1006900080B400AF72B600BF00BFFDE780B582B086
:1006A00000AF78607B68002B01D1012341E07B68BB
:1006B00093F83D30DBB2002B06D17B68002283F833
:1006C0003C20786800F039F87B68022283F83D20EE
:1006D0007B681A687B6804331946104600F0C0F93D
:1006E0007B68012283F846207B68012283F83E2044
:1006F0007B68012283F83F207B68012283F8402039
:100700007B68012283F841207B68012283F8422024
:100710007B68012283F843207B68012283F8442010
:100720007B68012283F845207B68012283F83D2005
:10073000002318460837BD4680BD80B483B000AFA3
:10074000786000BF0C37BD465DF8047B7047000041
:1007500080B485B000AF78607B6893F83D30DBB241
:10076000012B01D001234EE07B68022283F83D205B
:100770007B681B68DA687B681B6842F00102DA60FC
:100780007B681B68234A934222D07B681B68B3F1C5
:10079000804F1DD07B681B681F4A934218D07B682E
:1007A0001B681E4A934213D07B681B681C4A934205
:1007B0000ED07B681B681B4A934209D07B681B687C
:1007C000194A934204D07B681B68184A934211D19E
:1007D0007B681B689B6803F00703FB60FB68062BC4
:1007E00010D07B681B681A687B681B6842F00102A6
:1007F0001A6007E07B681B681A687B681B6842F018
:1008000001021A60002318461437BD465DF8047BC8
:10081000704700BF00000140000400400008004095
:10082000000C00400004014000400140001800405E
:1008300080B584B000AF78607B681B68DB68FB60C4
:100840007B681B681B69BB60BB6803F00203002B5D
:1008500020D0FB6803F00203002B1BD07B681B68D1
:100860006FF002021A617B6801221A777B681B68AD
:100870009B6903F00303002B03D0786800F0D2F8E3
:1008800005E0786800F0C4F8786800F0D5F87B6877
:1008900000221A77BB6803F00403002B20D0FB680A
:1008A00003F00403002B1BD07B681B686FF004026D
:1008B0001A617B6802221A777B681B689B6903F4C4
:1008C0004073002B03D0786800F0ACF805E078683E
:1008D00000F09EF8786800F0AFF87B6800221A7785
:1008E000BB6803F00803002B20D0FB6803F008036B
:1008F000002B1BD07B681B686FF008021A617B68B5
:1009000004221A777B681B68DB6903F00303002B62
:1009100003D0786800F086F805E0786800F078F891
:10092000786800F089F87B6800221A77BB6803F0CA
:100930001003002B20D0FB6803F01003002B1BD00A
:100940007B681B686FF010021A617B6808221A77B7
:100950007B681B68DB6903F44073002B03D0786865
:1009600000F060F805E0786800F052F8786800F070
:1009700063F87B6800221A77BB6803F00103002B41
:100980000CD0FB6803F00103002B07D07B681B68C9
:100990006FF001021A617868FFF768FEBB6803F028
:1009A0008003002B0CD0FB6803F08003002B07D0E2
:1009B0007B681B686FF080021A61786800F006F9A6
:1009C000BB6803F04003002B0CD0FB6803F040032E
:1009D000002B07D07B681B686FF040021A617868B3
:1009E00000F034F8BB6803F02003002B0CD0FB6848
:1009F00003F02003002B07D07B681B686FF02002F8
:100A00001A61786800F0D8F800BF1037BD4680BD85
:100A100080B483B000AF786000BF0C37BD465DF88E
:100A2000047B704780B483B000AF786000BF0C37A0
:100A3000BD465DF8047B704780B483B000AF78603A
:100A400000BF0C37BD465DF8047B704780B483B0AF
:100A500000AF786000BF0C37BD465DF8047B70477F
:100A600080B485B000AF786039607B681B68FB603C
:100A70007B68464A934213D07B68B3F1804F0FD016
:100A80007B68434A93420BD07B68424A934207D02B
:100A90007B68414A934203D07B68404A934208D125
:100AA000FB6823F07003FB603B685B68FA681343E4
:100AB000FB607B68354A93422BD07B68B3F1804F53
:100AC00027D07B68324A934223D07B68314A9342D5
:100AD0001FD07B68304A93421BD07B682F4A9342D9
:100AE00017D07B682E4A934213D07B682D4A9342DD
:100AF0000FD07B682C4A93420BD07B682B4A9342E1
:100B000007D07B682A4A934203D07B68294A9342E4
:100B100008D1FB6823F44073FB603B68DB68FA682C
:100B20001343FB60FB6823F080023B685B6913435F
:100B3000FB607B68FA681A603B689A687B68DA62D7
:100B40003B681A687B689A627B68104A934203D0BC
:100B50007B68124A934203D13B681A697B681A6327
:100B60007B6801225A617B681B6903F00103012B3A
:100B700005D17B681B6923F001027B681A6100BF05
:100B80001437BD465DF8047B704700BF000001408C
:100B90000004004000080040000C00400004014038
:100BA000004001400044014000480140001800405E
:100BB000001C00400020004080B483B000AF78608B
:100BC00000BF0C37BD465DF8047B704780B483B02E
:100BD00000AF786000BF0C37BD465DF8047B7047FE
:100BE00080B584B000AF786039607B68002B01D19C
:100BF0000123CCE0684B1B6803F007033A689A4274
:100C00000CD9654B3A68D2B21A70634B1B6803F07B
:100C100007033A689A4201D00123B8E07B681B6859
:100C200003F00203002B20D07B681B6803F0040351
:100C3000002B05D0594B9B68584A43F4E05393600E
:100C40007B681B6803F00803002B05D0534B9B689F
:100C5000524A43F460439360504B9B6823F0F00288
:100C60007B689B684D4913438B607B681B6803F06E
:100C70000103002B44D07B685B68012B07D1474BF5
:100C80001B6803F40033002B19D101237FE07B683C
:100C90005B68022B03D07B685B68032B07D13F4B5B
:100CA0001B6803F00073002B09D101236FE03B4B5D
:100CB0001B6803F00203002B01D1012367E0374BCF
:100CC0009B6823F003027B685B68344913438B60A5
:100CD00000F028FFF8600AE000F024FF0246FB68FD
:100CE000D31A41F28832934201D903234FE02B4BB0
:100CF0009B6803F00C027B685B689B009A42EBD117
:100D0000254B1B6803F007033A689A420CD2224B2A
:100D10003A68D2B21A70204B1B6803F007033A6896
:100D20009A4201D0012332E07B681B6803F0040380
:100D3000002B08D0194B9B6823F4E0527B68DB68DA
:100D4000164913438B607B681B6803F00803002B74
:100D500009D0124B9B6823F460427B681B69DB005F
:100D60000E4913438B6000F021F802460B4B9B6841
:100D70001B0903F00F030A49CB5C22FA03F3094A6B
:100D80001360094B1B68184600F038FF0023184613
:100D90001037BD4680BD00BF003C02400038024015
:100DA000DC6F000808000020000000202DE9B04F93
:100DB00094B000AF00237B640023FB6400233B64FA
:100DC0000023BB64794B9B6803F00C03082B0DD008
:100DD000082B00F2E180002B02D0042B03D0DBE0D3
:100DE000734BBB64DBE0734BBB64D8E06F4B5B6859
:100DF00003F03F037B646D4B5B6803F48003002BBF
:100E000063D06A4B5B689B090022BB63FA63BB6BD0
:100E1000C3F308033B6300237B63D7E90C452246F9
:100E20002B464FF000004FF00001590141EAD2611A
:100E3000500102460B462146511A3961294663EB9F
:100E400001037B614FF000024FF00003D7E904ABD0
:100E500059468B01514643EA916351468A015146F6
:100E6000B2EB0108594663EB01094FF000024FF065
:100E700000034FEAC90343EA58734FEAC802904699
:100E80009946234618EB0303BB602B4649EB03034B
:100E9000FB604FF000024FF00003D7E902452946FE
:100EA0004B02214643EAD15321464A0210461946D5
:100EB0007B6C0022BB62FA62D7E90A23FFF7BAF91A
:100EC00002460B461346FB6458E0384B5B689B09AF
:100ED000002218461146C0F308033B6200237B62E0
:100EE000D7E9088942464B464FF000004FF0000119
:100EF000590141EAD261500102460B464146B2EB2C
:100F0000010A494663EB010B4FF000024FF000036A
:100F10004FEA8B1343EA9A634FEA8A12B2EB0A0450
:100F200063EB0B054FF000024FF00003EB0043EAC8
:100F30005473E20014461D464346E3183B604B469B
:100F400045EB03037B604FF000024FF00003D7E94D
:100F5000004529468B02214643EA915321468A02E5
:100F6000104619467B6C0022BB61FA61D7E9062363
:100F7000FFF760F902460B461346FB640B4B5B68B8
:100F80001B0C03F0030301335B003B64FA6C3B6C06
:100F9000B2FBF3F3BB6402E0054BBB6400BFBB6C68
:100FA00018465037BD46BDE8B08F00BF003802403C
:100FB0000024F40000127A0080B400AF034B1B68D9
:100FC0001846BD465DF8047B704700BF080000204E
:100FD00080B500AFFFF7F0FF0246054B9B685B0B47
:100FE00003F007030349CB5C22FA03F3184680BDE4
:100FF00000380240EC6F000880B483B000AF786026
:1010000039607B680F221A60124B9B6803F0030261
:101010007B685A600F4B9B6803F0F0027B689A6014
:101020000C4B9B6803F4E0527B68DA60094B9B68C9
:10103000DB0803F4E0527B681A61074B1B6803F07E
:1010400007023B681A6000BF0C37BD465DF8047BA1
:10105000704700BF00380240003C024080B586B0B7
:1010600000AF78607B68002B01D1012373E27B68BD
:101070001B6803F00103002B75D0884B9B6803F0BD
:101080000C03042B0CD0854B9B6803F00C03082B3E
:1010900012D1824B5B6803F48003B3F5800F0BD150
:1010A0007E4B1B6803F40033002B5BD07B685B68CE
:1010B000002B57D101234EE27B685B68B3F5803F7C
:1010C00006D1764B1B68754A43F4803313601DE0EC
:1010D0007B685B68B3F5A02F0CD1704B1B686F4A1F
:1010E00043F4802313606D4B1B686C4A43F48033D8
:1010F00013600BE0694B1B68684A23F4803313606C
:10110000664B1B68654A23F4802313607B685B6829
:10111000002B13D000F006FD386108E000F002FD5E
:1011200002463B69D31A642B01D9032313E25B4BBC
:101130001B6803F40033002BF0D014E000F0F2FC45
:10114000386108E000F0EEFC02463B69D31A642BDC
:1011500001D90323FFE1514B1B6803F40033002B3B
:10116000F0D100E000BF7B681B6803F00203002B96
:1011700063D04A4B9B6803F00C03002B0BD0474B0A
:101180009B6803F00C03082B1CD1444B5B6803F4F1
:101190008003002B16D1414B1B6803F00203002B88
:1011A00005D07B68DB68012B01D00123D3E13B4BE9
:1011B0001B6823F0F8027B681B69DB003749134387
:1011C0000B603AE07B68DB68002B20D0344B0122B7
:1011D0001A6000F0A7FC386108E000F0A3FC0246AA
:1011E0003B69D31A022B01D90323B4E12B4B1B68B3
:1011F00003F00203002BF0D0284B1B6823F0F80209
:101200007B681B69DB00254913430B6015E0244B09
:1012100000221A6000F086FC386108E000F082FCD1
:1012200002463B69D31A022B01D9032393E11B4BDE
:101230001B6803F00203002BF0D17B681B6803F0EE
:101240000803002B36D07B685B69002B16D0154B4A
:1012500001221A6000F066FC386108E000F062FCD0
:1012600002463B69D31A022B01D9032373E10B4BCE
:101270005B6F03F00203002BF0D01BE0094B002250
:101280001A6000F04FFC38610EE000F04BFC0246A3
:101290003B69D31A022B07D903235CE100380240D3
:1012A00000004742800E47428A4B5B6F03F0020307
:1012B000002BEAD17B681B6803F00403002B00F0CD
:1012C00097800023FB75834B1B6C03F08053002B2E
:1012D0000FD10023BB607F4B1B6C7E4A43F08053D1
:1012E00013647C4B1B6C03F08053BB60BB68012311
:1012F000FB75794B1B6803F48073002B18D1764B78
:101300001B68754A43F48073136000F00BFC38616E
:1013100008E000F007FC02463B69D31A022B01D912
:10132000032318E16C4B1B6803F48073002BF0D08F
:101330007B689B68012B06D1664B1B6F654A43F0A7
:10134000010313671CE07B689B68052B0CD1614B84
:101350001B6F604A43F0040313675E4B1B6F5D4ACB
:1013600043F0010313670BE05A4B1B6F594A23F0FC
:1013700001031367574B1B6F564A23F0040313678F
:101380007B689B68002B15D000F0CCFB38610AE02D
:1013900000F0C8FB02463B69D31A41F288329342FF
:1013A00001D90323D7E04B4B1B6F03F00203002B43
:1013B000EED014E000F0B6FB38610AE000F0B2FBBA
:1013C00002463B69D31A41F28832934201D9032382
:1013D000C1E0404B1B6F03F00203002BEED1FB7DFD
:1013E000012B05D13B4B1B6C3A4A23F0805313640D
:1013F0007B689B69002B00F0AD80364B9B6803F047
:101400000C03082B60D07B689B69022B45D1334BC2
:1014100000221A6000F086FB386108E000F082FBD1
:1014200002463B69D31A022B01D9032393E0294BCF
:101430001B6803F00073002BF0D17B68DA697B68CE
:101440001B6A1A437B685B6A9B011A437B689B6A31
:101450005B08013B1B041A437B68DB6A1B061A43CB
:101460007B681B6B1B071B4913434B601B4B012203
:101470001A6000F057FB386108E000F053FB0246A9
:101480003B69D31A022B01D9032364E0114B1B687B
:1014900003F00073002BF0D05CE0104B00221A60C8
:1014A00000F040FB386108E000F03CFB02463B697D
:1014B000D31A022B01D903234DE0064B1B6803F01E
:1014C0000073002BF0D145E07B689B69012B07D1AD
:1014D000012340E0003802400070004060004742B5
:1014E0001F4B5B68FB607B689B69012B30D0FB68FE
:1014F00003F480027B68DB699A4229D1FB6803F020
:101500003F027B681B6A9A4222D1FA6847F6C07391
:1015100013407A68526A9201934219D1FB6803F42E
:1015200040327B689B6A5B08013B1B049A420FD1E7
:10153000FB6803F070627B68DB6A1B069A4207D186
:10154000FB6803F0E0427B681B6B1B079A4201D0EB
:10155000012300E0002318461837BD4680BD00BFB8
:101560000038024080B489B000AF78603960002351
:101570007B6100233B610023BB610023FB6165E1CC
:101580000122FB6902FA03F37B613B681B687A69FD
:1015900013403B613A697B699A4240F054813B6851
:1015A0005B6803F00303012B05D03B685B6803F025
:1015B0000303022B30D17B689B68BB61FB695B0036
:1015C000032202FA03F3DB43BA691340BB613B68B1
:1015D000DA68FB695B0002FA03F3BA691343BB6183
:1015E0007B68BA699A607B685B68BB610122FB69B2
:1015F00002FA03F3DB43BA691340BB613B685B68E3
:101600001B0903F00102FB6902FA03F3BA691343F1
:10161000BB617B68BA695A603B685B6803F003038F
:10162000032B17D07B68DB68BB61FB695B0003227F
:1016300002FA03F3DB43BA691340BB613B689A6863
:10164000FB695B0002FA03F3BA691343BB617B6871
:10165000BA69DA603B685B6803F00303022B23D1AD
:10166000FB69DA087B68083253F82230BB61FB69FA
:1016700003F007039B000F2202FA03F3DB43BA696E
:101680001340BB613B681A69FB6903F007039B00C9
:1016900002FA03F3BA691343BB61FB69DA087B689A
:1016A0000832B96943F822107B681B68BB61FB698B
:1016B0005B00032202FA03F3DB43BA691340BB6108
:1016C0003B685B6803F00302FB695B0002FA03F30B
:1016D000BA691343BB617B68BA691A603B685B688F
:1016E00003F44033002B00F0AE800023FB605D4B21
:1016F0005B6C5C4A43F4804353645A4B5B6C03F469
:101700008043FB60FB68584AFB699B08023352F830
:101710002330BB61FB6903F003039B000F2202FA35
:1017200003F3DB43BA691340BB617B684F4A9342C2
:1017300025D07B684E4A93421FD07B684D4A934226
:1017400019D07B684C4A934213D07B684B4A934232
:101750000DD07B684A4A934207D07B68494A93423E
:1017600001D106230CE007230AE0052308E0042347
:1017700006E0032304E0022302E0012300E000234B
:10178000FA6902F0030292009340BA691343BB6105
:101790003549FB699B080233BA6941F823203A4B6B
:1017A0009B68BB613B69DB43BA691340BB613B6823
:1017B0005B6803F48013002B03D0BA693B691343C1
:1017C000BB61314ABB6993602F4BDB68BB613B69EE
:1017D000DB43BA691340BB613B685B6803F40013E9
:1017E000002B03D0BA693B691343BB61264ABB692E
:1017F000D360254B5B68BB613B69DB43BA6913402F
:10180000BB613B685B6803F40033002B03D0BA690B
:101810003B691343BB611C4ABB6953601A4B1B688D
:10182000BB613B69DB43BA691340BB613B685B68E2
:1018300003F48033002B03D0BA693B691343BB61C7
:10184000114ABB691360FB690133FB61FB690F2B14
:101850007FF696AE00BF00BF2437BD465DF8047B1F
:10186000704700BF003802400038014000000240CD
:101870000004024000080240000C02400010024038
:101880000014024000180240003C014080B483B0C4
:1018900000AF78600B467B8013467B707B78002B13
:1018A00003D07A887B689A6103E07B881A047B689E
:1018B0009A6100BF0C37BD465DF8047B704780B469
:1018C00085B000AF78600B467B807B685B69FB600E
:1018D0007A88FB6813401A04FB68D9437B880B4065
:1018E0001A437B689A6100BF1437BD465DF8047BDC
:1018F0007047000080B485B000AF78607B6803F06B
:101900000703FB600C4BDB68BB60BA684FF6FF0354
:101910001340BB60FB681A02BB68134343F0BF630C
:1019200043F40033BB60044ABB68D36000BF143784
:10193000BD465DF8047B704700ED00E080B400AF69
:10194000044BDB681B0A03F007031846BD465DF82D
:10195000047B704700ED00E080B483B000AF034625
:10196000FB7197F90730002B0BDBFB7903F01F02AB
:10197000074997F907305B09012000FA02F241F8A4
:10198000232000BF0C37BD465DF8047B704700BFC5
:1019900000E100E080B483B000AF03463960FB7122
:1019A00097F90730002B0ADB3B68DAB20C4997F94C
:1019B00007301201D2B20B4483F800230AE03B68DF
:1019C000DAB20849FB7903F00F03043B1201D2B2EB
:1019D0000B441A7600BF0C37BD465DF8047B704798
:1019E00000E100E000ED00E080B489B000AFF860F5
:1019F000B9607A60FB6803F00703FB61FB69C3F120
:101A00000703042B28BF0423BB61FB690433062BA7
:101A100002D9FB69033B00E000237B614FF0FF32FA
:101A2000BB6902FA03F3DA43BB681A407B699A4048
:101A30004FF0FF317B6901FA03F3D9437B680B4018
:101A4000134318462437BD465DF8047B704780B5C4
:101A500082B000AF78607868FFF74CFF00BF0837AE
:101A6000BD4680BD80B586B000AF0346B9607A60E0
:101A7000FB7300237B61FFF761FF78617A68B968C7
:101A80007869FFF7B1FF024697F90F301146184603
:101A9000FFF780FF00BF1837BD4680BD80B582B01C
:101AA00000AF0346FB7197F907301846FFF754FF64
:101AB00000BF0837BD4680BD80B500AF0E4B1B6828
:101AC0000D4A43F4007313600B4B1B680A4A43F43E
:101AD00080631360084B1B68074A43F480731360EC
:101AE0000320FFF7B4FF0F2000F088F800F026F87D
:101AF0000023184680BD00BF003C024080B400AF08
:101B0000064B1B781A46064B1B681344044A1360A5
:101B100000BFBD465DF8047B704700BF0400002095
:101B20003400002080B400AF034B1B681846BD464C
:101B30005DF8047B704700BF3400002080B582B0A0
:101B400000AF00237B60104B5B6C0F4A43F4804373
:101B500053640D4B5B6C03F480437B607B68002314
:101B60003B60094B1B6C084A43F080531364064BDF
:101B70001B6C03F080533B603B6802F0CFFD00BF5D
:101B80000837BD4680BD00BF0038024080B400AFBA
:101B900000BFFDE780B400AF00BFFDE780B400AF39
:101BA00000BFFDE780B400AF00BFFDE780B400AF29
:101BB00000BFFDE780B400AF00BFBD465DF8047B09
:101BC0007047000080B500AF0248FEF731FE00BF4D
:101BD00080BD00BF3800002080B400AF064BD3F8B2
:101BE0008830054A43F47003C2F8883000BFBD4610
:101BF0005DF8047B704700BF00ED00E080B58CB05D
:101C000000AF78600023BB6200237B620023BB60CF
:101C10002E4B5B6C2D4A43F0010353642B4B5B6CE2
:101C200003F00103BB60BB6807F10C0207F110036E
:101C300011461846FFF7E0F9FFF7CAF9B862BB6A28
:101C4000234AA2FB03239B0C013B7B62214B224ACC
:101C50001A60204B40F2E732DA601E4A7B6A53601A
:101C60001C4B00221A611B4B00229A60194B002268
:101C70009A611848FEF712FD034687F82F3097F84F
:101C80002F30002B1BD11348FEF762FD034687F867
:101C90002F3097F82F30002B11D11920FFF7FEFEBF
:101CA0007B680F2B08D8002279681920FFF7DAFE2D
:101CB0000A4A7B68136002E0012387F82F3097F807
:101CC0002F3018463037BD4680BD00BF0038024077
:101CD00083DE1B433800002000000140000000208C
:101CE000DFF834D0FFF778FF0C480D490D4A002388
:101CF00002E0D458C4500433C4188C42F9D30A4AC1
:101D00000A4C002301E013600432A242FBD3FEF729
:101D1000F9FAFEF71BFB70470000022000000020CC
:101D2000180000203470000818000020A45C012076
:101D3000FEE780B483B000AF78607B6803F10802EF
:101D40007B685A607B684FF0FF329A607B6803F1D2
:101D500008027B68DA607B6803F108027B681A611D
:101D60007B6800221A6000BF0C37BD465DF8047B1B
:101D7000704780B483B000AF78607B6800221A613E
:101D800000BF0C37BD465DF8047B704780B485B05A
:101D900000AF786039603B681B68BB60BB68B3F11B
:101DA000FF3F03D17B681B69FB600CE07B68083355
:101DB000FB6002E0FB685B68FB60FB685B681B68BC
:101DC000BA689A42F6D2FB685A683B685A603B6828
:101DD0005B683A689A603B68FA689A60FB683A68A0
:101DE0005A603B687A681A617B681B685A1C7B687A
:101DF0001A6000BF1437BD465DF8047B704780B49D
:101E000085B000AF78607B681B69FB607B685B68AE
:101E10007A6892689A607B689B687A6852685A60B0
:101E2000FB685B687A689A4203D17B689A68FB68B2
:101E30005A607B6800221A61FB681B685A1EFB68A7
:101E40001A60FB681B6818461437BD465DF8047BB2
:101E50007047000080B586B000AF7860396001231C
:101E60007B617B683B613B69002B0BD14FF05003DA
:101E700083F31188BFF36F8FBFF34F8FFB6000BFF9
:101E800000BFFDE73B69002B5DD03B69DB6B002B9E
:101E900059D03B691A6C3B69DB6B0021A3FB022321
:101EA000002B00D001210B46002B4CD102F0B6FCD8
:101EB0003B691A683B69DB6B3969096C01FB03F309
:101EC0001A443B699A603B6900229A633B691A682D
:101ED0003B695A603B691A683B69DB6B013B3969B6
:101EE000096C01FB03F31A443B69DA603B69FF228A
:101EF00083F844203B69FF2283F845203B68002B90
:101F000014D13B691B69002B1AD03B69103318466A
:101F100001F06CFA0346002B12D0164B4FF08052A2
:101F20001A60BFF34F8FBFF36F8F09E03B69103327
:101F30001846FFF7FEFE3B6924331846FFF7F9FE0B
:101F400002F09EFC01E000237B617B69002B0BD13A
:101F50004FF0500383F31188BFF36F8FBFF34F8FA0
:101F6000BB6000BF00BFFDE77B6918461837BD4660
:101F700080BD00BF04ED00E080B58AB002AFF8601C
:101F8000B9601346FB710023FB61FB68002B2ED068
:101F90000021BA68FB68A3FB0223002B00D00121BB
:101FA0000B46002B23D1FB68BA6802FB03F313F145
:101FB000510F1CD8FB68BA6802FB03F3BB61BB6915
:101FC0005033184602F0A8F8F861FB69002B1DD0C9
:101FD000FB697B617B6950337B61FA79FB69009314
:101FE00013467A69B968F86800F015F80EE0FB69E5
:101FF000002B0BD14FF0500383F31188BFF36F8F89
:10200000BFF34F8F3B6100BF00BFFDE7FB69184680
:102010002037BD4680BD80B584B000AFF860B960A0
:102020007A60FB70BB68002B03D1BB69BA691A6088
:1020300002E0BB697A681A60BB69FA68DA63BB6957
:10204000BA681A640121B869FFF704FFBB69FA781E
:1020500083F84C20FB78BA68F968732003F0EEFE31
:1020600000BF1037BD4680BD80B590B002AFF860AC
:10207000B9607A603B6000237B63FB683B633B6B2A
:10208000002B0BD14FF0500383F31188BFF36F8FF8
:10209000BFF34F8FBB6200BF00BFFDE7BB68002BE3
:1020A00003D13B6B1B6C002B01D1012300E000230B
:1020B000002B0BD14FF0500383F31188BFF36F8FC8
:1020C000BFF34F8F7B6200BF00BFFDE73B68022B71
:1020D00003D13B6BDB6B012B01D1012300E000231B
:1020E000002B0BD14FF0500383F31188BFF36F8F98
:1020F000BFF34F8F3B6200BF00BFFDE701F08CFBD9
:102100000346002B02D17B68002B01D1012300E0A4
:102110000023002B0BD14FF0500383F31188BFF342
:102120006F8FBFF34F8FFB6100BF00BFFDE702F071
:1021300075FB3B6B9A6B3B6BDB6B9A4202D33B6844
:10214000022B36D13B6B184604F0A6FBBA687968BF
:102150003B6800930B4601465A2003F0E5FE3A68BF
:10216000B968386B00F088FAF8623B6B5B6A002B49
:1021700010D03B6B2433184601F038F90346002B8E
:1021800013D04D4B4FF080521A60BFF34F8FBFF307
:102190006F8F0AE0FB6A002B07D0474B4FF080524D
:1021A0001A60BFF34F8FBFF36F8F02F069FB0123FB
:1021B0007DE07B68002B10D102F062FB3B6B184680
:1021C00004F06AFBBA6879683B6800930B460146E5
:1021D0005A2003F0A9FE002369E07B6B002B06D197
:1021E00007F11403184601F0DBF901237B6302F0C9
:1021F00047FB00F0C9FD02F011FB3B6B93F8443044
:102200005BB2B3F1FF3F03D13B6B002283F8442064
:102210003B6B93F845305BB2B3F1FF3F03D13B6BAF
:10222000002283F8452002F02BFB3A1D07F114032E
:102230001146184601F0CAF90346002B24D1386B29
:1022400000F012FB0346002B18D03B6B10337A686A
:102250001146184601F05AF8386B00F09DFA00F06C
:10226000A1FD0346002B7FF462AF134B4FF0805269
:102270001A60BFF34F8FBFF36F8F58E7386B00F0D2
:102280008BFA00F08FFD52E7386B00F085FA00F012
:1022900089FD3B6B184604F0FFFABA6879683B6821
:1022A00000930B4601465A2003F03EFE00231846D9
:1022B0003837BD4680BD00BF04ED00E080B592B068
:1022C00000AFF860B9607A603B60FB683B643B6CD0
:1022D000002B0BD14FF0500383F31188BFF36F8FA6
:1022E000BFF34F8FFB6200BF00BFFDE7BB68002B51
:1022F00003D13B6C1B6C002B01D1012300E00023B8
:10230000002B0BD14FF0500383F31188BFF36F8F75
:10231000BFF34F8FBB6200BF00BFFDE73B68022BDE
:1023200003D13B6CDB6B012B01D1012300E00023C7
:10233000002B0BD14FF0500383F31188BFF36F8F45
:10234000BFF34F8F7B6200BF00BFFDE702F056FB7B
:10235000EFF311824FF0500383F31188BFF36F8FB7
:10236000BFF34F8F3A62FB613B6AFB633B6C9A6B36
:102370003B6CDB6B9A4202D33B68022B51D13B6C26
:1023800093F8453087F83B303B6C9B6B7B633B6C31
:10239000184604F081FA01467B681A46602003F073
:1023A000F3FC3A68B968386C00F066F997F93B308D
:1023B000B3F1FF3F12D13B6C5B6A002B2ED03B6C1C
:1023C0002433184601F012F80346002B26D07B6810
:1023D000002B23D07B6801221A601FE000F004FE6E
:1023E000386397F93B303A6B9A4217D997F93B30EB
:1023F0007F2B0BD14FF0500383F31188BFF36F8F06
:10240000BFF34F8FBB6100BF00BFFDE797F83B30C4
:102410000133DBB25AB23B6C83F8452001237B6465
:102420000BE03B6C184604F037FA01467B681A460D
:10243000602003F0A9FC00237B64FB6B7B617B695C
:1024400083F3118800BF7B6C18464837BD4680BDBA
:1024500090B58FB002AFF860B9607A600023FB627C
:10246000FB68BB62BB6A002B0BD14FF0500383F3B8
:102470001188BFF36F8FBFF34F8F3B6200BF00BF68
:10248000FDE7BB68002B03D1BB6A1B6C002B01D19D
:10249000012300E00023002B0BD14FF0500383F306
:1024A0001188BFF36F8FBFF34F8FFB6100BF00BF79
:1024B000FDE701F0B1F90346002B02D17B68002B48
:1024C00001D1012300E00023002B0BD14FF050037A
:1024D00083F31188BFF36F8FBFF34F8FBB6100BFD2
:1024E00000BFFDE702F09AF9BB6A9B6B7B627B6AD7
:1024F000002B2FD0B968B86A00F028F9BB6A1846DB
:1025000004F0CAF90446002004F0C6F902467B68CC
:102510000121009121465C2003F006FD7B6A5A1ED2
:10252000BB6A9A63BB6A1B69002B0FD0BB6A10336E
:10253000184600F05BFF0346002B07D04D4B4FF0D1
:1025400080521A60BFF34F8FBFF36F8F02F098F97C
:1025500001238AE07B68002B13D102F091F9BB6A5A
:10256000184604F099F90446002004F095F9024653
:102570007B680121009121465C2003F0D5FC0023FB
:1025800073E0FB6A002B06D107F11003184601F037
:1025900007F80123FB6202F073F900F0F5FB02F08B
:1025A0003DF9BB6A93F844305BB2B3F1FF3F03D10E
:1025B000BB6A002283F84420BB6A93F845305BB2C3
:1025C000B3F1FF3F03D1BB6A002283F8452002F03C
:1025D00057F93A1D07F110031146184600F0F6FFAF
:1025E0000346002B24D1B86A00F028F90346002BDB
:1025F00018D0BB6A24337A681146184600F086FE6C
:10260000B86A00F0C9F800F0CDFB0346002B7FF458
:1026100069AF184B4FF080521A60BFF34F8FBFF372
:102620006F8F5FE7B86A00F0B7F800F0BBFB59E7BF
:10263000B86A00F0B1F800F0B5FBB86A00F0FEF837
:102640000346002B3FF44EAFBB6A184604F024F952
:102650000446002004F020F902467B680121009125
:1026600021465C2003F060FC002318463437BD4649
:1026700090BD00BF04ED00E080B586B000AFF8600B
:10268000B9607A6000237B61FB689B6B3B61FB68F0
:102690001B6C002B0DD1FB681B68002B4DD1FB6818
:1026A0009B68184601F0D6F87861FB6800229A60B2
:1026B00043E07B68002B19D1FB685868FB681B6CF2
:1026C0001A46B96804F0F4FBFB685A68FB681B6C97
:1026D0001A44FB685A60FB685A68FB689B689A4218
:1026E0002BD3FB681A68FB685A6026E0FB68D86841
:1026F000FB681B6C1A46B96804F0DAFBFB68DA6801
:10270000FB681B6C5B421A44FB68DA60FB68DA68A2
:10271000FB681B689A4207D2FB689A68FB681B6CCF
:102720005B421A44FB68DA607B68022B05D13B6987
:10273000002B02D03B69013B3B613B695A1CFB68A3
:102740009A637B6918461837BD4680BD80B582B054
:1027500000AF786039607B681B6C002B18D07B68F9
:10276000DA687B681B6C1A447B68DA607B68DA681D
:102770007B689B689A4203D37B681A687B68DA603F
:102780007B68D9687B681B6C1A46386804F090FB3C
:1027900000BF0837BD4680BD80B584B000AF78600B
:1027A00002F03CF87B6893F84530FB7311E07B68DE
:1027B0005B6A002B12D07B682433184600F016FEAB
:1027C0000346002B01D000F069FFFB7B013BDBB22D
:1027D000FB7397F90F30002BE9DC00E000BF7B684A
:1027E000FF2283F8452002F04BF802F017F87B68CF
:1027F00093F84430BB7311E07B681B69002B12D047
:102800007B681033184600F0F1FD0346002B01D021
:1028100000F044FFBB7B013BDBB2BB7397F90E308A
:10282000002BE9DC00E000BF7B68FF2283F8442036
:1028300002F026F800BF1037BD4680BD80B584B0D9
:1028400000AF786001F0EAFF7B689B6B002B02D140
:102850000123FB6001E00023FB6002F011F8FB683C
:1028600018461037BD4680BD80B584B000AF786093
:1028700001F0D4FF7B689A6B7B68DB6B9A4202D1D4
:102880000123FB6001E00023FB6001F0F9FFFB681E
:1028900018461037BD4680BD80B586B000AF786061
:1028A000396000233B617B68002B0BD14FF0500354
:1028B00083F31188BFF36F8FBFF34F8FFB6000BFAF
:1028C00000BFFDE73B68002B24D000237B611EE0A6
:1028D0001C4A7B69DB0013445B687A689A4205D125
:1028E0007B69DB00174A13443B6113E03B69002B13
:1028F0000AD1144A7B6952F83330002B04D17B692A
:10290000DB00104A13443B617B6901337B617B69C7
:10291000072BDDD93B69002B0FD03B693A681A6061
:102920003B697A685A607B68184603F0B5FF014638
:102930003B681A46712003F027FA00BF1837BD46DE
:1029400080BD00BF8000002080B586B000AFF86079
:10295000B9607A60FB687B6101F060FF7B6993F886
:1029600044305BB2B3F1FF3F03D17B69002283F8AF
:1029700044207B6993F845305BB2B3F1FF3F03D14C
:102980007B69002283F8452001F07AFF7B699B6B0D
:10299000002B06D17B6924337A68B968184600F0A9
:1029A000DBFC7869FFF7F8FE00BF1837BD4680BD35
:1029B00080B58CB004AFF860B9603B601346FB8013
:1029C000FB889B00184601F0A7FB78617B69002B10
:1029D00013D0582001F0A0FBF861FB69002B08D050
:1029E00058220021F869FDF785FCFB697A691A63B2
:1029F00005E0786901F04CFC01E00023FB61FB6914
:102A0000002B13D0FA8800230393FB690293FB6A1F
:102A10000193BB6A00933B68B968F86800F00EF850
:102A2000F86900F09BF80123BB6102E04FF0FF332F
:102A3000BB61BB6918462037BD4680BD80B588B0F4
:102A400000AFF860B9607A603B603B6B186B7B68E5
:102A50009B001A46A521FDF74DFC3B6B1A6B7B686A
:102A600003F18043013B9B001344BB61BB6923F02E
:102A70000703BB61BB6903F00703002B0BD04FF0CA
:102A8000500383F31188BFF36F8FBFF34F8F7B61C8
:102A900000BF00BFFDE7BB68002B1ED00023FB6119
:102AA00012E0BA68FB69134419783A6BFB69134466
:102AB00034330A461A70BA68FB6913441B78002B3A
:102AC00006D0FB690133FB61FB69092BE9D900E002
:102AD00000BF3B6B002283F83D20BB6A042B0BD95F
:102AE0004FF0500383F31188BFF36F8FBFF34F8F05
:102AF0003B6100BF00BFFDE7BB6A042B01D9042383
:102B0000BB623B6BBA6ADA623B6BBA6A9A643B6B34
:102B100004331846FFF72DF93B6B18331846FFF7BF
:102B200028F93B6B3A6B1A61BB6AC3F105023B6B38
:102B30009A613B6B3A6B5A623A68F968B86901F07E
:102B4000B7FC02463B6B1A60FB6A002B02D0FB6AA3
:102B50003A6B1A6000BF2037BD4680BDB0B586B065
:102B600002AF786001F05AFE4F4B1B6801334E4AAA
:102B700013604E4B1B68002B09D14C4A7B681360D5
:102B8000494B1B68012B10D100F0ACFD0DE0484B08
:102B90001B68002B09D1454B1B68DA6A7B68DB6A2E
:102BA0009A4202D8414A7B681360424B1B6801334A
:102BB000404A13603F4B1A687B681A647B68002B9D
:102BC00016D07B68184603F0A1FD78687B6803F196
:102BD00034017B68DA6A7B681B6B1D467B681B6867
:102BE0001C467B681B6BE31A00932B4601F0F8FF31
:102BF0007B68184603F00EFE7B68DB6A01229A4070
:102C00002D4B1B6813432C4A13607B68DA6A2B49EF
:102C100013469B0013449B000B4404331B68FB606A
:102C20007B68FA689A60FB689A687B68DA60FB6880
:102C30009B687A6804325A607B681A1DFB689A6048
:102C40007B68DA6A13469B0013449B001B4A1A44B4
:102C50007B685A617B68DA6A184913469B00134403
:102C60009B000B441B68591C144813469B001344DB
:102C70009B000344196001F003FE0D4B1B68002B01
:102C80000ED00A4B1B68DA6A7B68DB6A9A4207D26D
:102C90000B4B4FF080521A60BFF34F8FBFF36F8F13
:102CA00000BF1037BD46B0BD98010020C000002015
:102CB000A4010020B4010020A0010020C4000020D5
:102CC00004ED00E080B586B002AF274B01930023EE
:102CD00000930023822225492548FFF769FEF8600A
:102CE000FB68012B02D100F0E3FEF860FB68012BCA
:102CF00024D14FF0500383F31188BFF36F8FBFF3DC
:102D00004F8FBB6000BF1B4B4FF0FF321A601A4B56
:102D100001221A60194B00221A60194B1A68124BD3
:102D20001B689A4202D103F0D5FC04E0144B1B68E7
:102D3000184603F02DFD01F04DFC0FE0FB68B3F1E8
:102D4000FF3F0BD14FF0500383F31188BFF36F8F18
:102D5000BFF34F8F7B6000BF00BFFDE7094B1B68CF
:102D600000BF1037BD4680BDBC010020FC6E0008CE
:102D7000B5360008B8010020A40100209C01002005
:102D8000C0000020F46F000880B400AF044B1B6843
:102D90000133034A136000BFBD465DF8047B7047F2
:102DA000C001002080B588B000AF0023FB61002384
:102DB000BB61734B1B68002B0BD14FF0500383F3A7
:102DC0001188BFF36F8FBFF34F8F7B6000BF00BFD1
:102DD000FDE701F023FD6A4B1B68013B684A136065
:102DE000674B1B68002B40F0C480664B1B68002BB0
:102DF00000F0BF808EE0644BDB68DB68FB61FB6941
:102E00009B6A3B61FB69DB69FA69126A9A60FB693C
:102E10001B6AFA69D2695A603B695A68FB691833C0
:102E20009A4203D1FB691A6A3B695A60FB69002226
:102E30009A623B691B685A1E3B691A60FB695B69B1
:102E4000FB60FB699B68FA69D2689A60FB69DB6882
:102E5000FA6992685A60FB685A68FB6904339A42BF
:102E600003D1FB69DA68FB685A60FB6900225A618A
:102E7000FB681B685A1EFB681A60FB69184603F062
:102E8000C9FCFB69DB6A01229A40404B1B68134373
:102E90003E4A1360FB69DA6A3D4913469B001344BE
:102EA0009B000B4404331B68BB60FB69BA689A60E3
:102EB000BB689A68FB69DA60BB689B68FA69043290
:102EC0005A60FB691A1DBB689A60FB69DA6A13468F
:102ED0009B0013449B002E4A1A44FB695A61FB690C
:102EE000DA6A2B4913469B0013449B000B441B6872
:102EF000591C274813469B0013449B000344196048
:102F0000FB69DA6A234B1B68DB6A9A4202D3224BC5
:102F100001221A601C4B1B68002B7FF46CAFFB690D
:102F2000002B01D000F05CFC1C4B1B687B617B69B3
:102F3000002B10D000F064F80346002B02D0164B93
:102F400001221A607B69013B7B617B69002BF1D117
:102F5000124B00221A60104B1B68002B09D0012372
:102F6000BB610F4B4FF080521A60BFF34F8FBFF31E
:102F70006F8F01F085FCBB6918462037BD4680BDC8
:102F8000C00100209801002058010020A00100206D
:102F9000C4000020C0000020AC010020A8010020D7
:102FA00004ED00E080B483B000AF054B1B687B608C
:102FB0007B6818460C37BD465DF8047B704700BF40
:102FC0009C01002080B582B000AF01F017FD002306
:102FD0007B60044B1B683B603B6818460837BD4666
:102FE00080BD00BF9C01002080B400AF034B1B6874
:102FF0001846BD465DF8047B704700BF980100206D
:1030000080B58AB000AF00237B62804B1B68002B29
:1030100040F0F1807E4B1B6801333B627C4A3B6A87
:1030200013603B6A002B21D17A4B1B681B68002B75
:103030000BD04FF0500383F31188BFF36F8FBFF3B2
:103040004F8F7B6000BF00BFFDE7724B1B68FB61C9
:10305000714B1B686F4A13606F4AFB6913606F4BBB
:103060001B6801336D4A136000F0BAFB6C4B1B68A0
:103070003A6A9A42C0F0AA80664B1B681B68002B14
:1030800004D1674B4FF0FF321A609FE0614B1B6821
:10309000DB68DB68BB61BB695B687B613A6A7B6943
:1030A0009A4203D25E4A7B6913608FE0BB695B6919
:1030B0003B61BB699B68BA69D2689A60BB69DB688F
:1030C000BA6992685A603B695A68BB6904339A428C
:1030D00003D1BB69DA683B695A60BB6900225A6157
:1030E0003B691B685A1E3B691A60BB699B6A002BCF
:1030F0001ED0BB699B6AFB60BB69DB69BA69126A57
:103100009A60BB691B6ABA69D2695A60FB685A68DF
:10311000BB6918339A4203D1BB691A6AFB685A60CB
:10312000BB6900229A62FB681B685A1EFB681A6022
:10313000BB69184603F06EFBBB69DB6A01229A404B
:10314000384B1B681343374A1360BB69DA6A364948
:1031500013469B0013449B000B4404331B68BB6065
:10316000BB69BA689A60BB689A68BB69DA60BB6879
:103170009B68BA6904325A60BB691A1DBB689A60C1
:10318000BB69DA6A13469B0013449B00264A1A4423
:10319000BB695A61BB69DA6A234913469B00134431
:1031A0009B000B441B68591C1F4813469B0013448B
:1031B0009B0003441960BB69DA6A1C4B1B68DB6A1D
:1031C0009A427FF659AF01237B6255E7174B1B6884
:1031D000DA6A154913469B0013449B000B441B6895
:1031E000012B01D901237B62114B1B68002B07D0F7
:1031F00001237B6204E00F4B1B6801330D4A13600F
:103200007B6A18462837BD4680BD00BFC00100203C
:103210009C0100205001002054010020B00100203A
:10322000B8010020A0010020C4000020C000002040
:10323000AC010020A801002080B586B000AF2D4B66
:103240001B68002B03D02C4B01221A604EE02A4B46
:1032500000221A60294B1B68FB60FB68B3FA83F3FA
:10326000FB72FB7AC3F11F037B6125497A69134620
:103270009B0013449B000B441B68002B0BD14FF0A9
:10328000500383F31188BFF36F8FBFF34F8F7B60C1
:1032900000BF00BFFDE77A6913469B0013449B0003
:1032A000174A13443B613B695B685A683B695A6043
:1032B0003B695A683B6908339A4204D13B695B68B1
:1032C0005A683B695A603B695B68DB680D4A13606A
:1032D0000C4B1A680C4B1B689A4202D103F0FAF9A6
:1032E00004E0084B1B68184603F052FA00BF183779
:1032F000BD4680BDC0010020AC010020A00100201F
:10330000C4000020C0000020BC01002080B584B0B3
:1033100000AF786039607B68002B0BD14FF0500311
:1033200083F31188BFF36F8FBFF34F8FFB6000BF34
:1033300000BFFDE7074B1B68183319467868FEF796
:1033400025FD0121386800F033FB00BF1037BD4672
:1033500080BD00BFC000002080B586B000AFF8601F
:10336000B9607A60FB68002B0BD14FF0500383F3F8
:103370001188BFF36F8FBFF34F8F3B6100BF00BF5A
:10338000FDE7FB685B687B61174B1B687A69DA6154
:10339000154B1B687A6992681A62134B1A687B692D
:1033A0009B6818325A60104B1B6803F118027B6946
:1033B0009A600D4B1B68FA689A62FB681B685A1C7E
:1033C000FB681A607B68002B02D04FF0FF33BB60B4
:1033D000242002F07FFC7968B86800F0E9FA00BFA9
:1033E0001837BD4680BD00BFC000002080B58AB040
:1033F00000AF78607B68DB68DB683B623B6A002B70
:103400000BD14FF0500383F31188BFF36F8FBFF3DD
:103410004F8FFB6000BF00BFFDE73B6A9B6AFB610B
:103420003B6ADB693A6A126A9A603B6A1B6A3A6ACB
:10343000D2695A60FB695A683B6A18339A4203D1D1
:103440003B6A1A6AFB695A603B6A00229A62FB690E
:103450001B685A1EFB691A604B4B1B68002B62D11C
:103460003B6A5B697B613B6A9B683A6AD2689A6097
:103470003B6ADB683A6A92685A607B695A683B6AC1
:1034800004339A4203D13B6ADA687B695A603B6A2B
:1034900000225A617B691B685A1E7B691A603B6A6D
:1034A000184603F0B7F93B6ADB6A01229A40374BB2
:1034B0001B681343354A13603B6ADA6A3449134682
:1034C0009B0013449B000B4404331B683B613B6A25
:1034D0003A699A603B699A683B6ADA603B699B6823
:1034E0003A6A04325A603B6A1A1D3B699A603B6A29
:1034F000DA6A13469B0013449B00254A1A443B6A30
:103500005A613B6ADA6A224913469B0013449B00C6
:103510000B441B68591C1E4813469B0013449B0018
:10352000034419601BE01B4B5B68BB613B6ABA69D3
:10353000DA61BB699A683B6A1A62BB699B683A6A3E
:1035400018325A603B6A03F11802BB699A603B6A01
:10355000104A9A620F4B1B6801330E4A13603B6A94
:10356000DA6A0D4B1B68DB6A9A4205D901237B623C
:103570000A4B01221A6001E000237B627B6A184635
:103580002837BD4680BD00BFC0010020A00100203B
:10359000C400002058010020C0000020AC01002021
:1035A00080B483B000AF7860064B1A687B681A60FD
:1035B000054B1A687B685A6000BF0C37BD465DF842
:1035C000047B7047B00100209C01002080B588B0CA
:1035D00000AF786039607B68002B0BD14FF050034F
:1035E00083F31188BFF36F8FBFF34F8F3B6100BF31
:1035F00000BFFDE73B68002B0BD14FF0500383F376
:103600001188BFF36F8FBFF34F8FFB6000BF00BF08
:10361000FDE701F003F91F4B1B68BB617B685B682A
:10362000BA69D31A7B613B681B68B3F1FF3F02D1D3
:103630000023FB6126E07B681A68174B1B689A42DF
:103640000AD07B685B68BA699A4205D30123FB61A3
:103650003B6800221A6015E03B681B687A699A4251
:103660000BD23B681A687B69D21A3B681A6078688B
:10367000FFF796FF0023FB6104E03B6800221A601D
:103680000123FB6101F0FCF8FB6918462037BD46B9
:1036900080BD00BF9C010020B001002080B400AFBD
:1036A000034B01221A6000BFBD465DF8047B7047E2
:1036B000AC01002080B582B000AF786000F052F815
:1036C000064B1B68012BF9D9054B4FF080521A604D
:1036D000BFF34F8FBFF36F8FF0E700BFC400002030
:1036E00004ED00E080B582B000AF00237B600CE009
:1036F0007A6813469B0013449B00124A13441846F1
:10370000FEF717FB7B6801337B607B68042BEFD9E6
:103710000D48FEF70EFB0D48FEF70BFB0C48FEF7BD
:1037200008FB0C48FEF705FB0B48FEF702FB0B4BB2
:10373000054A1A600A4B054A1A6000BF0837BD46A1
:1037400080BD00BFC4000020280100203C010020F3
:10375000580100206C01002084010020500100204D
:103760005401002080B582B000AF19E001F056F896
:10377000104BDB68DB687B607B6804331846FEF720
:103780003EFB0D4B1B68013B0B4A13600B4B1B6848
:10379000013B0A4A136001F073F8786800F010F8F2
:1037A000064B1B68002BE1D100BF00BF0837BD46A8
:1037B00080BD00BF6C010020980100208001002026
:1037C00080B582B000AF78607B681B6B184600F054
:1037D0005FFD786800F05CFD00BF0837BD4680BD26
:1037E00080B400AF0A4B1B681B68002B04D1094B47
:1037F0004FF0FF321A6005E0054B1B68DB681B6861
:10380000044A136000BFBD465DF8047B704700BFEB
:1038100050010020B801002080B483B000AF0B4BF2
:103820001B68002B02D101237B6008E0084B1B685A
:10383000002B02D102237B6001E000237B607B68C8
:1038400018460C37BD465DF8047B7047A401002084
:10385000C001002080B588B000AF78607B68BB6194
:103860000023FB617B68002B00F097804D4B1B68A9
:10387000BA699A420BD04FF0500383F31188BFF31B
:103880006F8FBFF34F8F3B6100BF00BFFDE7BB6988
:10389000DB6C002B0BD14FF0500383F31188BFF387
:1038A0006F8FBFF34F8FFB6000BF00BFFDE7BB69A9
:1038B000DB6C5A1EBB69DA64BB69DA6ABB699B6C54
:1038C0009A426AD0BB69DB6C002B66D1BB690433BA
:1038D0001846FEF794FA0346002B0AD1BB69DB6A4F
:1038E000012202FA03F3DA432F4B1B6813402E4ADE
:1038F00013607B6819464A2002F00AFABB699A6C89
:10390000BB69DA62BB69DB6AC3F10502BB699A6114
:10391000BB69184602F07EFFBB69DB6A01229A4050
:10392000214B1B681343204A1360BB69DA6A1F49A5
:1039300013469B0013449B000B4404331B687B61BC
:10394000BB697A699A607B699A68BB69DA607B694E
:103950009B68BA6904325A60BB691A1D7B699A6018
:10396000BB69DA6A13469B0013449B000F4A1A4452
:10397000BB695A61BB69DA6A0C4913469B00134460
:103980009B000B441B68591C084813469B001344BA
:103990009B00034419600123FB61FB691846203733
:1039A000BD4680BDC0000020A0010020C400002052
:1039B00080B586B000AF78603960364B1B687B619C
:1039C000354B1B6804331846FEF719FA0346002BE3
:1039D0000BD1314B1B68DB6A012202FA03F3DA4395
:1039E0002E4B1B6813402D4A13607B68B3F1FF3FD9
:1039F00024D13B68002B21D0294B5B683B61264BCF
:103A00001B683A699A60244B1B683A699268DA60CD
:103A1000214B1A683B699B6804325A601E4B1B6835
:103A20001A1D3B699A601C4B1B681D4A5A611C4B4E
:103A30001B6801331A4A136000BF26E07A697B686D
:103A40001344FB60144B1B68FA685A60FA687B6980
:103A50009A4209D2134B1A680F4B1B68043319465C
:103A60001046FEF793F910E00F4B1A680A4B1B68DB
:103A7000043319461046FEF789F90C4B1B68FA68A7
:103A80009A4202D2094AFB68136000BF1837BD464C
:103A900080BD00BF9C010020C0000020A0010020CC
:103AA000840100205401002050010020B8010020B2
:103AB00080B584B002AF00237B6000F0F7FA124BB0
:103AC0001B68002B0BD0114B0193022300930023A2
:103AD0004FF482720E490F48FEF76AFF78607B68E8
:103AE000002B0BD14FF0500383F31188BFF36F8F7E
:103AF000BFF34F8F3B6000BF00BFFDE77B681846F8
:103B00000837BD4680BD00BFF4010020F801002049
:103B1000046F00080D3D000880B588B002AFF86062
:103B2000B9607A603B602C2000F0F6FA78617B691E
:103B3000002B0DD07B69002283F828207B6901933C
:103B40003B6A00933B687A68B968F86800F005F84A
:103B50007B6918461837BD4680BD80B586B000AF7A
:103B6000F860B9607A603B60BB68002B0BD14FF006
:103B7000500383F31188BFF36F8FBFF34F8F7B61C7
:103B800000BF00BFFDE700F091FA7B6AFA681A6097
:103B90007B6ABA689A617B6A3A68DA617B6A3A6AD8
:103BA0001A627B6A04331846FEF7E3F87B68002B41
:103BB00008D07B6A93F8283043F00403DAB27B6ABA
:103BC00083F8282000BF1837BD4680BD80B58AB075
:103BD00000AFF860B9607A603B6000237B62FB68ED
:103BE000002B0BD14FF0500383F31188BFF36F8F7D
:103BF000BFF34F8F3B6200BF00BFFDE7194B1B684F
:103C0000002B2AD0BB687B617B68BB61FB68FB61D2
:103C1000BB68052B18DCFFF7FFFD0346022B09D11B
:103C2000104B186807F1140100233A6BFEF71CFAD9
:103C3000786212E00B4B186807F114010023002290
:103C4000FEF712FA786208E0064B186807F11401D3
:103C500000233A68FEF732FB78627B6A1846283701
:103C6000BD4680BDF401002080B584B000AFF8608F
:103C7000B9607A6008E0FB689B69BA681344BB606E
:103C8000FB681B6AF8689847FB689A69BB68D1189B
:103C9000BB687A68F86800F0DFF80346002BEAD1C9
:103CA00000BF00BF1037BD4680BD000080B584B0A6
:103CB00000AF78603960144B1B68DB68DB68FB6021
:103CC000FB6804331846FEF79AF8FB6893F828302F
:103CD00003F00403002B05D03A687968F868FFF711
:103CE000C3FF08E0FB6893F8283023F00103DAB241
:103CF000FB6883F82820FB681B6AF868984700BFB8
:103D00001037BD4680BD00BFEC01002080B584B0F7
:103D100000AF786007F10803184600F059F8F86022
:103D2000BB681946F86800F005F800F0D7F800BF46
:103D3000F0E7000080B584B000AF78603960FFF72D
:103D400023F807F10803184600F066F8F860BB682E
:103D5000002B30D13B68002B0AD17A68FB689A426D
:103D600006D8FFF71FF8F9687868FFF79FFF24E08F
:103D70003B68002B08D0134B1B681B68002B01D13C
:103D8000012300E000233B600F4B18687A68FB6852
:103D9000D31A3A681946FEF7D7FDFFF703F8034632
:103DA000002B0AD1094B4FF080521A60BFF34F8F9E
:103DB000BFF36F8F01E0FEF7F5FF00BF1037BD4680
:103DC00080BD00BFF0010020F401002004ED00E000
:103DD00080B485B000AF78600E4B1B681B68002B69
:103DE00001D1012200E000227B681A607B681B6819
:103DF000002B05D1074B1B68DB681B68FB6001E0EB
:103E00000023FB60FB6818461437BD465DF8047B51
:103E1000704700BFEC01002080B584B000AF78602F
:103E2000FFF7C0F8F8600B4B1B68FA689A4205D29E
:103E300000F016F97B6801221A6002E07B6800221C
:103E40001A60044AFB681360FB6818461037BD46C9
:103E500080BD00BFFC01002080B586B000AFF860D7
:103E6000B9607A603B6000237B61FB68BA685A6086
:103E7000FB68FA681A61BA687B689A4212D87A6855
:103E80003B68D21AFB689B699A4202D301237B618B
:103E90001BE0104B1A68FB68043319461046FDF707
:103EA00075FF12E07A683B689A4206D2BA683B68AE
:103EB0009A4202D301237B6107E0074B1A68FB6833
:103EC000043319461046FDF761FF7B691846183721
:103ED000BD4680BDF0010020EC01002080B588B017
:103EE00000AFA9E0BB68002BC0F2A6803B69FB6174
:103EF000FB695B69002B04D0FB6904331846FDF7AE
:103F00007EFF3B1D1846FFF787FFB861BB68013B8A
:103F1000082B00F28E8001A252F823F0413F0008E6
:103F2000413F0008A93F0008BD3F000809400008C4
:103F3000413F0008413F0008A93F0008BD3F00087D
:103F4000FB6993F8283043F00103DAB2FB6983F888
:103F50002820FA68FB699B69D118FB68BA69F8697F
:103F6000FFF77AFF0346002B65D0FB6993F82830F2
:103F700003F00403002B09D0FA68FB699B69134422
:103F8000BA691946F869FFF76FFE08E0FB6993F814
:103F9000283023F00103DAB2FB6983F82820FB699B
:103FA0001B6AF869984746E0FB6993F8283023F0CC
:103FB0000103DAB2FB6983F828203DE0FB6993F83E
:103FC000283043F00103DAB2FB6983F82820FA684D
:103FD000FB699A61FB699B69002B0BD14FF0500381
:103FE00083F31188BFF36F8FBFF34F8F7B6100BFE7
:103FF00000BFFDE7FB699A69BB69D118BB69BA6963
:10400000F869FFF729FF17E0FB6993F8283003F000
:104010000203002B03D1F86900F03AF90CE0FB69C8
:1040200093F8283023F00103DAB2FB6983F82820E3
:1040300002E000BF00E000BF084B1B6807F1080169
:1040400000221846FEF704FA0346002B7FF44AAF1D
:1040500000BF00BF2037BD4680BD00BFF401002077
:1040600080B582B000AF09E00E4B1B68DB681B68AF
:104070003B604FF0FF313868FFF718FE094B1B68B3
:104080001B68002BF0D1074B1B687B60064B1B683D
:10409000044A1360044A7B68136000BF0837BD46BA
:1040A00080BD00BFEC010020F001002080B500AF12
:1040B00000F0B4FB124B1B68002B1DD11148FDF71B
:1040C00038FE1148FDF735FE104B0E4A1A60104BB2
:1040D0000D4A1A6000220C210A20FDF74DFF03460D
:1040E000074A1360064B1B68002B05D0044B1B6866
:1040F00008491846FEF7D0FB00F0C2FB00BF80BDA8
:10410000F4010020C4010020D8010020EC010020AF
:10411000F00100200C6F000880B58AB000AF786015
:104120000023FB61FEF730FE544B1B68002B01D1CE
:1041300000F008F97B68002B12D008227B6803F09E
:104140000703D31A0833BB61BB69DB437A689A4221
:1041500004D87A68BB6913447B6001E000237B606C
:104160007B68002B71DB7B68002B6ED0444B1B6897
:104170007A689A4269D8434B3B62424B1B687B6228
:1041800004E07B6A3B627B6A1B687B627B6A5B68DC
:104190007A689A4203D97B6A1B68002BF1D1374BAE
:1041A0001B687A6A9A4250D03B6A1B680822134403
:1041B000FB617B6A1A683B6A1A607B6A5A687B6893
:1041C000D21A08235B009A4220D97A6A7B6813448A
:1041D0007B617B6903F00703002B0BD04FF050038A
:1041E00083F31188BFF36F8FBFF34F8F3B6100BF25
:1041F00000BFFDE77B6A5A687B68D21A7B695A6008
:104200007B6A7A685A60786900F0F8F81C4B1A6883
:104210007B6A5B68D31A1A4A1360194B1A681A4BE7
:104220001B689A4203D2164B1B68174A13607B6ABD
:104230005B6843F000427B6A5A607B6A00221A6026
:10424000124B1B680133114A1360FEF7ABFDFB698B
:1042500003F00703002B0BD04FF0500383F31188BA
:10426000BFF36F8FBFF34F8FFB6000BF00BFFDE751
:10427000FB6918462837BD4680BD00BF082E0120C7
:104280000C2E0120002E0120102E0120142E0120C2
:1042900080B586B000AF78607B687B617B68002B5F
:1042A00047D008235B427A6913447B617B693B6199
:1042B0003B695B68002B0BDB4FF0500383F31188E5
:1042C000BFF36F8FBFF34F8FFB6000BF00BFFDE7F1
:1042D0003B691B68002B0BD04FF0500383F3118810
:1042E000BFF36F8FBFF34F8FBB6000BF00BFFDE711
:1042F0003B695B68002B1CDA3B691B68002B18D1FB
:104300003B695B6823F000423B695A60FEF73CFD65
:104310003B695A68094B1B681344084A13603869A3
:1043200000F06CF8064B1B680133054A1360FEF77A
:1043300039FD00BF1837BD4680BD00BF0C2E0120DF
:10434000182E012080B485B000AF4FF49633BB60C7
:10435000254BFB60FB6803F00703002B0CD0FB68C8
:104360000733FB60FB6823F00703FB60BA68FB6858
:10437000D31A1D4A1344BB60FB687B601B4A7B68F1
:1043800013601A4B00225A607B68BA681344FB60C2
:104390000822FB689B1AFB60FB6823F00703FB60A5
:1043A000FB68134A1360124B1B6800225A60104BC3
:1043B0001B6800221A607B683B603B68FA68D21A6F
:1043C0003B685A600A4B1A683B681A603B685B6836
:1043D000084A13603B685B68074A136000BF1437E4
:1043E000BD465DF8047B704700020020002E0120CE
:1043F000082E0120102E01200C2E012080B485B043
:1044000000AF7860284BFB6002E0FB681B68FB6034
:10441000FB681B687A689A42F7D8FB68BB60FB6848
:104420005B68BA6813447A689A4208D1FB685A6894
:104430007B685B681A44FB685A60FB687B607B683A
:10444000BB607B685B68BA681A44FB681B689A4269
:1044500018D1FB681A68154B1B689A420DD07B680F
:104460005A68FB681B685B681A447B685A60FB6883
:104470001B681A687B681A6008E00C4B1A687B6836
:104480001A6003E0FB681A687B681A60FA687B6848
:104490009A4202D0FB687A681A6000BF1437BD46A2
:1044A0005DF8047B704700BF002E0120082E01201C
:1044B00080B485B000AFF860B9607A60FB68043BF7
:1044C000FB60FB684FF080721A60FB68043BFB6086
:1044D000BB6823F00102FB681A60FB68043BFB60C9
:1044E0000C4AFB681A60FB68143BFB607A68FB6847
:1044F0001A60FB68043BFB60FB686FF002021A6005
:10450000FB68203BFB60FB6818461437BD465DF82E
:10451000047B70471945000880B485B000AF0023C4
:104520007B60134B1B68B3F1FF3F0BD04FF0500380
:1045300083F31188BFF36F8FBFF34F8FFB6000BF12
:1045400000BFFDE74FF0500383F31188BFF36F8F77
:10455000BFF34F8FBB6000BF00BF7B68002BFCD058
:1045600000BF00BF1437BD465DF8047B704700BF35
:104570000C0000200000000000000000000000000F
:10458000074B19680868B0E8F04F80F30988BFF35B
:104590006F8F4FF0000080F311887047AFF30080F9
:1045A000C000002000BF00BF08480068006880F31A
:1045B00008884FF0000080F3148862B661B6BFF33C
:1045C0004F8FBFF36F8F00DF00BF000008ED00E0EA
:1045D00000BF00BF80B586B000AF474B1B68474A9D
:1045E00093420BD14FF0500383F31188BFF36F8FC9
:1045F000BFF34F8FFB6000BF00BFFDE73E4B1B6862
:104600003F4A93420BD14FF0500383F31188BFF31D
:104610006F8FBFF34F8F3B6100BF00BFFDE7394B8A
:104620007B617B691B78DBB27B607B69FF221A7040
:104630007B691B78DBB2FB70FB78DBB203F05003C5
:10464000DAB2314B1A70314B07221A6009E02F4B56
:104650001B68013B2D4A1360FB78DBB25B00DBB2C9
:10466000FB70FB78DBB203F08003802BEFD0274B8D
:104670001B68C3F10703042B0BD04FF0500383F3E7
:104680001188BFF36F8FBFF34F8FBB6000BF00BFB8
:10469000FDE71E4B1B681B021C4A13601B4B1B686B
:1046A00003F4E063194A13607B68DAB27B691A701D
:1046B000174B1B68164A43F470031360144B1B68B6
:1046C000134A43F07043136000F068F9114B002265
:1046D0001A6000F087F9104B1B680F4A43F0404303
:1046E0001360FFF761FFFEF7A7FDFFF715FF00233B
:1046F00018461837BD4680BD00ED00E071C20F417D
:1047000070C20F4100E400E01C2E0120202E012089
:1047100020ED00E00C00002034EF00E080B487B012
:1047200000AF384B1B68384A93420BD14FF050030F
:1047300083F31188BFF36F8FBFF34F8FFB6000BF10
:1047400000BFFDE72F4B1B68304A93420BD14FF05F
:10475000500383F31188BFF36F8FBFF34F8F3B611B
:1047600000BF00BFFDE72A4B7B617B691B78DBB292
:104770007B607B69FF221A707B691B78DBB2FB7060
:10478000FB78DBB203F05003DAB2224B1A70224BF3
:1047900007221A6009E0204B1B68013B1E4A136088
:1047A000FB78DBB25B00DBB2FB70FB78DBB203F0C3
:1047B0008003802BEFD0184B1B68C3F10703042B39
:1047C0000BD04FF0500383F31188BFF36F8FBFF30B
:1047D0004F8FBB6000BF00BFFDE70F4B1B681B0284
:1047E0000D4A13600C4B1B6803F4E0630A4A136024
:1047F0007B68DAB27B691A7000BF1C37BD465DF872
:10480000047B704700ED00E071C20F4170C20F41A0
:1048100000E400E01C2E0120202E012080B483B093
:1048200000AF4FF0500383F31188BFF36F8FBFF3D6
:104830004F8F7B6000BF104B1B6801330E4A136023
:104840000D4B1B68012B10D10C4B1B68DBB2002BEE
:104850000BD04FF0500383F31188BFF36F8FBFF37A
:104860004F8F3B6000BF00BFFDE700BF0C37BD4668
:104870005DF8047B704700BF0C00002004ED00E0F1
:1048800080B483B000AF124B1B68002B0BD14FF0EC
:10489000500383F31188BFF36F8FBFF34F8F7B609B
:1048A00000BF00BFFDE70A4B1B68013B084A1360CD
:1048B000074B1B68002B05D100233B603B6883F34B
:1048C000118800BF00BF0C37BD465DF8047B704700
:1048D0000C000020000000000000000000000000AC
:1048E000EFF30980BFF36F8F154B1A681EF0100F9E
:1048F00008BF20ED108A20E9F04F10602DE9090073
:104900004FF0500080F31188BFF34F8FBFF36F8FCC
:10491000FEF792FC4FF0000080F3118809BC196883
:104920000868B0E8F04F1EF0100F08BFB0EC108A16
:1049300080F30988BFF36F8F704700BFAFF300802B
:10494000C000002000BF00BF80B582B000AF4FF0B4
:10495000500383F31188BFF36F8FBFF34F8F7B60DA
:1049600000BF01F03DFEFEF74BFB0346002B06D0D7
:1049700001F094FE084B4FF080521A6001E001F004
:1049800071FE00233B603B6883F3118800BF00BFCA
:104990000837BD4680BD00BF04ED00E080B400AF25
:1049A0000B4B00221A600B4B00221A600A4B1B684B
:1049B0000A4AA2FB03239B09094A013B1360044BEB
:1049C00007221A6000BFBD465DF8047B704700BF38
:1049D00010E000E018E000E008000020D34D621075
:1049E00014E000E0DFF80C00016841F470010160A0
:1049F0007047000088ED00E000BF00BF80B485B0C4
:104A000000AFEFF30583FB60FB680F2B15D9184A45
:104A1000FB6813441B78FB72164B1B78FA7A9A4298
:104A20000BD24FF0500383F31188BFF36F8FBFF3A6
:104A30004F8F7B6000BF00BFFDE70F4B1B6803F487
:104A4000E0620E4B1B689A420BD94FF0500383F380
:104A50001188BFF36F8FBFF34F8F3B6000BF00BF64
:104A6000FDE700BF1437BD465DF8047B704700BF0B
:104A7000F0E300E01C2E01200CED00E0202E0120D0
:104A800080B500AF034801F055FD034801F052FD29
:104A900000BF80BD146F0008586F000880B500AFDC
:104AA000064B1868054B1968054B064A01F0BEF81D
:104AB0004FF0805001F0FEF800BF80BD08000020DC
:104AC000814A0008F86F0008F0B585B002AF0023F6
:104AD0007B6033E01E497A6813469B0013449B00B9
:104AE0000B4418681A497A6813469B0013449B00CC
:104AF0000B4404331968164C7A6813469B00134420
:104B00009B00234408331C68114D7A6813469B00B0
:104B100013449B002B440C331D680D4E7A681346DA
:104B20009B0013449B00334410331B6800932B46B7
:104B3000224600F0BDF87B6801337B60054B1B68A3
:104B40007A689A42C6D300BF00BF0C37BD46F0BD9D
:104B5000242E0120C42E01202DE9B04F82B000AFD9
:104B6000FEF730FA034600229A469346C7E900ABA7
:104B7000D7E9000102460B464FF0000A4FF0000B48
:104B80004FEA431B4BEAD26B4FEA421A52465B464E
:104B9000141A63EB01054FF000024FF00003AB0065
:104BA00043EA9473A20014461D4614EB000845EB3B
:104BB00001094FF000024FF000034FEAC90343EA36
:104BC00058734FEAC80290469946C7E90089D7E969
:104BD0000023104619460837BD46BDE8B08F0000D7
:104BE00080B586B002AFF860B9607A603B6005229C
:104BF0002B49B86802F04CF90346002B4BD0294BE7
:104C00001B68072B03D9284801F03CFF44E0254BE3
:104C10001A68264913469B0013449B000B44FA680C
:104C20001A60204B1A68214913469B0013449B00CD
:104C30000B440433BA681A601A4B1A681B491346AE
:104C40009B0013449B000B4408337A681A60154B91
:104C50001A68164913469B0013449B000B440C33FF
:104C60003A681A600F4B1A68104913469B001344A8
:104C70009B000B441033BA691A600A4B1B6801335E
:104C8000084A1360BB6900933B687A68B968F868A2
:104C900000F00EF800E000BF1037BD4680BD00BF39
:104CA000686F0008C42E0120706F0008242E0120B8
:104CB00080B58AB000AFF860B9607A603B6007F1F8
:104CC0001003182200211846FBF714FBFB683B6118
:104CD000BB687B617B68BB613B68FB613B6B3B6294
:104CE00007F11003184601F02DFB00BF2837BD4621
:104CF00080BD000080B483B000AF0346FB7197F91C
:104D00000730002B0BDBFB7903F01F02074997F9F3
:104D100007305B09012000FA02F241F8232000BFAE
:104D20000C37BD465DF8047B704700BF00E100E032
:104D300080B483B000AF03463960FB7197F9073048
:104D4000002B0ADB3B68DAB20C4997F907301201F5
:104D5000D2B20B4483F800230AE03B68DAB2084978
:104D6000FB7903F00F03043B1201D2B20B441A7615
:104D700000BF0C37BD465DF8047B704700E100E0E2
:104D800000ED00E080B582B000AF01F0D7FE7860A2
:104D90007B68002B01D101F059F900BF0837BD46EF
:104DA00080BD000080B582B000AF0346FB710C4BA4
:104DB0001B78032B06D80A4B1B780133DAB2084B59
:104DC0001A7009E0FFF7DEFF054B5B681846FB1D14
:104DD0000122194600F09CFB00BF0837BD4680BD8C
:104DE0001000002080B584B000AF7860144B5B7871
:104DF000032B0FD8124B5B781A46124B9A5C7B68D8
:104E00001A700F4B5B780133DAB20D4B5A700123E5
:104E1000FB600FE00A4B5B6801227968184600F0DE
:104E20001BFA0346FB60FB68002B02DA0023FB60E1
:104E300000E000BFFB6818461037BD4680BD00BFCC
:104E4000100000200070000880B582B000AF7860CC
:104E5000044A0549786800F063F800BF0837BD468A
:104E600080BD00BFA54D0008E54D000880B584B0A9
:104E700000AF1E4B1B68FB60FB6803F02003002B98
:104E800011D01B4B1B68DBB2FB71FB6803F00B03FB
:104E9000002B08D1174B1B68002B04D0154B1B6847
:104EA000FA7910469847FB6803F08003002B1AD06C
:104EB000114B1B68002B15D00F4B1B68FA1D1046B9
:104EC0009847B860BB68002B06D10C4B1B680B4A97
:104ED00023F08003136006E0044B1B68FA79044B4F
:104EE0001A6000E000BF1037BD4680BD004400409E
:104EF00004440040C82E0120CC2E01200C44004068
:104F000080B400AF054B1B68044A43F08003136074
:104F100000BFBD465DF8047B704700BF0C440040F5
:104F200080B586B000AFF860B9607A602E4B1B6820
:104F30002D4A43F4003313602C4B1B682B4A43F07B
:104F4000010313602A4B1B683B613B6923F47F43D9
:104F50003B613B6943F4EE433B61254A3B69136087
:104F6000244B1B683B613B6923F0F0033B613B69C9
:104F700043F0A0033B611F4A3B6913601E4B4AF29A
:104F80002C021A601D4B00221A601D4B80221A60F1
:104F9000FB68DB007B611B4A7B69B2FBF3F30133E7
:104FA0007B617B695B087B617B69B3F5805F02D3C2
:104FB00040F6FF737B617B69002B04D07B691B018A
:104FC000114A9BB21360114A7B681360104ABB6898
:104FD000136006212620FFF7ABFE2620FFF78AFE8E
:104FE00000BF1837BD4680BD40380240303802400F
:104FF00020000240000002400C44004010440040E9
:105000001444004000E1F50508440040C82E01208A
:10501000CC2E012080B582B000AF264B3B60A82289
:1050200000213868FBF766F93B6803221A613B6888
:1050300003225A613B68204A9A613B681F4ADA6141
:105040003B684FF480621A623B6800229A623B68B8
:1050500000225A623B680022DA623B68164A1A66EE
:105060003B68174A5A663B6810229A663B680022E2
:105070001A673B680022DA663B6800225A67BFF372
:105080005F8F00237B600CE07B68C3F10F030D4A48
:10509000D15C3A687B6813440A461A707B68013316
:1050A0007B607B680F2BEFD9BFF35F8F00BF0837A2
:1050B000BD4680BDD02E0120C06F0008782F012092
:1050C000783301200470000880B58AB000AFF86022
:1050D000B9607A6000233B62FB68DB68FB61FB68B8
:1050E0001B69BB61BA69FB699A4205D9BA69FB6958
:1050F000D31A013B7B6207E0FB689A68B969FB69D8
:10510000CB1A1344013B7B62FB689A68FB69D31A94
:105110007A6A934228BF13467B627A6A7B6893421D
:1051200028BF13467B62FB685A68FB6913447B61A6
:105130007A6AB968786901F0BBFE3A6A7B6A1344FF
:105140003B62BA687B6A1344BB607A687B6AD31A95
:105150007B60FA697B6A1344FB61FB689B68FA69B0
:105160009A4201D10023FB61BFF35F8FFB68FA69AC
:10517000DA607B68002BB2D13B6A18462837BD46FF
:1051800080BD80B588B000AFF860B9607A60FB6818
:10519000DB68FB61FB689A68FB69D31ABB61BA697B
:1051A0007B689A4211D9FB685A68FB6913443B61DA
:1051B0007A68B968386901F07BFEBFF35F8FFA69DE
:1051C0007B681A44FB68DA601FE0BB697B61FB689F
:1051D0005A68FB6913443B617A69B968386901F020
:1051E00067FE7A68BB69D31A7B61FB685B683B61C9
:1051F000BA68BB6913447A691946386901F058FEE8
:10520000BFF35F8FFB687A69DA6000BF2037BD4665
:1052100080BD80B487B000AF78607B681B693B615C
:105220007B68DB68FB603A69FB689A4208D87B6858
:105230009A68FB68D21A3B691344013B7B6104E026
:105240003A69FB68D31A013B7B617B6918461C37BE
:10525000BD465DF8047B704780B58CB000AFF86048
:10526000B9607A603E4B3B623B6A1B78DBB2532BE2
:1052700001D0FFF7CFFEFB685A1C13465B001344B6
:10528000DB00374A1344FB61BB687B62FB691B6927
:10529000BB62FB69DB68BB610023FB62BA6ABB6966
:1052A0009A422BD9FB699A68BB6AD31A7B617A69E7
:1052B0007B68934228BF13467B61FB695A68BB6ACF
:1052C00013443B617A693969786A01F0F1FDFA6A41
:1052D0007B691344FB627A6A7B6913447B627A6858
:1052E0007B69D31A7B60BA6A7B691344BB62FB6932
:1052F0009B68BA6A9A4201D10023BB62BA69BB6A51
:10530000D31A7B617A697B68934228BF13467B611D
:105310007B69002B19D0FB695A68BB6A13443B6157
:105320007A693969786A01F0C3FDFA6A7B691344C6
:10533000FB627A6A7B6913447B627A687B69D31A61
:105340007B60BA6A7B691344BB62FB6A002B02D0A4
:10535000FB69BA6A1A61FB6A18463037BD4680BDE0
:10536000D02E012080B58CB000AFF860B9607A60B3
:105370003E4B3B623B6A1B78DBB2532B01D0FFF7FD
:1053800049FEFA6813465B001344DB006033374A7A
:105390001344FB61BB687B62FB691B69BB62FB69F1
:1053A000DB68BB610023FB62BA6ABB699A422BD9F6
:1053B000FB699A68BB6AD31A7B617A697B689342FE
:1053C00028BF13467B61FB695A68BB6A13443B6183
:1053D0007A693969786A01F06BFDFA6A7B6913446E
:1053E000FB627A6A7B6913447B627A687B69D31AB1
:1053F0007B60BA6A7B691344BB62FB699B68BA6ACB
:105400009A4201D10023BB62BA69BB6AD31A7B619D
:105410007A697B68934228BF13467B617B69002BC6
:1054200019D0FB695A68BB6A13443B617A693969D0
:10543000786A01F03DFDFA6A7B691344FB627A6A7F
:105440007B6913447B627A687B69D31A7B60BA6A92
:105450007B691344BB62FB6A002B02D0FB69BA6A0A
:105460001A61FB6A18463037BD4680BDD02E012038
:1054700080B588B000AFF860B9607A60BB68BB6186
:10548000FA6813465B001344DB0060331F4A134481
:105490007B617B695B69022B29D0022B2ED8002B04
:1054A00002D0012B13D029E07869FFF7B2FE3861F2
:1054B0003A697B689A4202D20023FB6121E07B6853
:1054C000FB617A68B9697869FFF75BFE19E0786972
:1054D000FFF79FFE38617A683B69934228BF134605
:1054E000FB61FA69B9697869FFF74BFE09E07A68F0
:1054F000B9697869FFF7E8FDF86102E00023FB6114
:1055000000BFFB6918462037BD4680BDD02E012064
:1055100080B588B000AFF860B9607A600E4BFB616F
:10552000FB691B78DBB2532B01D0FFF773FDEFF360
:1055300011834FF0200181F31188BB617A68B9684B
:10554000F868FFF795FF7861BB6983F311887B6981
:1055500018462037BD4680BDD02E012080B588B0CA
:1055600000AFF860B9607A603B603D4BBB61BB69DE
:105570001B78DBB2532B01D0FFF74CFDEFF3118307
:105580004FF0200181F311887B61354B3B61002393
:10559000FB613969FB695A1C13465B001344DB004D
:1055A0000B4404331B68002B08D0FB690133FB61FB
:1055B0003B691B69FA699A42EBDB00E000BF3B697B
:1055C0001B69FA699A423FDA3969FB695A1C13462A
:1055D0005B001344DB000B44FA681A603969FB690D
:1055E0005A1C13465B001344DB000B440433BA68B7
:1055F0001A603969FA6913465B001344DB000B44F7
:1056000020337A681A603969FA6913465B001344DB
:10561000DB000B44283300221A603969FA6913460B
:105620005B001344DB000B44243300221A60396909
:10563000FA6913465B001344DB000B442C333A68D1
:105640001A60BFF35F8F02E04FF0FF33FB617B69AD
:1056500083F31188FB6918462037BD4680BD00BF23
:10566000D02E012080B58AB000AFF860B9607A60B2
:105670003B60214B3B623B6A1B78DBB2532B01D072
:10568000FFF7C8FC1C4BFB61FB68022B2CD8EFF327
:1056900011834FF0200181F31188BB61FA68134632
:1056A0005B001344DB006033FA6913447B61FB68E1
:1056B000002B0ED07B69BA681A607B697A685A60E1
:1056C0007B693A689A607B6900221A617B690022D3
:1056D000DA607B693A6B5A61BFF35F8FBB6983F312
:1056E000118800237B6202E04FF0FF337B627B6A0C
:1056F00018462837BD4680BDD02E012080B487B023
:1057000000AFF860B9607A60BB68002B05D1FB6818
:105710005A1CFA6000221A7022E0BB687B61FB68A9
:105720005A1CFA603B617B68802B0AD980237B601E
:1057300007E0BA68531CBB60FB68591CF96012781B
:105740001A707B685A1E7A60002B03D0BB681B78E6
:10575000002BEED1BA687B69D31ADAB23B691A70B2
:10576000FB6818461C37BD465DF8047B704780B463
:1057700083B000AF78607B68073318460C37BD46AE
:105780005DF8047B7047000080B582B000AF344BF9
:105790001B7E1846FB1C01221946FFF7E3FD7860CB
:1057A0007B68002B57D0FB78802B31D0802B40DCDE
:1057B000072B15DC002B3CDD013B062B39D801A261
:1057C00052F823F0E7570008ED570008F357000898
:1057D000F9570008FF570008055800080B58000843
:1057E0007F2B33D025E000F031FC34E000F0EAFC00
:1057F00031E000F0C3FE2EE000F088FE2BE000F068
:1058000007FD28E001F000F925E001F0DFF822E0D3
:10581000134B1B7E1846FB1C01221946FFF7A2FD05
:1058200078607B68002B13D0FB78184601F044F8B1
:105830000EE0FB785BB2002B0CDA094B1B7E18469E
:10584000FB1C01221946FFF78DFD03E000BF02E0BB
:1058500000BF00E000BF00BF0837BD4680BD00BFED
:10586000905B012080B58CB000AF01233B713B1DE4
:105870000133FB61FB69FB62324B5B69BB620BE08E
:10588000BB6ADAB2FB6A591CF96262F07F02D2B2DB
:105890001A70BB6ADB09BB62BB6A7F2BF0D8FB6A5C
:1058A0005A1CFA62BA6AD2B21A70FB6AFB61264BC2
:1058B0001B68BB61234BDB68BA69D31A7B61FB6948
:1058C0007B627B693B620BE03B6ADAB27B6A591C04
:1058D000796262F07F02D2B21A703B6ADB093B62E6
:1058E0003B6A7F2BF0D87B6A5A1C7A623A6AD2B242
:1058F0001A707B6AFB61134B5B7818463B1DFA6993
:10590000D31A1A463B1D1946FAF74AFC03463B6177
:10591000FFF7F6FA3B69002B09D00A4ABB69D3604E
:10592000084B1B78013BDAB2064B1A7004E0054BBA
:105930005B690133034A53613B6918463037BD4602
:1059400080BD00BF905B0120041000E080B58AB0EC
:1059500000AFF860B9607A60964B1B78012B10D0CD
:10596000944B1B78002B00F03081924B1B78022B5C
:1059700009D1FFF777FF8F4B1B78012B40F0278170
:1059800001E000BF00E000BF7B681F2B09D8894BF6
:10599000DA697B6822FA03F303F00103002B40F07D
:1059A00018817B68172B07D8FB68013BFB607B687D
:1059B000DAB2FB681A70C4E0BA68FB68D31AFB61FC
:1059C000FB697F2B12D9FB69DA09FB68013BFB609D
:1059D000D2B2FB681A70FB69DBB2FA68013AFA606E
:1059E00063F07F03DAB2FB681A7006E0FB68013BE4
:1059F000FB60FB69DAB2FB681A707B687E2B07D804
:105A0000FB68013BFB607B68DAB2FB681A7098E0C8
:105A10007B68B3F5804F12D27B68DA09FB68013BE3
:105A2000FB60D2B2FB681A707B68DBB2FA68013A9D
:105A3000FA6063F07F03DAB2FB681A7081E07B687A
:105A4000B3F5001F1DD27B689A0BFB68013BFB601E
:105A5000D2B2FB681A707B68DB09DBB2FA68013AE4
:105A6000FA6063F07F03DAB2FB681A707B68DBB21E
:105A7000FA68013AFA6063F07F03DAB2FB681A70E1
:105A80005FE07B68B3F1805F28D27B685A0DFB68CA
:105A9000013BFB60D2B2FB681A707B689B0BDBB2E8
:105AA000FA68013AFA6063F07F03DAB2FB681A70B1
:105AB0007B68DB09DBB2FA68013AFA6063F07F03C6
:105AC000DAB2FB681A707B68DBB2FA68013AFA60F6
:105AD00063F07F03DAB2FB681A7032E07B681A0F5A
