:020000040800F2
:10000000000002203D6B0008E9690008F169000862
:10001000F9690008016A0008096A00080000000088
:10002000000000000000000000000000E12E0008B9
:10003000116A00080000000041320008A9320008DF
:100040008D6B00088D6B00088D6B00088D6B0008B0
:100050008D6B00088D6B00088D6B00088D6B0008A0
:100060008D6B00088D6B00088D6B00088D6B000890
:100070008D6B00088D6B00088D6B00088D6B000880
:100080008D6B00088D6B00088D6B00080000000070
:100090000000000000000000000000008D6B000860
:1000A0008D6B0008216A00088D6B00088D6B0008BD
:1000B0008D6B00088D6B00088D6B00088D6B000840
:1000C0008D6B00088D6B00088D6B00088D6B000830
:1000D0008D6B00088D6B0008CD3700080000000014
:1000E0008D6B00088D6B00088D6B00080000000010
:1000F0000000000000000000000000008D6B000800
:10010000000000008D6B00088D6B00088D6B0008EF
:1001100000000000000000000000000000000000DF
:100120008D6B00088D6B00088D6B00088D6B0008CF
:100130008D6B0008000000000000000000000000BF
:100140000000000000000000000000008D6B0008AF
:100150008D6B00088D6B00088D6B00088D6B00089F
:100160008D6B00088D6B000800000000000000008F
:10017000000000000000000000000000000000007F
:10018000000000008D6B000800000000000000006F
:080190008D6B00088D6B000867
:1001A000F0B400EB4003DFF8880000EBC30000F17F
:1001B00018063069F7687568874232D3B368DC1B6C
:1001C000631E934214D37D19D01900BF11F8013B6F
:1001D00005F8013B013A05D011F8013B05F8013B58
:1001E000013AF3D1BFF35F8FF0600120F0BC70479C
:1001F000C018904219D37819121B11F8013B00F86E
:10020000013B013CF9D1141C05D011F8013B05F864
:10021000013B013AF9D1BFF35F8FF4600120F0BCDC
:100220007047C01B01389042CDD20020F0BC70470F
:10023000842E012053B94AB9002908BF00281CBFE9
:100240004FF0FF314FF0FF3000F00CB8ADF1080C6B
:100250006DE904CE06F09CFCDDF804E0DDE9022344
:1002600004B07047704700BF0348044B834202D07C
:10027000034B03B1184770471800002018000020F6
:10028000000000000548064B1B1AD90F01EBA30123
:10029000491002D0034B03B11847704718000020E3
:1002A000180000200000000010B5064C237843B968
:1002B000FFF7DAFF044B13B10448AFF300800123CA
:1002C000237010BD1800002000000000C46E00085C
:1002D00008B5054B1BB105490548AFF30080BDE8E3
:1002E0000840FFF7CFBF00BF000000001C00002047
:1002F000C46E000802440346934200D1704703F8DD
:10030000011BF9E770B50D4B0D4D5B1B9C100026D2
:10031000A64209D106F0D6FD0A4D0B4B5B1B9C1083
:100320000026A64205D170BD55F8043B984701361A
:10033000EEE755F8043B98470136F2E724700008D1
:1003400024700008247000082870000880B586B06A
:1003500002AF06F0DFFA00F083F800F0E9F8394860
:1003600003F022FA03F04AF8374B009300230122EE
:100370004FF4FA71354802F083F8F860FB68002BFF
:100380000BD14FF0500383F31188BFF36F8FBFF38E
:100390004F8FBB6000BF00BFFDE701F0B7FA024618
:1003A0000023009300230121F86802F0C3F8284BD2
:1003B0000093002301224FF4FA61264802F060F80E
:1003C000F860FB68002B0BD14FF0500383F31188CA
:1003D000BFF36F8FBFF34F8F7B6000BF00BFFDE7A0
:1003E00001F094FA02460023009300230121F868EB
:1003F00002F0A0F8184B00930023012240F6B83118
:10040000164802F03DF8F860FB68002B0BD14FF066
:10041000500383F31188BFF36F8FBFF34F8F3B609F
:1004200000BF00BFFDE701F071FA02460023009310
:1004300000230121F86802F07DF801F0F7F800BF11
:10044000FDE700BF20A10700B9050008DC6E000829
:10045000F5050008E46E000831060008EC6E00089F
:1004600080B594B000AF07F11C0334220021184678
:10047000FFF740FF07F1080300221A605A609A60F4
:10048000DA601A6100237B60274B1B6C264A43F01D
:1004900080531364244B1B6C03F080537B607B6898
:1004A00000233B60214B1B68204A43F44043136008
:1004B0001E4B1B6803F440433B603B680123FB6118
:1004C0004FF480333B6202237B634FF48003BB63B2
:1004D0000423FB6364233B6402237B640423BB6427
:1004E00007F11C03184605F0E7FC0346002B01D07A
:1004F00000F0CEF80F23BB600223FB6000233B61BA
:100500004FF480537B610023BB6107F10803032193
:10051000184605F093FA0346002B01D000F0B8F816
:1005200000BF5037BD4680BD00380240007000401B
:1005300080B588B000AF07F10C0300221A605A6042
:100540009A60DA601A610023BB60194B1B6B184A72
:1005500043F080031363164B1B6B03F08003BB60F7
:10056000BB6800237B60124B1B6B114A43F00803EE
:1005700013630F4B1B6B03F008037B607B68002247
:100580004FF4E0410B4806F0AFF84FF4E043FB6056
:1005900001233B6100237B610023BB6107F10C0356
:1005A0001946044805F00CFF00BF2037BD4680BD4A
:1005B00000380240000C024080B584B000AF786083
:1005C0007B68002B0BD14FF0500383F31188BFF3EE
:1005D0006F8FBFF34F8FFB6000BF00BFFDE74FF48D
:1005E0008051034806F099F800BF1037BD4680BD22
:1005F000000C024080B584B000AF78607B68002BAF
:100600000BD14FF0500383F31188BFF36F8FBFF30B
:100610004F8FFB6000BF00BFFDE74FF40051034860
:1006200006F07BF800BF1037BD4680BD000C0240CD
:1006300080B584B000AF78607B68002B0BD14FF0A1
:10064000500383F31188BFF36F8FBFF34F8FFB60AD
:1006500000BF00BFFDE74FF48041034806F05DF89E
:1006600000BF1037BD4680BD000C024080B582B08F
:1006700000AF78607B681B68044A934201D106F0A2
:100680006BF900BF0837BD4680BD00BF00000140C8
:1006900080B400AF72B600BF00BFFDE780B483B086
:1006A00000AF78607B6803F108027B685A607B6862
:1006B0004FF0FF329A607B6803F108027B68DA60D2
:1006C0007B6803F108027B681A617B6800221A606C
:1006D00000BF0C37BD465DF8047B704780B483B023
:1006E00000AF78607B6800221A6100BF0C37BD46FE
:1006F0005DF8047B704780B485B000AF78603960E6
:100700003B681B68BB60BB68B3F1FF3F03D17B68EC
:100710001B69FB600CE07B680833FB6002E0FB6850
:100720005B68FB60FB685B681B68BA689A42F6D23C
:10073000FB685A683B685A603B685B683A689A6035
:100740003B68FA689A60FB683A685A603B687A6866
:100750001A617B681B685A1C7B681A6000BF1437DB
:10076000BD465DF8047B704780B485B000AF78600B
:100770007B681B69FB607B685B687A6892689A603B
:100780007B689B687A6852685A60FB685B687A6825
:100790009A4203D17B689A68FB685A607B680022A2
:1007A0001A61FB681B685A1EFB681A60FB681B68AD
:1007B00018461437BD465DF8047B704780B586B097
:1007C00000AF7860396001237B617B683B613B69E6
:1007D000002B0BD14FF0500383F31188BFF36F8FC1
:1007E000BFF34F8FFB6000BF00BFFDE73B69002BED
:1007F0005DD03B69DB6B002B59D03B691A6C3B69C0
:10080000DB6B0021A3FB0223002B00D001210B4650
:10081000002B4CD102F0B2FC3B691A683B69DB6BE0
:100820003969096C01FB03F31A443B699A603B691F
:1008300000229A633B691A683B695A603B691A68EF
:100840003B69DB6B013B3969096C01FB03F31A441B
:100850003B69DA603B69FF2283F844203B69FF2251
:1008600083F845203B68002B14D13B691B69002BA2
:100870001AD03B691033184601F06CFA0346002B7E
:1008800012D0164B4FF080521A60BFF34F8FBFF358
:100890006F8F09E03B6910331846FFF7FFFE3B6995
:1008A00024331846FFF7FAFE02F09AFC01E0002319
:1008B0007B617B69002B0BD14FF0500383F31188D0
:1008C000BFF36F8FBFF34F8FBB6000BF00BFFDE76B
:1008D0007B6918461837BD4680BD00BF04ED00E0B7
:1008E00080B58AB002AFF860B9601346FB7100238F
:1008F000FB61FB68002B2ED00021BA68FB68A3FBCC
:100900000223002B00D001210B46002B23D1FB68D2
:10091000BA6802FB03F313F1510F1CD8FB68BA68E5
:1009200002FB03F3BB61BB695033184602F0A8F821
:10093000F861FB69002B1DD0FB697B617B6950333B
:100940007B61FA79FB69009313467A69B968F868A4
:1009500000F015F80EE0FB69002B0BD14FF05003AF
:1009600083F31188BFF36F8FBFF34F8F3B6100BFDD
:1009700000BFFDE7FB6918462037BD4680BD80B546
:1009800084B000AFF860B9607A60FB70BB68002B80
:1009900003D1BB69BA691A6002E0BB697A681A6060
:1009A000BB69FA68DA63BB69BA681A640121B8697D
:1009B000FFF704FFBB69FA7883F84C20FB78BA682C
:1009C000F968732003F0EAFE00BF1037BD4680BD12
:1009D00080B590B002AFF860B9607A603B600023E8
:1009E0007B63FB683B633B6B002B0BD14FF05003E9
:1009F00083F31188BFF36F8FBFF34F8FBB6200BFCC
:100A000000BFFDE7BB68002B03D13B6B1B6C002BC9
:100A100001D1012300E00023002B0BD14FF0500344
:100A200083F31188BFF36F8FBFF34F8F7B6200BFDB
:100A300000BFFDE73B68022B03D13B6BDB6B012B57
:100A400001D1012300E00023002B0BD14FF0500314
:100A500083F31188BFF36F8FBFF34F8F3B6200BFEB
:100A600000BFFDE701F08CFB0346002B02D17B6841
:100A7000002B01D1012300E00023002B0BD14FF00C
:100A8000500383F31188BFF36F8FBFF34F8FFB6168
:100A900000BF00BFFDE702F071FB3B6B9A6B3B6B45
:100AA000DB6B9A4202D33B68022B36D13B6B184674
:100AB00004F0A2FBBA6879683B6800930B460146D4
:100AC0005A2003F0E1FE3A68B968386B00F088FA02
:100AD000F8623B6B5B6A002B10D03B6B24331846EB
:100AE00001F038F90346002B13D04D4B4FF08052E4
:100AF0001A60BFF34F8FBFF36F8F0AE0FB6A002BC2
:100B000007D0474B4FF080521A60BFF34F8FBFF3AF
:100B10006F8F02F065FB01237DE07B68002B10D115
:100B200002F05EFB3B6B184604F066FBBA6879681E
:100B30003B6800930B4601465A2003F0A5FE0023B4
:100B400069E07B6B002B06D107F11403184601F016
:100B5000DBF901237B6302F043FB00F0C9FD02F0E7
:100B60000DFB3B6B93F844305BB2B3F1FF3F03D115
:100B70003B6B002283F844203B6B93F845305BB21B
:100B8000B3F1FF3F03D13B6B002283F8452002F015
:100B900027FB3A1D07F114031146184601F0CAF964
:100BA0000346002B24D1386B00F012FB0346002BC8
:100BB00018D03B6B10337A681146184601F05AF88A
:100BC000386B00F09DFA00F0A1FD0346002B7FF486
:100BD00062AF134B4FF080521A60BFF34F8FBFF3D9
:100BE0006F8F58E7386B00F08BFA00F08FFD52E7FB
:100BF000386B00F085FA00F089FD3B6B184604F075
:100C0000FBFABA6879683B6800930B4601465A20A4
:100C100003F03AFE002318463837BD4680BD00BFBA
:100C200004ED00E080B592B000AFF860B9607A6082
:100C30003B60FB683B643B6C002B0BD14FF05003D7
:100C400083F31188BFF36F8FBFF34F8FFB6200BF39
:100C500000BFFDE7BB68002B03D13B6C1B6C002B76
:100C600001D1012300E00023002B0BD14FF05003F2
:100C700083F31188BFF36F8FBFF34F8FBB6200BF49
:100C800000BFFDE73B68022B03D13B6CDB6B012B04
:100C900001D1012300E00023002B0BD14FF05003C2
:100CA00083F31188BFF36F8FBFF34F8F7B6200BF59
:100CB00000BFFDE702F052FBEFF311824FF050034B
:100CC00083F31188BFF36F8FBFF34F8F3A62FB61DD
:100CD0003B6AFB633B6C9A6B3B6CDB6B9A4202D3C7
:100CE0003B68022B51D13B6C93F8453087F83B3081
:100CF0003B6C9B6B7B633B6C184604F07DFA0146B2
:100D00007B681A46602003F0EFFC3A68B968386CDB
:100D100000F066F997F93B30B3F1FF3F12D13B6C1D
:100D20005B6A002B2ED03B6C2433184601F012F87E
:100D30000346002B26D07B68002B23D07B68012242
:100D40001A601FE000F004FE386397F93B303A6BFD
:100D50009A4217D997F93B307F2B0BD14FF05003B4
:100D600083F31188BFF36F8FBFF34F8FBB6100BF59
:100D700000BFFDE797F83B300133DBB25AB23B6C62
:100D800083F8452001237B640BE03B6C184604F09C
:100D900033FA01467B681A46602003F0A5FC002365
:100DA0007B64FB6B7B617B6983F3118800BF7B6C89
:100DB00018464837BD4680BD90B58FB002AFF86089
:100DC000B9607A600023FB62FB68BB62BB6A002BE0
:100DD0000BD14FF0500383F31188BFF36F8FBFF334
:100DE0004F8F3B6200BF00BFFDE7BB68002B03D104
:100DF000BB6A1B6C002B01D1012300E00023002BF8
:100E00000BD14FF0500383F31188BFF36F8FBFF303
:100E10004F8FFB6100BF00BFFDE701F0B1F9034652
:100E2000002B02D17B68002B01D1012300E00023BD
:100E3000002B0BD14FF0500383F31188BFF36F8F5A
:100E4000BFF34F8FBB6100BF00BFFDE702F096F913
:100E5000BB6A9B6B7B627B6A002B2FD0B968B86A38
:100E600000F028F9BB6A184604F0C6F904460020D1
:100E700004F0C2F902467B680121009121465C2002
:100E800003F002FD7B6A5A1EBB6A9A63BB6A1B6948
:100E9000002B0FD0BB6A1033184600F05BFF0346EF
:100EA000002B07D04D4B4FF080521A60BFF34F8F8D
:100EB000BFF36F8F02F094F901238AE07B68002B67
:100EC00013D102F08DF9BB6A184604F095F9044677
:100ED000002004F091F902467B680121009121462F
:100EE0005C2003F0D1FC002373E0FB6A002B06D1E9
:100EF00007F11003184601F007F80123FB6202F026
:100F00006FF900F0F5FB02F039F9BB6A93F8443051
:100F10005BB2B3F1FF3F03D1BB6A002283F84420E8
:100F2000BB6A93F845305BB2B3F1FF3F03D1BB6AB4
:100F3000002283F8452002F053F93A1D07F110030F
:100F40001146184600F0F6FF0346002B24D1B86A7C
:100F500000F028F90346002B18D0BB6A24337A68C6
:100F60001146184600F086FEB86A00F0C9F800F095
:100F7000CDFB0346002B7FF469AF184B4FF0805236
:100F80001A60BFF34F8FBFF36F8F5FE7B86A00F04F
:100F9000B7F800F0BBFB59E7B86A00F0B1F800F011
:100FA000B5FBB86A00F0FEF80346002B3FF44EAFE5
:100FB000BB6A184604F020F90446002004F01CF92E
:100FC00002467B680121009121465C2003F05CFC15
:100FD000002318463437BD4690BD00BF04ED00E045
:100FE00080B586B000AFF860B9607A6000237B619D
:100FF000FB689B6B3B61FB681B6C002B0DD1FB6896
:101000001B68002B4DD1FB689B68184601F0D6F891
:101010007861FB6800229A6043E07B68002B19D15D
:10102000FB685868FB681B6C1A46B96805F03CFF02
:10103000FB685A68FB681B6C1A44FB685A60FB68C3
:101040005A68FB689B689A422BD3FB681A68FB6856
:101050005A6026E0FB68D868FB681B6C1A46B968C2
:1010600005F022FFFB68DA68FB681B6C5B421A44E0
:10107000FB68DA60FB68DA68FB681B689A4207D293
:10108000FB689A68FB681B6C5B421A44FB68DA6079
:101090007B68022B05D13B69002B02D03B69013BE9
:1010A0003B613B695A1CFB689A637B691846183799
:1010B000BD4680BD80B582B000AF786039607B6886
:1010C0001B6C002B18D07B68DA687B681B6C1A4499
:1010D0007B68DA607B68DA687B689B689A4203D336
:1010E0007B681A687B68DA607B68D9687B681B6CF0
:1010F0001A46386805F0D8FE00BF0837BD4680BDE7
:1011000080B584B000AF786002F038F87B6893F85F
:101110004530FB7311E07B685B6A002B12D07B6863
:101120002433184600F016FE0346002B01D000F0D1
:1011300069FFFB7B013BDBB2FB7397F90F30002BA0
:10114000E9DC00E000BF7B68FF2283F8452002F065
:1011500047F802F013F87B6893F84430BB7311E052
:101160007B681B69002B12D07B681033184600F097
:10117000F1FD0346002B01D000F044FFBB7B013B97
:10118000DBB2BB7397F90E30002BE9DC00E000BF47
:101190007B68FF2283F8442002F022F800BF10375A
:1011A000BD4680BD80B584B000AF786001F0E6FF39
:1011B0007B689B6B002B02D10123FB6001E00023C5
:1011C000FB6002F00DF8FB6818461037BD4680BD85
:1011D00080B584B000AF786001F0D0FF7B689A6B77
:1011E0007B68DB6B9A4202D10123FB6001E00023A4
:1011F000FB6001F0F5FFFB6818461037BD4680BD67
:1012000080B586B000AF7860396000233B617B68B1
:10121000002B0BD14FF0500383F31188BFF36F8F76
:10122000BFF34F8FFB6000BF00BFFDE73B68002BA3
:1012300024D000237B611EE01C4A7B69DB00134441
:101240005B687A689A4205D17B69DB00174A1344D0
:101250003B6113E03B69002B0AD1144A7B6952F8C9
:101260003330002B04D17B69DB00104A13443B610F
:101270007B6901337B617B69072BDDD93B69002BDF
:101280000FD03B693A681A603B697A685A607B689C
:10129000184603F0B1FF01463B681A46712003F07F
:1012A00023FA00BF1837BD4680BD00BF34000020C0
:1012B00080B586B000AFF860B9607A60FB687B618A
:1012C00001F05CFF7B6993F844305BB2B3F1FF3F00
:1012D00003D17B69002283F844207B6993F8453071
:1012E0005BB2B3F1FF3F03D17B69002283F8452055
:1012F00001F076FF7B699B6B002B06D17B69243361
:101300007A68B968184600F0DBFC7869FFF7F8FEE8
:1013100000BF1837BD4680BD80B58CB004AFF86003
:10132000B9603B601346FB80FB889B00184601F0C8
:10133000A7FB78617B69002B13D0582001F0A0FB3C
:10134000F861FB69002B08D058220021F869FEF7EC
:10135000D1FFFB697A691A6305E0786901F04CFCFA
:1013600001E00023FB61FB69002B13D0FA88002306
:101370000393FB690293FB6A0193BB6A00933B688A
:10138000B968F86800F00EF8F86900F09BF80123DE
:10139000BB6102E04FF0FF33BB61BB6918462037E9
:1013A000BD4680BD80B588B000AFF860B9607A6096
:1013B0003B603B6B186B7B689B001A46A521FEF7D0
:1013C00099FF3B6B1A6B7B6803F18043013B9B00E9
:1013D0001344BB61BB6923F00703BB61BB6903F026
:1013E0000703002B0BD04FF0500383F31188BFF39A
:1013F0006F8FBFF34F8F7B6100BF00BFFDE7BB68FE
:10140000002B1ED00023FB6112E0BA68FB69134475
:1014100019783A6BFB69134434330A461A70BA6878
:10142000FB6913441B78002B06D0FB690133FB6179
:10143000FB69092BE9D900E000BF3B6B002283F870
:101440003D20BB6A042B0BD94FF0500383F3118866
:10145000BFF36F8FBFF34F8F3B6100BF00BFFDE74E
:10146000BB6A042B01D90423BB623B6BBA6ADA6204
:101470003B6BBA6A9A643B6B04331846FFF72EF94C
:101480003B6B18331846FFF729F93B6B3A6B1A612F
:10149000BB6AC3F105023B6B9A613B6B3A6B5A62C4
:1014A0003A68F968B86901F0B7FC02463B6B1A600C
:1014B000FB6A002B02D0FB6A3A6B1A6000BF203730
:1014C000BD4680BDB0B586B002AF786001F056FE73
:1014D0004F4B1B6801334E4A13604E4B1B68002B69
:1014E00009D14C4A7B681360494B1B68012B10D112
:1014F00000F0ACFD0DE0484B1B68002B09D1454BBB
:101500001B68DA6A7B68DB6A9A4202D8414A7B68C8
:101510001360424B1B680133404A13603F4B1A680B
:101520007B681A647B68002B16D07B68184603F032
:101530009DFD78687B6803F134017B68DA6A7B681B
:101540001B6B1D467B681B681C467B681B6BE31A84
:1015500000932B4601F0F4FF7B68184603F00AFE67
:101560007B68DB6A01229A402D4B1B6813432C4A8F
:1015700013607B68DA6A2B4913469B0013449B0077
:101580000B4404331B68FB607B68FA689A60FB6855
:101590009A687B68DA60FB689B687A6804325A60F4
:1015A0007B681A1DFB689A607B68DA6A13469B00A9
:1015B00013449B001B4A1A447B685A617B68DA6AB1
:1015C000184913469B0013449B000B441B68591C8D
:1015D000144813469B0013449B000344196001F018
:1015E000FFFD0D4B1B68002B0ED00A4B1B68DA6AFF
:1015F0007B68DB6A9A4207D20B4B4FF080521A602D
:10160000BFF34F8FBFF36F8F00BF1037BD46B0BD24
:101610004C010020740000205801002068010020C7
:10162000540100207800002004ED00E080B586B071
:1016300002AF274B01930023009300238222254908
:101640002548FFF769FEF860FB68012B02D100F026
:10165000E3FEF860FB68012B24D14FF0500383F3C5
:101660001188BFF36F8FBFF34F8FBB6000BF1B4B61
:101670004FF0FF321A601A4B01221A60194B0022F8
:101680001A60194B1A68124B1B689A4202D103F078
:10169000D1FC04E0144B1B68184603F029FD01F04F
:1016A00049FC0FE0FB68B3F1FF3F0BD14FF0500353
:1016B00083F31188BFF36F8FBFF34F8F7B6000BF41
:1016C00000BFFDE7094B1B6800BF1037BD4680BD5A
:1016D00070010020F46E00081D2000086C0100203D
:1016E000580100205001002074000020D46F000831
:1016F00080B400AF044B1B680133034A136000BF82
:10170000BD465DF8047B70477401002080B588B049
:1017100000AF0023FB610023BB61734B1B68002BF0
:101720000BD14FF0500383F31188BFF36F8FBFF3DA
:101730004F8F7B6000BF00BFFDE701F01FFD6A4BCC
:101740001B68013B684A1360674B1B68002B40F025
:10175000C480664B1B68002B00F0BF808EE0644B9A
:10176000DB68DB68FB61FB699B6A3B61FB69DB69EA
:10177000FA69126A9A60FB691B6AFA69D2695A604F
:101780003B695A68FB6918339A4203D1FB691A6AAC
:101790003B695A60FB6900229A623B691B685A1ECA
:1017A0003B691A60FB695B69FB60FB699B68FA69CE
:1017B000D2689A60FB69DB68FA6992685A60FB68D4
:1017C0005A68FB6904339A4203D1FB69DA68FB6803
:1017D0005A60FB6900225A61FB681B685A1EFB684D
:1017E0001A60FB69184603F0C5FCFB69DB6A01223D
:1017F0009A40404B1B6813433E4A1360FB69DA6A08
:101800003D4913469B0013449B000B4404331B6863
:10181000BB60FB69BA689A60BB689A68FB69DA606A
:10182000BB689B68FA6904325A60FB691A1DBB6881
:101830009A60FB69DA6A13469B0013449B002E4AA8
:101840001A44FB695A61FB69DA6A2B4913469B000B
:1018500013449B000B441B68591C274813469B00EC
:1018600013449B0003441960FB69DA6A234B1B682D
:10187000DB6A9A4202D3224B01221A601C4B1B687E
:10188000002B7FF46CAFFB69002B01D000F05CFCF7
:101890001C4B1B687B617B69002B10D000F064F847
:1018A0000346002B02D0164B01221A607B69013BD4
:1018B0007B617B69002BF1D1124B00221A60104B27
:1018C0001B68002B09D00123BB610F4B4FF08052E6
:1018D0001A60BFF34F8FBFF36F8F01F081FCBB69BC
:1018E00018462037BD4680BD740100204C01002001
:1018F0000C0100205401002078000020740000201A
:10190000600100205C01002004ED00E080B483B0A1
:1019100000AF054B1B687B607B6818460C37BD46E3
:101920005DF8047B704700BF5001002080B582B095
:1019300000AF01F013FD00237B60044B1B683B608C
:101940003B6818460837BD4680BD00BF50010020E7
:1019500080B400AF034B1B681846BD465DF8047B9E
:10196000704700BF4C01002080B58AB000AF002353
:101970007B62804B1B68002B40F0F1807E4B1B6824
:1019800001333B627C4A3B6A13603B6A002B21D1E6
:101990007A4B1B681B68002B0BD04FF0500383F36E
:1019A0001188BFF36F8FBFF34F8F7B6000BF00BF05
:1019B000FDE7724B1B68FB61714B1B686F4A13603C
:1019C0006F4AFB6913606F4B1B6801336D4A1360EC
:1019D00000F0BAFB6C4B1B683A6A9A42C0F0AA80CE
:1019E000664B1B681B68002B04D1674B4FF0FF321E
:1019F0001A609FE0614B1B68DB68DB68BB61BB69F9
:101A00005B687B613A6A7B699A4203D25E4A7B6972
:101A100013608FE0BB695B693B61BB699B68BA6916
:101A2000D2689A60BB69DB68BA6992685A603B69A0
:101A30005A68BB6904339A4203D1BB69DA683B69CF
:101A40005A60BB6900225A613B691B685A1E3B6998
:101A50001A60BB699B6A002B1ED0BB699B6AFB6046
:101A6000BB69DB69BA69126A9A60BB691B6ABA69A9
:101A7000D2695A60FB685A68BB6918339A4203D12D
:101A8000BB691A6AFB685A60BB6900229A62FB68EC
:101A90001B685A1EFB681A60BB69184603F06AFB94
:101AA000BB69DB6A01229A40384B1B681343374AF3
:101AB0001360BB69DA6A364913469B0013449B00E6
:101AC0000B4404331B68BB60BB69BA689A60BB688F
:101AD0009A68BB69DA60BB689B68BA6904325A606D
:101AE000BB691A1DBB689A60BB69DA6A13469B0022
:101AF00013449B00264A1A44BB695A61BB69DA6ADF
:101B0000234913469B0013449B000B441B68591C3C
:101B10001F4813469B0013449B0003441960BB6994
:101B2000DA6A1C4B1B68DB6A9A427FF659AF0123C5
:101B30007B6255E7174B1B68DA6A154913469B0011
:101B400013449B000B441B68012B01D901237B62CA
:101B5000114B1B68002B07D001237B6204E00F4B65
:101B60001B6801330D4A13607B6A18462837BD464F
:101B700080BD00BF7401002050010020040100203E
:101B800008010020640100206C01002054010020A5
:101B90007800002074000020600100205C0100201B
:101BA00080B586B000AF2D4B1B68002B03D02C4BAB
:101BB00001221A604EE02A4B00221A60294B1B6852
:101BC000FB60FB68B3FA83F3FB72FB7AC3F11F037C
:101BD0007B6125497A6913469B0013449B000B44A3
:101BE0001B68002B0BD14FF0500383F31188BFF318
:101BF0006F8FBFF34F8F7B6000BF00BFFDE77A6937
:101C000013469B0013449B00174A13443B613B69F6
:101C10005B685A683B695A603B695A683B6908339C
:101C20009A4204D13B695B685A683B695A603B69D8
:101C30005B68DB680D4A13600C4B1A680C4B1B6821
:101C40009A4202D103F0F6F904E0084B1B681846EB
:101C500003F04EFA00BF1837BD4680BD7401002066
:101C60006001002054010020780000207400002052
:101C70007001002080B584B000AF786039607B6867
:101C8000002B0BD14FF0500383F31188BFF36F8FFC
:101C9000BFF34F8FFB6000BF00BFFDE7074B1B6822
:101CA000183319467868FEF726FD0121386800F0E0
:101CB00033FB00BF1037BD4680BD00BF740000205D
:101CC00080B586B000AFF860B9607A60FB68002B21
:101CD0000BD14FF0500383F31188BFF36F8FBFF325
:101CE0004F8F3B6100BF00BFFDE7FB685B687B6116
:101CF000174B1B687A69DA61154B1B687A69926821
:101D00001A62134B1A687B699B6818325A60104B31
:101D10001B6803F118027B699A600D4B1B68FA6817
:101D20009A62FB681B685A1CFB681A607B68002B70
:101D300002D04FF0FF33BB60242002F07BFC7968B7
:101D4000B86800F0E9FA00BF1837BD4680BD00BF93
:101D50007400002080B58AB000AF78607B68DB68D3
:101D6000DB683B623B6A002B0BD14FF0500383F3DF
:101D70001188BFF36F8FBFF34F8FFB6000BF00BFB1
:101D8000FDE73B6A9B6AFB613B6ADB693A6A126A60
:101D90009A603B6A1B6A3A6AD2695A60FB695A6860
:101DA0003B6A18339A4203D13B6A1A6AFB695A604C
:101DB0003B6A00229A62FB691B685A1EFB691A6023
:101DC0004B4B1B68002B62D13B6A5B697B613B6AB2
:101DD0009B683A6AD2689A603B6ADB683A6A9268A2
:101DE0005A607B695A683B6A04339A4203D13B6A62
:101DF000DA687B695A603B6A00225A617B691B681A
:101E00005A1E7B691A603B6A184603F0B3F93B6AB5
:101E1000DB6A01229A40374B1B681343354A136033
:101E20003B6ADA6A344913469B0013449B000B4417
:101E300004331B683B613B6A3A699A603B699A6864
:101E40003B6ADA603B699B683A6A04325A603B6AD3
:101E50001A1D3B699A603B6ADA6A13469B00134479
:101E60009B00254A1A443B6A5A613B6ADA6A224956
:101E700013469B0013449B000B441B68591C1E48CF
:101E800013469B0013449B00034419601BE01B4B4B
:101E90005B68BB613B6ABA69DA61BB699A683B6A95
:101EA0001A62BB699B683A6A18325A603B6A03F14E
:101EB0001802BB699A603B6A104A9A620F4B1B6812
:101EC00001330E4A13603B6ADA6A0D4B1B68DB6A0A
:101ED0009A4205D901237B620A4B01221A6001E074
:101EE00000237B627B6A18462837BD4680BD00BF51
:101EF0007401002054010020780000200C01002013
:101F0000740000206001002080B483B000AF7860CE
:101F1000064B1A687B681A60054B1A687B685A6022
:101F200000BF0C37BD465DF8047B7047640100209C
:101F30005001002080B588B000AF786039607B68C0
:101F4000002B0BD14FF0500383F31188BFF36F8F39
:101F5000BFF34F8F3B6100BF00BFFDE73B68002B25
:101F60000BD14FF0500383F31188BFF36F8FBFF392
:101F70004F8FFB6000BF00BFFDE701F0FFF81F4B74
:101F80001B68BB617B685B68BA69D31A7B613B687D
:101F90001B68B3F1FF3F02D10023FB6126E07B68A1
:101FA0001A68174B1B689A420AD07B685B68BA694B
:101FB0009A4205D30123FB613B6800221A6015E0B9
:101FC0003B681B687A699A420BD23B681A687B6946
:101FD000D21A3B681A607868FFF796FF0023FB610E
:101FE00004E03B6800221A600123FB6101F0F8F86D
:101FF000FB6918462037BD4680BD00BF5001002058
:102000006401002080B400AF034B01221A6000BFBE
:10201000BD465DF8047B70476001002080B582B04A
:1020200000AF786000F052F8064B1B68012BF9D91D
:10203000054B4FF080521A60BFF34F8FBFF36F8F85
:10204000F0E700BF7800002004ED00E080B582B02A
:1020500000AF00237B600CE07A6813469B001344BA
:102060009B00124A13441846FEF718FB7B680133A5
:102070007B607B68042BEFD90D48FEF70FFB0D4802
:10208000FEF70CFB0C48FEF709FB0C48FEF706FBBD
:102090000B48FEF703FB0B4B054A1A600A4B054A37
:1020A0001A6000BF0837BD4680BD00BF7800002021
:1020B000DC000020F00000200C01002020010020A6
:1020C00038010020040100200801002080B582B002
:1020D00000AF19E001F052F8104BDB68DB687B6061
:1020E0007B6804331846FEF73FFB0D4B1B68013B32
:1020F0000B4A13600B4B1B68013B0A4A136001F04B
:102100006FF8786800F010F8064B1B68002BE1D1DF
:1021100000BF00BF0837BD4680BD00BF20010020C2
:102120004C0100203401002080B582B000AF7860FF
:102130007B681B6B184600F05FFD786800F05CFD63
:1021400000BF0837BD4680BD80B400AF0A4B1B6896
:102150001B68002B04D1094B4FF0FF321A6005E0D9
:10216000054B1B68DB681B68044A136000BFBD4653
:102170005DF8047B704700BF040100206C01002063
:1021800080B483B000AF0B4B1B68002B02D101233E
:102190007B6008E0084B1B68002B02D102237B60A8
:1021A00001E000237B607B6818460C37BD465DF874
:1021B000047B7047580100207401002080B588B06E
:1021C00000AF78607B68BB610023FB617B68002BFC
:1021D00000F097804D4B1B68BA699A420BD04FF0C4
:1021E000500383F31188BFF36F8FBFF34F8F3B61B1
:1021F00000BF00BFFDE7BB69DB6C002B0BD14FF0CC
:10220000500383F31188BFF36F8FBFF34F8FFB60D1
:1022100000BF00BFFDE7BB69DB6C5A1EBB69DA6417
:10222000BB69DA6ABB699B6C9A426AD0BB69DB6C9A
:10223000002B66D1BB6904331846FEF795FA0346B6
:10224000002B0AD1BB69DB6A012202FA03F3DA43ED
:102250002F4B1B6813402E4A13607B6819464A2097
:1022600002F006FABB699A6CBB69DA62BB69DB6A89
:10227000C3F10502BB699A61BB69184602F07AFF97
:10228000BB69DB6A01229A40214B1B681343204A39
:102290001360BB69DA6A1F4913469B0013449B0015
:1022A0000B4404331B687B61BB697A699A607B6964
:1022B0009A68BB69DA607B699B68BA6904325A60C4
:1022C000BB691A1D7B699A60BB69DA6A13469B0079
:1022D00013449B000F4A1A44BB695A61BB69DA6A0E
:1022E0000C4913469B0013449B000B441B68591C6C
:1022F000084813469B0013449B00034419600123C4
:10230000FB61FB6918462037BD4680BD7400002084
:10231000540100207800002080B586B000AF7860BE
:102320003960364B1B687B61354B1B68043318469C
:10233000FEF71AFA0346002B0BD1314B1B68DB6A00
:10234000012202FA03F3DA432E4B1B6813402D4A95
:1023500013607B68B3F1FF3F24D13B68002B21D091
:10236000294B5B683B61264B1B683A699A60244B9A
:102370001B683A699268DA60214B1A683B699B686E
:1023800004325A601E4B1B681A1D3B699A601C4B35
:102390001B681D4A5A611C4B1B6801331A4A1360A3
:1023A00000BF26E07A697B681344FB60144B1B680E
:1023B000FA685A60FA687B699A4209D2134B1A6824
:1023C0000F4B1B68043319461046FEF794F910E0D2
:1023D0000F4B1A680A4B1B68043319461046FEF768
:1023E0008AF90C4B1B68FA689A4202D2094AFB68C8
:1023F000136000BF1837BD4680BD00BF50010020EC
:102400007400002054010020380100200801002041
:10241000040100206C01002080B584B002AF0023CD
:102420007B6000F0F7FA124B1B68002B0BD0114BAE
:1024300001930223009300234FF482720E490F4848
:10244000FEF76AFF78607B68002B0BD14FF05003DA
:1024500083F31188BFF36F8FBFF34F8F3B6000BFD3
:1024600000BFFDE77B6818460837BD4680BD00BF4A
:10247000A8010020AC010020FC6E000875260008B1
:1024800080B588B002AFF860B9607A603B602C20FC
:1024900000F0F6FA78617B69002B0DD07B69002291
:1024A00083F828207B6901933B6A00933B687A6834
:1024B000B968F86800F005F87B6918461837BD461A
:1024C00080BD80B586B000AFF860B9607A603B60CF
:1024D000BB68002B0BD14FF0500383F31188BFF37F
:1024E0006F8FBFF34F8F7B6100BF00BFFDE700F030
:1024F00091FA7B6AFA681A607B6ABA689A617B6AA9
:102500003A68DA617B6A3A6A1A627B6A043318466F
:10251000FEF7E4F87B68002B08D07B6A93F828303C
:1025200043F00403DAB27B6A83F8282000BF18372F
:10253000BD4680BD80B58AB000AFF860B9607A60F2
:102540003B6000237B62FB68002B0BD14FF05003F4
:1025500083F31188BFF36F8FBFF34F8F3B6200BFD0
:1025600000BFFDE7194B1B68002B2AD0BB687B61BD
:102570007B68BB61FB68FB61BB68052B18DCFFF760
:10258000FFFD0346022B09D1104B186807F1140117
:1025900000233A6BFEF71CFA786212E00B4B1868C6
:1025A00007F1140100230022FEF712FA786208E016
:1025B000064B186807F1140100233A68FEF732FB56
:1025C00078627B6A18462837BD4680BDA801002086
:1025D00080B584B000AFF860B9607A6008E0FB684D
:1025E0009B69BA681344BB60FB681B6AF86898472C
:1025F000FB689A69BB68D118BB687A68F86800F014
:10260000DFF80346002BEAD100BF00BF1037BD46FC
:1026100080BD000080B584B000AF78603960144B95
:102620001B68DB68DB68FB60FB6804331846FEF759
:102630009BF8FB6893F8283003F00403002B05D0C7
:102640003A687968F868FFF7C3FF08E0FB6893F819
:10265000283023F00103DAB2FB6883F82820FB68F6
:102660001B6AF868984700BF1037BD4680BD00BFA1
:10267000A001002080B584B000AF786007F10803A6
:10268000184600F059F8F860BB681946F86800F081
:1026900005F800F0D7F800BFF0E7000080B584B07F
:1026A00000AF78603960FFF723F807F10803184698
:1026B00000F066F8F860BB68002B30D13B68002B57
:1026C0000AD17A68FB689A4206D8FFF71FF8F968C2
:1026D0007868FFF79FFF24E03B68002B08D0134B7E
:1026E0001B681B68002B01D1012300E000233B6025
:1026F0000F4B18687A68FB68D31A3A681946FEF7D8
:10270000D7FDFFF703F80346002B0AD1094B4FF022
:1027100080521A60BFF34F8FBFF36F8F01E0FEF757
:10272000F5FF00BF1037BD4680BD00BFA4010020EB
:10273000A801002004ED00E080B485B000AF78600F
:102740000E4B1B681B68002B01D1012200E0002208
:102750007B681A607B681B68002B05D1074B1B68E0
:10276000DB681B68FB6001E00023FB60FB68184628
:102770001437BD465DF8047B704700BFA001002000
:1027800080B584B000AF7860FFF7C0F8F8600B4BFD
:102790001B68FA689A4205D200F016F97B6801229C
:1027A0001A6002E07B6800221A60044AFB6813602A
:1027B000FB6818461037BD4680BD00BFB001002041
:1027C00080B586B000AFF860B9607A603B600023E6
:1027D0007B61FB68BA685A60FB68FA681A61BA687C
:1027E0007B689A4212D87A683B68D21AFB689B6968
:1027F0009A4202D301237B611BE0104B1A68FB68ED
:10280000043319461046FDF776FF12E07A683B68FC
:102810009A4206D2BA683B689A4202D301237B618E
:1028200007E0074B1A68FB68043319461046FDF7AA
:1028300062FF7B6918461837BD4680BDA4010020A1
:10284000A001002080B588B000AFA9E0BB68002BD4
:10285000C0F2A6803B69FB61FB695B69002B04D079
:10286000FB6904331846FDF77FFF3B1D1846FFF751
:1028700087FFB861BB68013B082B00F28E8001A284
:1028800052F823F0A9280008A928000811290008F7
:102890002529000871290008A9280008A92800088E
:1028A0001129000825290008FB6993F8283043F016
:1028B0000103DAB2FB6983F82820FA68FB699B6997
:1028C000D118FB68BA69F869FFF77AFF0346002B55
:1028D00065D0FB6993F8283003F00403002B09D07E
:1028E000FA68FB699B691344BA691946F869FFF7EE
:1028F0006FFE08E0FB6993F8283023F00103DAB299
:10290000FB6983F82820FB691B6AF869984746E051
:10291000FB6993F8283023F00103DAB2FB6983F8EE
:1029200028203DE0FB6993F8283043F00103DAB238
:10293000FB6983F82820FA68FB699A61FB699B6947
:10294000002B0BD14FF0500383F31188BFF36F8F2F
:10295000BFF34F8F7B6100BF00BFFDE7FB699A6942
:10296000BB69D118BB69BA69F869FFF729FF17E09D
:10297000FB6993F8283003F00203002B03D1F869B8
:1029800000F03AF90CE0FB6993F8283023F00103DA
:10299000DAB2FB6983F8282002E000BF00E000BF44
:1029A000084B1B6807F1080100221846FEF704FADD
:1029B0000346002B7FF44AAF00BF00BF2037BD465F
:1029C00080BD00BFA801002080B582B000AF09E043
:1029D0000E4B1B68DB681B683B604FF0FF313868AB
:1029E000FFF718FE094B1B681B68002BF0D1074B43
:1029F0001B687B60064B1B68044A1360044A7B68B3
:102A0000136000BF0837BD4680BD00BFA001002095
:102A1000A401002080B500AF00F0B0FB124B1B6892
:102A2000002B1DD11148FDF739FE1148FDF736FE88
:102A3000104B0E4A1A60104B0D4A1A6000220C21EE
:102A40000A20FDF74DFF0346074A1360064B1B683B
:102A5000002B05D0044B1B6808491846FEF7D0FB35
:102A600000F0BEFB00BF80BDA8010020780100205F
:102A70008C010020A0010020A4010020046F0008A8
:102A800080B58AB000AF78600023FB61FEF730FEAE
:102A9000544B1B68002B01D100F008F97B68002B18
:102AA00012D008227B6803F00703D31A0833BB61F6
:102AB000BB69DB437A689A4204D87A68BB691344DD
:102AC0007B6001E000237B607B68002B71DB7B680F
:102AD000002B6ED0444B1B687A689A4269D8434BEE
:102AE0003B62424B1B687B6204E07B6A3B627B6A11
:102AF0001B687B627B6A5B687A689A4203D97B6A4F
:102B00001B68002BF1D1374B1B687A6A9A4250D070
:102B10003B6A1B6808221344FB617B6A1A683B6AA4
:102B20001A607B6A5A687B68D21A08235B009A4253
:102B300020D97A6A7B6813447B617B6903F00703C1
:102B4000002B0BD04FF0500383F31188BFF36F8F2E
:102B5000BFF34F8F3B6100BF00BFFDE77B6A5A6840
:102B60007B68D21A7B695A607B6A7A685A60786996
:102B700000F0F8F81C4B1A687B6A5B68D31A1A4A93
:102B80001360194B1A681A4B1B689A4203D2164BF2
:102B90001B68174A13607B6A5B6843F000427B6ADC
:102BA0005A607B6A00221A60124B1B680133114A7B
:102BB0001360FEF7ABFDFB6903F00703002B0BD09E
:102BC0004FF0500383F31188BFF36F8FBFF34F8F24
:102BD000FB6000BF00BFFDE7FB6918462837BD4614
:102BE00080BD00BFBC2D0120C02D0120B42D0120CF
:102BF000C42D0120C82D012080B586B000AF7860BB
:102C00007B687B617B68002B47D008235B427A6935
:102C100013447B617B693B613B695B68002B0BDB89
:102C20004FF0500383F31188BFF36F8FBFF34F8FC3
:102C3000FB6000BF00BFFDE73B691B68002B0BD0AA
:102C40004FF0500383F31188BFF36F8FBFF34F8FA3
:102C5000BB6000BF00BFFDE73B695B68002B1CDA6F
:102C60003B691B68002B18D13B695B6823F000426D
:102C70003B695A60FEF73CFD3B695A68094B1B688B
:102C80001344084A1360386900F06CF8064B1B685F
:102C90000133054A1360FEF739FD00BF1837BD4602
:102CA00080BD00BFC02D0120CC2D012080B485B097
:102CB00000AF4FF49633BB60254BFB60FB6803F01D
:102CC0000703002B0CD0FB680733FB60FB6823F085
:102CD0000703FB60BA68FB68D31A1D4A1344BB6044
:102CE000FB687B601B4A7B6813601A4B00225A60AA
:102CF0007B68BA681344FB600822FB689B1AFB6080
:102D0000FB6823F00703FB60FB68134A1360124B58
:102D10001B6800225A60104B1B6800221A607B68F7
:102D20003B603B68FA68D21A3B685A600A4B1A68E3
:102D30003B681A603B685B68084A13603B685B68E5
:102D4000074A136000BF1437BD465DF8047B704727
:102D5000B4010020B42D0120BC2D0120C42D012080
:102D6000C02D012080B485B000AF7860284BFB6097
:102D700002E0FB681B68FB60FB681B687A689A428C
:102D8000F7D8FB68BB60FB685B68BA6813447A6875
:102D90009A4208D1FB685A687B685B681A44FB68F2
:102DA0005A60FB687B607B68BB607B685B68BA6865
:102DB0001A44FB681B689A4218D1FB681A68154BC5
:102DC0001B689A420DD07B685A68FB681B685B6879
:102DD0001A447B685A60FB681B681A687B681A6033
:102DE00008E00C4B1A687B681A6003E0FB681A68FD
:102DF0007B681A60FA687B689A4202D0FB687A683E
:102E00001A6000BF1437BD465DF8047B704700BFF1
:102E1000B42D0120BC2D012080B485B000AFF86036
:102E2000B9607A60FB68043BFB60FB684FF080721E
:102E30001A60FB68043BFB60BB6823F00102FB687F
:102E40001A60FB68043BFB600C4AFB681A60FB6875
:102E5000143BFB607A68FB681A60FB68043BFB600C
:102E6000FB686FF002021A60FB68203BFB60FB68A6
:102E700018461437BD465DF8047B7047812E000864
:102E800080B485B000AF00237B60134B1B68B3F1A7
:102E9000FF3F0BD04FF0500383F31188BFF36F8FC8
:102EA000BFF34F8FFB6000BF00BFFDE74FF0500343
:102EB00083F31188BFF36F8FBFF34F8FBB6000BFE9
:102EC00000BF7B68002BFCD000BF00BF1437BD469D
:102ED0005DF8047B704700BF000000200000000088
:102EE000074B19680868B0E8F04F80F30988BFF312
:102EF0006F8F4FF0000080F311887047AFF30080B0
:102F00007400002000BF00BF08480068006880F31C
:102F100008884FF0000080F3148862B661B6BFF3F2
:102F20004F8FBFF36F8F00DF00BF000008ED00E0A0
:102F300000BF00BF80B586B000AF474B1B68474A53
:102F400093420BD14FF0500383F31188BFF36F8F7F
:102F5000BFF34F8FFB6000BF00BFFDE73E4B1B6818
:102F60003F4A93420BD14FF0500383F31188BFF3D4
:102F70006F8FBFF34F8F3B6100BF00BFFDE7394B41
:102F80007B617B691B78DBB27B607B69FF221A70F7
:102F90007B691B78DBB2FB70FB78DBB203F050037C
:102FA000DAB2314B1A70314B07221A6009E02F4B0D
:102FB0001B68013B2D4A1360FB78DBB25B00DBB280
:102FC000FB70FB78DBB203F08003802BEFD0274B44
:102FD0001B68C3F10703042B0BD04FF0500383F39E
:102FE0001188BFF36F8FBFF34F8FBB6000BF00BF6F
:102FF000FDE71E4B1B681B021C4A13601B4B1B6822
:1030000003F4E063194A13607B68DAB27B691A70D3
:10301000174B1B68164A43F470031360144B1B686C
:10302000134A43F07043136000F068F9114B00221B
:103030001A6000F087F9104B1B680F4A43F04043B9
:103040001360FFF761FFFEF7ABFDFFF719FF0023E9
:1030500018461837BD4680BD00ED00E071C20F4133
:1030600070C20F4100E400E0D02D0120D42D0120DA
:1030700020ED00E00000002034EF00E080B487B0D5
:1030800000AF384B1B68384A93420BD14FF05003C6
:1030900083F31188BFF36F8FBFF34F8FFB6000BFC7
:1030A00000BFFDE72F4B1B68304A93420BD14FF016
:1030B000500383F31188BFF36F8FBFF34F8F3B61D2
:1030C00000BF00BFFDE72A4B7B617B691B78DBB249
:1030D0007B607B69FF221A707B691B78DBB2FB7017
:1030E000FB78DBB203F05003DAB2224B1A70224BAA
:1030F00007221A6009E0204B1B68013B1E4A13603F
:10310000FB78DBB25B00DBB2FB70FB78DBB203F079
:103110008003802BEFD0184B1B68C3F10703042BEF
:103120000BD04FF0500383F31188BFF36F8FBFF3C1
:103130004F8FBB6000BF00BFFDE70F4B1B681B023A
:103140000D4A13600C4B1B6803F4E0630A4A1360DA
:103150007B68DAB27B691A7000BF1C37BD465DF828
:10316000047B704700ED00E071C20F4170C20F4157
:1031700000E400E0D02D0120D42D012080B483B0E4
:1031800000AF4FF0500383F31188BFF36F8FBFF38D
:103190004F8F7B6000BF104B1B6801330E4A1360DA
:1031A0000D4B1B68012B10D10C4B1B68DBB2002BA5
:1031B0000BD04FF0500383F31188BFF36F8FBFF331
:1031C0004F8F3B6000BF00BFFDE700BF0C37BD461F
:1031D0005DF8047B704700BF0000002004ED00E0B4
:1031E00080B483B000AF124B1B68002B0BD14FF0A3
:1031F000500383F31188BFF36F8FBFF34F8F7B6052
:1032000000BF00BFFDE70A4B1B68013B084A136083
:10321000074B1B68002B05D100233B603B6883F301
:10322000118800BF00BF0C37BD465DF8047B7047B6
:10323000000000200000000000000000000000006E
:10324000EFF30980BFF36F8F154B1A681EF0100F54
:1032500008BF20ED108A20E9F04F10602DE9090029
:103260004FF0500080F31188BFF34F8FBFF36F8F83
:10327000FEF796FC4FF0000080F3118809BC196836
:103280000868B0E8F04F1EF0100F08BFB0EC108ACD
:1032900080F30988BFF36F8F704700BFAFF30080E2
:1032A0007400002000BF00BF80B582B000AF4FF0B7
:1032B000500383F31188BFF36F8FBFF34F8F7B6091
:1032C00000BF01F03DFEFEF74FFB0346002B06D08A
:1032D00001F094FE084B4FF080521A6001E001F0BB
:1032E00071FE00233B603B6883F3118800BF00BF81
:1032F0000837BD4680BD00BF04ED00E080B400AFDC
:103300000B4B00221A600B4B00221A600A4B1B6801
:103310000A4AA2FB03239B09094A013B1360044BA1
:1033200007221A6000BFBD465DF8047B704700BFEE
:1033300010E000E018E000E014000020D34D62101F
:1033400014E000E0DFF80C00016841F47001016056
:103350007047000088ED00E000BF00BF80B485B07A
:1033600000AFEFF30583FB60FB680F2B15D9184AFC
:10337000FB6813441B78FB72164B1B78FA7A9A424F
:103380000BD24FF0500383F31188BFF36F8FBFF35D
:103390004F8F7B6000BF00BFFDE70F4B1B6803F43E
:1033A000E0620E4B1B689A420BD94FF0500383F337
:1033B0001188BFF36F8FBFF34F8F3B6000BF00BF1B
:1033C000FDE700BF1437BD465DF8047B704700BFC2
:1033D000F0E300E0D02D01200CED00E0D42D012021
:1033E00080B500AF034801F055FD034801F052FDE0
:1033F00000BF80BD0C6F0008506F000880B500AFA3
:10340000064B1868054B1968054B064A01F0BEF8D3
:103410004FF0805001F0FEF800BF80BD1400002086
:10342000E1330008D86F0008F0B585B002AF002383
:103430007B6033E01E497A6813469B0013449B006F
:103440000B4418681A497A6813469B0013449B0082
:103450000B4404331968164C7A6813469B001344D6
:103460009B00234408331C68114D7A6813469B0067
:1034700013449B002B440C331D680D4E7A68134691
:103480009B0013449B00334410331B6800932B466E
:10349000224600F0BDF87B6801337B60054B1B685A
:1034A0007A689A42C6D300BF00BF0C37BD46F0BD54
:1034B000D82D0120782E01202DE9B04F82B000AF29
:1034C000FEF734FA034600229A469346C7E900AB5A
:1034D000D7E9000102460B464FF0000A4FF0000BFF
:1034E0004FEA431B4BEAD26B4FEA421A52465B4605
:1034F000141A63EB01054FF000024FF00003AB001C
:1035000043EA9473A20014461D4614EB000845EBF1
:1035100001094FF000024FF000034FEAC90343EAEC
:1035200058734FEAC80290469946C7E90089D7E91F
:103530000023104619460837BD46BDE8B08F00008D
:1035400080B586B002AFF860B9607A603B60052252
:103550002B49B86803F098FC0346002B4BD0294B4D
:103560001B68072B03D9284801F03CFF44E0254B9A
:103570001A68264913469B0013449B000B44FA68C3
:103580001A60204B1A68214913469B0013449B0084
:103590000B440433BA681A601A4B1A681B49134665
:1035A0009B0013449B000B4408337A681A60154B48
:1035B0001A68164913469B0013449B000B440C33B6
:1035C0003A681A600F4B1A68104913469B0013445F
:1035D0009B000B441033BA691A600A4B1B68013315
:1035E000084A1360BB6900933B687A68B968F86859
:1035F00000F00EF800E000BF1037BD4680BD00BFF0
:10360000606F0008782E0120686F0008D82D012017
:1036100080B58AB000AFF860B9607A603B6007F1AE
:103620001003182200211846FCF764FEFB683B617A
:10363000BB687B617B68BB613B68FB613B6B3B624A
:1036400007F11003184601F02DFB00BF2837BD46D7
:1036500080BD000080B483B000AF0346FB7197F9D2
:103660000730002B0BDBFB7903F01F02074997F9AA
:1036700007305B09012000FA02F241F8232000BF65
:103680000C37BD465DF8047B704700BF00E100E0E9
:1036900080B483B000AF03463960FB7197F90730FF
:1036A000002B0ADB3B68DAB20C4997F907301201AC
:1036B000D2B20B4483F800230AE03B68DAB208492F
:1036C000FB7903F00F03043B1201D2B20B441A76CC
:1036D00000BF0C37BD465DF8047B704700E100E099
:1036E00000ED00E080B582B000AF01F0D7FE786059
:1036F0007B68002B01D101F059F900BF0837BD46A6
:1037000080BD000080B582B000AF0346FB710C4B5A
:103710001B78032B06D80A4B1B780133DAB2084B0F
:103720001A7009E0FFF7DEFF054B5B681846FB1DCA
:103730000122194600F09CFB00BF0837BD4680BD42
:103740000400002080B584B000AF7860144B5B7833
:10375000032B0FD8124B5B781A46124B9A5C7B688E
:103760001A700F4B5B780133DAB20D4B5A7001239C
:10377000FB600FE00A4B5B6801227968184600F095
:103780001BFA0346FB60FB68002B02DA0023FB6098
:1037900000E000BFFB6818461037BD4680BD00BF83
:1037A00004000020E06F000880B582B000AF7860B0
:1037B000044A0549786800F063F800BF0837BD4641
:1037C00080BD00BF053700084537000880B584B0CC
:1037D00000AF1E4B1B68FB60FB6803F02003002B4F
:1037E00011D01B4B1B68DBB2FB71FB6803F00B03B2
:1037F000002B08D1174B1B68002B04D0154B1B68FE
:10380000FA7910469847FB6803F08003002B1AD022
:10381000114B1B68002B15D00F4B1B68FA1D10466F
:103820009847B860BB68002B06D10C4B1B680B4A4D
:1038300023F08003136006E0044B1B68FA79044B05
:103840001A6000E000BF1037BD4680BD0044004054
:10385000044400407C2E0120802E01200C440040B6
:1038600080B400AF054B1B68044A43F0800313602B
:1038700000BFBD465DF8047B704700BF0C440040AC
:1038800080B586B000AFF860B9607A602E4B1B68D7
:103890002D4A43F4003313602C4B1B682B4A43F032
:1038A000010313602A4B1B683B613B6923F47F4390
:1038B0003B613B6943F4EE433B61254A3B6913603E
:1038C000244B1B683B613B6923F0F0033B613B6980
:1038D00043F0A0033B611F4A3B6913601E4B4AF251
:1038E0002C021A601D4B00221A601D4B80221A60A8
:1038F000FB68DB007B611B4A7B69B2FBF3F301339E
:103900007B617B695B087B617B69B3F5805F02D378
:1039100040F6FF737B617B69002B04D07B691B0140
:10392000114A9BB21360114A7B681360104ABB684E
:10393000136006212620FFF7ABFE2620FFF78AFE44
:1039400000BF1837BD4680BD4038024030380240C5
:1039500020000240000002400C440040104400409F
:103960001444004000E1F505084400407C2E01208D
:10397000802E012080B582B000AF264B3B60A8228C
:1039800000213868FCF7B6FC3B6803221A613B68EB
:1039900003225A613B68204A9A613B681F4ADA61F8
:1039A0003B684FF480621A623B6800229A623B686F
:1039B00000225A623B680022DA623B68164A1A66A5
:1039C0003B68174A5A663B6810229A663B68002299
:1039D0001A673B680022DA663B6800225A67BFF329
:1039E0005F8F00237B600CE07B68C3F10F030D4AFF
:1039F000D15C3A687B6813440A461A707B680133CD
:103A00007B607B680F2BEFD9BFF35F8F00BF083758
:103A1000BD4680BD842E0120B86F00082C2F0120E8
:103A20002C330120E46F000880B58AB000AFF86045
:103A3000B9607A6000233B62FB68DB68FB61FB686E
:103A40001B69BB61BA69FB699A4205D9BA69FB690E
:103A5000D31A013B7B6207E0FB689A68B969FB698E
:103A6000CB1A1344013B7B62FB689A68FB69D31A4B
:103A70007A6A934228BF13467B627A6A7B689342D4
:103A800028BF13467B62FB685A68FB6913447B615D
:103A90007A6AB968786903F007FA3A6A7B6A13446C
:103AA0003B62BA687B6A1344BB607A687B6AD31A4C
:103AB0007B60FA697B6A1344FB61FB689B68FA6967
:103AC0009A4201D10023FB61BFF35F8FFB68FA6963
:103AD000DA607B68002BB2D13B6A18462837BD46B6
:103AE00080BD80B588B000AFF860B9607A60FB68CF
:103AF000DB68FB61FB689A68FB69D31ABB61BA6932
:103B00007B689A4211D9FB685A68FB6913443B6190
:103B10007A68B968386903F0C7F9BFF35F8FFA694B
:103B20007B681A44FB68DA601FE0BB697B61FB6855
:103B30005A68FB6913443B617A69B968386903F0D4
:103B4000B3F97A68BB69D31A7B61FB685B683B6138
:103B5000BA68BB6913447A691946386903F0A4F955
:103B6000BFF35F8FFB687A69DA6000BF2037BD461C
:103B700080BD80B487B000AF78607B681B693B6113
:103B80007B68DB68FB603A69FB689A4208D87B680F
:103B90009A68FB68D21A3B691344013B7B6104E0DD
:103BA0003A69FB68D31A013B7B617B6918461C3775
:103BB000BD465DF8047B704780B58CB000AFF860FF
:103BC000B9607A603E4B3B623B6A1B78DBB2532B99
:103BD00001D0FFF7CFFEFB685A1C13465B0013446D
:103BE000DB00374A1344FB61BB687B62FB691B69DE
:103BF000BB62FB69DB68BB610023FB62BA6ABB691D
:103C00009A422BD9FB699A68BB6AD31A7B617A699D
:103C10007B68934228BF13467B61FB695A68BB6A85
:103C200013443B617A693969786A03F03DF9FA6AAD
:103C30007B691344FB627A6A7B6913447B627A680E
:103C40007B69D31A7B60BA6A7B691344BB62FB69E8
:103C50009B68BA6A9A4201D10023BB62BA69BB6A07
:103C6000D31A7B617A697B68934228BF13467B61D4
:103C70007B69002B19D0FB695A68BB6A13443B610E
:103C80007A693969786A03F00FF9FA6A7B69134433
:103C9000FB627A6A7B6913447B627A687B69D31A18
:103CA0007B60BA6A7B691344BB62FB6A002B02D05B
:103CB000FB69BA6A1A61FB6A18463037BD4680BD97
:103CC000842E012080B58CB000AFF860B9607A60B6
:103CD0003E4B3B623B6A1B78DBB2532B01D0FFF7B4
:103CE00049FEFA6813465B001344DB006033374A31
:103CF0001344FB61BB687B62FB691B69BB62FB69A8
:103D0000DB68BB610023FB62BA6ABB699A422BD9AC
:103D1000FB699A68BB6AD31A7B617A697B689342B4
:103D200028BF13467B61FB695A68BB6A13443B6139
:103D30007A693969786A03F0B7F8FA6A7B691344DB
:103D4000FB627A6A7B6913447B627A687B69D31A67
:103D50007B60BA6A7B691344BB62FB699B68BA6A81
:103D60009A4201D10023BB62BA69BB6AD31A7B6154
:103D70007A697B68934228BF13467B617B69002B7D
:103D800019D0FB695A68BB6A13443B617A69396987
:103D9000786A03F089F8FA6A7B691344FB627A6AED
:103DA0007B6913447B627A687B69D31A7B60BA6A49
:103DB0007B691344BB62FB6A002B02D0FB69BA6AC1
:103DC0001A61FB6A18463037BD4680BD842E01203B
:103DD00080B588B000AFF860B9607A60BB68BB613D
:103DE000FA6813465B001344DB0060331F4A134438
:103DF0007B617B695B69022B29D0022B2ED8002BBB
:103E000002D0012B13D029E07869FFF7B2FE3861A8
:103E10003A697B689A4202D20023FB6121E07B6809
:103E2000FB617A68B9697869FFF75BFE19E0786928
:103E3000FFF79FFE38617A683B69934228BF1346BB
:103E4000FB61FA69B9697869FFF74BFE09E07A68A6
:103E5000B9697869FFF7E8FDF86102E00023FB61CA
:103E600000BFFB6918462037BD4680BD842E012067
:103E700080B588B000AFF860B9607A600E4BFB6126
:103E8000FB691B78DBB2532B01D0FFF773FDEFF317
:103E900011834FF0200181F31188BB617A68B96802
:103EA000F868FFF795FF7861BB6983F311887B6938
:103EB00018462037BD4680BD842E012080B588B0CD
:103EC00000AFF860B9607A603B603D4BBB61BB6995
:103ED0001B78DBB2532B01D0FFF74CFDEFF31183BE
:103EE0004FF0200181F311887B61354B3B6100234A
:103EF000FB613969FB695A1C13465B001344DB0004
:103F00000B4404331B68002B08D0FB690133FB61B1
:103F10003B691B69FA699A42EBDB00E000BF3B6931
:103F20001B69FA699A423FDA3969FB695A1C1346E0
:103F30005B001344DB000B44FA681A603969FB69C3
:103F40005A1C13465B001344DB000B440433BA686D
:103F50001A603969FA6913465B001344DB000B44AD
:103F600020337A681A603969FA6913465B00134492
:103F7000DB000B44283300221A603969FA691346C2
:103F80005B001344DB000B44243300221A603969C0
:103F9000FA6913465B001344DB000B442C333A6888
:103FA0001A60BFF35F8F02E04FF0FF33FB617B6964
:103FB00083F31188FB6918462037BD4680BD00BFDA
:103FC000842E012080B58AB000AFF860B9607A60B5
:103FD0003B60214B3B623B6A1B78DBB2532B01D029
:103FE000FFF7C8FC1C4BFB61FB68022B2CD8EFF3DE
:103FF00011834FF0200181F31188BB61FA681346E9
:104000005B001344DB006033FA6913447B61FB6897
:10401000002B0ED07B69BA681A607B697A685A6097
:104020007B693A689A607B6900221A617B69002289
:10403000DA607B693A6B5A61BFF35F8FBB6983F3C8
:10404000118800237B6202E04FF0FF337B627B6AC2
:1040500018462837BD4680BD842E012080B487B025
:1040600000AFF860B9607A60BB68002B05D1FB68CF
:104070005A1CFA6000221A7022E0BB687B61FB6860
:104080005A1CFA603B617B68802B0AD980237B60D5
:1040900007E0BA68531CBB60FB68591CF9601278D2
:1040A0001A707B685A1E7A60002B03D0BB681B789D
:1040B000002BEED1BA687B69D31ADAB23B691A7069
:1040C000FB6818461C37BD465DF8047B704780B41A
:1040D00083B000AF78607B68073318460C37BD4665
:1040E0005DF8047B7047000080B582B000AF344BB0
:1040F0001B7E1846FB1C01221946FFF7E3FD786082
:104100007B68002B57D0FB78802B31D0802B40DC94
:10411000072B15DC002B3CDD013B062B39D801A217
:1041200052F823F0474100084D4100085341000870
:10413000594100085F410008654100086B410008D3
:104140007F2B33D025E000F031FC34E000F0EAFCB6
:1041500031E000F0C3FE2EE000F088FE2BE000F01E
:1041600007FD28E001F000F925E001F0DFF822E08A
:10417000134B1B7E1846FB1C01221946FFF7A2FDBC
:1041800078607B68002B13D0FB78184601F044F868
:104190000EE0FB785BB2002B0CDA094B1B7E184655
:1041A000FB1C01221946FFF78DFD03E000BF02E072
:1041B00000BF00E000BF00BF0837BD4680BD00BFA4
:1041C000445B012080B58CB000AF01233B713B1DE7
:1041D0000133FB61FB69FB62324B5B69BB620BE045
:1041E000BB6ADAB2FB6A591CF96262F07F02D2B292
:1041F0001A70BB6ADB09BB62BB6A7F2BF0D8FB6A13
:104200005A1CFA62BA6AD2B21A70FB6AFB61264B78
:104210001B68BB61234BDB68BA69D31A7B61FB69FE
:104220007B627B693B620BE03B6ADAB27B6A591CBA
:10423000796262F07F02D2B21A703B6ADB093B629C
:104240003B6A7F2BF0D87B6A5A1C7A623A6AD2B2F8
:104250001A707B6AFB61134B5B7818463B1DFA6949
:10426000D31A1A463B1D1946FBF79AFF03463B61DA
:10427000FFF7F6FA3B69002B09D00A4ABB69D36005
:10428000084B1B78013BDAB2064B1A7004E0054B71
:104290005B690133034A53613B6918463037BD46B9
:1042A00080BD00BF445B0120041000E080B58AB0EF
:1042B00000AFF860B9607A60964B1B78012B10D084
:1042C000944B1B78002B00F03081924B1B78022B13
:1042D00009D1FFF777FF8F4B1B78012B40F0278127
:1042E00001E000BF00E000BF7B681F2B09D8894BAD
:1042F000DA697B6822FA03F303F00103002B40F034
:1043000018817B68172B07D8FB68013BFB607B6833
:10431000DAB2FB681A70C4E0BA68FB68D31AFB61B2
:10432000FB697F2B12D9FB69DA09FB68013BFB6053
:10433000D2B2FB681A70FB69DBB2FA68013AFA6024
:1043400063F07F03DAB2FB681A7006E0FB68013B9A
:10435000FB60FB69DAB2FB681A707B687E2B07D8BA
:10436000FB68013BFB607B68DAB2FB681A7098E07F
:104370007B68B3F5804F12D27B68DA09FB68013B9A
:10438000FB60D2B2FB681A707B68DBB2FA68013A54
:10439000FA6063F07F03DAB2FB681A7081E07B6831
:1043A000B3F5001F1DD27B689A0BFB68013BFB60D5
:1043B000D2B2FB681A707B68DB09DBB2FA68013A9B
:1043C000FA6063F07F03DAB2FB681A707B68DBB2D5
:1043D000FA68013AFA6063F07F03DAB2FB681A7098
:1043E0005FE07B68B3F1805F28D27B685A0DFB6881
:1043F000013BFB60D2B2FB681A707B689B0BDBB29F
:10440000FA68013AFA6063F07F03DAB2FB681A7067
:104410007B68DB09DBB2FA68013AFA6063F07F037C
:10442000DAB2FB681A707B68DBB2FA68013AFA60AC
:1044300063F07F03DAB2FB681A7032E07B681A0F10
:10444000FB68013BFB60D2B2FB681A707B685B0DB6
:10445000DBB2FA68013AFA6063F07F03DAB2FB6814
:104460001A707B689B0BDBB2FA68013AFA6063F062
:104470007F03DAB2FB681A707B68DB09DBB2FA688B
:10448000013AFA6063F07F03DAB2FB681A707B6866
:10449000DBB2FA68013AFA6063F07F03DAB2FB68D4
:1044A0001A701D4B1B68BB611A4BDB68BA69D31AC3
:1044B0007B61BB687B627B693B620BE03B6ADAB283
:1044C0007B6A591C796262F07F02D2B21A703B6A31
:1044D000DB093B623B6A7F2BF0D87B6A5A1C7A620D
:1044E0003A6AD2B21A707B6ABB600A4B5B78184694
:1044F000BA68FB68D31A1A46F968FBF751FE3861AF
:10450000FFF7AEF93B69002B08D0024ABB69D360C4
:1045100010E000BF445B0120041000E0194B1B7841
:104520000133DAB2174B1A7004E000BF02E000BF9B
:1045300000E000BF134B1B7E1946134A0B465B007D
:104540000B44DB0013446C331A680E4B1B7E184679
:104550000D4903465B000344DB000B4470331B68CA
:104560009A420BD0074B9B78002B07D1054B0122B9
:104570009A70FFF7B9FD034B00229A7000BF2837ED
:10458000BD4680BD445B0120842E012080B586B0ED
:1045900002AFF860B9607A603B6000234FF42052AC
:1045A00017491848FFF78AFC0346DAB2164B5A70CF
:1045B000154B5A78144B1A76134B1B7E1846002362
:1045C00000930823114A0F49FFF7FCFC0E4B002211
:1045D0001A610F4B1B680C4AD3600B4A7B6813624D
:1045E000094AFB685360084ABB689360064A3B6807
:1045F0005362054B00221A7000BF1037BD4680BDC4
:104600003C330120CC6F0008445B01203C5B01205F
:10461000041000E080B483B000AF7860044A7B6887
:10462000136100BF0C37BD465DF8047B704700BFC7
:10463000445B012080B584B000AF7860EFF3118354
:104640004FF0200181F31188FB600848FFF73FFD20
:10465000B8607A68B968B868FFF728FEFB6883F32A
:10466000118800BF1037BD4680BD00BF745B0120BC
:1046700080B588B000AF78603960EFF311834FF0F8
:10468000200181F311887B611648FFF720FD386116
:104690003B69FB60FB68FB613B68BB610BE0BB698E
:1046A000DAB2FB69591CF96162F07F02D2B21A706A
:1046B000BB69DB09BB61BB697F2BF0D8FB695A1C66
:1046C000FA61BA69D2B21A70FB69FB607A68F9685C
:1046D0003869FFF7EBFD7B6983F3118800BF203752
:1046E000BD4680BD745B012080B58CB000AFF86022
:1046F000B9607A60EFF311834FF0200181F31188E4
:10470000FB612548FFF7E3FCB861BB697B617B690E
:10471000FB62BB68BB620BE0BB6ADAB2FB6A591C86
:10472000F96262F07F02D2B21A70BB6ADB09BB6227
:10473000BB6A7F2BF0D8FB6A5A1CFA62BA6AD2B203
:104740001A70FB6A7B617B697B627B683B620BE072
:104750003B6ADAB27B6A591C796262F07F02D2B29C
:104760001A703B6ADB093B623B6A7F2BF0D87B6A9D
:104770005A1C7A623A6AD2B21A707B6A7B61FA6812
:104780007969B869FFF792FDFB6983F3118800BF6F
:104790003037BD4680BD00BF745B012080B58EB050
:1047A00000AFF860B9607A603B60EFF311834FF0BF
:1047B000200181F31188FB613248FFF788FCB86162
:1047C000BB697B617B697B63BB683B630BE03B6BD5
:1047D000DAB27B6B591C796362F07F02D2B21A7035
:1047E0003B6BDB093B633B6B7F2BF0D87B6B5A1C2D
:1047F0007A633A6BD2B21A707B6B7B617B69FB6226
:104800007B68BB620BE0BB6ADAB2FB6A591CF962D7
:1048100062F07F02D2B21A70BB6ADB09BB62BB6A6C
:104820007F2BF0D8FB6A5A1CFA62BA6AD2B21A70AD
:10483000FB6A7B617B697B623B683B620BE03B6AA6
:10484000DAB27B6A591C796262F07F02D2B21A70C6
:104850003B6ADB093B623B6A7F2BF0D87B6A5A1CC0
:104860007A623A6AD2B21A707B6A7B61FA687969B5
:10487000B869FFF71BFDFB6983F3118800BF383768
:10488000BD4680BD745B012080B590B000AFF8607C
:10489000B9607A603B60EFF311834FF0200181F340
:1048A0001188FB614048FFF712FCB861BB697B616E
:1048B0007B69FB63BB68BB630BE0BB6BDAB2FB6B72
:1048C000591CF96362F07F02D2B21A70BB6BDB092C
:1048D000BB63BB6B7F2BF0D8FB6B5A1CFA63BA6BC4
:1048E000D2B21A70FB6B7B617B697B637B683B6335
:1048F0000BE03B6BDAB27B6B591C796362F07F0291
:10490000D2B21A703B6BDB093B633B6B7F2BF0D859
:104910007B6B5A1C7A633A6BD2B21A707B6B7B61E9
:104920007B69FB623B68BB620BE0BB6ADAB2FB6A85
:10493000591CF96262F07F02D2B21A70BB6ADB09BD
:10494000BB62BB6A7F2BF0D8FB6A5A1CFA62BA6A58
:10495000D2B21A70FB6A7B617B697B62BB6C3B6283
:104960000BE03B6ADAB27B6A591C796262F07F0223
:10497000D2B21A703B6ADB093B623B6A7F2BF0D8EC
:104980007B6A5A1C7A623A6AD2B21A707B6A7B617D
:10499000FA687969B869FFF789FCFB6983F31188C4
:1049A00000BF4037BD4680BD745B012080B58CB030
:1049B00000AF594B01221A70EFF311834FF0200121
:1049C00081F31188FB60544B5B780A2253491846E7
:1049D000FBF7E6FBFB6883F31188FEF741FF0A2033
:1049E000FFF728FEEFF311834FF0200181F31188C8
:1049F000BB604B48FFF76BFB78607B683B603B68B4
:104A0000FB62454B5B68BB620BE0BB6ADAB2FB6AD8
:104A1000591CF96262F07F02D2B21A70BB6ADB09DC
:104A2000BB62BB6A7F2BF0D8FB6A5A1CFA62BA6A77
:104A3000D2B21A70FB6A3B603B687B62364B9B6864
:104A40003B620BE03B6ADAB27B6A591C796262F026
:104A50007F02D2B21A703B6ADB093B623B6A7F2B52
:104A6000F0D87B6A5A1C7A623A6AD2B21A707B6AB0
:104A70003B603B68FB61284B1B69BB610BE0BB697A
:104A8000DAB2FB69591CF96162F07F02D2B21A7086
:104A9000BB69DB09BB61BB697F2BF0D8FB695A1C82
:104AA000FA61BA69D2B21A70FB693B603B687B61FC
:104AB00000233B610BE03B69DAB27B69591C7961E9
:104AC00062F07F02D2B21A703B69DB093B613B693D
:104AD0007F2BF0D87B695A1C7A613A69D2B21A707E
:104AE0007B693B60182239687868FFF7DFFBBB6899
:104AF00083F31188084B5B6A002B02D0064B5B6A7C
:104B0000984700F0EBF900F0B1F900F02DFC00BF80
:104B10003037BD4680BD00BF445B0120F86F000800
:104B2000745B012080B582B000AFEFF311834FF0CA
:104B3000200181F311887B600B48FFF7C8FA3860C9
:104B40000A4B1B78002B07D00B2239683868FFF717
:104B5000ADFB064B00221A707B6883F3118800BFFF
:104B60000837BD4680BD00BF745B0120445B012057
:104B700080B58CB000AFEFF311834FF0200181F3CB
:104B80001188FB604548FFF7A2FAB860BB687B60FC
:104B90007B68FB62424B5B68BB620BE0BB6ADAB2CC
:104BA000FB6A591CF96262F07F02D2B21A70BB6ACA
:104BB000DB09BB62BB6A7F2BF0D8FB6A5A1CFA6226
:104BC000BA6AD2B21A70FB6A7B607B687B62344B34
:104BD0009B683B620BE03B6ADAB27B6A591C7962E4
:104BE00062F07F02D2B21A703B6ADB093B623B6A19
:104BF0007F2BF0D87B6A5A1C7A623A6AD2B21A705A
:104C00007B6A7B607B68FB61254B1B69BB610BE0AA
:104C1000BB69DAB2FB69591CF96162F07F02D2B25A
:104C20001A70BB69DB09BB61BB697F2BF0D8FB69DC
:104C30005A1CFA61BA69D2B21A70FB697B607B6850
:104C40007B6100233B610BE03B69DAB27B69591C55
:104C5000796162F07F02D2B21A703B69DB093B6175
:104C60003B697F2BF0D87B695A1C7A613A69D2B2D2
:104C70001A707B697B6018227968B868FFF716FBA9
:104C8000FB6883F31188064B5B6A002B02D0044B50
:104C90005B6A984700BF3037BD4680BD745B01201A
:104CA000445B012080B592B000AF7860EFF31183D0
:104CB0004FF0200181F311887B616A48FFF707FA02
:104CC00038613B69FB60FB687B647B681A68664BF4
:104CD0001B69D31A3B640BE03B6CDAB27B6C591C4A
:104CE000796462F07F02D2B21A703B6CDB093B64DC
:104CF0003B6C7F2BF0D87B6C5A1C7A643A6CD2B236
:104D00001A707B6CFB60FB68FB637B689B68BB6312
:104D10000BE0BB6BDAB2FB6B591CF96362F07F02EC
:104D2000D2B21A70BB6BDB09BB63BB6B7F2BF0D8B5
:104D3000FB6B5A1CFA63BA6BD2B21A70FB6BFB6046
:104D40007B685B6820221946F868FFF787F9F860EE
:104D50000922F9683869FFF7A9FA3B69FB60FB682B
:104D60007B637B681A68404B1B69D31A3B630BE07B
:104D70003B6BDAB27B6B591C796362F07F02D2B273
:104D80001A703B6BDB093B633B6B7F2BF0D87B6B73
:104D90005A1C7A633A6BD2B21A707B6BFB60FB6869
:104DA000FB627B68DB68BB620BE0BB6ADAB2FB6A62
:104DB000591CF96262F07F02D2B21A70BB6ADB0939
:104DC000BB62BB6A7F2BF0D8FB6A5A1CFA62BA6AD4
:104DD000D2B21A70FB6AFB60FB687B627B681B695E
:104DE0003B620BE03B6ADAB27B6A591C796262F083
:104DF0007F02D2B21A703B6ADB093B623B6A7F2BAF
:104E0000F0D87B6A5A1C7A623A6AD2B21A707B6A0C
:104E1000FB60FB68FB617B685B69BB610BE0BB69A6
:104E2000DAB2FB69591CF96162F07F02D2B21A70E2
:104E3000BB69DB09BB61BB697F2BF0D8FB695A1CDE
:104E4000FA61BA69D2B21A70FB69FB601522F9687F
:104E50003869FFF72BFA7B6983F3118800BF483765
:104E6000BD4680BD745B0120445B012080B500AF6E
:104E7000074B1B6A002B08D0054B1B6A5B68002B95
:104E800003D0034B1B6A5B68984700BF80BD00BF1F
:104E9000445B012080B586B000AF7860EFF31183EA
:104EA0004FF0200181F311887B610B48FFF70FF968
:104EB0003861802279683869FFF7D0F8F8600E22EF
:104EC000F9683869FFF7F2F97B6983F3118800BF4D
:104ED0001837BD4680BD00BF745B012090B583B01C
:104EE00000AF154B1B6A002B1AD0134B1B6A1B68B3
:104EF000002B15D0104B1B6A1B689847C7E90001AF
:104F00003C68D7E900014FF000024FF000030A00AF
:104F1000002313461A4621460D20FFF7E5FB06E065
:104F2000064B1B6819460C20FFF7A2FB00BF00BF11
:104F30000C37BD4690BD00BF445B0120041000E06B
:104F400080B586B000AFEFF311834FF0200181F3FD
:104F50001188FB601948FFF7BAF8B860BB687B603E
:104F6000174B1B68C3F308033B607B687B613B689E
:104F70003B610BE03B69DAB27B69591C796162F0F5
:104F80007F02D2B21A703B69DB093B613B697F2B20
:104F9000F0D87B695A1C7A613A69D2B21A707B697F
:104FA0007B6002227968B868FFF780F9FB6883F3B9
:104FB000118800BF1837BD4680BD00BF745B01205B
:104FC00004ED00E080B582B000AFEFF311834FF045
:104FD000200181F311887B600748FFF778F838607B
:104FE000032239683868FFF761F97B6883F3118819
:104FF00000BF0837BD4680BD745B012080B582B01C
:1050000000AFEFF311834FF0200181F311887B6033
:105010000748FFF75CF83860122239683868FFF7F4
:1050200045F97B6883F3118800BF0837BD4680BD12
:10503000745B012080B582B000AFEFF311834FF0B5
:10504000200181F311887B600748FFF740F8386042
:10505000112239683868FFF729F97B6883F31188D2
:1050600000BF0837BD4680BD745B012080B588B0A5
:1050700000AF7860EFF311834FF0200181F31188C6
:105080007B611948FFF723F838613B69FB60174BD8
:105090001B697A68D31A7B60FB68FB617B68BB6124
:1050A0000BE0BB69DAB2FB69591CF96162F07F025F
:1050B000D2B21A70BB69DB09BB61BB697F2BF0D828
:1050C000FB695A1CFA61BA69D2B21A70FB69FB60BB
:1050D0000822F9683869FFF7E9F87B6983F31188DA
:1050E00000BF2037BD4680BD745B0120445B0120BA
:1050F00080B588B000AF7860EFF311834FF02001E6
:1051000081F311887B611948FEF7E1FF38613B6943
:10511000FB60174B1B697A68D31A7B60FB68FB61E5
:105120007B68BB610BE0BB69DAB2FB69591CF961B2
:1051300062F07F02D2B21A70BB69DB09BB61BB6946
:105140007F2BF0D8FB695A1CFA61BA69D2B21A7087
:10515000FB69FB600422F9683869FFF7A7F87B69EF
:1051600083F3118800BF2037BD4680BD745B0120EA
:10517000445B012080B588B000AF7860EFF3118305
:105180004FF0200181F311887B611948FEF79FFFE2
:1051900038613B69FB60174B1B697A68D31A7B60E7
:1051A000FB68FB617B68BB610BE0BB69DAB2FB6942
:1051B000591CF96162F07F02D2B21A70BB69DB0937
:1051C000BB61BB697F2BF0D8FB695A1CFA61BA69D5
:1051D000D2B21A70FB69FB600622F9683869FFF7E2
:1051E00065F87B6983F3118800BF2037BD4680BD19
:1051F000745B0120445B012080B483B000AF786011
:10520000044B1B697A68D31A18460C37BD465DF803
:10521000047B7047445B012080B58CB000AF03462F
:10522000FB71404B1B68002B77D03E4B1B68FB6229
:105230000023BB6208E0FB6A1B69FB62FB6A002B70
:1052400007D0BB6A0133BB62FB79BA6A9A42F2D3D8
:1052500000E000BFFB6A002B55D0EFF311834FF045
:10526000200181F311887B612F48FEF730FF386100
:105270003B69FB60FB687B62FB793B620BE03B6A4E
:10528000DAB27B6A591C796262F07F02D2B21A707C
:105290003B6ADB093B623B6A7F2BF0D87B6A5A1C76
:1052A0007A623A6AD2B21A707B6AFB60FB68FB6171
:1052B000FB6A9B68BB610BE0BB69DAB2FB69591CF6
:1052C000F96162F07F02D2B21A70BB69DB09BB617F
:1052D000BB697F2BF0D8FB695A1CFA61BA69D2B25C
:1052E0001A70FB69FB60FB6A1B6880221946F8682C
:1052F000FEF7B4FEF8601622F9683869FEF7D6FFAB
:105300007B6983F31188FB6A002B06D0FB6ADB689C
:10531000002B02D0FB6ADB68984700BF3037BD46E0
:1053200080BD00BF6C5B0120745B012080B582B042
:1053300000AF0C4B1B68002B0FD00A4B1B687B6027
:105340007B68DB68002B02D07B68DB6898477B6852
:105350001B697B607B68002BF2D100BF0837BD461C
:1053600080BD00BF6C5B012080B586B000AFEFF35D
:1053700011834FF0200181F31188FB601748FEF77D
:10538000A6FEB860BB687B607B687B61144B1B78B2
:105390003B610BE03B69DAB27B69591C796162F0D1
:1053A0007F02D2B21A703B69DB093B613B697F2BFC
:1053B000F0D87B695A1C7A613A69D2B21A707B695B
:1053C0007B601B227968B868FEF770FFFB6883F387
:1053D000118800BF1837BD4680BD00BF745B012037
:1053E000705B012080B58AB000AF7860EFF3118365
:1053F0004FF0200181F311887B612748FEF767FE9B
:105400003861802279683869FEF728FEF860FB6809
:105410007B6201233B620BE03B6ADAB27B6A591C78
:10542000796262F07F02D2B21A703B6ADB093B629A
:105430003B6A7F2BF0D87B6A5A1C7A623A6AD2B2F6
:105440001A707B6AFB60FB68FB610023BB610BE0A9
:10545000BB69DAB2FB69591CF96162F07F02D2B212
:105460001A70BB69DB09BB61BB697F2BF0D8FB6994
:105470005A1CFA61BA69D2B21A70FB69FB601A222F
:10548000F9683869FEF712FF7B6983F3118800BF62
:105490002837BD4680BD00BF745B012080B500AFDA
:1054A000134B1B7E1946134A0B465B000B44DB0073
:1054B00013446C331A680E4B1B7E18460D49034685
:1054C0005B000344DB000B4470331B689A420BD033
:1054D000074B9B78002B07D1054B01229A70FEF7F2
:1054E00003FE034B00229A70014B1B78184680BDC7
:1054F000445B0120842E012080B582B000AF78602B
:105500007B68002B01D1012341E07B6893F83D309B
:10551000DBB2002B06D17B68002283F83C20786840
:1055200000F039F87B68022283F83D207B681A6816
:105530007B6804331946104600F0C0F97B680122ED
:1055400083F846207B68012283F83E207B68012295
:1055500083F83F207B68012283F840207B6801228A
:1055600083F841207B68012283F842207B68012276
:1055700083F843207B68012283F844207B68012262
:1055800083F845207B68012283F83D2000231846DC
:105590000837BD4680BD80B483B000AF786000BFDF
:1055A0000C37BD465DF8047B7047000080B485B0C1
:1055B00000AF78607B6893F83D30DBB2012B01D0FF
:1055C00001234EE07B68022283F83D207B681B6844
:1055D000DA687B681B6842F00102DA607B681B684E
:1055E000234A934222D07B681B68B3F1804F1DD0C1
:1055F0007B681B681F4A934218D07B681B681E4A51
:10560000934213D07B681B681C4A93420ED07B6880
:105610001B681B4A934209D07B681B68194A934256
:1056200004D07B681B68184A934211D17B681B68C1
:105630009B6803F00703FB60FB68062B10D07B68B8
:105640001B681A687B681B6842F001021A6007E059
:105650007B681B681A687B681B6842F001021A604D
:10566000002318461437BD465DF8047B704700BF21
:10567000000001400004004000080040000C004011
:1056800000040140004001400018004080B584B093
:1056900000AF78607B681B68DB68FB607B681B6819
:1056A0001B69BB60BB6803F00203002B20D0FB68C2
:1056B00003F00203002B1BD07B681B686FF0020213
:1056C0001A617B6801221A777B681B689B6903F06B
:1056D0000303002B03D0786800F0D2F805E0786867
:1056E00000F0C4F8786800F0D5F87B6800221A77DB
:1056F000BB6803F00403002B20D0FB6803F0040315
:10570000002B1BD07B681B686FF004021A617B685A
:1057100002221A777B681B689B6903F44073002B95
:1057200003D0786800F0ACF805E0786800F09EF8E7
:10573000786800F0AFF87B6800221A77BB6803F046
:105740000803002B20D0FB6803F00803002B1BD0BC
:105750007B681B686FF008021A617B6804221A7765
:105760007B681B68DB6903F00303002B03D07868B8
:1057700000F086F805E0786800F078F8786800F0C6
:1057800089F87B6800221A77BB6803F01003002BAE
:1057900020D0FB6803F01003002B1BD07B681B6834
:1057A0006FF010021A617B6808221A777B681B6809
:1057B000DB6903F44073002B03D0786800F060F8D5
:1057C00005E0786800F052F8786800F063F87B68CC
:1057D00000221A77BB6803F00103002B0CD0FB6892
:1057E00003F00103002B07D07B681B686FF00102F8
:1057F0001A617868FAF73AFFBB6803F08003002B60
:105800000CD0FB6803F08003002B07D07B681B687B
:105810006FF080021A61786800F006F9BB6803F047
:105820004003002B0CD0FB6803F04003002B07D093
:105830007B681B686FF040021A61786800F034F8EA
:10584000BB6803F02003002B0CD0FB6803F020039F
:10585000002B07D07B681B686FF020021A61786804
:1058600000F0D8F800BF1037BD4680BD80B483B0CB
:1058700000AF786000BF0C37BD465DF8047B704711
:1058800080B483B000AF786000BF0C37BD465DF8D0
:10589000047B704780B483B000AF786000BF0C37E2
:1058A000BD465DF8047B704780B483B000AF78607C
:1058B00000BF0C37BD465DF8047B704780B485B0EF
:1058C00000AF786039607B681B68FB607B68464A84
:1058D000934213D07B68B3F1804F0FD07B68434A6B
:1058E00093420BD07B68424A934207D07B68414A7F
:1058F000934203D07B68404A934208D1FB6823F06F
:105900007003FB603B685B68FA681343FB607B686D
:10591000354A93422BD07B68B3F1804F27D07B6808
:10592000324A934223D07B68314A93421FD07B682E
:10593000304A93421BD07B682F4A934217D07B6832
:105940002E4A934213D07B682D4A93420FD07B6836
:105950002C4A93420BD07B682B4A934207D07B683A
:105960002A4A934203D07B68294A934208D1FB68B4
:1059700023F44073FB603B68DB68FA681343FB6009
:10598000FB6823F080023B685B691343FB607B6824
:10599000FA681A603B689A687B68DA623B681A6842
:1059A0007B689A627B68104A934203D07B68124AF4
:1059B000934203D13B681A697B681A637B680122B2
:1059C0005A617B681B6903F00103012B05D17B68D9
:1059D0001B6923F001027B681A6100BF1437BD46C2
:1059E0005DF8047B704700BF0000014000040040E8
:1059F00000080040000C004000040140004001404D
:105A0000004401400048014000180040001C0040D4
:105A10000020004080B483B000AF786000BF0C3736
:105A2000BD465DF8047B704780B483B000AF7860FA
:105A300000BF0C37BD465DF8047B704780B584B06D
:105A400000AF786039607B68002B01D10123CCE086
:105A5000684B1B6803F007033A689A420CD9654B00
:105A60003A68D2B21A70634B1B6803F007033A68B6
:105A70009A4201D00123B8E07B681B6803F002035F
:105A8000002B20D07B681B6803F00403002B05D09B
:105A9000594B9B68584A43F4E05393607B681B68FA
:105AA00003F00803002B05D0534B9B68524A43F484
:105AB00060439360504B9B6823F0F0027B689B68C7
:105AC0004D4913438B607B681B6803F00103002B77
:105AD00044D07B685B68012B07D1474B1B6803F4FC
