:020000040800F2
:100000000000032091380008713600087936000896
:10001000813600088936000891360008000000008B
:1000200000000000000000000000000099360008F9
:10003000A736000800000000B5360008C3360008E7
:10004000E9380008E9380008E9380008E93800080C
:10005000E9380008E9380008E9380008E9380008FC
:10006000E9380008E9380008E9380008E9380008EC
:10007000E9380008E9380008E9380008E9380008DC
:10008000E9380008E9380008E9380008E9380008CC
:10009000E9380008E9380008E9380008E9380008BC
:1000A000E9380008E9380008E9380008E9380008AC
:1000B000E9380008E9380008E9380008E93800089C
:1000C000E9380008E9380008E9380008E93800088C
:1000D000E9380008E9380008E9380008E93800087C
:1000E000E9380008E9380008E9380008E93800086C
:1000F000E9380008E9380008E9380008E93800085C
:10010000E9380008E9380008E9380008E93800084B
:10011000E9380008E9380008E9380008E93800083B
:10012000E9380008E9380008E9380008E93800082B
:0C013000E9380008E9380008E938000848
:10013C0053B94AB9002908BF00281CBF4FF0FF3142
:10014C004FF0FF3000F00CB8ADF1080C6DE904CEA7
:10015C0003F0C6FBDDF804E0DDE9022304B07047D0
:10016C00704700BF0348044B834202D0034B03B1DA
:10017C0018477047140000201400002000000000F5
:10018C000548064B1B1AD90F01EBA301491002D0ED
:10019C00034B03B1184770471400002014000020D3
:1001AC000000000010B5064C237843B9FFF7DAFFC6
:1001BC00044B13B10448AFF300800123237010BD2E
:1001CC001400002000000000E43B000808B5054BBB
:1001DC001BB105490548AFF30080BDE80840FFF7A7
:1001EC00CFBF00BF0000000018000020E43B000857
:1001FC0002440346934200D1704703F8011BF9E710
:10020C0070B50D4B0D4D5B1B9C100026A64209D101
:10021C0003F0E2FC0A4D0B4B5B1B9C100026A64224
:10022C0005D170BD55F8043B98470136EEE755F8FB
:10023C00043B98470136F2E7083D0008083D0008EA
:10024C00083D00080C3D000880B400AF244BD3F8E7
:10025C008830234A43F47003C2F888304FF0B0431F
:10026C001B684FF0B04243F0010313604FF0B043F2
:10027C004FF4E0229A604FF0B0431A684FF0B0414F
:10028C00184B13400B604FF0B043D3F894304FF041
:10029C00B04223F00503C2F894304FF0B043D3F8CA
:1002AC0098304FF0B04223F00103C2F898304FF071
:1002BC00B0430D4ADA604FF0B0430B4A1A614FF06D
:1002CC00B0431B684FF0B04223F4802313604FF00F
:1002DC00B04300229A6100BFBD465DF8047B7047B5
:1002EC0000ED00E0FBFEF6FA0010042280B483B0AF
:1002FC0000AF78604FF0B043D3F888207B68134090
:10030C0018460C37BD465DF8047B704780B483B04B
:10031C0000AF78604FF0B043D3F888207B6813406F
:10032C0018460C37BD465DF8047B704780B582B02B
:10033C0000AF78607B68002B01D1012342E07B6821
:10034C00D3F88830002B06D17B68002283F88420F8
:10035C00786803F019FA7B682422C3F888207B683C
:10036C001B681A687B681B6822F001021A607B68A4
:10037C009B6A002B02D0786800F0DEFA786800F0F7
:10038C00B3F80346012B01D101231BE07B681B68EA
:10039C005A687B681B6822F490425A607B681B6821
:1003AC009A687B681B6822F02A029A607B681B683B
:1003BC001A687B681B6842F001021A60786800F0CA
:1003CC005DFB034618460837BD4680BD80B58AB034
:1003DC0002AFF860B9603B601346FB80FB68D3F852
:1003EC008830202B7BD1BB68002B02D0FB88002BE4
:1003FC0001D1012374E0FB680022C3F89020FB6854
:10040C002122C3F8882002F079FE7861FB68FA8813
:10041C00A3F85420FB68FA88A3F85620FB689B6865
:10042C00B3F5805F08D1FB681B69002B04D1002356
:10043C00FB61BB68BB6103E0BB68FB610023BB6174
:10044C0030E03B6800937B6900228021F86800F063
:10045C00BFFB0346002B05D0FB682022C3F8882085
:10046C0003233DE0FB69002B0BD1BB691B881A46AB
:10047C00FB681B68C2F308029A62BB690233BB615A
:10048C0007E0FB691A78FB681B689A62FB69013309
:10049C00FB61FB68B3F856309BB2013B9AB2FB6828
:1004AC00A3F85620FB68B3F856309BB2002BC8D18A
:1004BC003B6800937B6900224021F86800F088FBC0
:1004CC000346002B05D0FB682022C3F888200323A9
:1004DC0006E0FB682022C3F88820002300E00223FA
:1004EC0018462037BD4680BD2DE9B04F8CB000AF0B
:1004FC007861002387F82A307B699A687B691B69CD
:10050C001A437B695B691A437B69DB691343FB62A2
:10051C007B691B681A68AF4B13407A691268F96AD9
:10052C000B4313607B691B685B6823F440517B6948
:10053C00DA687B691B680A435A607B699B69FB62BA
:10054C007B691B68A44A934204D07B691B6AFA6AD4
:10055C001343FB627B691B689B6823F06E4323F497
:10056C0030637A691268F96A0B4393607B691B6884
:10057C00DB6A23F00F017B695A6A7B691B680A43AB
:10058C00DA627B691B68954A934225D10320FFF7F9
:10059C00ADFE0346032B1BD801A252F823F000BF7B
:1005AC00BD050008CD050008C5050008D5050008E7
:1005BC00012387F82B3042E0022387F82B303EE0F2
:1005CC00042387F82B303AE0082387F82B3036E0E9
:1005DC00102387F82B3032E07B691B687E4A9342EC
:1005EC002AD14FF44060FFF791FE0346B3F5406FFC
:1005FC001AD0B3F5406F1BD8B3F5006F0CD0B3F520
:10060C00006F15D8002B03D0B3F5806F08D00FE026
:10061C00002387F82B3012E0022387F82B300EE0F2
:10062C00042387F82B300AE0082387F82B3006E0E8
:10063C00102387F82B3002E0102387F82B307B69CE
:10064C001B68654A934240F0978097F82B30082B33
:10065C0023D801A252F823F089060008A706000847
:10066C0091060008A706000897060008A7060008D0
:10067C00A7060008A70600089F06000801F028FD41
:10068C00786210E0564B7B620DE001F0A1FC7862C1
:10069C0009E04FF400437B6205E000237B620123F9
:1006AC0087F82A3000BF7B6A002B00F02B817B6916
:1006BC005B6A4C4A32F813301A467B6AB3FBF2F38E
:1006CC00BB617B695A6813465B001344BA699A4252
:1006DC0005D37B695B681B03BA699A4203D9012372
:1006EC0087F82A300EE17B6A0022BB60FA607B69D6
:1006FC005B6A3C4A32F813309BB200223B607A6052
:10070C00D7E90023D7E90201FFF712FD02460B4699
:10071C00104619464FF000024FF000030B0243EA5B
:10072C001063020279694968490800200C460546A5
:10073C0012EB040843EB05097B695B6800229A46BF
:10074C00934652465B4640464946FFF7F1FC02464B
:10075C000B4613463B623B6AB3F5407F08D33B6ABA
:10076C00B3F5801F04D27B691B683A6ADA60C9E072
:10077C00012387F82A30C5E07B69DB69B3F5004FAC
:10078C006DD197F82B30013B072B2DD801A252F8D5
:10079C0023F000BFC1070008C9070008F5070008CF
:1007AC00CF070008F5070008F5070008F507000853
:1007BC00D707000801F0A2FC78621BE0084B7B62B3
:1007CC0018E001F005FC786214E04FF400437B6202
:1007DC0010E000BFF369FFCF0080004000380140FB
:1007EC000024F400D83C000800237B62012387F826
:1007FC002A3000BF7B6A002B00F084807B695B6A27
:10080C004B4A32F813301A467B6AB3FBF2F35A00A8
:10081C007B695B685B081A447B695B68B2FBF3F32A
:10082C003B623B6A0F2B16D93B6AB3F5803F12D261
:10083C003B6A9BB223F00F03FB833B6A5B089BB2C2
:10084C0003F007039AB2FB8B1343FB837B691B6892
:10085C00FA8BDA6056E0012387F82A3052E097F8D9
:10086C002B30013B072B22D801A252F823F000BFFA
:10087C009D080008A5080008BB080008AB08000884
:10088C00BB080008BB080008BB080008B308000838
:10089C0001F034FC786210E0264B7B620DE001F035
:1008AC0097FB786209E04FF400437B6205E000237C
:1008BC007B62012387F82A3000BF7B6A002B21D092
:1008CC007B695B6A1A4A32F813301A467B6AB3FBAF
:1008DC00F2F27B695B685B081A447B695B68B2FB6C
:1008EC00F3F33B623B6A0F2B09D93B6AB3F5803FAC
:1008FC0005D23B6A9AB27B691B68DA6002E001237D
:10090C0087F82A307B690122A3F86A207B690122CF
:10091C00A3F868207B6900225A677B6900229A67DA
:10092C0097F82A3018463037BD46BDE8B08F00BF67
:10093C00D83C00080024F40080B483B000AF786089
:10094C007B689B6A03F00803002B0AD07B681B684A
:10095C005B6823F400417B689A6B7B681B680A43D5
:10096C005A607B689B6A03F00103002B0AD07B68FA
:10097C001B685B6823F400317B68DA6A7B681B6850
:10098C000A435A607B689B6A03F00203002B0AD06F
:10099C007B681B685B6823F480317B681A6B7B680F
:1009AC001B680A435A607B689B6A03F00403002BA4
:1009BC000AD07B681B685B6823F480217B685A6BC8
:1009CC007B681B680A435A607B689B6A03F01003C0
:1009DC00002B0AD07B681B689B6823F480517B68D2
:1009EC00DA6B7B681B680A439A607B689B6A03F02E
:1009FC002003002B0AD07B681B689B6823F40051F2
:100A0C007B681A6C7B681B680A439A607B689B6ADC
:100A1C0003F04003002B1AD07B681B685B6823F43F
:100A2C0080117B685A6C7B681B680A435A607B6830
:100A3C005B6CB3F5801F0AD17B681B685B6823F481
:100A4C00C0017B689A6C7B681B680A435A607B68A0
:100A5C009B6A03F08003002B0AD07B681B685B68E1
:100A6C0023F400217B68DA6C7B681B680A435A60AC
:100A7C0000BF0C37BD465DF8047B704780B598B05D
:100A8C0002AF78607B680022C3F8902002F036FB3E
:100A9C0078657B681B681B6803F00803082B2FD153
:100AAC006FF07E4300937B6D00224FF40011786849
:100ABC0000F08EF80346002B22D07B681B68BB63CA
:100ACC00BB6B53E8003F7B637B6B23F080033B6580
:100ADC007B681B681A463B6D7B643A64396C7A6C94
:100AEC0041E80023FB63FB6B002BE6D17B682022E3
:100AFC00C3F888207B68002283F88420032363E0FA
:100B0C007B681B681B6803F00403042B49D16FF04E
:100B1C007E4300937B6D00224FF48001786800F0D7
:100B2C0057F80346002B3CD07B681B687B627B6AC2
:100B3C0053E8003F3B623B6A23F49073FB647B6891
:100B4C001B681A46FB6C3B63FA62F96A3A6B41E824
:100B5C000023BB62BB6A002BE6D17B681B680833A1
:100B6C003B613B6953E8003FFB60FB6823F00103EA
:100B7C00BB647B681B680833BA6CFA61BB61B969EA
:100B8C00FA6941E800237B617B69002BE5D17B6826
:100B9C002022C3F88C207B68002283F88420032356
:100BAC0012E07B682022C3F888207B682022C3F8DF
:100BBC008C207B680022DA667B6800221A677B68CF
:100BCC00002283F88420002318465837BD4680BD88
:100BDC0080B584B000AFF860B9603B601346FB7120
:100BEC004FE0BB69B3F1FF3F4BD002F087FA0246EE
:100BFC003B68D31ABA699A4202D3BB69002B01D164
:100C0C0003234EE0FB681B681B6803F00403002BF6
:100C1C0037D0BB68802B34D0BB68402B31D0FB68FD
:100C2C001B68DB6903F00803082B10D1FB681B68F9
:100C3C0008221A62F86800F038F8FB680822C3F83A
:100C4C009020FB68002283F88420012329E0FB68B4
:100C5C001B68DB6903F40063B3F5006F11D1FB680B
:100C6C001B684FF400621A62F86800F01EF8FB680B
:100C7C002022C3F89020FB68002283F884200323F1
:100C8C000FE0FB681B68DA69BB681340BA689A42CC
:100C9C000CBF01230023DBB21A46FB799A42A0D089
:100CAC00002318461037BD4680BD80B495B000AF08
:100CBC0078607B681B687B637B6B53E8003F3B630E
:100CCC003B6B23F49073FB647B681B681A46FB6CCC
:100CDC003B64FA63F96B3A6C41E80023BB63BB6B72
:100CEC00002BE6D17B681B6808333B623B6A53E8F8
:100CFC00003FFB61FB6923F0805323F00103BB64CD
:100D0C007B681B680833BA6CFA62BB62B96AFA6A10
:100D1C0041E800237B627B6A002BE3D17B68DB6EAE
:100D2C00012B18D17B681B68FB60FB6853E8003F04
:100D3C00BB60BB6823F010037B647B681B681A469E
:100D4C007B6CBB617A617969BA6941E800233B61CC
:100D5C003B69002BE6D17B682022C3F88C207B6892
:100D6C000022DA667B6800225A6700BF5437BD4602
:100D7C005DF8047B704780B485B000AF78607B6809
:100D8C0093F88430012B01D1022327E07B680122E8
:100D9C0083F884207B682422C3F888207B681B6836
:100DAC001B68FB607B681B681A687B681B6822F0F9
:100DBC0001021A60FB6823F00053FB607B68002281
:100DCC005A667B681B68FA681A607B682022C3F835
:100DDC0088207B68002283F884200023184614376F
:100DEC00BD465DF8047B704780B584B000AF786079
:100DFC0039607B6893F88430012B01D102232DE0FC
:100E0C007B68012283F884207B682422C3F8882025
:100E1C007B681B681B68FB607B681B681A687B68B7
:100E2C001B6822F001021A607B681B689B6823F028
:100E3C0060417B681B683A680A439A60786800F0E6
:100E4C004FF87B681B68FA681A607B682022C3F82D
:100E5C0088207B68002283F88420002318461037F2
:100E6C00BD4680BD80B584B000AF786039607B68CA
:100E7C0093F88430012B01D102232DE07B680122F1
:100E8C0083F884207B682422C3F888207B681B6845
:100E9C001B68FB607B681B681A687B681B6822F008
:100EAC0001021A607B681B689B6823F060617B6899
:100EBC001B683A680A439A60786800F011F87B68FE
:100ECC001B68FA681A607B682022C3F888207B684C
:100EDC00002283F88420002318461037BD4680BDBD
:100EEC0080B485B000AF78607B685B6E002B08D156
:100EFC007B680122A3F86A207B680122A3F8682092
:100F0C0031E00823FB730823BB737B681B689B6869
:100F1C005B0EDBB203F007037B737B681B689B687B
:100F2C005B0FDBB203F007033B73BB7B3A7B1149CE
:100F3C008A5C02FB03F33A7B0F498A5C93FBF2F366
:100F4C009AB27B68A3F86A20FB7B7A7B09498A5C9E
:100F5C0002FB03F37A7B08498A5C93FBF2F39AB2A7
:100F6C007B68A3F8682000BF1437BD465DF8047B8E
:100F7C00704700BFF03C0008F83C000880B400AF9C
:100F8C004FF0B0431B6803F48013B3F5801F01D1FD
:100F9C00012300E000231846BD465DF8047B704732
:100FAC0080B400AF4FF0B0431B684FF0B04243F435
:100FBC008033136000BFBD465DF8047B704780B47E
:100FCC0000AF4FF0B0431B684FF0B04223F48033B6
:100FDC00136000BFBD465DF8047B704780B400AF62
:100FEC004FF0B0431B6803F40033B3F5003F01D15D
:100FFC00012300E000231846BD465DF8047B7047D2
:10100C0080B400AF4FF0B0431B684FF0B04243F4D4
:10101C008073136000BFBD465DF8047B704780B4DD
:10102C0000AF4FF0B0431B684FF0B04223F4807315
:10103C00136000BFBD465DF8047B704780B400AF01
:10104C004FF0B0431B6803F48063B3F5806F01D19C
:10105C00012300E000231846BD465DF8047B704771
:10106C0080B483B000AF78604FF0B0435B6823F07E
:10107C00FE427B681B064FF0B04113434B6000BF30
:10108C000C37BD465DF8047B704780B400AF4FF061
:10109C00B043D3F898304FF0B04243F00103C2F89C
:1010AC00983000BFBD465DF8047B704780B400AF3C
:1010BC004FF0B043D3F898304FF0B04223F0010317
:1010CC00C2F8983000BFBD465DF8047B704780B411
:1010DC0000AF4FF0B043D3F8983003F00203022B6B
:1010EC0001D1012300E000231846BD465DF8047BC6
:1010FC00704780B400AF4FF0B043D3F890304FF04E
:10110C00B04243F00103C2F8903000BFBD465DF819
:10111C00047B704780B400AF4FF0B043D3F89030ED
:10112C004FF0B04223F00103C2F8903000BFBD462F
:10113C005DF8047B704780B400AF4FF0B043D3F838
:10114C0090304FF0B04243F00403C2F8903000BF2F
:10115C00BD465DF8047B704780B400AF4FF0B043E0
:10116C00D3F890304FF0B04223F00403C2F8903023
:10117C0000BFBD465DF8047B704780B400AF4FF0F4
:10118C00B043D3F8903003F00203022B01D10123BA
:10119C0000E000231846BD465DF8047B704780B420
:1011AC0000AF4FF0B043D3F894304FF0B04243F05F
:1011BC000103C2F8943000BFBD465DF8047B704754
:1011CC0080B400AF4FF0B043D3F894304FF0B0423E
:1011DC0023F00103C2F8943000BFBD465DF8047BD8
:1011EC00704780B400AF4FF0B043D3F8943003F0A5
:1011FC000203022B01D1012300E000231846BD4657
:10120C005DF8047B704780B400AF4FF0B043D3F867
:10121C0094304FF0B04243F00403C2F8943000BF56
:10122C00BD465DF8047B704780B400AF4FF0B0430F
:10123C00D3F894304FF0B04223F00403C2F894304A
:10124C0000BFBD465DF8047B704780B400AF4FF023
:10125C00B043D3F8943003F00803082B01D10123D9
:10126C0000E000231846BD465DF8047B704780B44F
:10127C0083B000AF78604FF0B043D3F8943023F4D0
:10128C0070627B681B024FF0B0411343C1F894307D
:10129C0000BF0C37BD465DF8047B704780B400AFCF
:1012AC004FF0B0431B684FF0B04243F001031360A2
:1012BC0000BFBD465DF8047B704780B400AF4FF0B3
:1012CC00B0431B684FF0B04223F00103136000BF22
:1012DC00BD465DF8047B704780B400AF4FF0B0435F
:1012EC001B6803F00203022B01D1012300E0002351
:1012FC001846BD465DF8047B704780B483B000AFE0
:10130C0078604FF0B0431B6823F0F0024FF0B0410F
:10131C007B6813430B6000BF0C37BD465DF8047B44
:10132C00704780B483B000AF4FF0B0431B6803F03C
:10133C00F0037B607B68B02B01D9B0237B607B68AA
:10134C0018460C37BD465DF8047B704780B483B0FB
:10135C0000AF78604FF0B0435B6823F47F427B684A
:10136C001B024FF0B04113434B6000BF0C37BD461E
:10137C005DF8047B704780B483B000AF78604FF0A9
:10138C00B0439B6823F003024FF0B0417B681343DA
:10139C008B6000BF0C37BD465DF8047B704780B492
:1013AC0000AF4FF0B0439B6803F00C031846BD46EA
:1013BC005DF8047B704780B483B000AF78604FF069
:1013CC00B0439B6823F0F0024FF0B0417B681343AD
:1013DC008B6000BF0C37BD465DF8047B704780B452
:1013EC0083B000AF78604FF0B043D3F8083123F0EE
:1013FC00F0024FF0B0417B681343C1F8083100BFD5
:10140C000C37BD465DF8047B704780B483B000AFE9
:10141C0078604FF0B043D3F8083123F00F027B68AB
:10142C001B094FF0B0411343C1F8083100BF0C3712
:10143C00BD465DF8047B704780B483B000AF786024
:10144C004FF0B0439B6823F4E0624FF0B0417B68EF
:10145C0013438B6000BF0C37BD465DF8047B7047AF
:10146C0080B483B000AF78604FF0B0439B6823F436
:10147C0060524FF0B0417B6813438B6000BF0C3758
:10148C00BD465DF8047B704780B400AF4FF0B043AD
:10149C009B6803F0F0031846BD465DF8047B70476B
:1014AC0080B400AF4FF0B043D3F808311B0103F008
:1014BC00F0031846BD465DF8047B704780B400AF5E
:1014CC004FF0B0439B6803F4E0631846BD465DF8EB
:1014DC00047B704780B400AF4FF0B0439B6803F4BB
:1014EC0060531846BD465DF8047B704780B400AF6E
:1014FC004FF0B0431B684FF0B04243F08073136061
:10150C0000BFBD465DF8047B704780B400AF4FF060
:10151C00B0431B684FF0B04223F08073136000BFE0
:10152C00BD465DF8047B704780B400AF4FF0B0430C
:10153C001B6803F00073B3F1007F01D1012300E0BD
:10154C0000231846BD465DF8047B704780B400AF9D
:10155C004FF0B043DB681B0A03F07F031846BD460F
:10156C005DF8047B704780B400AF4FF0B043DB688C
:10157C0003F060431846BD465DF8047B704780B4A9
:10158C0000AF4FF0B043DB6803F070031846BD4664
:10159C005DF8047B704780B400AF4FF0B043DB685C
:1015AC0003F003031846BD465DF8047B704780B416
:1015BC0000AF4FF0B0439B6803F48033B3F5803F2A
:1015CC0001D1012300E000231846BD465DF8047BE1
:1015DC00704780B400AF4FF0B043D3F8083103F438
:1015EC000033B3F5003F01D1012300E0002318467E
:1015FC00BD465DF8047B704780B400AF4FF0B0433C
:10160C00D3F8083103F48033B3F5803F01D10123C3
:10161C0000E000231846BD465DF8047B704780B49B
:10162C0000AF4FF0B0439B6803F40033B3F5003FB9
:10163C0001D1012300E000231846BD465DF8047B70
:10164C00704780B400AF4FF0B0439B6803F4802325
:10165C00B3F5802F01D1012300E000231846BD46CD
:10166C005DF8047B7047000090B58DB000AF7860DA
:10167C007B68002B01D1012363E37B681B6803F0BB
:10168C002003002B00F08D80FFF789FEF862FFF736
:10169C0082FFB862FB6A002B05D0FB6A0C2B47D18A
:1016AC00BB6A012B44D17B68DB69002B01D1012380
:1016BC0047E37B685C6AFFF734FE03469C4214D90F
:1016CC007B685B6A184600F02FFD0346002B01D0A7
:1016DC00012336E37B685B6A1846FFF70EFE7B68D6
:1016EC001B6A1846FFF732FE13E07B685B6A1846EC
:1016FC00FFF703FE7B681B6A1846FFF727FE7B6823
:10170C005B6A184600F010FD0346002B01D0012344
:10171C0017E300F0C9FC0346A44A1360A44B1B68F2
:10172C00184601F09DFC0346002B39D0012308E339
:10173C007B68DB69002B1ED0FFF7B0FD01F0DEFCEF
:10174C00786208E001F0DAFC02467B6AD31A022BBD
:10175C0001D90323F5E2FFF7BFFD0346002BF1D0BF
:10176C007B685B6A1846FFF7C8FD7B681B6A1846E6
:10177C00FFF7ECFD15E0FFF7A0FD01F0BFFC786270
:10178C0008E001F0BBFC02467B6AD31A022B01D99C
:10179C000323D6E2FFF7A0FD0346002BF1D100E0B6
:1017AC0000BF7B681B6803F00103002B47D0FFF7D9
:1017BC00F6FD3862FFF7EFFEF8613B6A082B05D0A7
:1017CC003B6A0C2B08D1FB69032B05D17B685B684A
:1017DC00002B34D10123B4E27B685B68B3F5803F06
:1017EC0002D1FFF7DDFB01E0FFF7E9FB7B685B68EB
:1017FC00002B12D001F082FC786208E001F07EFC34
:10180C0002467B6AD31A642B01D9032399E2FFF7B2
:10181C00E5FB0346002BF1D011E001F06FFC786280
:10182C0008E001F06BFC02467B6AD31A642B01D9E9
:10183C00032386E2FFF7D2FB0346002BF1D17B6832
:10184C001B6803F00203002B4CD0FFF7A8FDB86116
:10185C00FFF7A1FE7861BB69042B05D0BB690C2B8B
:10186C000ED17B69022B0BD17B68DB68002B01D17D
:10187C00012366E27B681B691846FFF7F1FB31E038
:10188C007B68DB68002B19D0FFF7BAFB01F036FC44
:10189C00786208E001F032FC02467B6AD31A022B14
:1018AC0001D903234DE2FFF7C9FB0346002BF1D00E
:1018BC007B681B691846FFF7D3FB13E0FFF7AFFB00
:1018CC0001F01CFC786208E001F018FC02467B6A0F
:1018DC00D31A022B01D9032333E2FFF7AFFB0346E4
:1018EC00002BF1D17B681B6803F00803002B06D199
:1018FC007B681B6803F01003002B00F0A3807B684F
:10190C005B69002B76D07B681B6803F01003002BFF
:10191C0046D0FFF766FC0346002B13D1FFF73FFCC4
:10192C0001F0ECFB786208E001F0E8FB02467B6A10
:10193C00D31A022B01D9032303E2FFF752FC03460F
:10194C00002BF1D0FFF75FFC01F0D8FB786208E0C8
:10195C0001F0D4FB02467B6AD31A032B01D9032373
:10196C00EFE1FFF772FC0346002BF1D07B689B691B
:10197C001846FFF77CFCFFF723FC01F0BFFB7862F5
:10198C0008E001F0BBFB02467B6AD31A022B01D99B
:10199C000323D6E1FFF725FC0346002BF1D151E0E0
:1019AC00FFF7FDFB01F0AAFB78620CE008000020B9
:1019BC000C00002001F0A2FB02467B6AD31A022B1A
:1019CC0001D90323BDE1FFF70CFC0346002BF1D03A
:1019DC00FFF72AFC08E001F091FB02467B6AD31A60
:1019EC00032B01D90323ACE1FFF72FFC0346002B9B
:1019FC00F1D127E0FFF718FC01F080FB786208E0DA
:101A0C0001F07CFB02467B6AD31A032B01D903231A
:101A1C0097E1FFF71AFC0346002BF1D1FFF7D0FB3F
:101A2C0001F06CFB786208E001F068FB02467B6A0F
:101A3C00D31A022B01D9032383E1FFF7D2FB034610
:101A4C00002BF1D17B681B6803F00403002B5BD0E7
:101A5C00A74B1B6803F48073002B14D101F0DEF943
:101A6C0001F04CFB786208E001F048FB02467B6A0F
:101A7C00D31A022B01D9032363E19D4B1B6803F49A
:101A8C008073002BF0D07B689B68012B02D1FFF791
:101A9C0030FB0CE07B689B68052B04D1FFF74BFBFC
:101AAC00FFF727FB03E0FFF735FBFFF755FB7B68E0
:101ABC009B68002B14D001F021FB78620AE001F046
:101ACC001DFB02467B6AD31A41F28832934201D93C
:101ADC00032336E1FFF751FB0346002BEFD013E055
:101AEC0001F00CFB78620AE001F008FB02467B6A0D
:101AFC00D31A41F28832934201D9032321E1FFF733
:101B0C003CFB0346002BEFD17B681B6803F04003C2
:101B1C00002B2CD07B689B6A002B14D0FFF7B5FAF6
:101B2C0001F0ECFA786208E001F0E8FA02467B6A10
:101B3C00D31A022B01D9032303E1FFF7C8FA03469A
:101B4C00002BF1D013E0FFF7B1FA01F0D7FA78626D
:101B5C0008E001F0D3FA02467B6AD31A022B01D9B2
:101B6C000323EEE0FFF7B3FA0346002BF1D17B68B9
:101B7C00DB6A002B00F0E480FFF711FC38614FF0BA
:101B8C00B043DB68FB607B68DB6A022B40F0B480FF
:101B9C00FB6803F003027B681B6B9A4223D1FB6842
:101BAC0003F070027B685B6B9A421CD1FB681B0ACA
:101BBC0003F07F027B689B6B9A4214D1FB6803F4A1
:101BCC0078127B68DB6B9A420DD1FB6803F0606284
:101BDC007B681B6C9A4206D1FB6803F060427B6801
:101BEC005B6C9A425DD03B690C2B58D04FF0B043E4
:101BFC001B6803F08063002B01D00123A1E0FFF7E9
:101C0C0084FC01F07BFA786208E001F077FA024676
:101C1C007B6AD31A022B01D9032392E04FF0B04315
:101C2C001B6803F00073002BEFD14FF0B043DA6860
:101C3C00304B13407A68116B7A68526B11437A6897
:101C4C00926B120211437A68D26B11437A68126C50
:101C5C0011437A68526C0A434FF0B0411343CB6086
:101C6C00FFF744FC4FF0B043DB684FF0B04243F059
:101C7C008053D36001F042FA786208E001F03EFA3A
:101C8C0002467B6AD31A022B01D9032359E04FF089
:101C9C00B0431B6803F00073002BEFD050E001231E
:101CAC004FE04FF0B0431B6803F00073002B47D19B
:101CBC00FFF71CFC4FF0B043DB684FF0B04243F031
:101CCC008053D36001F01AFA786208E001F016FA3A
:101CDC0002467B6AD31A022B01D9032331E04FF061
:101CEC00B0431B6803F00073002BEFD028E000BF5B
:101CFC00000400588C80C1113B690C2B1ED0FFF7DF
:101D0C0004FC01F0FBF9786208E001F0F7F90246F7
:101D1C007B6AD31A022B01D9032312E04FF0B04394
:101D2C001B6803F00073002BEFD14FF0B043DA685F
:101D3C004FF0B041054B1340CB6001E0012300E0B4
:101D4C00002318463437BD4690BD00BFFCFFFEEEA5
:101D5C0080B584B000AF786039607B68002B01D10E
:101D6C0001232DE1984B1B6803F007033A689A4254
:101D7C001BD9954B1B6823F0070293493B6813430F
:101D8C000B6001F0BBF9F86008E001F0B7F902460E
:101D9C00FB68D31A022B01D9032311E18A4B1B6870
:101DAC0003F007033A689A42EFD17B681B6803F093
:101DBC000203002B16D07B689B681846FFF7FBFAD2
:101DCC0001F09CF9F86008E001F098F90246FB6814
:101DDC00D31A022B01D90323F2E0FFF7E8FB0346E9
:101DEC00002BF1D07B681B6803F02003002B16D06E
:101DFC007B685B691846FFF7F2FA01F07FF9F8602F
:101E0C0008E001F07BF90246FB68D31A022B01D9DA
:101E1C000323D5E0FFF7DDFB0346002BF1D07B68F5
:101E2C001B6803F04003002B16D07B689B69184697
:101E3C00FFF7EBFA01F062F9F86008E001F05EF9E7
:101E4C000246FB68D31A022B01D90323B8E0FFF733
:101E5C00D3FB0346002BF1D07B681B6803F0040313
:101E6C00002B16D07B68DB681846FFF7E5FA01F00B
:101E7C0045F9F86008E001F041F90246FB68D31A15
:101E8C00022B01D903239BE0FFF7C9FB0346002B70
:101E9C00F1D07B681B6803F00803002B17D07B681C
:101EAC001B69DB001846FFF7DBFA01F027F9F86035
:101EBC0008E001F023F90246FB68D31A022B01D982
:101ECC0003237DE0FFF7BDFB0346002BF1D07B68BD
:101EDC001B6803F00103002B43D07B685B68022B6B
:101EEC0006D1FFF77BF80346002B1ED1012367E0D8
:101EFC007B685B68032B06D1FFF716FB0346002BB0
:101F0C0013D101235CE07B685B68002B06D1FFF7E3
:101F1C00E3F90346002B08D1012351E0FFF78EF8BB
:101F2C000346002B01D101234AE07B685B6818460D
:101F3C00FFF721FA01F0E2F8F8600AE001F0DEF8B0
:101F4C000246FB68D31A41F28832934201D903232B
:101F5C0036E0FFF724FA02467B685B689B009A42E6
:101F6C00ECD1194B1B6803F007033A689A421BD259
:101F7C00154B1B6823F0070213493B6813430B6096
:101F8C0001F0BCF8F86008E001F0B8F80246FB6814
:101F9C00D31A022B01D9032312E00B4B1B6803F05D
:101FAC0007033A689A42EFD100F07EF80346074ADD
:101FBC00136001F0AFF80346184601F051F80346E0
:101FCC0018461037BD4680BD004000580800002060
:101FDC0090B585B000AFFFF7E2F978607B68002B15
:101FEC000AD1FFF79EF903461B0903F00F032B4A96
:101FFC0052F82330FB604BE07B68042B02D1284B5A
:10200C00FB6045E07B68082B0AD1FEF7B7FF03465F
:10201C00012B02D1224BFB603AE0224BFB6037E0F4
:10202C00FFF7B9FA38603B68022B03D03B68032BEF
:10203C0003D00DE01A4BBB6015E0FEF79FFF034683
:10204C00012B02D1164BBB600DE0164BBB600AE0B6
:10205C00FFF767F903461B0903F00F030F4A52F809
:10206C002330BB6000BFFFF771FA0246BB6803FB6D
:10207C0002F4FFF784FA03461B090133B4FBF3F4B3
:10208C00FFF771FA03465B0F0133B4FBF3F3FB600C
:10209C00FB6818461437BD4690BD00BF983C00083D
:1020AC000024F4000048E80198B500AFFFF790FF5A
:1020BC000446FFF7E9F903461B0903F00F03034A33
:1020CC0052F82330B4FBF3F3184698BD383C0008A3
:1020DC0098B500AFFFF7E8FF0446FFF7EFF90346AA
:1020EC001B0A03F00703044A52F8233003F01F03C2
:1020FC0024FA03F3184698BD783C000898B500AF55
:10210C00FFF7D2FF0446FFF7E5F90346DB0A03F0BD
:10211C000703044A52F8233003F01F0324FA03F395
:10212C00184698BD783C000890B585B000AF786033
:10213C007B68B02B03D9154BDB6AFB6007E07B682F
:10214C001B0903F00F03114A52F82330FB60FFF711
:10215C00A7F903461B0903F00F030D4A52F823306D
:10216C00FA68B2FBF3F3BB60BB680A4AA2FB032319
:10217C009C0C00F063FE03461946204600F00CF858
:10218C00034618461437BD4690BD00BF983C000866
:10219C00383C000883DE1B4390B593B000AF7860E9
:1021AC003960374B07F128040FCB84E80F00354A10
:1021BC0007F11C0307CA83E80700334B07F10C0433
:1021CC000FCB84E80F0000237B643B68B3F5007FE2
:1021DC001AD100233B6413E03B6C9B0048333B4417
:1021EC0053F8203C7A689A4207D83B6C9B004833E2
:1021FC003B4453F83C3C7B6420E03B6C01333B6438
:10220C003B6C032BE8D919E00023FB6313E0FB6B59
:10221C009B0048333B4453F82C3C7A689A4207D8CD
:10222C00FB6B9B0048333B4453F83C3C7B6405E020
:10223C00FB6B0133FB63FB6B022BE8D9134B1B6865
:10224C0023F0070211497B6C13430B6000F056FF1F
:10225C00B86308E000F052FF0246BB6BD31A022BA6
:10226C0001D9032307E0094B1B6803F007037A6CC1
:10227C009A42EFD1002318464C37BD4690BD00BFA3
:10228C00FC3B00080C3C0008183C000800400058BF
:10229C0080B400AF4FF0B043D3F8903003F001039B
:1022AC00012B01D1012300E000231846BD465DF847
:1022BC00047B704780B400AF4FF0B043D3F890303C
:1022CC0003F00203022B01D1012300E00023184686
:1022DC00BD465DF8047B704780B483B000AF786076
:1022EC004FF0B043D3F8943023F440424FF0B04158
:1022FC007B681343C1F8943000BF0C37BD465DF8C2
:10230C00047B704780B483B000AF78604FF0B0436B
:10231C005B6A23F003024FF0B0417B6813434B62BE
:10232C0000BF0C37BD465DF8047B704780B483B0AA
:10233C0000AF78604FF0B0435B6A23F030024FF08F
:10234C00B0417B6813434B6200BF0C37BD465DF850
:10235C00047B704780B483B000AF78604FF0B0431B
:10236C00D3F8883023F003024FF0B0417B6813435D
:10237C00C1F8883000BF0C37BD465DF8047B704750
:10238C0080B483B000AF78604FF0B043D3F888309E
:10239C0023F440624FF0B0417B681343C1F888309E
:1023AC0000BF0C37BD465DF8047B704780B483B02A
:1023BC0000AF78604FF0B043D3F888207B681B09DE
:1023CC0003F47F23DB431A407B681B0103F47F2358
:1023DC004FF0B0411343C1F8883000BF0C37BD46F5
:1023EC005DF8047B704780B483B000AF78604FF029
:1023FC00B043D3F888207B681B0C1B04DB431A40CA
:10240C007B681B044FF0B0411343C1F8883000BF08
:10241C000C37BD465DF8047B704780B483B000AFC9
:10242C0078604FF0B043D3F8883023F440024FF07B
:10243C00B0417B681343C1F8883000BF0C37BD46F0
:10244C005DF8047B704780B483B000AF78604FF0C8
:10245C00B043D3F8883023F040424FF0B0417B6852
:10246C001343C1F8883000BF0C37BD465DF8047BC0
:10247C00704780B483B000AF78604FF0B043D3F8AE
:10248C00883023F040624FF0B0417B681343C1F8B1
:10249C00883000BF0C37BD465DF8047B704780B5B3
:1024AC0082B000AF78607868FFF7E3FF00BF0837B1
:1024BC00BD4680BD80B483B000AF78604FF0B043B0
:1024CC00D3F8883023F040524FF0B0417B6813436F
:1024DC00C1F8883000BF0C37BD465DF8047B7047EF
:1024EC0080B483B000AF78604FF0B043D3F8903035
:1024FC0023F440724FF0B0417B681343C1F8903025
:10250C0000BF0C37BD465DF8047B704780B400AF4C
:10251C004FF0B043D3F8903003F440731846BD46E7
:10252C005DF8047B704780B400AF4FF0B043D3F834
:10253C0090304FF0B04243F48033C2F8903000BF7B
:10254C00BD465DF8047B704780B400AF4FF0B043DC
:10255C00D3F890304FF0B04223F48033C2F890306F
:10256C0000BFBD465DF8047B704780B400AF4FF0F0
:10257C00B0431B684FF0B04243F08063136000BF60
:10258C00BD465DF8047B704780B400AF4FF0B0439C
:10259C001B684FF0B04223F08063136000BFBD4650
:1025AC005DF8047B704780B400AF4FF0B0431B68FC
:1025BC0003F00063B3F1006F01D1012300E00023AD
:1025CC001846BD465DF8047B704780B588B000AFF7
:1025DC0078600023FB770023BB777B681B6803F0D4
:1025EC004003002B34D07B681B6BB3F5400F21D01C
:1025FC00B3F5400F1BD8B3F5000F1DD0B3F5000F8A
:10260C0015D8002B0BD0B3F5800F10D14FF0B04381
:10261C00DB684FF0B04243F48033D3600DE07B684D
:10262C000433184600F047F90346FB7705E0012315
:10263C00FB7702E000BF00E000BFFB7F002B05D161
:10264C007B681B6B1846FFF7E8FE01E0FB7FBB774E
:10265C007B681B6803F40063002B46D0FFF756FF22
:10266C00B8617B681B6CBA699A423CD000F0D6FB0F
:10267C00BB69002B05D17B681B6C1846FFF730FF3C
:10268C002EE04FF0B043D3F890307B61FFF74BFF57
:10269C00FFF75AFF7B6923F440727B681B6C134372
:1026AC007B614FF0B0427B69C2F89030FFF7F0FDD0
:1026BC000346012B14D100F021FD38610BE000F032
:1026CC001DFD02463B69D31A41F28832934202D96E
:1026DC000323FB7704E0FFF7EDFD0346012BEED15E
:1026EC00FB7FBB7701E0FB7FBB777B681B6803F04C
:1026FC000103002B04D07B689B691846FFF72AFE68
:10270C007B681B6803F00203002B04D07B68DB6939
:10271C001846FFF735FE7B681B6803F01003002B8F
:10272C0004D07B689B6A1846FFF75DFE7B681B68CC
:10273C0003F02003002B04D07B68DB6A1846FFF7FC
:10274C0052FE7B681B6803F00403002B04D07B68EB
:10275C001B6A1846FFF72AFE7B681B6803F0080308
:10276C00002B04D07B685B6A1846FFF71FFE7B6862
:10277C001B6803F48073002B22D07B685B6B1846BC
:10278C00FFF78DFE7B685B6BB3F1006F07D14FF0E9
:10279C00B043DB684FF0B04243F08073D3607B688A
:1027AC005B6BB3F1806F0BD17B680433184600F080
:1027BC00DDF80346FB77FB7F002B01D0FB7FBB775B
:1027CC007B681B6803F40073002B2BD07B689B6B1E
:1027DC00B3F1804F08D07B689B6BB3F1004F03D0F3
:1027EC007B689B6B002B05D17B689B6B1846FFF7B6
:1027FC002AFE0AE07B689B6B23F08053FB60002071
:10280C00FFF721FEF868FFF734FE7B689B6BB3F192
:10281C00C05F07D14FF0B043DB684FF0B04243F0DC
:10282C008073D3607B681B6803F48063002B22D019
:10283C007B68DB6B1846FFF73DFE7B68DB6BB3F107
:10284C00005F07D14FF0B043DB684FF0B04243F468
:10285C008033D3607B68DB6BB3F1805F0BD17B681B
:10286C000433184600F0DDF80346FB77FB7F002BA2
:10287C0001D0FB7FBB777B681B6803F48053002B74
:10288C0004D07B685B6C1846FFF726FD7B681B68E1
:10289C0003F40053002B09D07B68DB6C1846FFF760
:1028AC0045FD7B689B6C1846FFF72CFDBB7F1846DB
:1028BC002037BD4680BD80B584B000AF7860002362
:1028CC00FB73FFF761FE00F019FCB86009E000F043
:1028DC0015FC0246BB68D31A022B02D90323FB73E7
:1028EC0004E0FFF760FE0346002BF0D1FB7B002BCE
:1028FC0037D14FF0B0431B6923F4FE427B681B6851
:10290C001B024FF0B04113430B614FF0B0431B69F6
:10291C0023F478127B685B684FF0B04113430B6172
:10292C00FFF723FE00F0EAFBB86009E000F0E6FBDD
:10293C000246BB68D31A022B02D90323FB7304E0B3
:10294C00FFF731FE0346012BF0D1FB7B002B08D1A6
:10295C004FF0B0431A697B681B694FF0B0411343C9
:10296C000B61FB7B18461037BD4680BD80B584B02B
:10297C0000AF78600023FB73FFF706FE00F0BEFB90
:10298C00B86009E000F0BAFB0246BB68D31A022B10
:10299C0002D90323FB7304E0FFF705FE0346002B6B
:1029AC00F0D1FB7B002B37D14FF0B0431B6923F4E4
:1029BC00FE427B681B681B024FF0B04113430B6156
:1029CC004FF0B0431B6923F060627B689B684FF04B
:1029DC00B04113430B61FFF7C8FD00F08FFBB860EB
:1029EC0009E000F08BFB0246BB68D31A022B02D91C
:1029FC000323FB7304E0FFF7D6FD0346012BF0D154
:102A0C00FB7B002B08D14FF0B0431A697B681B6924
:102A1C004FF0B04113430B61FB7B18461037BD469A
:102A2C0080BD80B584B000AF78600023FB73FFF7E6
:102A3C00ABFD00F063FBB86009E000F05FFB024601
:102A4C00BB68D31A022B02D90323FB7304E0FFF7F4
:102A5C00AAFD0346002BF0D1FB7B002B37D14FF0A6
:102A6C00B0431B6923F4FE427B681B681B024FF0CA
:102A7C00B04113430B614FF0B0431B6923F060422C
:102A8C007B68DB684FF0B04113430B61FFF76DFDC2
:102A9C0000F034FBB86009E000F030FB0246BB6884
:102AAC00D31A022B02D90323FB7304E0FFF77BFD3F
:102ABC000346012BF0D1FB7B002B08D14FF0B04328
:102ACC001A697B681B694FF0B04113430B61FB7BA8
:102ADC0018461037BD4680BD80B487B000AF786013
:102AEC00396000237B614CE13B681A6801217B69EA
:102AFC0001FA03F31340FB60FB68002B00F03E81EE
:102B0C003B685B6803F00303012B05D03B685B68F3
:102B1C0003F00303022B30D17B689B683B617B691C
:102B2C005B00032202FA03F3DB433A6913403B6177
:102B3C003B68DA687B695B0002FA03F33A6913437A
:102B4C003B617B683A699A607B685B683B610122F8
:102B5C007B6902FA03F3DB433A6913403B613B6840
:102B6C005B681B0903F001027B6902FA03F33A6903
:102B7C0013433B617B683A695A603B685B6803F0BE
:102B8C000303032B17D07B68DB683B617B695B001D
:102B9C00032202FA03F3DB433A6913403B613B68BF
:102BAC009A687B695B0002FA03F33A6913433B6151
:102BBC007B683A69DA603B685B6803F00303022BBD
:102BCC0023D17B69DA087B68083253F822303B61E9
:102BDC007B6903F007039B000F2202FA03F3DB432C
:102BEC003A6913403B613B681A697B6903F0070340
:102BFC009B0002FA03F33A6913433B617B69DA08E1
:102C0C007B680832396943F822107B681B683B618A
:102C1C007B695B00032202FA03F3DB433A6913403E
:102C2C003B613B685B6803F003027B695B0002FA63
:102C3C0003F33A6913433B617B683A691A603B685A
:102C4C005B6803F44033002B00F09880544A7B6996
:102C5C009B08023352F823303B617B6903F003037A
:102C6C009B000F2202FA03F3DB433A6913403B61EA
:102C7C007B68B3F1904F19D07B684A4A934213D0CA
:102C8C007B68494A93420DD07B68484A934207D0EF
:102C9C007B68474A934201D1042308E0072306E0EE
:102CAC00032304E0022302E0012300E000237A69FD
:102CBC0002F00302920093403A6913433B61384996
:102CCC007B699B0802333A6941F82320394B1B6816
:102CDC003B61FB68DB433A6913403B613B685B68D3
:102CEC0003F48013002B03D03A69FB6813433B6158
:102CFC00304A3B6913602F4B5B683B61FB68DB43DD
:102D0C003A6913403B613B685B6803F40013002B8A
:102D1C0003D03A69FB6813433B61264A3B69536015
:102D2C00244BD3F880303B61FB68DB433A6913409A
:102D3C003B613B685B6803F48033002B03D03A693A
:102D4C00FB6813433B611B4A3B69C2F88030194B4B
:102D5C00D3F884303B61FB68DB433A6913403B6139
:102D6C003B685B6803F40033002B03D03A69FB68C3
:102D7C0013433B610F4A3B69C2F884307B690133D2
:102D8C007B613B681A687B6922FA03F3002B7FF4A2
:102D9C00ABAE00BF00BF1C37BD465DF8047B70476F
:102DAC00000001400004004800080048000C0048E6
:102DBC00001000480008005880B483B000AF786061
:102DCC000B467B8013467B707B78002B03D07A8874
:102DDC007B689A6102E07A887B689A6200BF0C3744
:102DEC00BD465DF8047B704780B485B000AF786059
:102DFC000B467B807B685B69FB607A88FB681340C1
:102E0C001A04FB68D9437B880B401A437B689A6190
:102E1C0000BF1437BD465DF8047B704780B400AF2B
:102E2C00054B1B68044A43F48073136000BFBD4616
:102E3C005DF8047B704700BF0004005880B400AFFD
:102E4C00044B1B6803F4C0631846BD465DF8047B55
:102E5C00704700BF0004005880B485B000AF7860A4
:102E6C007B6803F00703FB600C4BDB68BB60BA6844
:102E7C004FF6FF031340BB60FB681A02BB68134399
:102E8C0043F0BF6343F40033BB60044ABB68D360B8
:102E9C0000BF1437BD465DF8047B704700ED00E0C1
:102EAC0080B400AF044BDB681B0A03F00703184621
:102EBC00BD465DF8047B704700ED00E080B483B044
:102ECC0000AF03463960FB7197F90730002B0ADB22
:102EDC003B68DAB20C4997F907301201D2B20B44B5
:102EEC0083F800230AE03B68DAB20849FB7903F067
:102EFC000F03043B1201D2B20B441A7600BF0C37FD
:102F0C00BD465DF8047B704700E100E000ED00E099
:102F1C0080B489B000AFF860B9607A60FB6803F0E8
:102F2C000703FB61FB69C3F10703042B28BF0423D0
:102F3C00BB61FB690433062B02D9FB69033B00E040
:102F4C0000237B614FF0FF32BB6902FA03F3DA43D3
:102F5C00BB681A407B699A404FF0FF317B6901FADC
:102F6C0003F3D9437B680B40134318462437BD4603
:102F7C005DF8047B7047000080B582B000AF7860CC
:102F8C007B68013BB3F1807F01D301230FE00A4A38
:102F9C007B68013B53600F214FF0FF30FFF78EFF32
:102FAC00054B00229A60044B07221A600023184636
:102FBC000837BD4680BD00BF10E000E080B582B090
:102FCC0000AF78607868FFF747FF00BF0837BD4651
:102FDC0080BD80B586B000AF0346B9607A60FB73E4
:102FEC00FFF75EFF78617A68B9687869FFF790FF40
:102FFC00024697F90F3011461846FFF75FFF00BFE6
:10300C001837BD4680BD80B582B000AF7860786857
:10301C00FFF7B2FF034618460837BD4680BD0000D7
:10302C0080B582B000AF0023FB710C4B1B680B4AC0
:10303C0043F4807313600320FFF7C0FF0F2000F0F0
:10304C000FF80346002B02D00123FB7101E000F0C6
:10305C0094FBFB7918460837BD4680BD00400058EC
:10306C0080B584B000AF78600023FB73174B1B78DE
:10307C00002B24D0FFF718F80246144B1B78194686
:10308C004FF47A73B3FBF1F3B2FBF3F31846FFF78B
:10309C00BAFF0346002B0FD17B680F2B09D80022F7
:1030AC0079684FF0FF30FFF794FF094A7B68136093
:1030BC0007E00123FB7304E00123FB7301E0012310
:1030CC00FB73FB7B18461037BD4680BD10000020FB
:1030DC000C00002080B400AF064B1B781A46064B40
:1030EC001B681344044A136000BFBD465DF8047BA3
:1030FC00704700BF100000203000002080B400AFEB
:10310C00034B1B681846BD465DF8047B704700BF37
:10311C003000002080B400AF034B1B681846BD463E
:10312C005DF8047B704700BF0C00002080B584B0B4
:10313C0000AF7860FFF7E2FFB8607B68FB60FB686C
:10314C00B3F1FF3F05D00A4B1B781A46FB681344BA
:10315C00FB6000BFFFF7D2FF0246BB68D31AFA68C8
:10316C009A42F7D800BF00BF1037BD4680BD00BFE4
:10317C001000002080B584B000AF78600123FB7391
:10318C007B68002B01D101237AE07B6893F8213016
:10319C00DBB2002B06D17B68002283F820207868F4
:1031AC0000F036FB7B68022283F821207B681B68C9
:1031BC00DB6803F01003102B58D07B681B68CA2205
:1031CC005A627B681B6853225A62786800F082F856
:1031DC000346FB73FB7B002B2CD17B681B689B6825
:1031EC007A68126823F4E00323F0400393607B6851
:1031FC001B6899687B685A687B681B691A437B68F3
:10320C009B691A437B681B680A439A607B681B683E
:10321C007A68D2681A617B681B6819697B689B683D
:10322C001A047B681B680A431A61786800F08AF8F4
:10323C000346FB73FB7B002B13D17B681B68DA6C9A
:10324C007B681B6822F00302DA647B681B68D96C0C
:10325C007B68DA697B685B691A437B681B680A4385
:10326C00DA647B681B68FF225A6201E00023FB735F
:10327C00FB7B002B03D17B68012283F82120FB7B95
:10328C0018461037BD4680BD80B584B000AF78605D
:10329C000023FB607B681B680D4ADA60FFF72EFF8A
:1032AC00F86009E0FFF72AFF0246FB68D31AB3F572
:1032BC007A7F01D9032307E07B681B68DB6803F086
:1032CC002003002BEED0002318461037BD4680BDDE
:1032DC005FFF010080B584B000AF78600023BB6055
:1032EC000023FB737B681B68DB6803F04003002B37
:1032FC0023D17B681B68DA687B681B6842F080020C
:10330C00DA60FFF7FBFEB8600DE0FFF7F7FE024650
:10331C00BB68D31AB3F57A7F05D97B68042283F88E
:10332C0021200123FB737B681B68DB6803F04003DF
:10333C00002B02D1FB7B012BE7D1FB7B184610370E
:10334C00BD4680BD80B584B000AF78600023FB73B0
:10335C007B681B68DA687B681B6822F08002DA6085
:10336C007B681B689B6803F02003002B0BD17868EB
:10337C00FFF78AFF0346002B05D07B68042283F8F5
:10338C0021200123FB73FB7B18461037BD4680BD03
:10339C0080B485B000AF78604FF0B043DA6C4FF07A
:1033AC00B0417B681343CB644FF0B043DA6C7B685D
:1033BC001340FB60FB6800BF1437BD465DF8047B0F
:1033CC007047000080B500AFFFF72AFE00F030F820
:1033DC0000F086F800F016F900F0A0F800F0EAF81A
:1033EC004FF400510F48FFF7FFFC6420FFF79EFEDF
:1033FC004FF480410B48FFF7F7FC6420FFF796FE73
:10340C004FF400410748FFF7EFFC6420FFF78EFEF6
:10341C004FF0FF330F2204490448FCF7D7FF00BFDD
:10342C00DEE700BF00040048283C00083400002000
:10343C0080B59AB000AF07F120034822002118464E
:10344C00FCF7D6FE3B1D00221A605A609A60DA60C7
:10345C001A615A619A61214B1B6823F4C0631F4A9D
:10346C0043F4007313601D4B1B6803F4C0633B6093
:10347C003B680B233B624FF480337B624FF48073C9
:10348C00FB6240233B6305237B630023FB6407F152
:10349C0020031846FEF7E8F80346002B01D000F095
:1034AC00DBF86F237B600223BB600023FB600023EF
:1034BC003B6100237B610023BB610023FB613B1D4F
:1034CC0001211846FEF744FC0346002B01D000F006
:1034DC00C3F800BF6837BD4680BD00BF000400586C
:1034EC0080B594B000AF3B46502200211846FCF743
:1034FC007FFE4FF400533B600023BB641023FB643E
:10350C003B461846FFF761F80346002B01D000F04C
:10351C00A3F800BF5037BD4680BD000080B500AF9A
:10352C00224B234A1A60214B4FF4E1325A601F4B55
:10353C0000229A601D4B0022DA601C4B00221A619B
:10354C001A4B0C225A61194B00229A61174B00221C
:10355C001A62164B00225A62144B00229A62134BC9
:10356C0000225A661148FCF7E1FE0346002B01D0FD
:10357C0000F072F800210D48FDF736FC0346002BD5
:10358C0001D000F069F800210848FDF76BFC0346F8
:10359C00002B01D000F060F80448FDF7ECFB03466B
:1035AC00002B01D000F058F800BF80BD3400002083
:1035BC000080004080B500AF104B114A1A600F4BD1
:1035CC0000225A600D4B7F229A600C4BFF22DA606E
:1035DC000A4B00221A61094B00229A61074B002208
:1035EC00DA61064B00225A610448FFF7C3FD03461B
:1035FC00002B01D000F030F800BF80BDC8000020C7
:10360C000028004080B586B000AF3B1D00221A6038
:10361C005A609A60DA601A610120FFF7B9FE022045
:10362C00FFF7B6FE00224FF460410A48FFF7C4FBD7
:10363C004FF460437B600123BB600023FB600023DD
:10364C003B613B1D19460348FFF746FA00BF18378C
:10365C00BD4680BD0004004880B400AF72B600BF08
:10366C0000BFFDE780B400AF00BFFDE780B400AF42
:10367C0000BFFDE780B400AF00BFFDE780B400AF32
:10368C0000BFFDE780B400AF00BFFDE780B400AF22
:10369C0000BFBD465DF8047B704780B400AF00BF2F
:1036AC00BD465DF8047B704780B400AF00BFBD46DB
:1036BC005DF8047B704780B500AFFFF70BFD00BFD2
:1036CC0080BD80B400AF4FF0B043D3F890304FF0D2
:1036DC00B04243F40043C2F8903000BFBD465DF8E1
:1036EC00047B704780B485B000AF78604FF0B04376
:1036FC00DA6C4FF0B0417B681343CB644FF0B043AE
:10370C00DA6C7B681340FB60FB6800BF1437BD4666
:10371C005DF8047B704780B485B000AF78604FF0E3
:10372C00B0439A6D4FF0B0417B6813438B654FF0FB
:10373C00B0439A6D7B681340FB60FB6800BF143785
:10374C00BD465DF8047B704780B485B000AF7860EF
:10375C004FF0B043DA6D4FF0B0417B681343CB654B
:10376C004FF0B043DA6D7B681340FB60FB6800BF21
:10377C001437BD465DF8047B704780B400AF00BFC2
:10378C00BD465DF8047B704780B59CB000AF786097
:10379C0007F15C0300221A605A609A60DA601A61C1
:1037AC0007F10C03502200211846FCF721FD7B6821
:1037BC001B68164A934224D10223FB600023BB6290
:1037CC0007F10C031846FEF700FF0346002B01D04F
:1037DC00FFF742FF0120FFF7B7FF0120FFF782FF41
:1037EC000C23FB6502233B6600237B660023BB6630
:1037FC000823FB6607F15C0319464FF09040FFF776
:10380C006BF900BF7037BD4680BD00BF0080004023
:10381C0080B596B000AF786007F108035022002104
:10382C001846FCF7E5FC7B681B680F4A934217D1DE
:10383C00FFF7F4FA4FF40063BB604FF40073BB6402
:10384C0007F108031846FEF7C0FE0346002B01D013
:10385C00FFF702FFFFF735FF4FF48060FFF75BFFC8
:10386C0000BF5837BD4680BD00280040D458C45016
:10387C000433C4188C42F9D3704703600430884277
:10388C00FBD370470C488546FCF7DEFC0B480C4913
:10389C000C4A0023FFF7EDFF0B480C490C4A0023A0
:1038AC00FFF7E7FF0B480C490023FFF7E8FFFCF795
:1038BC00A7FCFFF787FDFEE70000032008000020AF
:1038CC0014000020103D000800000320000003201D
:1038DC001C3D000814000020EC000020FEE7000056
:1038EC002DE9F047089D0F4604468C46002B48D125
:1038FC008A42164661D9B2FA82F34BB1C3F1200267
:10390C0001FA03FC20FA02F29E4042EA0C0C9C40A5
:10391C004FEA164EB7B2BCFBFEF1220C0EFB11CCDB
:10392C0042EA0C4201FB07F0904209D9B21801F1AE
:10393C00FF3C80F0EE80904240F2EB800239324442
:10394C00121AA4B2B2FBFEF00EFB102244EA02449F
:10395C0000FB07F7A74209D9341900F1FF3280F0B8
:10396C00DA80A74240F2D7803444023840EA014062
:10397C00E41B00211DB1DC400023C5E90043BDE878
:10398C00F0878B4206D90DB1C5E90001002108462C
:10399C00BDE8F087B3FA83F1002948D1BB4202D3CA
:1039AC00824200F20781841A67EB030201209446DD
:1039BC00002DE4D0C5E9004CE1E7002A00F092802C
:1039CC00B2FA82F3002B40F0A8808A1A4FEA164E06
:1039DC001FFA86FC0121200CB2FBFEF70EFB17220E
:1039EC0040EA02420CFB07F0904207D9B21807F1EB
:1039FC00FF3802D2904200F2E2804746121AA4B27B
:103A0C00B2FBFEF00EFB102244EA02440CFB00FC5D
:103A1C00A44507D9341900F1FF3202D2A44500F2B3
:103A2C00CB801046A4EB0C0440EA0740A2E7C1F19E
:103A3C0020068B4022FA06FC4CEA030C07FA01F430
:103A4C0020FA06F3F7404FEA1C49234300FA01F829
:103A5C001FFA8CFEB7FBF9F01C0C09FB107744EA3B
:103A6C00074400FB0EF7A74202FA01F20AD91CEB3D
:103A7C00040400F1FF3A80F09B80A74240F298804A
:103A8C0002386444E41B9FB2B4FBF9F309FB134402
:103A9C0047EA044403FB0EFEA64509D91CEB0404BB
:103AAC0003F1FF3780F08280A6457FD9023B644446
:103ABC0043EA0040A4EB0E04A0FB02E7BC427346B1
:103ACC00B94663D360D05DB1B8EB030264EB090473
:103ADC0004FA06F622FA01F31E43CC40C5E9006451
:103AEC0000214CE76208480842EAC1710B0C43EA1A
:103AFC0000438AB242EA0342B3FBF6F1E407B44650
:103B0C003746B6461F23B0FBF6F0D21B41EA004104
:103B1C0061E7614614E7104628E7C3F1200120FA5B
:103B2C0001F29E4027FA01F19F403A434FEA164EAC
:103B3C001FFA86FCB1FBFEF70EFB1710110C41EAC5
:103B4C00004107FB0CF8884504FA03F43AD97118C4
:103B5C0007F1FF3001D288451FD8A1EB0801B1FB5A
:103B6C00FEF808FB0CF70EFB181192B242EA014268
:103B7C00BA422FD2B21808F1FF31C6D2BA42C4D21F
:103B8C00A8F102013244C0E7F0459CD2BEEB02031F
:103B9C0067EB0C070138B94695E7A6EB08084144DA
:103BAC00B81EB1FBFEF808FB0CF7DCE73B467FE7E1
:103BBC00504667E70846FBE63444023832E7023FDA
:103BCC0032441BE7A1EB08013846B1FBFEF808FBB9
:103BDC000CF7C8E7414698E7F8B500BFF8BC08BC3D
:103BEC009E467047F8B500BFF8BC08BC9E467047AF
:103BFC00120000002400000036000000400000000D
:103C0C00060000000C000000100000000000000086
:103C1C0001000000020000000300000048656C6C0D
:103C2C006F20576F726C64210D0A000001000000B8
:103C3C00030000000500000001000000010000006E
:103C4C00060000000A000000200000000200000036
:103C5C0004000000080000001000000040000000FC
:103C6C0080000000000100000002000000000000C5
:103C7C000000000000000000000000000100000037
:103C8C00020000000300000004000000A0860100F8
:103C9C00400D0300801A060000350C0040420F0056
:103CAC0080841E0000093D0000127A000024F400FC
:103CBC0000366E010048E801006CDC0200000000D8
:103CCC0000000000000000000000000001000200E5
:103CDC000400060008000A000C0010002000400040
:103CEC008000000101010103070100000804020427
:043CFC0008010101B9
:083D0000ECFBFF7F0100000055
:043D0800D9010008D5
:043D0C00B1010008F9
:0C3D100000093D00100000000100000050
:040000050800389126
:00000001FF
